{
  "contractName": "CandidatesData",
  "abi": [
    {
      "inputs": [],
      "stateMutability": "nonpayable",
      "type": "constructor"
    },
    {
      "inputs": [
        {
          "internalType": "uint256",
          "name": "",
          "type": "uint256"
        }
      ],
      "name": "_candidates",
      "outputs": [
        {
          "internalType": "contract Candidate",
          "name": "",
          "type": "address"
        }
      ],
      "stateMutability": "view",
      "type": "function",
      "constant": true
    },
    {
      "inputs": [],
      "name": "_cands_size",
      "outputs": [
        {
          "internalType": "uint256",
          "name": "",
          "type": "uint256"
        }
      ],
      "stateMutability": "view",
      "type": "function",
      "constant": true
    },
    {
      "inputs": [],
      "name": "getCandidates",
      "outputs": [
        {
          "internalType": "contract Candidate[]",
          "name": "",
          "type": "address[]"
        }
      ],
      "stateMutability": "view",
      "type": "function",
      "constant": true
    },
    {
      "inputs": [
        {
          "internalType": "string",
          "name": "str",
          "type": "string"
        }
      ],
      "name": "stringToBytes1",
      "outputs": [
        {
          "internalType": "bytes1",
          "name": "",
          "type": "bytes1"
        }
      ],
      "stateMutability": "pure",
      "type": "function",
      "constant": true
    },
    {
      "inputs": [
        {
          "internalType": "string",
          "name": "str",
          "type": "string"
        }
      ],
      "name": "stringToBytes8",
      "outputs": [
        {
          "internalType": "bytes8",
          "name": "",
          "type": "bytes8"
        }
      ],
      "stateMutability": "pure",
      "type": "function",
      "constant": true
    },
    {
      "inputs": [
        {
          "internalType": "string",
          "name": "str",
          "type": "string"
        }
      ],
      "name": "stringToBytes12",
      "outputs": [
        {
          "internalType": "bytes12",
          "name": "",
          "type": "bytes12"
        }
      ],
      "stateMutability": "pure",
      "type": "function",
      "constant": true
    },
    {
      "inputs": [
        {
          "internalType": "string",
          "name": "str",
          "type": "string"
        }
      ],
      "name": "stringToBytes16",
      "outputs": [
        {
          "internalType": "bytes16",
          "name": "",
          "type": "bytes16"
        }
      ],
      "stateMutability": "pure",
      "type": "function",
      "constant": true
    },
    {
      "inputs": [
        {
          "internalType": "string",
          "name": "str",
          "type": "string"
        }
      ],
      "name": "stringToBytes32",
      "outputs": [
        {
          "internalType": "bytes32",
          "name": "",
          "type": "bytes32"
        }
      ],
      "stateMutability": "pure",
      "type": "function",
      "constant": true
    }
  ],
  "bytecode": "0x60806040523480156200001157600080fd5b50601b6000819055604080518281526103808101909152906020820161036080368337505081516200004b92600192506020019062003551565b5060006040518061036001604052806040518060400160405280600a81526020017f42696c616c204b68616e0000000000000000000000000000000000000000000081525081526020016040518060400160405280600881526020017f4d61686120416c6900000000000000000000000000000000000000000000000081525081526020016040518060400160405280600981526020017f576171617220416c69000000000000000000000000000000000000000000000081525081526020016040518060400160405280600d81526020017f417965736861204b68616c69640000000000000000000000000000000000000081525081526020016040518060400160405280600c81526020017f41686d65642048617373616e000000000000000000000000000000000000000081525081526020016040518060400160405280600a81526020017f5a6f7961204d616c696b0000000000000000000000000000000000000000000081525081526020016040518060400160405280600b81526020017f4f6d6172204661726f6f7100000000000000000000000000000000000000000081525081526020016040518060400160405280600b81526020017f4d617279616d204173696600000000000000000000000000000000000000000081525081526020016040518060400160405280600981526020017f55736d616e20416c69000000000000000000000000000000000000000000000081525081526020016040518060400160405280600c81526020017f52756b687361722042696269000000000000000000000000000000000000000081525081526020016040518060400160405280600b81526020017f4e616265656c204b68616e00000000000000000000000000000000000000000081525081526020016040518060400160405280600e81526020017f53616e61756c6c6168204b68616e00000000000000000000000000000000000081525081526020016040518060400160405280600a81526020017f5461736e696d20416c690000000000000000000000000000000000000000000081525081526020016040518060400160405280600a81526020017f53756679616e20416c690000000000000000000000000000000000000000000081525081526020016040518060400160405280600c81526020017f536164696120417368726166000000000000000000000000000000000000000081525081526020016040518060400160405280600b81526020017f536f6861696c2052617a6100000000000000000000000000000000000000000081525081526020016040518060400160405280600881526020017f416e756d20416c6900000000000000000000000000000000000000000000000081525081526020016040518060400160405280600981526020017f516173696d20416c69000000000000000000000000000000000000000000000081525081526020016040518060400160405280600881526020017f48696e6120416c6900000000000000000000000000000000000000000000000081525081526020016040518060400160405280600b81526020017f48617269732041686d656400000000000000000000000000000000000000000081525081526020016040518060400160405280600d81526020017f5368617a69612048617373616e0000000000000000000000000000000000000081525081526020016040518060400160405280600981526020017f536161642052617a61000000000000000000000000000000000000000000000081525081526020016040518060400160405280600c81526020017f417965736861204e6165656d000000000000000000000000000000000000000081525081526020016040518060400160405280600a81526020017f46617268616e20416c690000000000000000000000000000000000000000000081525081526020016040518060400160405280600981526020017f5361696d6120416c69000000000000000000000000000000000000000000000081525081526020016040518060400160405280600a81526020017f496d72616e204b68616e0000000000000000000000000000000000000000000081525081526020016040518060400160405280600e81526020017f5368616862617a20536861726966000000000000000000000000000000000000815250815250905060006040518061036001604052806032815260200160228152602001601581526020016024815260200160298152602001601e8152602001602d815260200160128152602001601a8152602001603a815260200160338152602001602f8152602001601981526020016035815260200160288152602001602c8152602001601581526020016025815260200160208152602001601e8152602001602a8152602001603081526020016017815260200160388152602001601a8152602001604681526020016047815250905060006040518061036001604052806040518060400160405280600181526020017f4d0000000000000000000000000000000000000000000000000000000000000081525081526020016040518060400160405280600181526020017f460000000000000000000000000000000000000000000000000000000000000081525081526020016040518060400160405280600181526020017f4d0000000000000000000000000000000000000000000000000000000000000081525081526020016040518060400160405280600181526020017f460000000000000000000000000000000000000000000000000000000000000081525081526020016040518060400160405280600181526020017f4d0000000000000000000000000000000000000000000000000000000000000081525081526020016040518060400160405280600181526020017f460000000000000000000000000000000000000000000000000000000000000081525081526020016040518060400160405280600181526020017f4d0000000000000000000000000000000000000000000000000000000000000081525081526020016040518060400160405280600181526020017f460000000000000000000000000000000000000000000000000000000000000081525081526020016040518060400160405280600181526020017f4d0000000000000000000000000000000000000000000000000000000000000081525081526020016040518060400160405280600181526020017f460000000000000000000000000000000000000000000000000000000000000081525081526020016040518060400160405280600181526020017f4d0000000000000000000000000000000000000000000000000000000000000081525081526020016040518060400160405280600181526020017f4d0000000000000000000000000000000000000000000000000000000000000081525081526020016040518060400160405280600181526020017f460000000000000000000000000000000000000000000000000000000000000081525081526020016040518060400160405280600181526020017f4d0000000000000000000000000000000000000000000000000000000000000081525081526020016040518060400160405280600181526020017f460000000000000000000000000000000000000000000000000000000000000081525081526020016040518060400160405280600181526020017f4d0000000000000000000000000000000000000000000000000000000000000081525081526020016040518060400160405280600181526020017f460000000000000000000000000000000000000000000000000000000000000081525081526020016040518060400160405280600181526020017f4d0000000000000000000000000000000000000000000000000000000000000081525081526020016040518060400160405280600181526020017f460000000000000000000000000000000000000000000000000000000000000081525081526020016040518060400160405280600181526020017f4d0000000000000000000000000000000000000000000000000000000000000081525081526020016040518060400160405280600181526020017f460000000000000000000000000000000000000000000000000000000000000081525081526020016040518060400160405280600181526020017f4d0000000000000000000000000000000000000000000000000000000000000081525081526020016040518060400160405280600181526020017f460000000000000000000000000000000000000000000000000000000000000081525081526020016040518060400160405280600181526020017f4d0000000000000000000000000000000000000000000000000000000000000081525081526020016040518060400160405280600181526020017f460000000000000000000000000000000000000000000000000000000000000081525081526020016040518060400160405280600181526020017f4d0000000000000000000000000000000000000000000000000000000000000081525081526020016040518060400160405280600181526020017f4d00000000000000000000000000000000000000000000000000000000000000815250815250905060006040518061036001604052806040518060400160405280600f81526020017f30383638312d363139343538352d38000000000000000000000000000000000081525081526020016040518060400160405280600f81526020017f38353030302d373937313433392d31000000000000000000000000000000000081525081526020016040518060400160405280600f81526020017f34383030342d373436303030362d36000000000000000000000000000000000081525081526020016040518060400160405280600f81526020017f38373339322d313031333135382d35000000000000000000000000000000000081525081526020016040518060400160405280600f81526020017f34353139302d323635323730322d37000000000000000000000000000000000081525081526020016040518060400160405280600f81526020017f37313231362d333530363936312d34000000000000000000000000000000000081525081526020016040518060400160405280600f81526020017f30373534382d313532383033372d37000000000000000000000000000000000081525081526020016040518060400160405280600f81526020017f34343730322d353331393230352d35000000000000000000000000000000000081525081526020016040518060400160405280600f81526020017f34333134392d333330333530342d33000000000000000000000000000000000081525081526020016040518060400160405280600f81526020017f31313734382d383437373830382d32000000000000000000000000000000000081525081526020016040518060400160405280600f81526020017f39383539302d353638383531332d39000000000000000000000000000000000081525081526020016040518060400160405280600f81526020017f31313031362d333233363837332d30000000000000000000000000000000000081525081526020016040518060400160405280600f81526020017f36363032302d313936323333352d37000000000000000000000000000000000081525081526020016040518060400160405280600f81526020017f38343336372d383137373733382d34000000000000000000000000000000000081525081526020016040518060400160405280600f81526020017f38373738342d393530323632372d34000000000000000000000000000000000081525081526020016040518060400160405280600f81526020017f35343037342d313937353037332d32000000000000000000000000000000000081525081526020016040518060400160405280600f81526020017f39393236342d383832303336332d34000000000000000000000000000000000081525081526020016040518060400160405280600f81526020017f37343236372d373030313631332d30000000000000000000000000000000000081525081526020016040518060400160405280600f81526020017f32363736362d353632393234372d35000000000000000000000000000000000081525081526020016040518060400160405280600f81526020017f30303931312d343638303335302d32000000000000000000000000000000000081525081526020016040518060400160405280600f81526020017f39353336332d363730313833302d31000000000000000000000000000000000081525081526020016040518060400160405280600f81526020017f31323231332d353731383932382d36000000000000000000000000000000000081525081526020016040518060400160405280600f81526020017f33383730382d383332313835332d38000000000000000000000000000000000081525081526020016040518060400160405280600f81526020017f33333435312d303932313632322d36000000000000000000000000000000000081525081526020016040518060400160405280600f81526020017f36313038302d313735333335342d39000000000000000000000000000000000081525081526020016040518060400160405280600f81526020017f33353230322d383934303835352d30000000000000000000000000000000000081525081526020016040518060400160405280600f81526020017f33353230322d383934303835352d310000000000000000000000000000000000815250815250905060006040518061036001604052806040518060400160405280600c81526020017f303332352d36373839303132000000000000000000000000000000000000000081525081526020016040518060400160405280600c81526020017f303332362d37383930313233000000000000000000000000000000000000000081525081526020016040518060400160405280600c81526020017f303332372d38393031323334000000000000000000000000000000000000000081525081526020016040518060400160405280600c81526020017f303332382d39303132333435000000000000000000000000000000000000000081525081526020016040518060400160405280600c81526020017f303332392d30313233343536000000000000000000000000000000000000000081525081526020016040518060400160405280600c81526020017f303333302d31323334353637000000000000000000000000000000000000000081525081526020016040518060400160405280600c81526020017f303333312d32333435363738000000000000000000000000000000000000000081525081526020016040518060400160405280600c81526020017f303333322d33343536373839000000000000000000000000000000000000000081525081526020016040518060400160405280600c81526020017f303333332d34353637383930000000000000000000000000000000000000000081525081526020016040518060400160405280600c81526020017f303333342d35363738393031000000000000000000000000000000000000000081525081526020016040518060400160405280600c81526020017f303333352d36373839303132000000000000000000000000000000000000000081525081526020016040518060400160405280600c81526020017f303333362d37383930313233000000000000000000000000000000000000000081525081526020016040518060400160405280600c81526020017f303333372d38393031323334000000000000000000000000000000000000000081525081526020016040518060400160405280600c81526020017f303333382d39303132333435000000000000000000000000000000000000000081525081526020016040518060400160405280600c81526020017f303333392d30313233343536000000000000000000000000000000000000000081525081526020016040518060400160405280600c81526020017f303334302d31323334353637000000000000000000000000000000000000000081525081526020016040518060400160405280600c81526020017f303334312d32333435363738000000000000000000000000000000000000000081525081526020016040518060400160405280600c81526020017f303334322d33343536373839000000000000000000000000000000000000000081525081526020016040518060400160405280600c81526020017f303334332d34353637383930000000000000000000000000000000000000000081525081526020016040518060400160405280600c81526020017f303334342d35363738393031000000000000000000000000000000000000000081525081526020016040518060400160405280600c81526020017f303334352d36373839303132000000000000000000000000000000000000000081525081526020016040518060400160405280600c81526020017f303334362d37383930313233000000000000000000000000000000000000000081525081526020016040518060400160405280600c81526020017f303334372d38393031323334000000000000000000000000000000000000000081525081526020016040518060400160405280600c81526020017f303334382d39303132333435000000000000000000000000000000000000000081525081526020016040518060400160405280600c81526020017f303334392d30313233343536000000000000000000000000000000000000000081525081526020016040518060400160405280600c81526020017f303332332d35373630323030000000000000000000000000000000000000000081525081526020016040518060400160405280600c81526020017f303332332d353736303230310000000000000000000000000000000000000000815250815250905060006040518061036001604052806040518060400160405280600a81526020017f4261736974204b68616e0000000000000000000000000000000000000000000081525081526020016040518060400160405280600a81526020017f44616e69736820416c690000000000000000000000000000000000000000000081525081526020016040518060400160405280600b81526020017f456873616e2041686d656400000000000000000000000000000000000000000081525081526020016040518060400160405280600c81526020017f46617268616e204d616c696b000000000000000000000000000000000000000081525081526020016040518060400160405280600d81526020017f4768617a616e66617220416c690000000000000000000000000000000000000081525081526020016040518060400160405280600a81526020017f48616d7a61204b68616e0000000000000000000000000000000000000000000081525081526020016040518060400160405280600981526020017f497266616e20416c69000000000000000000000000000000000000000000000081525081526020016040518060400160405280600b81526020017f4a6176656420497162616c00000000000000000000000000000000000000000081525081526020016040518060400160405280600a81526020017f4b617368696620416c690000000000000000000000000000000000000000000081525081526020016040518060400160405280600b81526020017f4c75716d616e204b68616e00000000000000000000000000000000000000000081525081526020016040518060400160405280600a81526020017f4d6f6873696e20416c690000000000000000000000000000000000000000000081525081526020016040518060400160405280600c81526020017f4e616465656d2041686d6564000000000000000000000000000000000000000081525081526020016040518060400160405280600a81526020017f4f77616973204b68616e0000000000000000000000000000000000000000000081525081526020016040518060400160405280600a81526020017f51616973617220416c690000000000000000000000000000000000000000000081525081526020016040518060400160405280600b81526020017f52616865656c204b68616e00000000000000000000000000000000000000000081525081526020016040518060400160405280600e81526020017f53616c6d616e204875737361696e00000000000000000000000000000000000081525081526020016040518060400160405280600981526020017f546168697220416c69000000000000000000000000000000000000000000000081525081526020016040518060400160405280600981526020017f556d65722053686168000000000000000000000000000000000000000000000081525081526020016040518060400160405280600981526020017f5669636b7920416c69000000000000000000000000000000000000000000000081525081526020016040518060400160405280600981526020017f576171617320416c69000000000000000000000000000000000000000000000081525081526020016040518060400160405280600b81526020017f587562616972204b68616e00000000000000000000000000000000000000000081525081526020016040518060400160405280600b81526020017f59617369722041686d656400000000000000000000000000000000000000000081525081526020016040518060400160405280600981526020017f5a6168696420416c69000000000000000000000000000000000000000000000081525081526020016040518060400160405280600881526020017f416c692052617a6100000000000000000000000000000000000000000000000081525081526020016040518060400160405280600a81526020017f4261626172204b68616e0000000000000000000000000000000000000000000081525081526020016040518060400160405280600f81526020017f496b72616d756c6c6168204b68616e000000000000000000000000000000000081525081526020016040518060400160405280600f81526020017f4d7568616d6d6164205368617269660000000000000000000000000000000000815250815250905060006040518061036001604052806040518060400160405280600681526020017f70312d416464000000000000000000000000000000000000000000000000000081525081526020016040518060400160405280600681526020017f70322d416464000000000000000000000000000000000000000000000000000081525081526020016040518060400160405280600681526020017f70332d416464000000000000000000000000000000000000000000000000000081525081526020016040518060400160405280600681526020017f70342d416464000000000000000000000000000000000000000000000000000081525081526020016040518060400160405280600681526020017f70352d416464000000000000000000000000000000000000000000000000000081525081526020016040518060400160405280600681526020017f70362d416464000000000000000000000000000000000000000000000000000081525081526020016040518060400160405280600681526020017f70372d416464000000000000000000000000000000000000000000000000000081525081526020016040518060400160405280600681526020017f70382d416464000000000000000000000000000000000000000000000000000081525081526020016040518060400160405280600681526020017f70392d416464000000000000000000000000000000000000000000000000000081525081526020016040518060400160405280600781526020017f7031302d4164640000000000000000000000000000000000000000000000000081525081526020016040518060400160405280600781526020017f7031312d4164640000000000000000000000000000000000000000000000000081525081526020016040518060400160405280600781526020017f7031322d4164640000000000000000000000000000000000000000000000000081525081526020016040518060400160405280600781526020017f7031332d4164640000000000000000000000000000000000000000000000000081525081526020016040518060400160405280600781526020017f7031342d4164640000000000000000000000000000000000000000000000000081525081526020016040518060400160405280600781526020017f7031352d4164640000000000000000000000000000000000000000000000000081525081526020016040518060400160405280600781526020017f7031362d4164640000000000000000000000000000000000000000000000000081525081526020016040518060400160405280600781526020017f7031372d4164640000000000000000000000000000000000000000000000000081525081526020016040518060400160405280600781526020017f7031382d4164640000000000000000000000000000000000000000000000000081525081526020016040518060400160405280600781526020017f7031392d4164640000000000000000000000000000000000000000000000000081525081526020016040518060400160405280600781526020017f7032302d4164640000000000000000000000000000000000000000000000000081525081526020016040518060400160405280600781526020017f7032312d4164640000000000000000000000000000000000000000000000000081525081526020016040518060400160405280600781526020017f7032322d4164640000000000000000000000000000000000000000000000000081525081526020016040518060400160405280600781526020017f7032332d4164640000000000000000000000000000000000000000000000000081525081526020016040518060400160405280600781526020017f7032342d4164640000000000000000000000000000000000000000000000000081525081526020016040518060400160405280600781526020017f7032352d4164640000000000000000000000000000000000000000000000000081525081526020016040518060400160405280600781526020017f7032362d4164640000000000000000000000000000000000000000000000000081525081526020016040518060400160405280600781526020017f7032372d41646400000000000000000000000000000000000000000000000000815250815250905060006040518061036001604052806040518060400160405280600681526020017f6c312d416464000000000000000000000000000000000000000000000000000081525081526020016040518060400160405280600681526020017f6c322d416464000000000000000000000000000000000000000000000000000081525081526020016040518060400160405280600681526020017f6c332d416464000000000000000000000000000000000000000000000000000081525081526020016040518060400160405280600681526020017f6c342d416464000000000000000000000000000000000000000000000000000081525081526020016040518060400160405280600681526020017f6c352d416464000000000000000000000000000000000000000000000000000081525081526020016040518060400160405280600681526020017f6c362d416464000000000000000000000000000000000000000000000000000081525081526020016040518060400160405280600681526020017f6c372d416464000000000000000000000000000000000000000000000000000081525081526020016040518060400160405280600681526020017f6c382d416464000000000000000000000000000000000000000000000000000081525081526020016040518060400160405280600681526020017f6c392d416464000000000000000000000000000000000000000000000000000081525081526020016040518060400160405280600781526020017f6c31302d4164640000000000000000000000000000000000000000000000000081525081526020016040518060400160405280600781526020017f6c31312d4164640000000000000000000000000000000000000000000000000081525081526020016040518060400160405280600781526020017f6c31322d4164640000000000000000000000000000000000000000000000000081525081526020016040518060400160405280600781526020017f6c31332d4164640000000000000000000000000000000000000000000000000081525081526020016040518060400160405280600781526020017f6c31342d4164640000000000000000000000000000000000000000000000000081525081526020016040518060400160405280600781526020017f6c31352d4164640000000000000000000000000000000000000000000000000081525081526020016040518060400160405280600781526020017f6c31362d4164640000000000000000000000000000000000000000000000000081525081526020016040518060400160405280600781526020017f6c31372d4164640000000000000000000000000000000000000000000000000081525081526020016040518060400160405280600781526020017f6c31382d4164640000000000000000000000000000000000000000000000000081525081526020016040518060400160405280600781526020017f6c31392d4164640000000000000000000000000000000000000000000000000081525081526020016040518060400160405280600781526020017f6c32302d4164640000000000000000000000000000000000000000000000000081525081526020016040518060400160405280600781526020017f6c32312d4164640000000000000000000000000000000000000000000000000081525081526020016040518060400160405280600781526020017f6c32322d4164640000000000000000000000000000000000000000000000000081525081526020016040518060400160405280600781526020017f6c32332d4164640000000000000000000000000000000000000000000000000081525081526020016040518060400160405280600781526020017f6c32342d4164640000000000000000000000000000000000000000000000000081525081526020016040518060400160405280600781526020017f6c32352d4164640000000000000000000000000000000000000000000000000081525081526020016040518060400160405280600781526020017f6c32362d4164640000000000000000000000000000000000000000000000000081525081526020016040518060400160405280600781526020017f6c32372d41646400000000000000000000000000000000000000000000000000815250815250905060006040518061036001604052806040518060400160405280600681526020017f50756e6a6162000000000000000000000000000000000000000000000000000081525081526020016040518060400160405280600681526020017f50756e6a6162000000000000000000000000000000000000000000000000000081525081526020016040518060400160405280600681526020017f50756e6a6162000000000000000000000000000000000000000000000000000081525081526020016040518060400160405280600681526020017f50756e6a6162000000000000000000000000000000000000000000000000000081525081526020016040518060400160405280600681526020017f50756e6a6162000000000000000000000000000000000000000000000000000081525081526020016040518060400160405280600681526020017f50756e6a6162000000000000000000000000000000000000000000000000000081525081526020016040518060400160405280600681526020017f50756e6a6162000000000000000000000000000000000000000000000000000081525081526020016040518060400160405280600581526020017f53696e646800000000000000000000000000000000000000000000000000000081525081526020016040518060400160405280600581526020017f53696e646800000000000000000000000000000000000000000000000000000081525081526020016040518060400160405280600581526020017f53696e646800000000000000000000000000000000000000000000000000000081525081526020016040518060400160405280600581526020017f53696e646800000000000000000000000000000000000000000000000000000081525081526020016040518060400160405280600581526020017f53696e646800000000000000000000000000000000000000000000000000000081525081526020016040518060400160405280600581526020017f53696e646800000000000000000000000000000000000000000000000000000081525081526020016040518060400160405280601281526020016000805160206200447283398151915281525081526020016040518060400160405280601281526020016000805160206200447283398151915281525081526020016040518060400160405280601281526020016000805160206200447283398151915281525081526020016040518060400160405280601281526020016000805160206200447283398151915281525081526020016040518060400160405280601281526020016000805160206200447283398151915281525081526020016040518060400160405280601281526020016000805160206200447283398151915281525081526020016040518060400160405280600b81526020017f42616c6f6368697374616e00000000000000000000000000000000000000000081525081526020016040518060400160405280600b81526020017f42616c6f6368697374616e00000000000000000000000000000000000000000081525081526020016040518060400160405280600b81526020017f42616c6f6368697374616e00000000000000000000000000000000000000000081525081526020016040518060400160405280600b81526020017f42616c6f6368697374616e00000000000000000000000000000000000000000081525081526020016040518060400160405280600b81526020017f42616c6f6368697374616e00000000000000000000000000000000000000000081525081526020016040518060400160405280600b81526020017f42616c6f6368697374616e00000000000000000000000000000000000000000081525081526020016040518060400160405280601281526020016000805160206200447283398151915281525081526020016040518060400160405280600681526020017f50756e6a61620000000000000000000000000000000000000000000000000000815250815250905060005b6000548110156200350757620033138a82601b8110620032ff57620032ff620035e0565b602002015164010000000062003517810204565b8982601b8110620033285762003328620035e0565b60200201516200335a8a84601b8110620033465762003346620035e0565b60200201516401000000006200352a810204565b620033878a85601b8110620033735762003373620035e0565b602002015164010000000062003537810204565b620033b48a86601b8110620033a057620033a0620035e0565b602002015164010000000062003544810204565b620033cd8a87601b8110620032ff57620032ff620035e0565b620033e68a88601b8110620032ff57620032ff620035e0565b620033ff8a89601b8110620032ff57620032ff620035e0565b620034188a8a601b8110620032ff57620032ff620035e0565b6040516200342690620035bb565b98895260208901979097527fff0000000000000000000000000000000000000000000000000000000000000090951660408801526001608060020a03199093166060870152600160a060020a0319909116608086015260a085015260c084015260e083015261010082015261012001604051809103906000f080158015620034b2573d6000803e3d6000fd5b5060018281548110620034c957620034c9620035e0565b60009182526020909120018054600160a060020a031916600160a060020a039290921691909117905580620034fe816200360f565b915050620032db565b505050505050505050506200373a565b6000620035248262003650565b92915050565b600062003524826200367a565b60006200352482620036ce565b6000620035248262003704565b828054828255906000526020600020908101928215620035a9579160200282015b82811115620035a95782518254600160a060020a031916600160a060020a0390911617825560209092019160019091019062003572565b50620035b7929150620035c9565b5090565b6108558062003c1d83390190565b5b80821115620035b75760008155600101620035ca565b7f4e487b7100000000000000000000000000000000000000000000000000000000600052603260045260246000fd5b60006001820162003649577f4e487b7100000000000000000000000000000000000000000000000000000000600052601160045260246000fd5b5060010190565b8051602080830151919081101562003674578060200360080260020a600003821691505b50919050565b6000815160208301517fff0000000000000000000000000000000000000000000000000000000000000080821693506001831015620036c657808360010360080260020a820283161693505b505050919050565b805160208201516001608060020a03198082169291906010831015620036c65760109290920360080260020a8202161692915050565b80516020820151600160a060020a0319808216929190600c831015620036c657600c9290920360080260020a8202161692915050565b6104d3806200374a6000396000f3fe608060405234801561001057600080fd5b506004361061007b5760e060020a600035046306a49fce8114610080578063601331871461009e578063648a305a146100ca57806366fe08a4146100f5578063afc0e32414610121578063cfb519281461014d578063d48e0e1c1461016e578063e69fd1c514610177575b600080fd5b6100886101a3565b604051610095919061026c565b60405180910390f35b6100b16100ac3660046102d3565b610205565b6040516001608060020a03199091168152602001610095565b6100dd6100d8366004610383565b610216565b604051600160a060020a039091168152602001610095565b6101086101033660046102d3565b610240565b604051600160f860020a03199091168152602001610095565b61013461012f3660046102d3565b61024b565b604051600160a060020a03199091168152602001610095565b61016061015b3660046102d3565b610256565b604051908152602001610095565b61016060005481565b61018a6101853660046102d3565b610261565b604051600160c060020a03199091168152602001610095565b606060018054806020026020016040519081016040528092919081815260200182805480156101fb57602002820191906000526020600020905b8154600160a060020a031681526001909101906020018083116101dd575b5050505050905090565b60006102108261039c565b92915050565b6001818154811061022657600080fd5b600091825260209091200154600160a060020a0316905081565b6000610210826103d6565b60006102108261040b565b600061021082610440565b600061021082610469565b6020808252825182820181905260009190848201906040850190845b818110156102ad578351600160a060020a031683529284019291840191600101610288565b50909695505050505050565b60e060020a634e487b710260009081526041600452602490fd5b6000602082840312156102e557600080fd5b81356001604060020a03808211156102fc57600080fd5b818401915084601f83011261031057600080fd5b813581811115610322576103226102b9565b604051601f8201601f19908116603f0116810190838211818310171561034a5761034a6102b9565b8160405282815287602084870101111561036357600080fd5b826020860160208301376000928101602001929092525095945050505050565b60006020828403121561039557600080fd5b5035919050565b805160208201516001608060020a031980821692919060108310156103ce57808360100360080260020a820283161693505b505050919050565b80516020820151600160f860020a031980821692919060018310156103ce5760019290920360080260020a8202161692915050565b80516020820151600160a060020a0319808216929190600c8310156103ce57600c9290920360080260020a8202161692915050565b80516020808301519190811015610463578060200360080260020a600003821691505b50919050565b80516020820151600160c060020a031980821692919060088310156103ce57600892830390920260020a820216169291505056fea26469706673582212205214cce7344cb67b8deb63958c648b9b4ab4d851d80584edb1683c97261ab16e64736f6c634300080e0033608060405234801561001057600080fd5b5060405161085538038061085583398101604081905261002f916100f4565b600098909855600196909655600280546001608860020a0319167f0100000000000000000000000000000000000000000000000000000000000000909604610100608860020a031916959095176101007001000000000000000000000000000000009095049490940293909317608860020a60e860020a031916710100000000000000000000000000000000007401000000000000000000000000000000000000000090930492909202919091179092556003919091556004556005556006556101bb565b60008060008060008060008060006101208a8c03121561011357600080fd5b8951985060208a0151975060408a01517fff000000000000000000000000000000000000000000000000000000000000008116811461015157600080fd5b60608b01519097506001608060020a03198116811461016f57600080fd5b60808b0151909650600160a060020a03198116811461018d57600080fd5b8095505060a08a0151935060c08a0151925060e08a015191506101008a015190509295985092959850929598565b61068b806101ca6000396000f3fe608060405234801561001057600080fd5b50600436106100d35760e060020a60003504630b817c3881146100d85780630c5a3232146100f6578063106610dc1461010d578063262a9dff1461018257806333a8c45a1461018b578063354284f2146101bb5780636209cb63146101c45780636bcb1103146101cd57806379caad86146101d65780637a9e867c146101ff5780638ef490ea146102085780639209416a14610211578063977f60831461023d578063bb6e486d14610250578063cca08a091461027e578063cdfef28a146102a1575b600080fd5b6100e06102ab565b6040516100ed9190610525565b60405180910390f35b6100ff60035481565b6040519081526020016100ed565b61018061011b366004610573565b600780546001810182556000919091527fa66cc928b5edb82af9bd49922954155ab7b0942694bea4ce44661d9a8736c688600482040180546001604060020a0360039093166008026101000a928302191660c060020a90930491909102919091179055565b005b6100ff60015481565b6002546101a290608860020a900460a060020a0281565b604051600160a060020a031990911681526020016100ed565b6100ff60085481565b6100ff60065481565b6100ff60045481565b6002546101e69060f860020a0281565b604051600160f860020a031990911681526020016100ed565b6100ff60055481565b6100ff60005481565b61022461021f3660046105a4565b610380565b604051600160c060020a031990911681526020016100ed565b61018061024b3660046105a4565b600855565b600254610265906101009004608060020a0281565b6040516001608060020a031990911681526020016100ed565b61029161028c366004610573565b6103ba565b60405190151581526020016100ed565b6101806000600855565b6007546060906000906001604060020a038111156102cb576102cb6105bd565b6040519080825280602002602001820160405280156102f4578160200160208202803683370190505b50905060005b60075481101561037a5760078181548110610317576103176105d7565b90600052602060002090600491828204019190066008029054906101000a900460c060020a0282828151811061034f5761034f6105d7565b600160c060020a031990921660209283029190910190910152806103728161060b565b9150506102fa565b50919050565b6007818154811061039057600080fd5b9060005260206000209060049182820401919006600802915054906101000a900460c060020a0281565b60008060005b6007548110156104375783600160c060020a031916600782815481106103e8576103e86105d7565b90600052602060002090600491828204019190066008029054906101000a900460c060020a02600160c060020a0319160361042557809150610437565b8061042f8161060b565b9150506103c0565b50600754811061044a5750600092915050565b6007805461045a90600190610624565b8154811061046a5761046a6105d7565b90600052602060002090600491828204019190066008029054906101000a900460c060020a02600782815481106104a3576104a36105d7565b90600052602060002090600491828204019190066008026101000a8154816001604060020a03021916908360c060020a9004021790555060078054806104eb576104eb61063b565b60008281526020902060046000199092019182040180546001604060020a03600860038516026101000a0219169055905550600192915050565b6020808252825182820181905260009190848201906040850190845b81811015610567578351600160c060020a03191683529284019291840191600101610541565b50909695505050505050565b60006020828403121561058557600080fd5b8135600160c060020a03198116811461059d57600080fd5b9392505050565b6000602082840312156105b657600080fd5b5035919050565b60e060020a634e487b710260009081526041600452602490fd5b60e060020a634e487b710260009081526032600452602490fd5b60e060020a634e487b710260009081526011600452602490fd5b60006001820161061d5761061d6105f1565b5060010190565b600082821015610636576106366105f1565b500390565b60e060020a634e487b710260009081526031600452602490fdfea2646970667358221220709d0f93550e7269f99cc0e1d910f7e517737933490929f235d116b79edbafa964736f6c634300080e00334b68796265722050616b6874756e6b6877610000000000000000000000000000",
  "immutableReferences": {},
  "source": "\r\n// SPDX-License-Identifier: MIT\r\npragma solidity >=0.4.22 <0.9.0;\r\nimport \"./CandidateManager.sol\";\r\nimport \"./Candidate.sol\";\r\n\r\ncontract CandidatesData{\r\n    uint public _cands_size;\r\n    Candidate[] public _candidates;\r\n    \r\n    constructor()\r\n    {\r\n        _cands_size = 27;\r\n        _candidates = new Candidate[](_cands_size);\r\n        // string[] memory fullname = new string[](_cands_size);\r\n        string[27] memory fullname = [\"Bilal Khan\",\"Maha Ali\",\"Waqar Ali\",\"Ayesha Khalid\",\"Ahmed Hassan\",\"Zoya Malik\",\"Omar Farooq\",\"Maryam Asif\",\"Usman Ali\",\"Rukhsar Bibi\",\"Nabeel Khan\",\"Sanaullah Khan\",\"Tasnim Ali\",\"Sufyan Ali\",\"Sadia Ashraf\",\"Sohail Raza\",\"Anum Ali\",\"Qasim Ali\",\"Hina Ali\",\"Haris Ahmed\",\"Shazia Hassan\",\"Saad Raza\",\"Ayesha Naeem\",\"Farhan Ali\",\"Saima Ali\", \"Imran Khan\", \"Shahbaz Sharif\"];\r\n        uint256[27] memory age = [uint256(50),34,21,36,41,30,45,18,26,58,51,47,25,53,40,44,21,37,32,30,42,48,23,56,26, 70, 71];\r\n        string[27] memory gender = [\"M\",\"F\",\"M\",\"F\",\"M\",\"F\",\"M\",\"F\",\"M\",\"F\",\"M\",\"M\",\"F\",\"M\",\"F\",\"M\",\"F\",\"M\",\"F\",\"M\",\"F\",\"M\",\"F\",\"M\",\"F\",\"M\", \"M\"];\r\n        string[27] memory cnic = [\"08681-6194585-8\",\"85000-7971439-1\",\"48004-7460006-6\",\"87392-1013158-5\",\"45190-2652702-7\",\"71216-3506961-4\",\"07548-1528037-7\",\"44702-5319205-5\",\"43149-3303504-3\",\"11748-8477808-2\",\"98590-5688513-9\",\"11016-3236873-0\",\"66020-1962335-7\",\"84367-8177738-4\",\"87784-9502627-4\",\"54074-1975073-2\",\"99264-8820363-4\",\"74267-7001613-0\",\"26766-5629247-5\",\"00911-4680350-2\",\"95363-6701830-1\",\"12213-5718928-6\",\"38708-8321853-8\",\"33451-0921622-6\",\"61080-1753354-9\", \"35202-8940855-0\", \"35202-8940855-1\"];\r\n        string[27] memory contact = [\"0325-6789012\",\"0326-7890123\",\"0327-8901234\",\"0328-9012345\",\"0329-0123456\",\"0330-1234567\",\"0331-2345678\",\"0332-3456789\",\"0333-4567890\",\"0334-5678901\",\"0335-6789012\",\"0336-7890123\",\"0337-8901234\",\"0338-9012345\",\"0339-0123456\",\"0340-1234567\",\"0341-2345678\",\"0342-3456789\",\"0343-4567890\",\"0344-5678901\",\"0345-6789012\",\"0346-7890123\",\"0347-8901234\",\"0348-9012345\",\"0349-0123456\", \"0323-5760200\", \"0323-5760201\"];\r\n        string[27] memory fathername = [\"Basit Khan\",\"Danish Ali\",\"Ehsan Ahmed\",\"Farhan Malik\",\"Ghazanfar Ali\",\"Hamza Khan\",\"Irfan Ali\",\"Javed Iqbal\",\"Kashif Ali\",\"Luqman Khan\",\"Mohsin Ali\",\"Nadeem Ahmed\",\"Owais Khan\",\"Qaisar Ali\",\"Raheel Khan\",\"Salman Hussain\",\"Tahir Ali\",\"Umer Shah\",\"Vicky Ali\",\"Waqas Ali\",\"Xubair Khan\",\"Yasir Ahmed\",\"Zahid Ali\",\"Ali Raza\",\"Babar Khan\", \"Ikramullah Khan\", \"Muhammad Sharif\"];\r\n        string[27] memory p_add = [\"p1-Add\",\"p2-Add\",\"p3-Add\",\"p4-Add\",\"p5-Add\",\"p6-Add\",\"p7-Add\",\"p8-Add\",\"p9-Add\",\"p10-Add\",\"p11-Add\",\"p12-Add\",\"p13-Add\",\"p14-Add\",\"p15-Add\",\"p16-Add\",\"p17-Add\",\"p18-Add\",\"p19-Add\",\"p20-Add\",\"p21-Add\",\"p22-Add\",\"p23-Add\",\"p24-Add\",\"p25-Add\", \"p26-Add\", \"p27-Add\"];\r\n        string[27] memory l_add = [\"l1-Add\",\"l2-Add\",\"l3-Add\",\"l4-Add\",\"l5-Add\",\"l6-Add\",\"l7-Add\",\"l8-Add\",\"l9-Add\",\"l10-Add\",\"l11-Add\",\"l12-Add\",\"l13-Add\",\"l14-Add\",\"l15-Add\",\"l16-Add\",\"l17-Add\",\"l18-Add\",\"l19-Add\",\"l20-Add\",\"l21-Add\",\"l22-Add\",\"l23-Add\",\"l24-Add\",\"l25-Add\", \"l26-Add\", \"l27-Add\"];\r\n        string[27] memory province = [\"Punjab\",\"Punjab\",\"Punjab\",\"Punjab\",\"Punjab\",\"Punjab\",\"Punjab\",\"Sindh\",\"Sindh\",\"Sindh\",\"Sindh\",\"Sindh\",\"Sindh\",\"Khyber Pakhtunkhwa\",\"Khyber Pakhtunkhwa\",\"Khyber Pakhtunkhwa\",\"Khyber Pakhtunkhwa\",\"Khyber Pakhtunkhwa\",\"Khyber Pakhtunkhwa\",\"Balochistan\",\"Balochistan\",\"Balochistan\",\"Balochistan\",\"Balochistan\",\"Balochistan\", \"Khyber Pakhtunkhwa\", \"Punjab\"];\r\n        \r\n        // addCandidate(_fullname, _age, _gender, _cnic, _contact, _father_name, _parmanent_add, _local_add, _province);\r\n        for(uint i=0; i< _cands_size;i++){\r\n            _candidates[i] = new Candidate(stringToBytes32(fullname[i]), age[i], stringToBytes1(gender[i]), stringToBytes16(cnic[i]), stringToBytes12(contact[i]), stringToBytes32(fathername[i]),stringToBytes32(p_add[i]),stringToBytes32(l_add[i]),stringToBytes32(province[i]));\r\n        }   \r\n    }\r\n    function getCandidates() public view returns (Candidate[] memory) {\r\n        return _candidates;\r\n    }\r\n\r\n    function stringToBytes1(string memory str) public pure returns (bytes1) {\r\n        return bytes1(bytes(str));\r\n    }\r\n    function stringToBytes8(string memory str) public pure returns (bytes8) {    \r\n        return bytes8(bytes(str));\r\n    }\r\n    \r\n    function stringToBytes12(string memory str) public pure returns (bytes12) {\r\n        return bytes12(bytes(str));\r\n    }\r\n    function stringToBytes16(string memory str) public pure returns (bytes16) {\r\n        return bytes16(bytes(str));\r\n    }\r\n    function stringToBytes32(string memory str) public pure returns (bytes32) {\r\n        return bytes32(bytes(str));\r\n    }\r\n}",
  "sourcePath": "/Users/apple/Computer/Programming/Learning/react-native/FYP/Website/decentralized-voting-system-h3-fyp2-fix/truffle/contracts/CandidatesData.sol",
  "compiler": {
    "name": "solc",
    "version": "0.8.14+commit.80d49f37.Emscripten.clang"
  },
  "schemaVersion": "3.4.13",
  "updatedAt": "2023-06-12T05:49:12.267Z",
  "networkType": "ethereum",
  "devdoc": {
    "kind": "dev",
    "methods": {},
    "version": 1
  },
  "userdoc": {
    "kind": "user",
    "methods": {},
    "version": 1
  }
}