{
  "contractName": "CandidateManager",
  "abi": [
    {
      "inputs": [
        {
          "internalType": "address",
          "name": "_ecpAdd",
          "type": "address"
        },
        {
          "internalType": "address",
          "name": "_cands_data",
          "type": "address"
        }
      ],
      "stateMutability": "nonpayable",
      "type": "constructor"
    },
    {
      "inputs": [
        {
          "internalType": "bytes16",
          "name": "",
          "type": "bytes16"
        }
      ],
      "name": "candidates",
      "outputs": [
        {
          "internalType": "contract Candidate",
          "name": "",
          "type": "address"
        }
      ],
      "stateMutability": "view",
      "type": "function",
      "constant": true
    },
    {
      "inputs": [
        {
          "internalType": "uint256",
          "name": "",
          "type": "uint256"
        }
      ],
      "name": "candidates_cnics",
      "outputs": [
        {
          "internalType": "bytes16",
          "name": "",
          "type": "bytes16"
        }
      ],
      "stateMutability": "view",
      "type": "function",
      "constant": true
    },
    {
      "inputs": [],
      "name": "candidates_count",
      "outputs": [
        {
          "internalType": "uint256",
          "name": "",
          "type": "uint256"
        }
      ],
      "stateMutability": "view",
      "type": "function",
      "constant": true
    },
    {
      "inputs": [
        {
          "internalType": "bytes16",
          "name": "",
          "type": "bytes16"
        }
      ],
      "name": "candidates_indexes",
      "outputs": [
        {
          "internalType": "uint256",
          "name": "",
          "type": "uint256"
        }
      ],
      "stateMutability": "view",
      "type": "function",
      "constant": true
    },
    {
      "inputs": [],
      "name": "cands_data",
      "outputs": [
        {
          "internalType": "contract CandidatesData",
          "name": "",
          "type": "address"
        }
      ],
      "stateMutability": "view",
      "type": "function",
      "constant": true
    },
    {
      "inputs": [],
      "name": "ecp",
      "outputs": [
        {
          "internalType": "contract ECP",
          "name": "",
          "type": "address"
        }
      ],
      "stateMutability": "view",
      "type": "function",
      "constant": true
    },
    {
      "inputs": [
        {
          "internalType": "bytes32",
          "name": "_fullname",
          "type": "bytes32"
        },
        {
          "internalType": "uint256",
          "name": "_age",
          "type": "uint256"
        },
        {
          "internalType": "bytes1",
          "name": "_gender",
          "type": "bytes1"
        },
        {
          "internalType": "bytes16",
          "name": "_cnic",
          "type": "bytes16"
        },
        {
          "internalType": "bytes12",
          "name": "_contact",
          "type": "bytes12"
        },
        {
          "internalType": "bytes32",
          "name": "_father_name",
          "type": "bytes32"
        },
        {
          "internalType": "bytes32",
          "name": "_parmanent_add",
          "type": "bytes32"
        },
        {
          "internalType": "bytes32",
          "name": "_local_add",
          "type": "bytes32"
        },
        {
          "internalType": "bytes32",
          "name": "_province",
          "type": "bytes32"
        }
      ],
      "name": "addCandidate",
      "outputs": [],
      "stateMutability": "nonpayable",
      "type": "function"
    },
    {
      "inputs": [
        {
          "internalType": "contract Candidate",
          "name": "_cand",
          "type": "address"
        }
      ],
      "name": "addCandidate",
      "outputs": [],
      "stateMutability": "nonpayable",
      "type": "function"
    },
    {
      "inputs": [
        {
          "internalType": "contract Candidate[]",
          "name": "_cands",
          "type": "address[]"
        }
      ],
      "name": "addCandidates",
      "outputs": [],
      "stateMutability": "nonpayable",
      "type": "function"
    },
    {
      "inputs": [
        {
          "internalType": "bytes32[]",
          "name": "_fullname",
          "type": "bytes32[]"
        },
        {
          "internalType": "uint256[]",
          "name": "_age",
          "type": "uint256[]"
        },
        {
          "internalType": "bytes1[]",
          "name": "_gender",
          "type": "bytes1[]"
        },
        {
          "internalType": "bytes16[]",
          "name": "_cnic",
          "type": "bytes16[]"
        },
        {
          "internalType": "bytes12[]",
          "name": "_contact",
          "type": "bytes12[]"
        },
        {
          "internalType": "bytes32[]",
          "name": "_father_name",
          "type": "bytes32[]"
        },
        {
          "internalType": "bytes32[]",
          "name": "_parmanent_add",
          "type": "bytes32[]"
        },
        {
          "internalType": "bytes32[]",
          "name": "_local_add",
          "type": "bytes32[]"
        },
        {
          "internalType": "bytes32[]",
          "name": "_province",
          "type": "bytes32[]"
        }
      ],
      "name": "addCandidates",
      "outputs": [],
      "stateMutability": "nonpayable",
      "type": "function"
    },
    {
      "inputs": [
        {
          "internalType": "bytes16",
          "name": "_cnic",
          "type": "bytes16"
        }
      ],
      "name": "removeCandidate",
      "outputs": [],
      "stateMutability": "nonpayable",
      "type": "function"
    },
    {
      "inputs": [
        {
          "internalType": "bytes16[]",
          "name": "_cnics",
          "type": "bytes16[]"
        }
      ],
      "name": "removeCandidates",
      "outputs": [],
      "stateMutability": "nonpayable",
      "type": "function"
    },
    {
      "inputs": [
        {
          "internalType": "uint256",
          "name": "_index",
          "type": "uint256"
        }
      ],
      "name": "getCandidate",
      "outputs": [
        {
          "internalType": "contract Candidate",
          "name": "cand",
          "type": "address"
        }
      ],
      "stateMutability": "view",
      "type": "function",
      "constant": true
    },
    {
      "inputs": [],
      "name": "getCandidates",
      "outputs": [
        {
          "internalType": "contract Candidate[]",
          "name": "",
          "type": "address[]"
        }
      ],
      "stateMutability": "view",
      "type": "function",
      "constant": true
    }
  ],
  "bytecode": "0x60806040523480156200001157600080fd5b5060405162001f5638038062001f56833981016040819052620000349162000441565b60008054600160a060020a03848116600160a060020a0319928316811790935560018054918516919092161790556040517f75a32cd10000000000000000000000000000000000000000000000000000000081523060048201526375a32cd190602401600060405180830381600087803b158015620000b257600080fd5b505af1158015620000c7573d6000803e3d6000fd5b5050505062000178600160009054906101000a9004600160a060020a0316600160a060020a03166306a49fce6040518163ffffffff167c0100000000000000000000000000000000000000000000000000000000028152600401600060405180830381865afa1580156200013f573d6000803e3d6000fd5b505050506040513d6000823e601f3d908101601f19168201604052620001699190810190620004c1565b64010000000062000180810204565b505062000636565b60005b8151811015620001d857620001c3828281518110620001a657620001a662000593565b6020026020010151620001dc640100000000026401000000009004565b80620001cf81620005c2565b91505062000183565b5050565b80600160a060020a031663bb6e486d6040518163ffffffff167c0100000000000000000000000000000000000000000000000000000000028152600401602060405180830381865afa15801562000237573d6000803e3d6000fd5b505050506040513d601f19601f820116820180604052508101906200025d919062000603565b60036000600254815260200190815260200160002060006101000a8154816001608060020a030219169083700100000000000000000000000000000000900402179055506002546004600083600160a060020a031663bb6e486d6040518163ffffffff167c0100000000000000000000000000000000000000000000000000000000028152600401602060405180830381865afa15801562000303573d6000803e3d6000fd5b505050506040513d601f19601f8201168201806040525081019062000329919062000603565b6001608060020a0319166001608060020a031916815260200190815260200160002081905550806005600083600160a060020a031663bb6e486d6040518163ffffffff167c0100000000000000000000000000000000000000000000000000000000028152600401602060405180830381865afa158015620003af573d6000803e3d6000fd5b505050506040513d601f19601f82011682018060405250810190620003d5919062000603565b6001608060020a0319168152602081019190915260400160009081208054600160a060020a031916600160a060020a03939093169290921790915560028054916200042083620005c2565b919050555050565b600160a060020a03811681146200043e57600080fd5b50565b600080604083850312156200045557600080fd5b8251620004628162000428565b6020840151909250620004758162000428565b809150509250929050565b7f4e487b7100000000000000000000000000000000000000000000000000000000600052604160045260246000fd5b8051620004bc8162000428565b919050565b60006020808385031215620004d557600080fd5b825167ffffffffffffffff80821115620004ee57600080fd5b818501915085601f8301126200050357600080fd5b81518181111562000518576200051862000480565b838102604051601f19603f830116810181811085821117156200053f576200053f62000480565b6040529182528482019250838101850191888311156200055e57600080fd5b938501935b8285101562000587576200057785620004af565b8452938501939285019262000563565b98975050505050505050565b7f4e487b7100000000000000000000000000000000000000000000000000000000600052603260045260246000fd5b600060018201620005fc577f4e487b7100000000000000000000000000000000000000000000000000000000600052601160045260246000fd5b5060010190565b6000602082840312156200061657600080fd5b81516001608060020a0319811681146200062f57600080fd5b9392505050565b61191080620006466000396000f3fe60806040523480156200001157600080fd5b5060043610620000cd5760e060020a600035046303011e2e8114620000d257806306a49fce1462000119578063077f52bf14620001325780631f1919b1146200015f57806335b8e8201462000178578063364e3d3414620001c15780633acd75f814620001d85780633ea410b414620001ef5780637ff0e847146200020657806387cfaea91462000238578063b2ec26101462000264578063b36f124a1462000278578063de42c7f3146200028f578063f94c4a5f14620002a6575b600080fd5b620000fb620000e3366004620009c9565b600360205260009081526040902054608060020a0281565b6040516001608060020a031990911681526020015b60405180910390f35b62000123620002b0565b604051620001109190620009e3565b6000546200014690600160a060020a031681565b604051600160a060020a03909116815260200162000110565b620001766200017036600462000a83565b6200038e565b005b6200014662000189366004620009c9565b600090815260036020908152604080832054608060020a026001608060020a03191683526005909152902054600160a060020a031690565b62000176620001d236600462000bf6565b620004bb565b62000176620001e936600462000c4e565b62000508565b620001766200020036600462000c73565b620006fc565b620002296200021736600462000d12565b60046020526000908152604090205481565b60405190815260200162000110565b620001466200024936600462000d12565b600560205260009081526040902054600160a060020a031681565b6001546200014690600160a060020a031681565b620001766200028936600462000e61565b62000745565b62000176620002a036600462000d12565b62000882565b6200022960025481565b606060006002546001604060020a03811115620002d157620002d162000b08565b604051908082528060200260200182016040528015620002fb578160200160208202803683370190505b50905060005b6002548110156200038857600081815260036020908152604080832054608060020a026001608060020a031916835260059091529020548251600160a060020a03909116908390839081106200035b576200035b62000fe1565b600160a060020a0390921660209283029190910190910152806200037f8162001015565b91505062000301565b50919050565b6002805460009081526003602090815260408083208054608060020a8c046001608060020a0319918216179091559354938a1683526004909152908190209190915551899089908990899089908990899089908990620003ee90620009bb565b9889526020890197909752600160f860020a031990951660408801526001608060020a03199093166060870152600160a060020a0319909116608086015260a085015260c084015260e083015261010082015261012001604051809103906000f08015801562000462573d6000803e3d6000fd5b506001608060020a0319871660009081526005602052604081208054600160a060020a031916600160a060020a0393909316929092179091556002805491620004ab8362001015565b9190505550505050505050505050565b60005b81518110156200050457620004ef828281518110620004e157620004e162000fe1565b602002602001015162000882565b80620004fb8162001015565b915050620004be565b5050565b80600160a060020a031663bb6e486d6040518163ffffffff1660e060020a028152600401602060405180830381865afa1580156200054a573d6000803e3d6000fd5b505050506040513d601f19601f8201168201806040525081019062000570919062001031565b60036000600254815260200190815260200160002060006101000a8154816001608060020a030219169083608060020a900402179055506002546004600083600160a060020a031663bb6e486d6040518163ffffffff1660e060020a028152600401602060405180830381865afa158015620005f0573d6000803e3d6000fd5b505050506040513d601f19601f8201168201806040525081019062000616919062001031565b6001608060020a0319166001608060020a031916815260200190815260200160002081905550806005600083600160a060020a031663bb6e486d6040518163ffffffff1660e060020a028152600401602060405180830381865afa15801562000683573d6000803e3d6000fd5b505050506040513d601f19601f82011682018060405250810190620006a9919062001031565b6001608060020a0319168152602081019190915260400160009081208054600160a060020a031916600160a060020a0393909316929092179091556002805491620006f48362001015565b919050555050565b60005b815181101562000504576200073082828151811062000722576200072262000fe1565b602002602001015162000508565b806200073c8162001015565b915050620006ff565b60005b86518110156200087657620008618a82815181106200076b576200076b62000fe1565b60200260200101518a838151811062000788576200078862000fe1565b60200260200101518a8481518110620007a557620007a562000fe1565b60200260200101518a8581518110620007c257620007c262000fe1565b60200260200101518a8681518110620007df57620007df62000fe1565b60200260200101518a8781518110620007fc57620007fc62000fe1565b60200260200101518a888151811062000819576200081962000fe1565b60200260200101518a898151811062000836576200083662000fe1565b60200260200101518a8a8151811062000853576200085362000fe1565b60200260200101516200038e565b806200086d8162001015565b91505062000748565b50505050505050505050565b6001608060020a0319811660009081526005602090815260408083208054600160a060020a03191690556004825280832054808452600392839052908320546002549193608060020a9091029290918290620008e19060019062001051565b815260200190815260200160002060009054906101000a9004608060020a02905060036000600160025462000917919062001051565b8152602080820192909252604090810160009081205486825260038085528383208054608060020a938402939093046001608060020a03199384161790558582168352600490945282822087905585168152908120819055600254620009809060019062001051565b81526020810191909152604001600090812080546001608060020a03191690556002805491620009b0836200106b565b919050555050505050565b610855806200108683390190565b600060208284031215620009dc57600080fd5b5035919050565b6020808252825182820181905260009190848201906040850190845b8181101562000a26578351600160a060020a031683529284019291840191600101620009ff565b50909695505050505050565b8035600160f860020a03198116811462000a4b57600080fd5b919050565b6001608060020a03198116811462000a6757600080fd5b50565b8035600160a060020a03198116811462000a4b57600080fd5b60008060008060008060008060006101208a8c03121562000aa357600080fd5b8935985060208a0135975062000abc60408b0162000a32565b965060608a013562000ace8162000a50565b955062000ade60808b0162000a6a565b989b979a50959894979660a0860135965060c08601359560e0810135955061010001359350915050565b60e060020a634e487b710260009081526041600452602490fd5b604051601f8201601f191681016001604060020a038111828210171562000b4d5762000b4d62000b08565b604052919050565b60006001604060020a0382111562000b715762000b7162000b08565b5060209081020190565b600082601f83011262000b8d57600080fd5b8135602062000ba662000ba08362000b55565b62000b22565b8281529181028401810191818101908684111562000bc357600080fd5b8286015b8481101562000beb57803562000bdd8162000a50565b835291830191830162000bc7565b509695505050505050565b60006020828403121562000c0957600080fd5b81356001604060020a0381111562000c2057600080fd5b62000c2e8482850162000b7b565b949350505050565b8035600160a060020a038116811462000a4b57600080fd5b60006020828403121562000c6157600080fd5b62000c6c8262000c36565b9392505050565b6000602080838503121562000c8757600080fd5b82356001604060020a0381111562000c9e57600080fd5b8301601f8101851362000cb057600080fd5b803562000cc162000ba08262000b55565b8181529083028201830190838101908783111562000cde57600080fd5b928401925b8284101562000d075762000cf78462000c36565b8252928401929084019062000ce3565b979650505050505050565b60006020828403121562000d2557600080fd5b813562000c6c8162000a50565b600082601f83011262000d4457600080fd5b8135602062000d5762000ba08362000b55565b8281529181028401810191818101908684111562000d7457600080fd5b8286015b8481101562000beb578035835291830191830162000d78565b600082601f83011262000da357600080fd5b8135602062000db662000ba08362000b55565b8281529181028401810191818101908684111562000dd357600080fd5b8286015b8481101562000beb5762000deb8162000a32565b835291830191830162000dd7565b600082601f83011262000e0b57600080fd5b8135602062000e1e62000ba08362000b55565b8281529181028401810191818101908684111562000e3b57600080fd5b8286015b8481101562000beb5762000e538162000a6a565b835291830191830162000e3f565b60008060008060008060008060006101208a8c03121562000e8157600080fd5b89356001604060020a038082111562000e9957600080fd5b62000ea78d838e0162000d32565b9a5060208c013591508082111562000ebe57600080fd5b62000ecc8d838e0162000d32565b995060408c013591508082111562000ee357600080fd5b62000ef18d838e0162000d91565b985060608c013591508082111562000f0857600080fd5b62000f168d838e0162000b7b565b975060808c013591508082111562000f2d57600080fd5b62000f3b8d838e0162000df9565b965060a08c013591508082111562000f5257600080fd5b62000f608d838e0162000d32565b955060c08c013591508082111562000f7757600080fd5b62000f858d838e0162000d32565b945060e08c013591508082111562000f9c57600080fd5b62000faa8d838e0162000d32565b93506101008c013591508082111562000fc257600080fd5b5062000fd18c828d0162000d32565b9150509295985092959850929598565b60e060020a634e487b710260009081526032600452602490fd5b60e060020a634e487b710260009081526011600452602490fd5b6000600182016200102a576200102a62000ffb565b5060010190565b6000602082840312156200104457600080fd5b815162000c6c8162000a50565b60008282101562001066576200106662000ffb565b500390565b6000816200107d576200107d62000ffb565b50600019019056fe608060405234801561001057600080fd5b5060405161085538038061085583398101604081905261002f916100f4565b600098909855600196909655600280546001608860020a0319167f0100000000000000000000000000000000000000000000000000000000000000909604610100608860020a031916959095176101007001000000000000000000000000000000009095049490940293909317608860020a60e860020a031916710100000000000000000000000000000000007401000000000000000000000000000000000000000090930492909202919091179092556003919091556004556005556006556101bb565b60008060008060008060008060006101208a8c03121561011357600080fd5b8951985060208a0151975060408a01517fff000000000000000000000000000000000000000000000000000000000000008116811461015157600080fd5b60608b01519097506001608060020a03198116811461016f57600080fd5b60808b0151909650600160a060020a03198116811461018d57600080fd5b8095505060a08a0151935060c08a0151925060e08a015191506101008a015190509295985092959850929598565b61068b806101ca6000396000f3fe608060405234801561001057600080fd5b50600436106100d35760e060020a60003504630b817c3881146100d85780630c5a3232146100f6578063106610dc1461010d578063262a9dff1461018257806333a8c45a1461018b578063354284f2146101bb5780636209cb63146101c45780636bcb1103146101cd57806379caad86146101d65780637a9e867c146101ff5780638ef490ea146102085780639209416a14610211578063977f60831461023d578063bb6e486d14610250578063cca08a091461027e578063cdfef28a146102a1575b600080fd5b6100e06102ab565b6040516100ed9190610525565b60405180910390f35b6100ff60035481565b6040519081526020016100ed565b61018061011b366004610573565b600780546001810182556000919091527fa66cc928b5edb82af9bd49922954155ab7b0942694bea4ce44661d9a8736c688600482040180546001604060020a0360039093166008026101000a928302191660c060020a90930491909102919091179055565b005b6100ff60015481565b6002546101a290608860020a900460a060020a0281565b604051600160a060020a031990911681526020016100ed565b6100ff60085481565b6100ff60065481565b6100ff60045481565b6002546101e69060f860020a0281565b604051600160f860020a031990911681526020016100ed565b6100ff60055481565b6100ff60005481565b61022461021f3660046105a4565b610380565b604051600160c060020a031990911681526020016100ed565b61018061024b3660046105a4565b600855565b600254610265906101009004608060020a0281565b6040516001608060020a031990911681526020016100ed565b61029161028c366004610573565b6103ba565b60405190151581526020016100ed565b6101806000600855565b6007546060906000906001604060020a038111156102cb576102cb6105bd565b6040519080825280602002602001820160405280156102f4578160200160208202803683370190505b50905060005b60075481101561037a5760078181548110610317576103176105d7565b90600052602060002090600491828204019190066008029054906101000a900460c060020a0282828151811061034f5761034f6105d7565b600160c060020a031990921660209283029190910190910152806103728161060b565b9150506102fa565b50919050565b6007818154811061039057600080fd5b9060005260206000209060049182820401919006600802915054906101000a900460c060020a0281565b60008060005b6007548110156104375783600160c060020a031916600782815481106103e8576103e86105d7565b90600052602060002090600491828204019190066008029054906101000a900460c060020a02600160c060020a0319160361042557809150610437565b8061042f8161060b565b9150506103c0565b50600754811061044a5750600092915050565b6007805461045a90600190610624565b8154811061046a5761046a6105d7565b90600052602060002090600491828204019190066008029054906101000a900460c060020a02600782815481106104a3576104a36105d7565b90600052602060002090600491828204019190066008026101000a8154816001604060020a03021916908360c060020a9004021790555060078054806104eb576104eb61063b565b60008281526020902060046000199092019182040180546001604060020a03600860038516026101000a0219169055905550600192915050565b6020808252825182820181905260009190848201906040850190845b81811015610567578351600160c060020a03191683529284019291840191600101610541565b50909695505050505050565b60006020828403121561058557600080fd5b8135600160c060020a03198116811461059d57600080fd5b9392505050565b6000602082840312156105b657600080fd5b5035919050565b60e060020a634e487b710260009081526041600452602490fd5b60e060020a634e487b710260009081526032600452602490fd5b60e060020a634e487b710260009081526011600452602490fd5b60006001820161061d5761061d6105f1565b5060010190565b600082821015610636576106366105f1565b500390565b60e060020a634e487b710260009081526031600452602490fdfea2646970667358221220709d0f93550e7269f99cc0e1d910f7e517737933490929f235d116b79edbafa964736f6c634300080e0033a264697066735822122007ddbcf873c6b53a61ad7248aecba4bf73aa2b4f38129403edadd3bb48c15ef964736f6c634300080e0033",
  "immutableReferences": {},
  "source": "// SPDX-License-Identifier: MIT\npragma solidity >=0.4.22 <0.9.0;\nimport \"./ECP.sol\";\nimport \"./Candidate.sol\";\nimport \"./CandidatesData.sol\";\n\ncontract CandidateManager {\n    ECP public ecp;\n    CandidatesData public cands_data;\n    \n    // address private ecpAdd;\n\n    uint256 public candidates_count;\n    mapping(uint256 => bytes16) public candidates_cnics;\n    mapping(bytes16 => uint256) public candidates_indexes;\n    mapping(bytes16 => Candidate) public candidates;\n\n    \n    constructor(address _ecpAdd, address _cands_data){\n        // require(ecpAdd == address(0), \"ECP already set!\");\n        // ecpAdd = address(ecp);\n        ecp = ECP(_ecpAdd);\n        cands_data = CandidatesData(_cands_data);\n        ecp.setCandidateManager(this);\n\n        addCandidates(cands_data.getCandidates());\n    }\n    //xxxxxxxxxxxxxxxxxxxxxxxxxxxxxxxxxxxxxxxxxxxxxxx CANDIDATES xxxxxxxxxxxxxxxxxxxxxxxxxxxxxxxxxxxxxxxxxxxxxx//\n    \n    function addCandidate(bytes32 _fullname, uint _age, bytes1 _gender, bytes16 _cnic, bytes12 _contact, bytes32 _father_name, bytes32 _parmanent_add, bytes32 _local_add, bytes32 _province) public {\n        candidates_cnics[candidates_count] = _cnic;\n        candidates_indexes[_cnic] = candidates_count;\n        candidates[_cnic] = new Candidate(_fullname, _age, _gender, _cnic, _contact, _father_name, _parmanent_add, _local_add, _province);\n        \n        candidates_count++;\n    }\n\n    function addCandidates(bytes32[] memory _fullname, uint[] memory _age, bytes1[] memory _gender, bytes16[] memory _cnic, bytes12[] memory _contact, bytes32[] memory _father_name, bytes32[] memory _parmanent_add, bytes32[] memory _local_add, bytes32[] memory _province) public {\n        for (uint i = 0; i < _cnic.length; i++) {\n            addCandidate(_fullname[i], _age[i], _gender[i], _cnic[i], _contact[i], _father_name[i], _parmanent_add[i], _local_add[i], _province[i]);\n        }\n    }\n    function addCandidate(Candidate _cand) public{\n        candidates_cnics[candidates_count] = _cand.cnic();\n        candidates_indexes[_cand.cnic()] = candidates_count;\n        candidates[_cand.cnic()] = _cand;\n        \n        candidates_count++;\n    }\n    function addCandidates(Candidate[] memory _cands) public {\n        for (uint i = 0; i < _cands.length; i++) {\n            addCandidate(_cands[i]);\n        }\n    }\n\n    function removeCandidate(bytes16 _cnic) public {\n        delete candidates[_cnic];\n\n        uint256 remove_index = candidates_indexes[_cnic];\n        bytes16 remove_cnic = candidates_cnics[remove_index];\n        bytes16 last_cnic = candidates_cnics[candidates_count-1];\n\n        candidates_cnics[remove_index] = candidates_cnics[candidates_count-1];\n        candidates_indexes[last_cnic] = remove_index;\n\n        delete candidates_indexes[remove_cnic];\n        delete candidates_cnics[candidates_count-1];\n\n        candidates_count--;\n\n        // emit CandidateRemoved(_cnic);\n    }\n\n    function removeCandidates(bytes16[] memory _cnics) public {\n        for (uint i = 0; i < _cnics.length; i++) {\n            removeCandidate(_cnics[i]);\n        }\n    }\n\n    function getCandidate(uint256 _index) public view returns (Candidate cand){\n        return candidates[candidates_cnics[_index]];\n    }\n    function getCandidates() public view returns (Candidate[] memory){\n        Candidate[] memory cands = new Candidate[](candidates_count);\n\n        for (uint256 i = 0; i < candidates_count; i++) {\n            cands[i] = candidates[candidates_cnics[i]];\n        }\n        return cands;\n    }\n    // function getCandidate(bytes16 _cnic) public view returns (Candidate cand){\n    //     return candidates[_cnic];\n    // }\n}\n",
  "sourcePath": "/Users/apple/Computer/Programming/Learning/react-native/FYP/Website/decentralized-voting-system-h3-fyp2-fix/truffle/contracts/CandidateManager.sol",
  "compiler": {
    "name": "solc",
    "version": "0.8.14+commit.80d49f37.Emscripten.clang"
  },
  "schemaVersion": "3.4.13",
  "updatedAt": "2023-06-12T05:49:12.233Z",
  "networkType": "ethereum",
  "devdoc": {
    "kind": "dev",
    "methods": {},
    "version": 1
  },
  "userdoc": {
    "kind": "user",
    "methods": {},
    "version": 1
  }
}