{
  "contractName": "Candidate",
  "abi": [
    {
      "inputs": [
        {
          "internalType": "bytes32",
          "name": "_fullname",
          "type": "bytes32"
        },
        {
          "internalType": "uint256",
          "name": "_age",
          "type": "uint256"
        },
        {
          "internalType": "bytes1",
          "name": "_gender",
          "type": "bytes1"
        },
        {
          "internalType": "bytes16",
          "name": "_cnic",
          "type": "bytes16"
        },
        {
          "internalType": "bytes12",
          "name": "_contact",
          "type": "bytes12"
        },
        {
          "internalType": "bytes32",
          "name": "_father_name",
          "type": "bytes32"
        },
        {
          "internalType": "bytes32",
          "name": "_parmanent_add",
          "type": "bytes32"
        },
        {
          "internalType": "bytes32",
          "name": "_local_add",
          "type": "bytes32"
        },
        {
          "internalType": "bytes32",
          "name": "_province",
          "type": "bytes32"
        }
      ],
      "stateMutability": "nonpayable",
      "type": "constructor"
    },
    {
      "inputs": [],
      "name": "age",
      "outputs": [
        {
          "internalType": "uint256",
          "name": "",
          "type": "uint256"
        }
      ],
      "stateMutability": "view",
      "type": "function"
    },
    {
      "inputs": [],
      "name": "cnic",
      "outputs": [
        {
          "internalType": "bytes16",
          "name": "",
          "type": "bytes16"
        }
      ],
      "stateMutability": "view",
      "type": "function"
    },
    {
      "inputs": [
        {
          "internalType": "uint256",
          "name": "",
          "type": "uint256"
        }
      ],
      "name": "constituencies",
      "outputs": [
        {
          "internalType": "bytes8",
          "name": "",
          "type": "bytes8"
        }
      ],
      "stateMutability": "view",
      "type": "function"
    },
    {
      "inputs": [],
      "name": "contact",
      "outputs": [
        {
          "internalType": "bytes12",
          "name": "",
          "type": "bytes12"
        }
      ],
      "stateMutability": "view",
      "type": "function"
    },
    {
      "inputs": [],
      "name": "father_name",
      "outputs": [
        {
          "internalType": "bytes32",
          "name": "",
          "type": "bytes32"
        }
      ],
      "stateMutability": "view",
      "type": "function"
    },
    {
      "inputs": [],
      "name": "fullname",
      "outputs": [
        {
          "internalType": "bytes32",
          "name": "",
          "type": "bytes32"
        }
      ],
      "stateMutability": "view",
      "type": "function"
    },
    {
      "inputs": [],
      "name": "gender",
      "outputs": [
        {
          "internalType": "bytes1",
          "name": "",
          "type": "bytes1"
        }
      ],
      "stateMutability": "view",
      "type": "function"
    },
    {
      "inputs": [],
      "name": "local_add",
      "outputs": [
        {
          "internalType": "bytes32",
          "name": "",
          "type": "bytes32"
        }
      ],
      "stateMutability": "view",
      "type": "function"
    },
    {
      "inputs": [],
      "name": "party",
      "outputs": [
        {
          "internalType": "bytes32",
          "name": "",
          "type": "bytes32"
        }
      ],
      "stateMutability": "view",
      "type": "function"
    },
    {
      "inputs": [],
      "name": "permanent_add",
      "outputs": [
        {
          "internalType": "bytes32",
          "name": "",
          "type": "bytes32"
        }
      ],
      "stateMutability": "view",
      "type": "function"
    },
    {
      "inputs": [],
      "name": "province",
      "outputs": [
        {
          "internalType": "bytes32",
          "name": "",
          "type": "bytes32"
        }
      ],
      "stateMutability": "view",
      "type": "function"
    },
    {
      "inputs": [
        {
          "internalType": "bytes8",
          "name": "_constituency_name",
          "type": "bytes8"
        }
      ],
      "name": "addConstituency",
      "outputs": [],
      "stateMutability": "nonpayable",
      "type": "function"
    },
    {
      "inputs": [
        {
          "internalType": "bytes8",
          "name": "_constituency_name",
          "type": "bytes8"
        }
      ],
      "name": "removeConstituency",
      "outputs": [
        {
          "internalType": "bool",
          "name": "",
          "type": "bool"
        }
      ],
      "stateMutability": "nonpayable",
      "type": "function"
    },
    {
      "inputs": [
        {
          "internalType": "bytes32",
          "name": "_party_name",
          "type": "bytes32"
        }
      ],
      "name": "setParty",
      "outputs": [],
      "stateMutability": "nonpayable",
      "type": "function"
    },
    {
      "inputs": [],
      "name": "removeParty",
      "outputs": [],
      "stateMutability": "nonpayable",
      "type": "function"
    },
    {
      "inputs": [],
      "name": "getConstituencies",
      "outputs": [
        {
          "internalType": "bytes8[]",
          "name": "",
          "type": "bytes8[]"
        }
      ],
      "stateMutability": "view",
      "type": "function"
    }
  ],
  "bytecode": "0x608060405234801561001057600080fd5b5060405161085538038061085583398101604081905261002f916100f4565b600098909855600196909655600280546001608860020a0319167f0100000000000000000000000000000000000000000000000000000000000000909604610100608860020a031916959095176101007001000000000000000000000000000000009095049490940293909317608860020a60e860020a031916710100000000000000000000000000000000007401000000000000000000000000000000000000000090930492909202919091179092556003919091556004556005556006556101bb565b60008060008060008060008060006101208a8c03121561011357600080fd5b8951985060208a0151975060408a01517fff000000000000000000000000000000000000000000000000000000000000008116811461015157600080fd5b60608b01519097506001608060020a03198116811461016f57600080fd5b60808b0151909650600160a060020a03198116811461018d57600080fd5b8095505060a08a0151935060c08a0151925060e08a015191506101008a015190509295985092959850929598565b61068b806101ca6000396000f3fe608060405234801561001057600080fd5b50600436106100d35760e060020a60003504630b817c3881146100d85780630c5a3232146100f6578063106610dc1461010d578063262a9dff1461018257806333a8c45a1461018b578063354284f2146101bb5780636209cb63146101c45780636bcb1103146101cd57806379caad86146101d65780637a9e867c146101ff5780638ef490ea146102085780639209416a14610211578063977f60831461023d578063bb6e486d14610250578063cca08a091461027e578063cdfef28a146102a1575b600080fd5b6100e06102ab565b6040516100ed9190610525565b60405180910390f35b6100ff60035481565b6040519081526020016100ed565b61018061011b366004610573565b600780546001810182556000919091527fa66cc928b5edb82af9bd49922954155ab7b0942694bea4ce44661d9a8736c688600482040180546001604060020a0360039093166008026101000a928302191660c060020a90930491909102919091179055565b005b6100ff60015481565b6002546101a290608860020a900460a060020a0281565b604051600160a060020a031990911681526020016100ed565b6100ff60085481565b6100ff60065481565b6100ff60045481565b6002546101e69060f860020a0281565b604051600160f860020a031990911681526020016100ed565b6100ff60055481565b6100ff60005481565b61022461021f3660046105a4565b610380565b604051600160c060020a031990911681526020016100ed565b61018061024b3660046105a4565b600855565b600254610265906101009004608060020a0281565b6040516001608060020a031990911681526020016100ed565b61029161028c366004610573565b6103ba565b60405190151581526020016100ed565b6101806000600855565b6007546060906000906001604060020a038111156102cb576102cb6105bd565b6040519080825280602002602001820160405280156102f4578160200160208202803683370190505b50905060005b60075481101561037a5760078181548110610317576103176105d7565b90600052602060002090600491828204019190066008029054906101000a900460c060020a0282828151811061034f5761034f6105d7565b600160c060020a031990921660209283029190910190910152806103728161060b565b9150506102fa565b50919050565b6007818154811061039057600080fd5b9060005260206000209060049182820401919006600802915054906101000a900460c060020a0281565b60008060005b6007548110156104375783600160c060020a031916600782815481106103e8576103e86105d7565b90600052602060002090600491828204019190066008029054906101000a900460c060020a02600160c060020a0319160361042557809150610437565b8061042f8161060b565b9150506103c0565b50600754811061044a5750600092915050565b6007805461045a90600190610624565b8154811061046a5761046a6105d7565b90600052602060002090600491828204019190066008029054906101000a900460c060020a02600782815481106104a3576104a36105d7565b90600052602060002090600491828204019190066008026101000a8154816001604060020a03021916908360c060020a9004021790555060078054806104eb576104eb61063b565b60008281526020902060046000199092019182040180546001604060020a03600860038516026101000a0219169055905550600192915050565b6020808252825182820181905260009190848201906040850190845b81811015610567578351600160c060020a03191683529284019291840191600101610541565b50909695505050505050565b60006020828403121561058557600080fd5b8135600160c060020a03198116811461059d57600080fd5b9392505050565b6000602082840312156105b657600080fd5b5035919050565b60e060020a634e487b710260009081526041600452602490fd5b60e060020a634e487b710260009081526032600452602490fd5b60e060020a634e487b710260009081526011600452602490fd5b60006001820161061d5761061d6105f1565b5060010190565b600082821015610636576106366105f1565b500390565b60e060020a634e487b710260009081526031600452602490fdfea2646970667358221220709d0f93550e7269f99cc0e1d910f7e517737933490929f235d116b79edbafa964736f6c634300080e0033",
  "immutableReferences": {},
  "source": "// SPDX-License-Identifier: MIT\r\npragma solidity >=0.4.22 <0.9.0;\r\nimport \"./User.sol\";\r\n\r\ncontract Candidate is User {\r\n    bytes32 public father_name;\r\n    bytes32 public permanent_add;\r\n    bytes32 public local_add;\r\n    bytes32 public province;\r\n\r\n    bytes8[] public constituencies;\r\n    bytes32 public party;\r\n\r\n    constructor(bytes32 _fullname, uint _age, bytes1 _gender, bytes16 _cnic, bytes12 _contact, bytes32 _father_name, bytes32 _parmanent_add, bytes32 _local_add, bytes32 _province)\r\n     User(_fullname, _age, _gender, _cnic, _contact) {\r\n        father_name = _father_name;\r\n        permanent_add = _parmanent_add;\r\n        local_add = _local_add;\r\n        province = _province;\r\n    }\r\n\r\n    function addConstituency(bytes8 _constituency_name) public {\r\n        constituencies.push(_constituency_name);\r\n    }\r\n    function removeConstituency(bytes8 _constituency_name) public returns (bool){\r\n        uint index;\r\n        for (uint i = 0; i < constituencies.length; i++) {\r\n            if (constituencies[i] == _constituency_name) {\r\n                index = i;\r\n                break;\r\n            }\r\n        }\r\n        if (index >= constituencies.length) {\r\n            return false;\r\n        }\r\n        constituencies[index] = constituencies[constituencies.length - 1];\r\n        constituencies.pop();\r\n        return true;\r\n    }\r\n    function setParty(bytes32 _party_name) public {\r\n        party = _party_name;\r\n    }\r\n    function removeParty() public{\r\n        delete party;\r\n    }\r\n    function getConstituencies() public view returns(bytes8[] memory){\r\n        bytes8[] memory tempConst = new bytes8[](constituencies.length);\r\n        for (uint256 i = 0; i < constituencies.length; i++) {\r\n            tempConst[i] = constituencies[i];\r\n        }\r\n        return tempConst;\r\n    }\r\n}\r\n",
  "sourcePath": "/Users/apple/Computer/Programming/Learning/react-native/FYP/Website/decentralized-voting-system-h3-fyp2-fix/truffle/contracts/Candidate.sol",
  "compiler": {
    "name": "solc",
    "version": "0.8.14+commit.80d49f37.Emscripten.clang"
  },
  "schemaVersion": "3.4.13",
  "updatedAt": "2023-06-11T17:46:32.281Z",
  "devdoc": {
    "kind": "dev",
    "methods": {},
    "version": 1
  },
  "userdoc": {
    "kind": "user",
    "methods": {},
    "version": 1
  }
}