{
  "contractName": "Constituency",
  "abi": [
    {
      "inputs": [
        {
          "internalType": "bytes8",
          "name": "_name",
          "type": "bytes8"
        },
        {
          "internalType": "uint256",
          "name": "_total_votes_count",
          "type": "uint256"
        },
        {
          "internalType": "contract Party[]",
          "name": "_parties",
          "type": "address[]"
        }
      ],
      "stateMutability": "nonpayable",
      "type": "constructor"
    },
    {
      "inputs": [
        {
          "internalType": "bytes16",
          "name": "",
          "type": "bytes16"
        }
      ],
      "name": "casted_votes",
      "outputs": [
        {
          "internalType": "contract Vote",
          "name": "",
          "type": "address"
        }
      ],
      "stateMutability": "view",
      "type": "function"
    },
    {
      "inputs": [],
      "name": "casted_votes_count",
      "outputs": [
        {
          "internalType": "uint256",
          "name": "",
          "type": "uint256"
        }
      ],
      "stateMutability": "view",
      "type": "function"
    },
    {
      "inputs": [],
      "name": "isExist",
      "outputs": [
        {
          "internalType": "bool",
          "name": "",
          "type": "bool"
        }
      ],
      "stateMutability": "view",
      "type": "function"
    },
    {
      "inputs": [],
      "name": "name",
      "outputs": [
        {
          "internalType": "bytes8",
          "name": "",
          "type": "bytes8"
        }
      ],
      "stateMutability": "view",
      "type": "function"
    },
    {
      "inputs": [
        {
          "internalType": "uint256",
          "name": "",
          "type": "uint256"
        }
      ],
      "name": "parties",
      "outputs": [
        {
          "internalType": "contract Party",
          "name": "",
          "type": "address"
        }
      ],
      "stateMutability": "view",
      "type": "function"
    },
    {
      "inputs": [
        {
          "internalType": "contract Party",
          "name": "",
          "type": "address"
        }
      ],
      "name": "parties_votes_count",
      "outputs": [
        {
          "internalType": "uint256",
          "name": "",
          "type": "uint256"
        }
      ],
      "stateMutability": "view",
      "type": "function"
    },
    {
      "inputs": [],
      "name": "total_votes_count",
      "outputs": [
        {
          "internalType": "uint256",
          "name": "",
          "type": "uint256"
        }
      ],
      "stateMutability": "view",
      "type": "function"
    },
    {
      "inputs": [
        {
          "internalType": "bytes16",
          "name": "voter_cnic",
          "type": "bytes16"
        }
      ],
      "name": "isVoteCasted",
      "outputs": [
        {
          "internalType": "bool",
          "name": "",
          "type": "bool"
        }
      ],
      "stateMutability": "view",
      "type": "function"
    },
    {
      "inputs": [
        {
          "internalType": "contract Party",
          "name": "party",
          "type": "address"
        }
      ],
      "name": "isWinner",
      "outputs": [
        {
          "internalType": "bool",
          "name": "",
          "type": "bool"
        }
      ],
      "stateMutability": "view",
      "type": "function"
    },
    {
      "inputs": [],
      "name": "getParties",
      "outputs": [
        {
          "internalType": "contract Party[]",
          "name": "",
          "type": "address[]"
        }
      ],
      "stateMutability": "view",
      "type": "function"
    },
    {
      "inputs": [],
      "name": "getPartiesNames",
      "outputs": [
        {
          "internalType": "bytes32[]",
          "name": "",
          "type": "bytes32[]"
        }
      ],
      "stateMutability": "view",
      "type": "function"
    },
    {
      "inputs": [
        {
          "internalType": "bytes16",
          "name": "voter_cnic",
          "type": "bytes16"
        },
        {
          "internalType": "bytes16",
          "name": "cand_cnic",
          "type": "bytes16"
        },
        {
          "internalType": "contract Party",
          "name": "party",
          "type": "address"
        }
      ],
      "name": "castVote",
      "outputs": [],
      "stateMutability": "nonpayable",
      "type": "function"
    }
  ],
  "bytecode": "0x608060405234801561001057600080fd5b50604051610bca380380610bca83398101604081905261002f91610159565b6000805468ffffffffffffffff00191661010078010000000000000000000000000000000000000000000000008604021781556001839055600255805161007d906004906020840190610094565b50506000805460ff191660011790555061024a9050565b8280548282559060005260206000209081019282156100e9579160200282015b828111156100e95782518254600160a060020a031916600160a060020a039091161782556020909201916001909101906100b4565b506100f59291506100f9565b5090565b5b808211156100f557600081556001016100fa565b7f4e487b7100000000000000000000000000000000000000000000000000000000600052604160045260246000fd5b8051600160a060020a038116811461015457600080fd5b919050565b60008060006060848603121561016e57600080fd5b8351600160c060020a03198116811461018657600080fd5b809350506020808501519250604085015167ffffffffffffffff808211156101ad57600080fd5b818701915087601f8301126101c157600080fd5b8151818111156101d3576101d361010e565b838102604051601f19603f830116810181811085821117156101f7576101f761010e565b60405291825284820192508381018501918a83111561021557600080fd5b938501935b8285101561023a5761022b8561013d565b8452938501939285019261021a565b8096505050505050509250925092565b610971806102596000396000f3fe608060405234801561001057600080fd5b50600436106100a75760e060020a600035046306fdde0381146100ac57806333c5b37f146100df578063475502be146100f65780635dddd92a1461011357806370651a181461012657806371c542d314610151578063722bdf1d1461015a5780638aa4ddb51461016f5780639d9ca28d14610184578063a8311aa814610197578063d6eb47d8146101ac578063f99fb572146101cc575b600080fd5b6000546100c190610100900460c060020a0281565b604051600160c060020a031990911681526020015b60405180910390f35b6100e860025481565b6040519081526020016100d6565b6000546101039060ff1681565b60405190151581526020016100d6565b61010361012136600461058f565b6101f5565b6101396101343660046105b1565b610231565b604051600160a060020a0390911681526020016100d6565b6100e860015481565b61016d6101683660046105e1565b61025b565b005b610177610364565b6040516100d69190610624565b610103610192366004610668565b61047a565b61019f610508565b6040516100d69190610683565b6100e86101ba366004610668565b60056020526000908152604090205481565b6101396101da36600461058f565b600360205260009081526040902054600160a060020a031681565b6001608060020a03198116600090815260036020526040812054600160a060020a031661022457506000919050565b506001919050565b919050565b6004818154811061024157600080fd5b600091825260209091200154600160a060020a0316905081565b6001608060020a03198316600090815260036020526040902054600160a060020a03166102c057600160a060020a0381166000908152600560205260409020546102a69060016106de565b600160a060020a0382166000908152600560205260409020555b8282826040516102cf9061056a565b6001608060020a03199384168152929091166020830152600160a060020a03166040820152606001604051809103906000f080158015610313573d6000803e3d6000fd5b506001608060020a0319841660009081526003602052604081208054600160a060020a031916600160a060020a039390931692909217909155600280549161035a836106f6565b9190505550505050565b6004546060906000906001604060020a038111156103845761038461070f565b6040519080825280602002602001820160405280156103ad578160200160208202803683370190505b50905060005b60045481101561047457600481815481106103d0576103d0610729565b600091825260209182902001546040805160e060020a6306fdde030281529051600160a060020a03909216926306fdde03926004808401938290030181865afa158015610421573d6000803e3d6000fd5b505050506040513d601f19601f820116820180604052508101906104459190610743565b82828151811061045757610457610729565b60209081029190910101528061046c816106f6565b9150506103b3565b50919050565b600160a060020a038116600090815260056020526040812054815b6004548110156104fe578160056000600484815481106104b7576104b7610729565b6000918252602080832090910154600160a060020a0316835282019290925260400190205411156104ec575060009392505050565b806104f6816106f6565b915050610495565b5060019392505050565b6060600480548060200260200160405190810160405280929190818152602001828054801561056057602002820191906000526020600020905b8154600160a060020a03168152600190910190602001808311610542575b5050505050905090565b6101df8061075d83390190565b80356001608060020a03198116811461022c57600080fd5b6000602082840312156105a157600080fd5b6105aa82610577565b9392505050565b6000602082840312156105c357600080fd5b5035919050565b8035600160a060020a038116811461022c57600080fd5b6000806000606084860312156105f657600080fd5b6105ff84610577565b925061060d60208501610577565b915061061b604085016105ca565b90509250925092565b6020808252825182820181905260009190848201906040850190845b8181101561065c57835183529284019291840191600101610640565b50909695505050505050565b60006020828403121561067a57600080fd5b6105aa826105ca565b6020808252825182820181905260009190848201906040850190845b8181101561065c578351600160a060020a03168352928401929184019160010161069f565b60e060020a634e487b710260009081526011600452602490fd5b600082198211156106f1576106f16106c4565b500190565b600060018201610708576107086106c4565b5060010190565b60e060020a634e487b710260009081526041600452602490fd5b60e060020a634e487b710260009081526032600452602490fd5b60006020828403121561075557600080fd5b505191905056fe608060405234801561001057600080fd5b506040516101df3803806101df83398101604081905261002f9161009a565b6001608060020a037001000000000000000000000000000000009384900416918390049092021760005560018054600160a060020a031916600160a060020a039092169190911790556100ee565b80516001608060020a03198116811461009557600080fd5b919050565b6000806000606084860312156100af57600080fd5b6100b88461007d565b92506100c66020850161007d565b6040850151909250600160a060020a03811681146100e357600080fd5b809150509250925092565b60e3806100fc6000396000f3fe6080604052348015600f57600080fd5b5060043610603f5760e060020a6000350463354284f281146044578063be4e0249146073578063f6949df914609e575b600080fd5b600154605690600160a060020a031681565b604051600160a060020a0390911681526020015b60405180910390f35b600054608690608060020a908190040281565b6040516001608060020a03199091168152602001606a565b600054608690608060020a028156fea26469706673582212201b2cd7834b1ff5edf38e98ae4fe99636abe4e139fdb26000a31637c69246918764736f6c634300080e0033a2646970667358221220188ef91dc04edb7848e2015af344a33eb1b7c6b12509e2ed9c46a8fe4ba5e92b64736f6c634300080e0033",
  "immutableReferences": {},
  "source": "// SPDX-License-Identifier: MIT\r\npragma solidity >=0.4.22 <0.9.0;\r\nimport \"./Party.sol\";\r\nimport \"./Vote.sol\";\r\n\r\ncontract Constituency{\r\n    bool public isExist;\r\n    bytes8 public name;\r\n     \r\n    uint256 public total_votes_count;\r\n    uint256 public casted_votes_count;\r\n    mapping(bytes16 => Vote) public casted_votes;\r\n\r\n    Party[] public parties;\r\n    mapping(Party => uint256) public parties_votes_count;\r\n\r\n\r\n    constructor(bytes8 _name, uint _total_votes_count, Party[] memory _parties) {\r\n        name = _name;\r\n        total_votes_count = _total_votes_count;\r\n        casted_votes_count = 0;\r\n        parties = _parties;\r\n        isExist = true;\r\n    }\r\n    function isVoteCasted(bytes16 voter_cnic) public view returns(bool){\r\n        if(address(casted_votes[voter_cnic]) == address(0)){\r\n            return false;\r\n        }\r\n        else{\r\n            return true;\r\n        }\r\n    }\r\n    function isWinner(Party party) public view returns(bool){\r\n        uint256 party_votes = parties_votes_count[party];\r\n        for (uint256 i = 0; i < parties.length; i++) {\r\n            if(parties_votes_count[parties[i]] > party_votes){\r\n                return false;\r\n            }\r\n        }\r\n        return true;\r\n    }\r\n    function getParties() public view returns (Party[] memory){\r\n        return parties;\r\n    }\r\n    function getPartiesNames() public view returns (bytes32[] memory){\r\n        bytes32[] memory tempNames = new bytes32[](parties.length);\r\n        for (uint256 i = 0; i < parties.length; i++) {\r\n            tempNames[i] = parties[i].name();\r\n        }\r\n        return tempNames;\r\n    }\r\n    function castVote(bytes16 voter_cnic, bytes16 cand_cnic, Party party)public {\r\n        if(address(casted_votes[voter_cnic]) == address(0)){\r\n            parties_votes_count[party] = parties_votes_count[party] + 1;\r\n        }\r\n        casted_votes[voter_cnic] = new Vote(voter_cnic, cand_cnic, party);\r\n        casted_votes_count++;\r\n    }\r\n}\r\n",
  "sourcePath": "/Users/apple/Computer/Programming/Learning/react-native/FYP/Website/decentralized-voting-system-h3-fyp2-fix/truffle/contracts/Constituency.sol",
  "compiler": {
    "name": "solc",
    "version": "0.8.14+commit.80d49f37.Emscripten.clang"
  },
  "schemaVersion": "3.4.13",
  "updatedAt": "2023-06-12T04:59:51.161Z",
  "devdoc": {
    "kind": "dev",
    "methods": {},
    "version": 1
  },
  "userdoc": {
    "kind": "user",
    "methods": {},
    "version": 1
  }
}