{
  "contractName": "ConstituenciesData",
  "abi": [
    {
      "inputs": [
        {
          "internalType": "uint256",
          "name": "",
          "type": "uint256"
        }
      ],
      "name": "NA_BYTES",
      "outputs": [
        {
          "internalType": "bytes8",
          "name": "",
          "type": "bytes8"
        }
      ],
      "stateMutability": "view",
      "type": "function",
      "constant": true
    },
    {
      "inputs": [
        {
          "internalType": "uint256",
          "name": "",
          "type": "uint256"
        }
      ],
      "name": "PA_PB_BYTES",
      "outputs": [
        {
          "internalType": "bytes8",
          "name": "",
          "type": "bytes8"
        }
      ],
      "stateMutability": "view",
      "type": "function",
      "constant": true
    },
    {
      "inputs": [
        {
          "internalType": "uint256",
          "name": "",
          "type": "uint256"
        }
      ],
      "name": "PA_PK_BYTES",
      "outputs": [
        {
          "internalType": "bytes8",
          "name": "",
          "type": "bytes8"
        }
      ],
      "stateMutability": "view",
      "type": "function",
      "constant": true
    },
    {
      "inputs": [
        {
          "internalType": "uint256",
          "name": "",
          "type": "uint256"
        }
      ],
      "name": "PA_PP_BYTES",
      "outputs": [
        {
          "internalType": "bytes8",
          "name": "",
          "type": "bytes8"
        }
      ],
      "stateMutability": "view",
      "type": "function",
      "constant": true
    },
    {
      "inputs": [
        {
          "internalType": "uint256",
          "name": "",
          "type": "uint256"
        }
      ],
      "name": "PA_PS_BYTES",
      "outputs": [
        {
          "internalType": "bytes8",
          "name": "",
          "type": "bytes8"
        }
      ],
      "stateMutability": "view",
      "type": "function",
      "constant": true
    },
    {
      "inputs": [
        {
          "internalType": "uint256",
          "name": "_index",
          "type": "uint256"
        }
      ],
      "name": "getNABytes",
      "outputs": [
        {
          "internalType": "bytes8",
          "name": "",
          "type": "bytes8"
        }
      ],
      "stateMutability": "view",
      "type": "function",
      "constant": true
    },
    {
      "inputs": [
        {
          "internalType": "bytes3",
          "name": "_pa_name",
          "type": "bytes3"
        },
        {
          "internalType": "uint256",
          "name": "_index",
          "type": "uint256"
        }
      ],
      "name": "getPABytes",
      "outputs": [
        {
          "internalType": "bytes8",
          "name": "",
          "type": "bytes8"
        }
      ],
      "stateMutability": "view",
      "type": "function",
      "constant": true
    }
  ],
  "bytecode": "0x6101006040527f4e412d310000000000000000000000000000000000000000000000000000000060809081527f4e412d320000000000000000000000000000000000000000000000000000000060a0527f4e412d330000000000000000000000000000000000000000000000000000000060c0527f4e412d340000000000000000000000000000000000000000000000000000000060e0526100a590600090600461023f565b50604080518082019091527f50502d310000000000000000000000000000000000000000000000000000000081527f50502d3200000000000000000000000000000000000000000000000000000000602082015261010790600190600261023f565b50604080518082019091527f50532d310000000000000000000000000000000000000000000000000000000081527f50532d32000000000000000000000000000000000000000000000000000000006020820152610168906002908161023f565b50604080518082019091527f504b2d310000000000000000000000000000000000000000000000000000000081527f504b2d320000000000000000000000000000000000000000000000000000000060208201526101ca90600390600261023f565b50604080518082019091527f50422d310000000000000000000000000000000000000000000000000000000081527f50422d3200000000000000000000000000000000000000000000000000000000602082015261022c90600490600261023f565b5034801561023957600080fd5b5061031f565b828054828255906000526020600020906003016004900481019282156102fa5791602002820160005b838211156102c557835183826101000a8154816001604060020a0302191690837801000000000000000000000000000000000000000000000000900402179055509260200192600801602081600701049283019260010302610268565b80156102f85782816101000a8154906001604060020a0302191690556008016020816007010492830192600103026102c5565b505b5061030692915061030a565b5090565b5b80821115610306576000815560010161030b565b6103618061032e6000396000f3fe608060405234801561001057600080fd5b50600436106100705760e060020a6000350463116c452d8114610075578063363929a1146100a5578063568cbfd8146100b85780639c105e0a146100cb578063b911c4b1146100de578063e3184bd2146100f1578063ea1da07014610104575b600080fd5b6100886100833660046102bf565b610117565b604051600160c060020a0319909116815260200160405180910390f35b6100886100b33660046102bf565b610151565b6100886100c63660046102bf565b610161565b6100886100d93660046102bf565b610171565b6100886100ec3660046102bf565b610181565b6100886100ff3660046102d8565b6101c2565b6100886101123660046102bf565b6102af565b6000818154811061012757600080fd5b9060005260206000209060049182820401919006600802915054906101000a900460c060020a0281565b6002818154811061012757600080fd5b6004818154811061012757600080fd5b6003818154811061012757600080fd5b600080828154811061019557610195610311565b90600052602060002090600491828204019190066008029054906101000a900460c060020a029050919050565b6000600160e860020a0319831660e860020a6250502d020361021e57600182815481106101f1576101f1610311565b90600052602060002090600491828204019190066008029054906101000a900460c060020a0290506102a9565b600160e860020a0319831660e860020a6250532d020361024b57600282815481106101f1576101f1610311565b600160e860020a0319831660e860020a62504b2d020361027857600382815481106101f1576101f1610311565b600160e860020a0319831660e860020a6250422d02036102a557600482815481106101f1576101f1610311565b5060005b92915050565b6001818154811061012757600080fd5b6000602082840312156102d157600080fd5b5035919050565b600080604083850312156102eb57600080fd5b8235600160e860020a03198116811461030357600080fd5b946020939093013593505050565b60e060020a634e487b710260009081526032600452602490fdfea26469706673582212209aea90d3812ce9f85de74675de4e8d4819953bfdb4835e31c48533d6bb90a70364736f6c634300080e0033",
  "immutableReferences": {},
  "source": "\r\n// SPDX-License-Identifier: MIT\r\npragma solidity >=0.4.22 <0.9.0;\r\n\r\ncontract ConstituenciesData{\r\n    bytes8[] public NA_BYTES = [bytes8(0x4e412d3100000000),bytes8(0x4e412d3200000000),bytes8(0x4e412d3300000000),bytes8(0x4e412d3400000000)];\r\n    bytes8[] public PA_PP_BYTES = [bytes8(0x50502d3100000000),bytes8(0x50502d3200000000)];\r\n    bytes8[] public PA_PS_BYTES = [bytes8(0x50532d3100000000),bytes8(0x50532d3200000000)];\r\n    bytes8[] public PA_PK_BYTES = [bytes8(0x504b2d3100000000),bytes8(0x504b2d3200000000)];\r\n    bytes8[] public PA_PB_BYTES = [bytes8(0x50422d3100000000),bytes8(0x50422d3200000000)];\r\n\r\n    \r\n    function getNABytes(uint _index) public view returns(bytes8){\r\n        return NA_BYTES[_index];\r\n    }\r\n    \r\n    function getPABytes(bytes3 _pa_name, uint _index) public view returns(bytes8){\r\n        if(_pa_name == 0x50502d)\r\n            return PA_PP_BYTES[_index];\r\n        else if(_pa_name == 0x50532d)\r\n            return PA_PS_BYTES[_index];\r\n        else if(_pa_name == 0x504b2d)\r\n            return PA_PK_BYTES[_index];\r\n        else if(_pa_name == 0x50422d)\r\n            return PA_PB_BYTES[_index];\r\n        else\r\n            return bytes8(0);\r\n    }\r\n}",
  "sourcePath": "/Users/apple/Computer/Programming/Learning/react-native/FYP/Website/decentralized-voting-system-h3-fyp2-fix/truffle/contracts/ConstituenciesData.sol",
  "compiler": {
    "name": "solc",
    "version": "0.8.14+commit.80d49f37.Emscripten.clang"
  },
  "schemaVersion": "3.4.13",
  "updatedAt": "2023-06-12T05:49:12.255Z",
  "networkType": "ethereum",
  "devdoc": {
    "kind": "dev",
    "methods": {},
    "version": 1
  },
  "userdoc": {
    "kind": "user",
    "methods": {},
    "version": 1
  }
}