{
  "contractName": "CreateGE",
  "abi": [
    {
      "inputs": [
        {
          "internalType": "contract ElectionManager",
          "name": "_em",
          "type": "address"
        }
      ],
      "stateMutability": "nonpayable",
      "type": "constructor"
    },
    {
      "inputs": [
        {
          "internalType": "uint256",
          "name": "_startTime",
          "type": "uint256"
        },
        {
          "internalType": "uint256",
          "name": "_endTime",
          "type": "uint256"
        },
        {
          "internalType": "bytes32",
          "name": "_name",
          "type": "bytes32"
        }
      ],
      "name": "createGeneralElection",
      "outputs": [
        {
          "internalType": "contract GeneralElection",
          "name": "GE",
          "type": "address"
        }
      ],
      "stateMutability": "nonpayable",
      "type": "function"
    }
  ],
  "bytecode": "0x608060405234801561001057600080fd5b506040516135e53803806135e583398101604081905261002f916100ba565b60008054600160a060020a031916600160a060020a0383169081179091556040517f9f389be0000000000000000000000000000000000000000000000000000000008152306004820152639f389be090602401600060405180830381600087803b15801561009c57600080fd5b505af11580156100b0573d6000803e3d6000fd5b50505050506100ea565b6000602082840312156100cc57600080fd5b8151600160a060020a03811681146100e357600080fd5b9392505050565b6134ec806100f96000396000f3fe60806040523480156200001157600080fd5b5060043610620000315760e060020a600035046329edfd25811462000036575b600080fd5b6200004d62000047366004620005ff565b62000069565b604051600160a060020a03909116815260200160405180910390f35b60008060008585604051806040016040528060118152602001607860020a704e6174696f6e616c20417373656d626c7902815250620000a8906200062c565b60005460405160e060020a6349b3495d028152600160a060020a03909116906349b3495d90620000e4906004908990624e412d90830162000656565b6000604051808303816000875af115801562000104573d6000803e3d6000fd5b505050506040513d6000823e601f3d908101601f191682016040526200012e9190810190620006bd565b6040516200013c90620005d5565b6200014b94939291906200078e565b604051809103906000f08015801562000168573d6000803e3d6000fd5b5090506000868660405180604001604052806006815260200160d160020a65283ab73530b1028152506200019c906200062c565b60005460405160e060020a6349b3495d028152600160a060020a03909116906349b3495d90620001d9906002908a906250502d9060040162000656565b6000604051808303816000875af1158015620001f9573d6000803e3d6000fd5b505050506040513d6000823e601f3d908101601f19168201604052620002239190810190620006bd565b6040516200023190620005e3565b6200024094939291906200078e565b604051809103906000f0801580156200025d573d6000803e3d6000fd5b5090506000878760405180604001604052806005815260200160db60020a640a6d2dcc8d0281525062000290906200062c565b60005460405160e060020a6349b3495d028152600160a060020a03909116906349b3495d90620002cd906002908b906250532d9060040162000656565b6000604051808303816000875af1158015620002ed573d6000803e3d6000fd5b505050506040513d6000823e601f3d908101601f19168201604052620003179190810190620006bd565b6040516200032590620005e3565b6200033494939291906200078e565b604051809103906000f08015801562000351573d6000803e3d6000fd5b50905060008888604051806040016040528060128152602001607060020a714b68796265722050616b6874756e6b6877610281525062000391906200062c565b60005460405160e060020a6349b3495d028152600160a060020a03909116906349b3495d90620003ce906002908c9062504b2d9060040162000656565b6000604051808303816000875af1158015620003ee573d6000803e3d6000fd5b505050506040513d6000823e601f3d908101601f19168201604052620004189190810190620006bd565b6040516200042690620005e3565b6200043594939291906200078e565b604051809103906000f08015801562000452573d6000803e3d6000fd5b509050600089896040518060400160405280600b815260200160a960020a6a2130b637b1b434b9ba30b7028152506200048b906200062c565b60005460405160e060020a6349b3495d028152600160a060020a03909116906349b3495d90620004c8906002908d906250422d9060040162000656565b6000604051808303816000875af1158015620004e8573d6000803e3d6000fd5b505050506040513d6000823e601f3d908101601f19168201604052620005129190810190620006bd565b6040516200052090620005e3565b6200052f94939291906200078e565b604051809103906000f0801580156200054c573d6000803e3d6000fd5b50905089898987878787876040516200056590620005f1565b97885260208801969096526040870194909452600160a060020a0392831660608701529082166080860152811660a085015290811660c08401521660e082015261010001604051809103906000f080158015620005c6573d6000803e3d6000fd5b509a9950505050505050505050565b610bf080620007f683390190565b610bf080620013e683390190565b6114e18062001fd683390190565b6000806000606084860312156200061557600080fd5b505081359360208301359350604090920135919050565b8051602080830151919081101562000650578060200360080260020a600003821691505b50919050565b928352600160c060020a031991909116602083015260e860020a02600160e860020a031916604082015260600190565b60e060020a634e487b710260009081526041600452602490fd5b8051600160a060020a0381168114620006b857600080fd5b919050565b60006020808385031215620006d157600080fd5b82516001604060020a0380821115620006e957600080fd5b818501915085601f830112620006fe57600080fd5b81518181111562000713576200071362000686565b838102604051601f19603f830116810181811085821117156200073a576200073a62000686565b6040529182528482019250838101850191888311156200075957600080fd5b938501935b8285101562000782576200077285620006a0565b845293850193928501926200075e565b98975050505050505050565b600060808201868352602086818501528560408501526080606085015281855180845260a086019150828701935060005b81811015620007e6578451600160a060020a031683529383019391830191600101620007bf565b5090999850505050505050505056fe60806040523480156200001157600080fd5b5060405162000bf038038062000bf08339810160408190526200003491620002ff565b805160010362000068577f4e6174696f6e616c20436f6e7374697475656e637920456c656374696f6e00006002556200008d565b7f4e6174696f6e616c20456c656374696f6e0000000000000000000000000000006002555b6000848155600184905560038390555b8151811015620002a857818181518110620000bc57620000bc620003ee565b602002602001015160066000848481518110620000dd57620000dd620003ee565b6020026020010151600160a060020a03166306fdde036040518163ffffffff167c0100000000000000000000000000000000000000000000000000000000028152600401602060405180830381865afa1580156200013f573d6000803e3d6000fd5b505050506040513d601f19601f820116820180604052508101906200016591906200041d565b600160c060020a031916815260208101919091526040016000208054600160a060020a031916600160a060020a03929092169190911790558151829082908110620001b457620001b4620003ee565b6020026020010151600160a060020a03166306fdde036040518163ffffffff167c0100000000000000000000000000000000000000000000000000000000028152600401602060405180830381865afa15801562000216573d6000803e3d6000fd5b505050506040513d601f19601f820116820180604052508101906200023c91906200041d565b600480546000908152600560205260408120805467ffffffffffffffff19167801000000000000000000000000000000000000000000000000909404939093179092558054916200028d8362000450565b919050555080806200029f9062000450565b9150506200009d565b505050505062000491565b7f4e487b7100000000000000000000000000000000000000000000000000000000600052604160045260246000fd5b8051600160a060020a0381168114620002fa57600080fd5b919050565b600080600080608085870312156200031657600080fd5b84519350602080860151935060408601519250606086015167ffffffffffffffff808211156200034557600080fd5b818801915088601f8301126200035a57600080fd5b8151818111156200036f576200036f620002b3565b838102604051601f19603f83011681018181108582111715620003965762000396620002b3565b60405291825284820192508381018501918b831115620003b557600080fd5b938501935b82851015620003de57620003ce85620002e2565b84529385019392850192620003ba565b989b979a50959850505050505050565b7f4e487b7100000000000000000000000000000000000000000000000000000000600052603260045260246000fd5b6000602082840312156200043057600080fd5b8151600160c060020a0319811681146200044957600080fd5b9392505050565b6000600182016200048a577f4e487b7100000000000000000000000000000000000000000000000000000000600052601160045260246000fd5b5060010190565b61074f80620004a16000396000f3fe608060405234801561001057600080fd5b50600436106100bd5760e060020a600035046306fdde0381146100c25780630b817c38146100de57806310cc7305146100f35780633197cbb614610106578063324510b41461010f578063523f0e8c1461014e5780635510b851146101575780635b1cf18c1461019757806378e97925146101ba57806382afd23b146101c3578063d4de1758146101d6578063f1485a13146101e9578063f47d628d146101fe578063f821b42d14610207575b600080fd5b6100cb60035481565b6040519081526020015b60405180910390f35b6100e6610230565b6040516100d59190610537565b6100cb61010136600461059c565b610303565b6100cb60015481565b61013561011d3660046105c0565b60056020526000908152604090205460c060020a0281565b604051600160c060020a031990911681526020016100d5565b6100cb60025481565b61018a6101653660046105d9565b600160c060020a031916600090815260066020526040902054600160a060020a031690565b6040516100d59190610603565b6101aa6101a5366004610634565b6103dd565b60405190151581526020016100d5565b6100cb60005481565b6101aa6101d13660046105c0565b6104e5565b6101aa6101e43660046105d9565b610500565b6101aa6101f73660046105c0565b6001541090565b6100cb60045481565b61018a6102153660046105d9565b600660205260009081526040902054600160a060020a031681565b606060006004546001604060020a0381111561024e5761024e610698565b604051908082528060200260200182016040528015610277578160200160208202803683370190505b50905060005b6004548110156102fd5760008181526005602090815260408083205460c060020a02600160c060020a031916835260069091529020548251600160a060020a03909116908390839081106102d3576102d36106b2565b600160a060020a0390921660209283029190910190910152806102f5816106cc565b91505061027d565b50919050565b60008060005b6004548110156103d65760008181526005602090815260408083205460c060020a02600160c060020a031916835260069091529081902054905160e060020a639d9ca28d028152600160a060020a0390911690639d9ca28d90610370908790600401610603565b602060405180830381865afa15801561038d573d6000803e3d6000fd5b505050506040513d601f19601f820116820180604052508101906103b191906106f7565b156103c457816103c0816106cc565b9250505b806103ce816106cc565b915050610309565b5092915050565b6000805486101580156103f257506001548611155b6104635760405160e560020a62461bcd02815260206004820152603260248201527f43616e74206361737420766f74652c20456c656374696f6e206e6f74206f70656044820152607060020a716e656420796574206f7220636c6f7365642102606482015260840160405180910390fd5b60405160e060020a63722bdf1d0281526001608060020a0319808616600483015284166024820152600160a060020a03838116604483015286169063722bdf1d90606401600060405180830381600087803b1580156104c157600080fd5b505af11580156104d5573d6000803e3d6000fd5b5060019998505050505050505050565b6000805482101580156104fa57506001548211155b92915050565b600160c060020a03198116600090815260066020526040812054600160a060020a03161561052f5760016104fa565b600092915050565b6020808252825182820181905260009190848201906040850190845b81811015610578578351600160a060020a031683529284019291840191600101610553565b50909695505050505050565b600160a060020a038116811461059957600080fd5b50565b6000602082840312156105ae57600080fd5b81356105b981610584565b9392505050565b6000602082840312156105d257600080fd5b5035919050565b6000602082840312156105eb57600080fd5b8135600160c060020a0319811681146105b957600080fd5b600160a060020a0391909116815260200190565b80356001608060020a03198116811461062f57600080fd5b919050565b600080600080600060a0868803121561064c57600080fd5b85359450602086013561065e81610584565b935061066c60408701610617565b925061067a60608701610617565b9150608086013561068a81610584565b809150509295509295909350565b60e060020a634e487b710260009081526041600452602490fd5b60e060020a634e487b710260009081526032600452602490fd5b6000600182016106f05760e060020a634e487b710260009081526011600452602490fd5b5060010190565b60006020828403121561070957600080fd5b815180151581146105b957600080fdfea26469706673582212206c127ffeb7ffc15ec4b87e470345a1814ba186f7caf1441a67812bb575f9662064736f6c634300080e003360806040523480156200001157600080fd5b5060405162000bf038038062000bf08339810160408190526200003491620002ff565b805160010362000068577f50726f76696e6369616c20436f6e7374697475656e637920456c656374696f6e6002556200008d565b7f50726f76696e6369616c20456c656374696f6e000000000000000000000000006002555b6000848155600184905560038390555b8151811015620002a857818181518110620000bc57620000bc620003ee565b602002602001015160066000848481518110620000dd57620000dd620003ee565b6020026020010151600160a060020a03166306fdde036040518163ffffffff167c0100000000000000000000000000000000000000000000000000000000028152600401602060405180830381865afa1580156200013f573d6000803e3d6000fd5b505050506040513d601f19601f820116820180604052508101906200016591906200041d565b600160c060020a031916815260208101919091526040016000208054600160a060020a031916600160a060020a03929092169190911790558151829082908110620001b457620001b4620003ee565b6020026020010151600160a060020a03166306fdde036040518163ffffffff167c0100000000000000000000000000000000000000000000000000000000028152600401602060405180830381865afa15801562000216573d6000803e3d6000fd5b505050506040513d601f19601f820116820180604052508101906200023c91906200041d565b600480546000908152600560205260408120805467ffffffffffffffff19167801000000000000000000000000000000000000000000000000909404939093179092558054916200028d8362000450565b919050555080806200029f9062000450565b9150506200009d565b505050505062000491565b7f4e487b7100000000000000000000000000000000000000000000000000000000600052604160045260246000fd5b8051600160a060020a0381168114620002fa57600080fd5b919050565b600080600080608085870312156200031657600080fd5b84519350602080860151935060408601519250606086015167ffffffffffffffff808211156200034557600080fd5b818801915088601f8301126200035a57600080fd5b8151818111156200036f576200036f620002b3565b838102604051601f19603f83011681018181108582111715620003965762000396620002b3565b60405291825284820192508381018501918b831115620003b557600080fd5b938501935b82851015620003de57620003ce85620002e2565b84529385019392850192620003ba565b989b979a50959850505050505050565b7f4e487b7100000000000000000000000000000000000000000000000000000000600052603260045260246000fd5b6000602082840312156200043057600080fd5b8151600160c060020a0319811681146200044957600080fd5b9392505050565b6000600182016200048a577f4e487b7100000000000000000000000000000000000000000000000000000000600052601160045260246000fd5b5060010190565b61074f80620004a16000396000f3fe608060405234801561001057600080fd5b50600436106100bd5760e060020a600035046306fdde0381146100c25780630b817c38146100de57806310cc7305146100f35780633197cbb614610106578063324510b41461010f578063523f0e8c1461014e5780635510b851146101575780635b1cf18c1461019757806378e97925146101ba57806382afd23b146101c3578063d4de1758146101d6578063f1485a13146101e9578063f47d628d146101fe578063f821b42d14610207575b600080fd5b6100cb60035481565b6040519081526020015b60405180910390f35b6100e6610230565b6040516100d59190610537565b6100cb61010136600461059c565b610303565b6100cb60015481565b61013561011d3660046105c0565b60056020526000908152604090205460c060020a0281565b604051600160c060020a031990911681526020016100d5565b6100cb60025481565b61018a6101653660046105d9565b600160c060020a031916600090815260066020526040902054600160a060020a031690565b6040516100d59190610603565b6101aa6101a5366004610634565b6103dd565b60405190151581526020016100d5565b6100cb60005481565b6101aa6101d13660046105c0565b6104e5565b6101aa6101e43660046105d9565b610500565b6101aa6101f73660046105c0565b6001541090565b6100cb60045481565b61018a6102153660046105d9565b600660205260009081526040902054600160a060020a031681565b606060006004546001604060020a0381111561024e5761024e610698565b604051908082528060200260200182016040528015610277578160200160208202803683370190505b50905060005b6004548110156102fd5760008181526005602090815260408083205460c060020a02600160c060020a031916835260069091529020548251600160a060020a03909116908390839081106102d3576102d36106b2565b600160a060020a0390921660209283029190910190910152806102f5816106cc565b91505061027d565b50919050565b60008060005b6004548110156103d65760008181526005602090815260408083205460c060020a02600160c060020a031916835260069091529081902054905160e060020a639d9ca28d028152600160a060020a0390911690639d9ca28d90610370908790600401610603565b602060405180830381865afa15801561038d573d6000803e3d6000fd5b505050506040513d601f19601f820116820180604052508101906103b191906106f7565b156103c457816103c0816106cc565b9250505b806103ce816106cc565b915050610309565b5092915050565b6000805486101580156103f257506001548611155b6104635760405160e560020a62461bcd02815260206004820152603260248201527f43616e74206361737420766f74652c20456c656374696f6e206e6f74206f70656044820152607060020a716e656420796574206f7220636c6f7365642102606482015260840160405180910390fd5b60405160e060020a63722bdf1d0281526001608060020a0319808616600483015284166024820152600160a060020a03838116604483015286169063722bdf1d90606401600060405180830381600087803b1580156104c157600080fd5b505af11580156104d5573d6000803e3d6000fd5b5060019998505050505050505050565b6000805482101580156104fa57506001548211155b92915050565b600160c060020a03198116600090815260066020526040812054600160a060020a03161561052f5760016104fa565b600092915050565b6020808252825182820181905260009190848201906040850190845b81811015610578578351600160a060020a031683529284019291840191600101610553565b50909695505050505050565b600160a060020a038116811461059957600080fd5b50565b6000602082840312156105ae57600080fd5b81356105b981610584565b9392505050565b6000602082840312156105d257600080fd5b5035919050565b6000602082840312156105eb57600080fd5b8135600160c060020a0319811681146105b957600080fd5b600160a060020a0391909116815260200190565b80356001608060020a03198116811461062f57600080fd5b919050565b600080600080600060a0868803121561064c57600080fd5b85359450602086013561065e81610584565b935061066c60408701610617565b925061067a60608701610617565b9150608086013561068a81610584565b809150509295509295909350565b60e060020a634e487b710260009081526041600452602490fd5b60e060020a634e487b710260009081526032600452602490fd5b6000600182016106f05760e060020a634e487b710260009081526011600452602490fd5b5060010190565b60006020828403121561070957600080fd5b815180151581146105b957600080fdfea26469706673582212204d703a9bffeac5c0f32bd98c85f39d41a501bb398a10a0842b3c06a3ac1292c564736f6c634300080e003360806040523480156200001157600080fd5b50604051620014e1380380620014e18339810160408190526200003491620002cf565b7f47656e6572616c20456c656374696f6e00000000000000000000000000000000600290815560008981556001899055600388905560048054600160a060020a031916600160a060020a038916178155600555604080518082019091529182527f50500000000000000000000000000000000000000000000000000000000000006020830152859160069190620000cb906200036c565b600160c060020a031916600160c060020a031916815260200190815260200160002060006101000a815481600160a060020a030219169083600160a060020a0316021790555082600660006040518060400160405280600281526020017f505300000000000000000000000000000000000000000000000000000000000081525062000157906200036c565b600160c060020a031916600160c060020a031916815260200190815260200160002060006101000a815481600160a060020a030219169083600160a060020a0316021790555081600660006040518060400160405280600281526020017f504b000000000000000000000000000000000000000000000000000000000000815250620001e3906200036c565b600160c060020a031916600160c060020a031916815260200190815260200160002060006101000a815481600160a060020a030219169083600160a060020a0316021790555080600660006040518060400160405280600281526020017f50420000000000000000000000000000000000000000000000000000000000008152506200026f906200036c565b600160c060020a031916815260208101919091526040016000208054600160a060020a031916600160a060020a039290921691909117905550620003a79650505050505050565b600160a060020a0381168114620002cc57600080fd5b50565b600080600080600080600080610100898b031215620002ed57600080fd5b88519750602089015196506040890151955060608901516200030f81620002b6565b60808a01519095506200032281620002b6565b60a08a01519094506200033581620002b6565b60c08a01519093506200034881620002b6565b60e08a01519092506200035b81620002b6565b809150509295985092959890939650565b80516020820151600160c060020a031980821692919060088310156200039f57808360080360080260020a820283161693505b505050919050565b61112a80620003b76000396000f3fe608060405234801561001057600080fd5b50600436106100b25760e060020a600035046306fdde0381146100b757806310cc7305146100d35780633197cbb6146100e6578063523f0e8c146100ef5780635510b851146100f85780635aee021a146101185780635b1cf18c1461012157806378e979251461014457806382afd23b1461014d578063ba95a0ee14610160578063d4de175814610173578063e208c1f214610186578063f1485a13146101af575b600080fd5b6100c060035481565b6040519081526020015b60405180910390f35b6100c06100e1366004610f27565b6101c4565b6100c060015481565b6100c060025481565b61010b610106366004610f4b565b610547565b6040516100ca9190610f75565b6100c060055481565b61013461012f366004610fa6565b610a82565b60405190151581526020016100ca565b6100c060005481565b61013461015b36600461100a565b610b8a565b60045461010b90600160a060020a031681565b610134610181366004610f4b565b610ba1565b61010b610194366004610f4b565b600660205260009081526040902054600160a060020a031681565b6101346101bd36600461100a565b6001541090565b60006006600060405180604001604052806002815260200160f160020a612821028152506101f190611023565b600160c060020a03191681526020810191909152604090810160002054905160e060020a6310cc7305028152600160a060020a03909116906310cc73059061023d908590600401610f75565b602060405180830381865afa15801561025a573d6000803e3d6000fd5b505050506040513d601f19601f8201168201806040525081019061027e919061105d565b6006600060405180604001604052806002815260200160f060020a61504b028152506102a990611023565b600160c060020a03191681526020810191909152604090810160002054905160e060020a6310cc7305028152600160a060020a03909116906310cc7305906102f5908690600401610f75565b602060405180830381865afa158015610312573d6000803e3d6000fd5b505050506040513d601f19601f82011682018060405250810190610336919061105d565b6006600060405180604001604052806002815260200160f060020a6150530281525061036190611023565b600160c060020a03191681526020810191909152604090810160002054905160e060020a6310cc7305028152600160a060020a03909116906310cc7305906103ad908790600401610f75565b602060405180830381865afa1580156103ca573d6000803e3d6000fd5b505050506040513d601f19601f820116820180604052508101906103ee919061105d565b6006600060405180604001604052806002815260200160f460020a6105050281525061041990611023565b600160c060020a03191681526020810191909152604090810160002054905160e060020a6310cc7305028152600160a060020a03909116906310cc730590610465908890600401610f75565b602060405180830381865afa158015610482573d6000803e3d6000fd5b505050506040513d601f19601f820116820180604052508101906104a6919061105d565b6004805460405160e060020a6310cc7305028152600160a060020a03909116916310cc7305916104d8918a9101610f75565b602060405180830381865afa1580156104f5573d6000803e3d6000fd5b505050506040513d601f19601f82011682018060405250810190610519919061105d565b6105239190611076565b61052d9190611076565b6105379190611076565b6105419190611076565b92915050565b6004805460405160e060020a635510b8510281526000928392600160a060020a031691635510b8519161057c918791016110a0565b602060405180830381865afa158015610599573d6000803e3d6000fd5b505050506040513d601f19601f820116820180604052508101906105bd91906110b5565b600160a060020a03161461063e576004805460405160e060020a635510b851028152600160a060020a0390911691635510b851916105fd918691016110a0565b602060405180830381865afa15801561061a573d6000803e3d6000fd5b505050506040513d601f19601f8201168201806040525081019061054191906110b5565b6000600160a060020a03166006600060405180604001604052806002815260200160f460020a6105050281525061067490611023565b600160c060020a03191681526020810191909152604090810160002054905160e060020a635510b851028152600160a060020a0390911690635510b851906106c09086906004016110a0565b602060405180830381865afa1580156106dd573d6000803e3d6000fd5b505050506040513d601f19601f8201168201806040525081019061070191906110b5565b600160a060020a031614610786576006600060405180604001604052806002815260200160f460020a6105050281525061073a90611023565b600160c060020a03191681526020810191909152604090810160002054905160e060020a635510b851028152600160a060020a0390911690635510b851906105fd9085906004016110a0565b6000600160a060020a03166006600060405180604001604052806002815260200160f060020a615053028152506107bc90611023565b600160c060020a03191681526020810191909152604090810160002054905160e060020a635510b851028152600160a060020a0390911690635510b851906108089086906004016110a0565b602060405180830381865afa158015610825573d6000803e3d6000fd5b505050506040513d601f19601f8201168201806040525081019061084991906110b5565b600160a060020a031614610882576006600060405180604001604052806002815260200160f060020a6150530281525061073a90611023565b6000600160a060020a03166006600060405180604001604052806002815260200160f060020a61504b028152506108b890611023565b600160c060020a03191681526020810191909152604090810160002054905160e060020a635510b851028152600160a060020a0390911690635510b851906109049086906004016110a0565b602060405180830381865afa158015610921573d6000803e3d6000fd5b505050506040513d601f19601f8201168201806040525081019061094591906110b5565b600160a060020a03161461097e576006600060405180604001604052806002815260200160f060020a61504b0281525061073a90611023565b6000600160a060020a03166006600060405180604001604052806002815260200160f160020a612821028152506109b490611023565b600160c060020a03191681526020810191909152604090810160002054905160e060020a635510b851028152600160a060020a0390911690635510b85190610a009086906004016110a0565b602060405180830381865afa158015610a1d573d6000803e3d6000fd5b505050506040513d601f19601f82011682018060405250810190610a4191906110b5565b600160a060020a031614610a7a576006600060405180604001604052806002815260200160f160020a6128210281525061073a90611023565b506000919050565b600080548610158015610a9757506001548611155b610b085760405160e560020a62461bcd02815260206004820152603260248201527f43616e74206361737420766f74652c20456c656374696f6e206e6f74206f70656044820152607060020a716e656420796574206f7220636c6f7365642102606482015260840160405180910390fd5b60405160e060020a63722bdf1d0281526001608060020a0319808616600483015284166024820152600160a060020a03838116604483015286169063722bdf1d90606401600060405180830381600087803b158015610b6657600080fd5b505af1158015610b7a573d6000803e3d6000fd5b5060019998505050505050505050565b600080548210158015610541575050600154101590565b6004805460405160e360020a631a9bc2eb028152600092600160a060020a039092169163d4de175891610bd6918691016110a0565b602060405180830381865afa158015610bf3573d6000803e3d6000fd5b505050506040513d601f19601f82011682018060405250810190610c1791906110d2565b80610cd557506006600060405180604001604052806002815260200160f460020a61050502815250610c4890611023565b600160c060020a03191681526020810191909152604090810160002054905160e360020a631a9bc2eb028152600160a060020a039091169063d4de175890610c949085906004016110a0565b602060405180830381865afa158015610cb1573d6000803e3d6000fd5b505050506040513d601f19601f82011682018060405250810190610cd591906110d2565b80610d9357506006600060405180604001604052806002815260200160f060020a61505302815250610d0690611023565b600160c060020a03191681526020810191909152604090810160002054905160e360020a631a9bc2eb028152600160a060020a039091169063d4de175890610d529085906004016110a0565b602060405180830381865afa158015610d6f573d6000803e3d6000fd5b505050506040513d601f19601f82011682018060405250810190610d9391906110d2565b80610e5157506006600060405180604001604052806002815260200160f060020a61504b02815250610dc490611023565b600160c060020a03191681526020810191909152604090810160002054905160e360020a631a9bc2eb028152600160a060020a039091169063d4de175890610e109085906004016110a0565b602060405180830381865afa158015610e2d573d6000803e3d6000fd5b505050506040513d601f19601f82011682018060405250810190610e5191906110d2565b8061054157506006600060405180604001604052806002815260200160f160020a61282102815250610e8290611023565b600160c060020a03191681526020810191909152604090810160002054905160e360020a631a9bc2eb028152600160a060020a039091169063d4de175890610ece9085906004016110a0565b602060405180830381865afa158015610eeb573d6000803e3d6000fd5b505050506040513d601f19601f8201168201806040525081019061054191906110d2565b600160a060020a0381168114610f2457600080fd5b50565b600060208284031215610f3957600080fd5b8135610f4481610f0f565b9392505050565b600060208284031215610f5d57600080fd5b8135600160c060020a031981168114610f4457600080fd5b600160a060020a0391909116815260200190565b80356001608060020a031981168114610fa157600080fd5b919050565b600080600080600060a08688031215610fbe57600080fd5b853594506020860135610fd081610f0f565b9350610fde60408701610f89565b9250610fec60608701610f89565b91506080860135610ffc81610f0f565b809150509295509295909350565b60006020828403121561101c57600080fd5b5035919050565b80516020820151600160c060020a0319808216929190600883101561105557808360080360080260020a820283161693505b505050919050565b60006020828403121561106f57600080fd5b5051919050565b6000821982111561109b5760e060020a634e487b710260009081526011600452602490fd5b500190565b600160c060020a031991909116815260200190565b6000602082840312156110c757600080fd5b8151610f4481610f0f565b6000602082840312156110e457600080fd5b81518015158114610f4457600080fdfea26469706673582212201e8f10a2c62522a8bded5cf876e5e6aff2e497ba2c5b7ec43d739dc55b6c849764736f6c634300080e0033a26469706673582212203aace13dae4f3b87337c0562f7cef8ed20b9355d513176f1b9b9a56c016e5f2f64736f6c634300080e0033",
  "immutableReferences": {},
  "source": "// SPDX-License-Identifier: MIT\r\npragma solidity >=0.4.22 <0.9.0;\r\nimport \"./Election.sol\";\r\nimport \"./ElectionManager.sol\";\r\nimport \"./Constituency.sol\";\r\n\r\ncontract CreateGE{\r\n    ElectionManager private em;\r\n\r\n    uint constant private NA_CONSTITUENCIES_SIZE = 4; // 272;\r\n    uint constant private PA_PP_CONSTITUENCIES_SIZE = 2; // 297;\r\n    uint constant private PA_PS_CONSTITUENCIES_SIZE = 2; // 130;\r\n    uint constant private PA_PK_CONSTITUENCIES_SIZE = 2; // 115;\r\n    uint constant private PA_PB_CONSTITUENCIES_SIZE = 2; // 51;\r\n    constructor(ElectionManager _em){\r\n        em = _em;\r\n        em.setCreateGE(this);\r\n    }\r\n    function createGeneralElection(uint256 _startTime, uint256 _endTime, bytes32 _name) public returns(GeneralElection GE) {\r\n        bytes8 null_const_name;\r\n\r\n        NationalElection nationals = new NationalElection(_startTime, _endTime, bytes32(bytes(\"National Assembly\")), em.getElectionConstituencies(NA_CONSTITUENCIES_SIZE, null_const_name, 0x4e412d));\r\n\r\n        ProvincialElection PP = new ProvincialElection(_startTime, _endTime, bytes32(bytes(\"Punjab\")), em.getElectionConstituencies(PA_PP_CONSTITUENCIES_SIZE, null_const_name, 0x50502d));\r\n        ProvincialElection PS = new ProvincialElection(_startTime, _endTime, bytes32(bytes(\"Sindh\")), em.getElectionConstituencies(PA_PS_CONSTITUENCIES_SIZE, null_const_name, 0x50532d));\r\n        ProvincialElection PK = new ProvincialElection(_startTime, _endTime, bytes32(bytes(\"Khyber Pakhtunkhwa\")), em.getElectionConstituencies(PA_PK_CONSTITUENCIES_SIZE, null_const_name, 0x504b2d));\r\n        ProvincialElection PB = new ProvincialElection(_startTime, _endTime, bytes32(bytes(\"Balochistan\")), em.getElectionConstituencies(PA_PB_CONSTITUENCIES_SIZE, null_const_name, 0x50422d));\r\n    \r\n        return new GeneralElection(\r\n            _startTime,\r\n            _endTime,\r\n            _name,\r\n            nationals,\r\n            PP,\r\n            PS,\r\n            PK,\r\n            PB\r\n        );\r\n    }\r\n}",
  "sourcePath": "/Users/apple/Computer/Programming/Learning/react-native/FYP/Website/decentralized-voting-system-h3-fyp2-fix/truffle/contracts/CreateGE.sol",
  "compiler": {
    "name": "solc",
    "version": "0.8.14+commit.80d49f37.Emscripten.clang"
  },
  "schemaVersion": "3.4.13",
  "updatedAt": "2023-06-12T05:49:12.278Z",
  "networkType": "ethereum",
  "devdoc": {
    "kind": "dev",
    "methods": {},
    "version": 1
  },
  "userdoc": {
    "kind": "user",
    "methods": {},
    "version": 1
  }
}