{
  "contractName": "CreatePE",
  "abi": [
    {
      "inputs": [
        {
          "internalType": "contract ElectionManager",
          "name": "_em",
          "type": "address"
        }
      ],
      "stateMutability": "nonpayable",
      "type": "constructor"
    },
    {
      "inputs": [
        {
          "internalType": "uint256",
          "name": "_startTime",
          "type": "uint256"
        },
        {
          "internalType": "uint256",
          "name": "_endTime",
          "type": "uint256"
        },
        {
          "internalType": "bytes32",
          "name": "_name",
          "type": "bytes32"
        },
        {
          "internalType": "bytes3",
          "name": "_pre_name",
          "type": "bytes3"
        }
      ],
      "name": "createProvincialElection",
      "outputs": [
        {
          "internalType": "contract ProvincialElection",
          "name": "PE",
          "type": "address"
        }
      ],
      "stateMutability": "nonpayable",
      "type": "function"
    }
  ],
  "bytecode": "0x608060405234801561001057600080fd5b5060405161109d38038061109d83398101604081905261002f916100ba565b60008054600160a060020a031916600160a060020a0383169081179091556040517fa89effab00000000000000000000000000000000000000000000000000000000815230600482015263a89effab90602401600060405180830381600087803b15801561009c57600080fd5b505af11580156100b0573d6000803e3d6000fd5b50505050506100ea565b6000602082840312156100cc57600080fd5b8151600160a060020a03811681146100e357600080fd5b9392505050565b610fa4806100f96000396000f3fe608060405234801561001057600080fd5b506004361061002e5760e060020a60003504634965380e8114610033575b600080fd5b6100466100413660046101d2565b610062565b604051600160a060020a03909116815260200160405180910390f35b60008080600160e860020a0319841660e860020a6250502d0203610088575060026100ea565b600160e860020a0319841660e860020a6250532d02036100aa575060026100ea565b600160e860020a0319841660e860020a62504b2d02036100cc575060026100ea565b600160e860020a0319841660e860020a6250422d02036100ea575060025b60005460405160e060020a6349b3495d02815260048101839052600160c060020a031984166024820152600160e860020a031986166044820152889188918891600160a060020a0316906349b3495d906064016000604051808303816000875af115801561015c573d6000803e3d6000fd5b505050506040513d6000823e601f3d908101601f191682016040526101849190810190610256565b604051610190906101c5565b61019d9493929190610319565b604051809103906000f0801580156101b9573d6000803e3d6000fd5b50979650505050505050565b610bf08061037f83390190565b600080600080608085870312156101e857600080fd5b8435935060208501359250604085013591506060850135600160e860020a03198116811461021557600080fd5b939692955090935050565b60e060020a634e487b710260009081526041600452602490fd5b8051600160a060020a038116811461025157600080fd5b919050565b6000602080838503121561026957600080fd5b82516001604060020a038082111561028057600080fd5b818501915085601f83011261029457600080fd5b8151818111156102a6576102a6610220565b838102604051601f19603f830116810181811085821117156102ca576102ca610220565b6040529182528482019250838101850191888311156102e857600080fd5b938501935b8285101561030d576102fe8561023a565b845293850193928501926102ed565b98975050505050505050565b600060808201868352602086818501528560408501526080606085015281855180845260a086019150828701935060005b8181101561036f578451600160a060020a03168352938301939183019160010161034a565b5090999850505050505050505056fe60806040523480156200001157600080fd5b5060405162000bf038038062000bf08339810160408190526200003491620002ff565b805160010362000068577f50726f76696e6369616c20436f6e7374697475656e637920456c656374696f6e6002556200008d565b7f50726f76696e6369616c20456c656374696f6e000000000000000000000000006002555b6000848155600184905560038390555b8151811015620002a857818181518110620000bc57620000bc620003ee565b602002602001015160066000848481518110620000dd57620000dd620003ee565b6020026020010151600160a060020a03166306fdde036040518163ffffffff167c0100000000000000000000000000000000000000000000000000000000028152600401602060405180830381865afa1580156200013f573d6000803e3d6000fd5b505050506040513d601f19601f820116820180604052508101906200016591906200041d565b600160c060020a031916815260208101919091526040016000208054600160a060020a031916600160a060020a03929092169190911790558151829082908110620001b457620001b4620003ee565b6020026020010151600160a060020a03166306fdde036040518163ffffffff167c0100000000000000000000000000000000000000000000000000000000028152600401602060405180830381865afa15801562000216573d6000803e3d6000fd5b505050506040513d601f19601f820116820180604052508101906200023c91906200041d565b600480546000908152600560205260408120805467ffffffffffffffff19167801000000000000000000000000000000000000000000000000909404939093179092558054916200028d8362000450565b919050555080806200029f9062000450565b9150506200009d565b505050505062000491565b7f4e487b7100000000000000000000000000000000000000000000000000000000600052604160045260246000fd5b8051600160a060020a0381168114620002fa57600080fd5b919050565b600080600080608085870312156200031657600080fd5b84519350602080860151935060408601519250606086015167ffffffffffffffff808211156200034557600080fd5b818801915088601f8301126200035a57600080fd5b8151818111156200036f576200036f620002b3565b838102604051601f19603f83011681018181108582111715620003965762000396620002b3565b60405291825284820192508381018501918b831115620003b557600080fd5b938501935b82851015620003de57620003ce85620002e2565b84529385019392850192620003ba565b989b979a50959850505050505050565b7f4e487b7100000000000000000000000000000000000000000000000000000000600052603260045260246000fd5b6000602082840312156200043057600080fd5b8151600160c060020a0319811681146200044957600080fd5b9392505050565b6000600182016200048a577f4e487b7100000000000000000000000000000000000000000000000000000000600052601160045260246000fd5b5060010190565b61074f80620004a16000396000f3fe608060405234801561001057600080fd5b50600436106100bd5760e060020a600035046306fdde0381146100c25780630b817c38146100de57806310cc7305146100f35780633197cbb614610106578063324510b41461010f578063523f0e8c1461014e5780635510b851146101575780635b1cf18c1461019757806378e97925146101ba57806382afd23b146101c3578063d4de1758146101d6578063f1485a13146101e9578063f47d628d146101fe578063f821b42d14610207575b600080fd5b6100cb60035481565b6040519081526020015b60405180910390f35b6100e6610230565b6040516100d59190610537565b6100cb61010136600461059c565b610303565b6100cb60015481565b61013561011d3660046105c0565b60056020526000908152604090205460c060020a0281565b604051600160c060020a031990911681526020016100d5565b6100cb60025481565b61018a6101653660046105d9565b600160c060020a031916600090815260066020526040902054600160a060020a031690565b6040516100d59190610603565b6101aa6101a5366004610634565b6103dd565b60405190151581526020016100d5565b6100cb60005481565b6101aa6101d13660046105c0565b6104e5565b6101aa6101e43660046105d9565b610500565b6101aa6101f73660046105c0565b6001541090565b6100cb60045481565b61018a6102153660046105d9565b600660205260009081526040902054600160a060020a031681565b606060006004546001604060020a0381111561024e5761024e610698565b604051908082528060200260200182016040528015610277578160200160208202803683370190505b50905060005b6004548110156102fd5760008181526005602090815260408083205460c060020a02600160c060020a031916835260069091529020548251600160a060020a03909116908390839081106102d3576102d36106b2565b600160a060020a0390921660209283029190910190910152806102f5816106cc565b91505061027d565b50919050565b60008060005b6004548110156103d65760008181526005602090815260408083205460c060020a02600160c060020a031916835260069091529081902054905160e060020a639d9ca28d028152600160a060020a0390911690639d9ca28d90610370908790600401610603565b602060405180830381865afa15801561038d573d6000803e3d6000fd5b505050506040513d601f19601f820116820180604052508101906103b191906106f7565b156103c457816103c0816106cc565b9250505b806103ce816106cc565b915050610309565b5092915050565b6000805486101580156103f257506001548611155b6104635760405160e560020a62461bcd02815260206004820152603260248201527f43616e74206361737420766f74652c20456c656374696f6e206e6f74206f70656044820152607060020a716e656420796574206f7220636c6f7365642102606482015260840160405180910390fd5b60405160e060020a63722bdf1d0281526001608060020a0319808616600483015284166024820152600160a060020a03838116604483015286169063722bdf1d90606401600060405180830381600087803b1580156104c157600080fd5b505af11580156104d5573d6000803e3d6000fd5b5060019998505050505050505050565b6000805482101580156104fa57506001548211155b92915050565b600160c060020a03198116600090815260066020526040812054600160a060020a03161561052f5760016104fa565b600092915050565b6020808252825182820181905260009190848201906040850190845b81811015610578578351600160a060020a031683529284019291840191600101610553565b50909695505050505050565b600160a060020a038116811461059957600080fd5b50565b6000602082840312156105ae57600080fd5b81356105b981610584565b9392505050565b6000602082840312156105d257600080fd5b5035919050565b6000602082840312156105eb57600080fd5b8135600160c060020a0319811681146105b957600080fd5b600160a060020a0391909116815260200190565b80356001608060020a03198116811461062f57600080fd5b919050565b600080600080600060a0868803121561064c57600080fd5b85359450602086013561065e81610584565b935061066c60408701610617565b925061067a60608701610617565b9150608086013561068a81610584565b809150509295509295909350565b60e060020a634e487b710260009081526041600452602490fd5b60e060020a634e487b710260009081526032600452602490fd5b6000600182016106f05760e060020a634e487b710260009081526011600452602490fd5b5060010190565b60006020828403121561070957600080fd5b815180151581146105b957600080fdfea26469706673582212204d703a9bffeac5c0f32bd98c85f39d41a501bb398a10a0842b3c06a3ac1292c564736f6c634300080e0033a264697066735822122051a10cf946c074dd41a19db35372a6466fc3e71701b548204663e9e0eeeccabc64736f6c634300080e0033",
  "immutableReferences": {},
  "source": "// SPDX-License-Identifier: MIT\r\npragma solidity >=0.4.22 <0.9.0;\r\nimport \"./Election.sol\";\r\nimport \"./ElectionManager.sol\";\r\nimport \"./Constituency.sol\";\r\n\r\ncontract CreatePE{\r\n    ElectionManager private em;\r\n    \r\n    uint constant private PA_PP_CONSTITUENCIES_SIZE = 2; // 297;\r\n    uint constant private PA_PS_CONSTITUENCIES_SIZE = 2; // 130;\r\n    uint constant private PA_PK_CONSTITUENCIES_SIZE = 2; // 115;\r\n    uint constant private PA_PB_CONSTITUENCIES_SIZE = 2; // 51;\r\n\r\n    constructor(ElectionManager _em){\r\n        em = _em;\r\n        em.setCreatePE(this);\r\n    }\r\n    \r\n    function createProvincialElection(uint256 _startTime, uint256 _endTime, bytes32 _name, bytes3 _pre_name) public returns(ProvincialElection PE)  {\r\n        bytes8 null_const_name;\r\n        uint256 const_size;\r\n        if(_pre_name == 0x50502d)\r\n            const_size = PA_PP_CONSTITUENCIES_SIZE;\r\n        else if(_pre_name == 0x50532d)\r\n            const_size = PA_PS_CONSTITUENCIES_SIZE;\r\n        else if(_pre_name == 0x504b2d)\r\n            const_size = PA_PK_CONSTITUENCIES_SIZE;\r\n        else if(_pre_name == 0x50422d)\r\n            const_size = PA_PB_CONSTITUENCIES_SIZE;\r\n        \r\n       return new ProvincialElection(\r\n            _startTime,\r\n            _endTime,\r\n            _name,\r\n            em.getElectionConstituencies(const_size, null_const_name, _pre_name));\r\n    }\r\n    \r\n}",
  "sourcePath": "/Users/apple/Computer/Programming/Learning/react-native/FYP/Website/decentralized-voting-system-h3-fyp2-fix/truffle/contracts/CreatePE.sol",
  "compiler": {
    "name": "solc",
    "version": "0.8.14+commit.80d49f37.Emscripten.clang"
  },
  "schemaVersion": "3.4.13",
  "updatedAt": "2023-06-12T05:49:12.286Z",
  "networkType": "ethereum",
  "devdoc": {
    "kind": "dev",
    "methods": {},
    "version": 1
  },
  "userdoc": {
    "kind": "user",
    "methods": {},
    "version": 1
  }
}