{
  "contractName": "ECP",
  "abi": [
    {
      "inputs": [],
      "name": "candidateManager",
      "outputs": [
        {
          "internalType": "contract CandidateManager",
          "name": "",
          "type": "address"
        }
      ],
      "stateMutability": "view",
      "type": "function",
      "constant": true
    },
    {
      "inputs": [],
      "name": "electionManager",
      "outputs": [
        {
          "internalType": "contract ElectionManager",
          "name": "",
          "type": "address"
        }
      ],
      "stateMutability": "view",
      "type": "function",
      "constant": true
    },
    {
      "inputs": [],
      "name": "partyManager",
      "outputs": [
        {
          "internalType": "contract PartyManager",
          "name": "",
          "type": "address"
        }
      ],
      "stateMutability": "view",
      "type": "function",
      "constant": true
    },
    {
      "inputs": [],
      "name": "voterManager",
      "outputs": [
        {
          "internalType": "contract VoterManager",
          "name": "",
          "type": "address"
        }
      ],
      "stateMutability": "view",
      "type": "function",
      "constant": true
    },
    {
      "inputs": [
        {
          "internalType": "contract VoterManager",
          "name": "_voterManager",
          "type": "address"
        }
      ],
      "name": "setVoterManager",
      "outputs": [],
      "stateMutability": "nonpayable",
      "type": "function"
    },
    {
      "inputs": [
        {
          "internalType": "contract CandidateManager",
          "name": "_candidateManager",
          "type": "address"
        }
      ],
      "name": "setCandidateManager",
      "outputs": [],
      "stateMutability": "nonpayable",
      "type": "function"
    },
    {
      "inputs": [
        {
          "internalType": "contract PartyManager",
          "name": "_partyManager",
          "type": "address"
        }
      ],
      "name": "setPartyManager",
      "outputs": [],
      "stateMutability": "nonpayable",
      "type": "function"
    },
    {
      "inputs": [
        {
          "internalType": "contract ElectionManager",
          "name": "_electionManager",
          "type": "address"
        }
      ],
      "name": "setElectionManager",
      "outputs": [],
      "stateMutability": "nonpayable",
      "type": "function"
    }
  ],
  "bytecode": "0x608060405234801561001057600080fd5b5061021c806100206000396000f3fe608060405234801561001057600080fd5b506004361061007b5760e060020a60003504630db4dde7811461008057806344042216146100b25780635c70717f146100e257806365910a4f1461011257806375a32cd1146101415780637da3294914610171578063a6a41f4414610184578063a7a1bb7914610197575b600080fd5b6100b061008e3660046101c2565b60038054600160a060020a031916600160a060020a0392909216919091179055565b005b6100b06100c03660046101c2565b60028054600160a060020a031916600160a060020a0392909216919091179055565b6100b06100f03660046101c2565b60008054600160a060020a031916600160a060020a0392909216919091179055565b60005461012590600160a060020a031681565b604051600160a060020a03909116815260200160405180910390f35b6100b061014f3660046101c2565b60018054600160a060020a031916600160a060020a0392909216919091179055565b60035461012590600160a060020a031681565b60015461012590600160a060020a031681565b60025461012590600160a060020a031681565b600160a060020a03811681146101bf57600080fd5b50565b6000602082840312156101d457600080fd5b81356101df816101aa565b939250505056fea26469706673582212203d258da74bc33b404e6119525a83538fa6a088ac47fe1a1631525fff57b7be2f64736f6c634300080e0033",
  "immutableReferences": {},
  "source": "// SPDX-License-Identifier: MIT\r\npragma solidity >=0.4.22 <0.9.0;\r\n// import \"./console.sol\";\r\nimport \"./VoterManager.sol\";\r\nimport \"./CandidateManager.sol\";\r\nimport \"./PartyManager.sol\";\r\nimport \"./ElectionManager.sol\";\r\n\r\ncontract ECP {\r\n\r\n    VoterManager public voterManager;\r\n    CandidateManager public candidateManager;\r\n    PartyManager public partyManager;\r\n    ElectionManager public electionManager;\r\n\r\n    function setVoterManager(VoterManager _voterManager) public  {\r\n        voterManager = _voterManager;\r\n    }\r\n\r\n    function setCandidateManager(CandidateManager _candidateManager) public  {\r\n        candidateManager = _candidateManager;\r\n    }\r\n\r\n    function setPartyManager(PartyManager _partyManager) public  {\r\n        partyManager = _partyManager;\r\n    }\r\n\r\n    function setElectionManager(ElectionManager _electionManager) public  {\r\n        electionManager = _electionManager;\r\n    }\r\n    \r\n}\r\n",
  "sourcePath": "/Users/apple/Computer/Programming/Learning/react-native/FYP/Website/decentralized-voting-system-h3-fyp2-fix/truffle/contracts/ECP.sol",
  "compiler": {
    "name": "solc",
    "version": "0.8.14+commit.80d49f37.Emscripten.clang"
  },
  "schemaVersion": "3.4.13",
  "updatedAt": "2023-06-12T05:49:12.212Z",
  "networkType": "ethereum",
  "devdoc": {
    "kind": "dev",
    "methods": {},
    "version": 1
  },
  "userdoc": {
    "kind": "user",
    "methods": {},
    "version": 1
  }
}