{
  "contractName": "ElectionManager",
  "abi": [
    {
      "inputs": [
        {
          "internalType": "address",
          "name": "_ecpAdd",
          "type": "address"
        },
        {
          "internalType": "address",
          "name": "_cons_data",
          "type": "address"
        }
      ],
      "stateMutability": "nonpayable",
      "type": "constructor"
    },
    {
      "inputs": [
        {
          "internalType": "uint256",
          "name": "",
          "type": "uint256"
        }
      ],
      "name": "elections",
      "outputs": [
        {
          "internalType": "contract Election",
          "name": "",
          "type": "address"
        }
      ],
      "stateMutability": "view",
      "type": "function",
      "constant": true
    },
    {
      "inputs": [],
      "name": "elections_count",
      "outputs": [
        {
          "internalType": "uint256",
          "name": "",
          "type": "uint256"
        }
      ],
      "stateMutability": "view",
      "type": "function",
      "constant": true
    },
    {
      "inputs": [
        {
          "internalType": "contract CreateGE",
          "name": "_create_ge",
          "type": "address"
        }
      ],
      "name": "setCreateGE",
      "outputs": [],
      "stateMutability": "nonpayable",
      "type": "function"
    },
    {
      "inputs": [
        {
          "internalType": "contract CreatePE",
          "name": "_create_pe",
          "type": "address"
        }
      ],
      "name": "setCreatePE",
      "outputs": [],
      "stateMutability": "nonpayable",
      "type": "function"
    },
    {
      "inputs": [
        {
          "internalType": "contract CreateNAE",
          "name": "_create_nae",
          "type": "address"
        }
      ],
      "name": "setCreateNAE",
      "outputs": [],
      "stateMutability": "nonpayable",
      "type": "function"
    },
    {
      "inputs": [
        {
          "internalType": "contract CreatePAE",
          "name": "_create_pae",
          "type": "address"
        }
      ],
      "name": "setCreatePAE",
      "outputs": [],
      "stateMutability": "nonpayable",
      "type": "function"
    },
    {
      "inputs": [
        {
          "internalType": "uint256",
          "name": "const_size",
          "type": "uint256"
        },
        {
          "internalType": "bytes8",
          "name": "const_name",
          "type": "bytes8"
        },
        {
          "internalType": "bytes3",
          "name": "pre_name",
          "type": "bytes3"
        }
      ],
      "name": "getElectionConstituencies",
      "outputs": [
        {
          "internalType": "contract Constituency[]",
          "name": "",
          "type": "address[]"
        }
      ],
      "stateMutability": "nonpayable",
      "type": "function"
    },
    {
      "inputs": [
        {
          "internalType": "uint256",
          "name": "_startTime",
          "type": "uint256"
        },
        {
          "internalType": "uint256",
          "name": "_endTime",
          "type": "uint256"
        },
        {
          "internalType": "bytes32",
          "name": "_name",
          "type": "bytes32"
        }
      ],
      "name": "createGeneralElection",
      "outputs": [],
      "stateMutability": "nonpayable",
      "type": "function"
    },
    {
      "inputs": [
        {
          "internalType": "uint256",
          "name": "_startTime",
          "type": "uint256"
        },
        {
          "internalType": "uint256",
          "name": "_endTime",
          "type": "uint256"
        },
        {
          "internalType": "bytes32",
          "name": "_name",
          "type": "bytes32"
        },
        {
          "internalType": "bytes3",
          "name": "_pre_name",
          "type": "bytes3"
        }
      ],
      "name": "createProvincialElection",
      "outputs": [],
      "stateMutability": "nonpayable",
      "type": "function"
    },
    {
      "inputs": [
        {
          "internalType": "uint256",
          "name": "_startTime",
          "type": "uint256"
        },
        {
          "internalType": "uint256",
          "name": "_endTime",
          "type": "uint256"
        },
        {
          "internalType": "bytes32",
          "name": "_name",
          "type": "bytes32"
        },
        {
          "internalType": "bytes8",
          "name": "_na_name",
          "type": "bytes8"
        }
      ],
      "name": "createNAElection",
      "outputs": [],
      "stateMutability": "nonpayable",
      "type": "function"
    },
    {
      "inputs": [
        {
          "internalType": "uint256",
          "name": "_startTime",
          "type": "uint256"
        },
        {
          "internalType": "uint256",
          "name": "_endTime",
          "type": "uint256"
        },
        {
          "internalType": "bytes32",
          "name": "_name",
          "type": "bytes32"
        },
        {
          "internalType": "bytes8",
          "name": "_pa_name",
          "type": "bytes8"
        }
      ],
      "name": "createPAElection",
      "outputs": [],
      "stateMutability": "nonpayable",
      "type": "function"
    },
    {
      "inputs": [
        {
          "internalType": "uint256",
          "name": "currentTime",
          "type": "uint256"
        }
      ],
      "name": "getResults",
      "outputs": [
        {
          "internalType": "contract Election[]",
          "name": "",
          "type": "address[]"
        }
      ],
      "stateMutability": "view",
      "type": "function",
      "constant": true
    },
    {
      "inputs": [
        {
          "internalType": "uint256",
          "name": "currentTime",
          "type": "uint256"
        }
      ],
      "name": "getNotActiveElections",
      "outputs": [
        {
          "internalType": "contract Election[]",
          "name": "",
          "type": "address[]"
        }
      ],
      "stateMutability": "view",
      "type": "function",
      "constant": true
    },
    {
      "inputs": [
        {
          "internalType": "bytes8",
          "name": "_constituency_name",
          "type": "bytes8"
        },
        {
          "internalType": "uint256",
          "name": "currentTime",
          "type": "uint256"
        }
      ],
      "name": "getElectionConstituency",
      "outputs": [
        {
          "components": [
            {
              "internalType": "address[]",
              "name": "election_adds",
              "type": "address[]"
            },
            {
              "internalType": "bytes32[]",
              "name": "election_names",
              "type": "bytes32[]"
            },
            {
              "internalType": "address[]",
              "name": "const_adds",
              "type": "address[]"
            }
          ],
          "internalType": "struct ElectionManager.ElectionConstituency",
          "name": "",
          "type": "tuple"
        }
      ],
      "stateMutability": "view",
      "type": "function",
      "constant": true
    }
  ],
  "bytecode": "0x60806040523480156200001157600080fd5b5060405162002804380380620028048339810160408190526200003491620000f0565b60008054600160a060020a03848116600160a060020a0319928316811790935560018054918516919092161790556040517f0db4dde7000000000000000000000000000000000000000000000000000000008152306004820152630db4dde790602401600060405180830381600087803b158015620000b257600080fd5b505af1158015620000c7573d6000803e3d6000fd5b50505050505062000128565b8051600160a060020a0381168114620000eb57600080fd5b919050565b600080604083850312156200010457600080fd5b6200010f83620000d3565b91506200011f60208401620000d3565b90509250929050565b6126cc80620001386000396000f3fe60806040523480156200001157600080fd5b5060043610620000cd5760e060020a600035046320d430cb8114620000d257806329edfd2514620000eb5780633a0350171462000102578063462abcf314620001315780634965380e146200015757806349b3495d146200016e5780635e6fef01146200018557806374c3ea3314620001ca57806381a60c0d14620001fd5780639f389be01462000214578063a89effab1462000247578063bed0adfe146200027a578063dc492e191462000293578063e3b3128e14620002c6575b600080fd5b620000e9620000e3366004620015bb565b620002dd565b005b620000e9620000fc366004620015ff565b620003a8565b62000119620001133660046200162c565b62000474565b604051620001289190620016a1565b60405180910390f35b620001486200014236600462001730565b62000a9b565b6040516200012891906200174a565b620000e962000168366004620017b7565b62000cc6565b620001486200017f366004620017f9565b62000d19565b620001b16200019636600462001730565b600760205260009081526040902054600160a060020a031681565b604051600160a060020a03909116815260200162000128565b620000e9620001db36600462001852565b60048054600160a060020a031916600160a060020a0392909216919091179055565b620001486200020e36600462001730565b62001336565b620000e96200022536600462001852565b60028054600160a060020a031916600160a060020a0392909216919091179055565b620000e96200025836600462001852565b60038054600160a060020a031916600160a060020a0392909216919091179055565b6200028460065481565b60405190815260200162000128565b620000e9620002a436600462001852565b60058054600160a060020a031916600160a060020a0392909216919091179055565b620000e9620002d7366004620015bb565b62001559565b60055460405160e060020a6320d430cb028152600160a060020a03909116906320d430cb906200031890879087908790879060040162001879565b6020604051808303816000875af115801562000338573d6000803e3d6000fd5b505050506040513d601f19601f820116820180604052508101906200035e91906200189e565b6006805460009081526007602052604081208054600160a060020a031916600160a060020a0394909416939093179092558054916200039d83620018be565b919050555050505050565b60025460405160e060020a6329edfd25028152600481018590526024810184905260448101839052600160a060020a03909116906329edfd25906064016020604051808303816000875af115801562000405573d6000803e3d6000fd5b505050506040513d601f19601f820116820180604052508101906200042b91906200189e565b6006805460009081526007602052604081208054600160a060020a031916600160a060020a0394909416939093179092558054916200046a83620018be565b9190505550505050565b6200049960405180606001604052806060815260200160608152602001606081525090565b60006006546001604060020a03811115620004b857620004b8620018ea565b604051908082528060200260200182016040528015620004e2578160200160208202803683370190505b50905060006006546001604060020a03811115620005045762000504620018ea565b6040519080825280602002602001820160405280156200052e578160200160208202803683370190505b5090506000805b6006548110156200075c57600081815260076020526040902054600160a060020a03161562000747576000818152600760205260409081902054905160e060020a6382afd23b02815260048101889052600160a060020a03909116906382afd23b90602401602060405180830381865afa158015620005b8573d6000803e3d6000fd5b505050506040513d601f19601f82011682018060405250810190620005de919062001904565b838381518110620005f357620005f362001928565b9115156020928302919091018201526000828152600790915260409081902054905160e060020a6382afd23b02815260048101889052600160a060020a03909116906382afd23b90602401602060405180830381865afa1580156200065c573d6000803e3d6000fd5b505050506040513d601f19601f8201168201806040525081019062000682919062001904565b80156200071057506000818152600760205260409081902054905160e360020a631a9bc2eb028152600160a060020a039091169063d4de175890620006cc908a9060040162001942565b602060405180830381865afa158015620006ea573d6000803e3d6000fd5b505050506040513d601f19601f8201168201806040525081019062000710919062001904565b156200074757808483815181106200072c576200072c62001928565b6020908102919091010152816200074381620018be565b9250505b806200075381620018be565b91505062000535565b506000816001604060020a038111156200077a576200077a620018ea565b604051908082528060200260200182016040528015620007a4578160200160208202803683370190505b5090506000826001604060020a03811115620007c457620007c4620018ea565b604051908082528060200260200182016040528015620007ee578160200160208202803683370190505b5090506000836001604060020a038111156200080e576200080e620018ea565b60405190808252806020026020018201604052801562000838578160200160208202803683370190505b50905060005b8481101562000a77576007600088838151811062000860576200086062001928565b6020026020010151815260200190815260200160002060009054906101000a9004600160a060020a0316600160a060020a03166306fdde036040518163ffffffff1660e060020a028152600401602060405180830381865afa158015620008cb573d6000803e3d6000fd5b505050506040513d601f19601f82011682018060405250810190620008f1919062001957565b84828151811062000906576200090662001928565b602002602001018181525050600760008883815181106200092b576200092b62001928565b6020908102919091018101518252810191909152604090810160002054905160e060020a635510b851028152600160a060020a0390911690635510b8519062000979908d9060040162001942565b602060405180830381865afa15801562000997573d6000803e3d6000fd5b505050506040513d601f19601f82011682018060405250810190620009bd91906200189e565b838281518110620009d257620009d262001928565b6020026020010190600160a060020a03169081600160a060020a0316815250506007600088838151811062000a0b5762000a0b62001928565b6020026020010151815260200190815260200160002060009054906101000a9004600160a060020a031682828151811062000a4a5762000a4a62001928565b600160a060020a03909216602092830291909101909101528062000a6e81620018be565b9150506200083e565b50604080516060810182529182526020820193909352918201529695505050505050565b606060006006546001604060020a0381111562000abc5762000abc620018ea565b60405190808252806020026020018201604052801562000ae6578160200160208202803683370190505b5090506000805b60065481101562000be157600081815260076020526040902054600160a060020a03161562000bcc576000818152600760205260409081902054905160e060020a6382afd23b02815260048101879052600160a060020a03909116906382afd23b90602401602060405180830381865afa15801562000b70573d6000803e3d6000fd5b505050506040513d601f19601f8201168201806040525081019062000b96919062001904565b62000bcc578083838151811062000bb15762000bb162001928565b60209081029190910101528162000bc881620018be565b9250505b8062000bd881620018be565b91505062000aed565b506000816001604060020a0381111562000bff5762000bff620018ea565b60405190808252806020026020018201604052801562000c29578160200160208202803683370190505b50905060005b8281101562000cbd576007600085838151811062000c515762000c5162001928565b6020026020010151815260200190815260200160002060009054906101000a9004600160a060020a031682828151811062000c905762000c9062001928565b600160a060020a03909216602092830291909101909101528062000cb481620018be565b91505062000c2f565b50949350505050565b60035460405160e160020a6324b29c07028152600481018690526024810185905260448101849052600160e860020a031983166064820152600160a060020a0390911690634965380e9060840162000318565b60606000846001604060020a0381111562000d385762000d38620018ea565b60405190808252806020026020018201604052801562000d62578160200160208202803683370190505b50905060005b8581101562000cbd576000806001880362000f5e57869150600160e860020a0319861660e860020a624e412d020362000e925760008054906101000a9004600160a060020a0316600160a060020a03166365910a4f6040518163ffffffff1660e060020a028152600401602060405180830381865afa15801562000df0573d6000803e3d6000fd5b505050506040513d601f19601f8201168201806040525081019062000e1691906200189e565b600160a060020a031663f48acf12836040518263ffffffff1660e060020a02815260040162000e46919062001942565b602060405180830381865afa15801562000e64573d6000803e3d6000fd5b505050506040513d601f19601f8201168201806040525081019062000e8a919062001957565b9050620011ba565b600160e860020a0319861660e860020a6250412d020362000f585760008054906101000a9004600160a060020a0316600160a060020a03166365910a4f6040518163ffffffff1660e060020a028152600401602060405180830381865afa15801562000f02573d6000803e3d6000fd5b505050506040513d601f19601f8201168201806040525081019062000f2891906200189e565b600160a060020a0316634bfd5a77836040518263ffffffff1660e060020a02815260040162000e46919062001942565b620011ba565b600160e860020a0319861660e860020a624e412d0203620010435760015460405160e060020a63b911c4b102815260048101859052600160a060020a039091169063b911c4b190602401602060405180830381865afa15801562000fc6573d6000803e3d6000fd5b505050506040513d601f19601f8201168201806040525081019062000fec919062001971565b915060008054906101000a9004600160a060020a0316600160a060020a03166365910a4f6040518163ffffffff1660e060020a028152600401602060405180830381865afa15801562000df0573d6000803e3d6000fd5b60015460405160e160020a63718c25e9028152600160e860020a03198816600482015260248101859052600160a060020a039091169063e3184bd290604401602060405180830381865afa158015620010a0573d6000803e3d6000fd5b505050506040513d601f19601f82011682018060405250810190620010c6919062001971565b915060008054906101000a9004600160a060020a0316600160a060020a03166365910a4f6040518163ffffffff1660e060020a028152600401602060405180830381865afa1580156200111d573d6000803e3d6000fd5b505050506040513d601f19601f820116820180604052508101906200114391906200189e565b600160a060020a0316634bfd5a77836040518263ffffffff1660e060020a02815260040162001173919062001942565b602060405180830381865afa15801562001191573d6000803e3d6000fd5b505050506040513d601f19601f82011682018060405250810190620011b7919062001957565b90505b818160008054906101000a9004600160a060020a0316600160a060020a031663a7a1bb796040518163ffffffff1660e060020a028152600401602060405180830381865afa15801562001211573d6000803e3d6000fd5b505050506040513d601f19601f820116820180604052508101906200123791906200189e565b600160a060020a031663966e4613856040518263ffffffff1660e060020a02815260040162001267919062001942565b600060405180830381865afa15801562001285573d6000803e3d6000fd5b505050506040513d6000823e601f3d908101601f19168201604052620012af91908101906200199e565b604051620012bd9062001593565b620012cb9392919062001a63565b604051809103906000f080158015620012e8573d6000803e3d6000fd5b50848481518110620012fe57620012fe62001928565b6020026020010190600160a060020a03169081600160a060020a031681525050505080806200132d90620018be565b91505062000d68565b606060006006546001604060020a03811115620013575762001357620018ea565b60405190808252806020026020018201604052801562001381578160200160208202803683370190505b5090506000805b6006548110156200147d57600081815260076020526040902054600160a060020a03161562001468576000818152600760205260409081902054905160e060020a63f1485a1302815260048101879052600160a060020a039091169063f1485a1390602401602060405180830381865afa1580156200140b573d6000803e3d6000fd5b505050506040513d601f19601f8201168201806040525081019062001431919062001904565b156200146857808383815181106200144d576200144d62001928565b6020908102919091010152816200146481620018be565b9250505b806200147481620018be565b91505062001388565b506000816001604060020a038111156200149b576200149b620018ea565b604051908082528060200260200182016040528015620014c5578160200160208202803683370190505b50905060005b8281101562000cbd5760076000858381518110620014ed57620014ed62001928565b6020026020010151815260200190815260200160002060009054906101000a9004600160a060020a03168282815181106200152c576200152c62001928565b600160a060020a0390921660209283029190910190910152806200155081620018be565b915050620014cb565b6004805460405160e160020a6371d98947028152600160a060020a039091169163e3b3128e91620003189188918891889188910162001879565b610bca8062001acd83390190565b600160c060020a031981168114620015b857600080fd5b50565b60008060008060808587031215620015d257600080fd5b8435935060208501359250604085013591506060850135620015f481620015a1565b939692955090935050565b6000806000606084860312156200161557600080fd5b505081359360208301359350604090920135919050565b600080604083850312156200164057600080fd5b82356200164d81620015a1565b946020939093013593505050565b600081518084526020808501945080840160005b8381101562001696578151600160a060020a0316875295820195908201906001016200166f565b509495945050505050565b600060208083528351606082850152620016bf60808501826200165b565b82860151601f1986830381016040880152815180845291850193506000929091908501905b80841015620017065784518252938501936001939093019290850190620016e4565b5060408801519450818782030160608801526200172481866200165b565b98975050505050505050565b6000602082840312156200174357600080fd5b5035919050565b6020808252825182820181905260009190848201906040850190845b818110156200178d578351600160a060020a03168352928401929184019160010162001766565b50909695505050505050565b8035600160e860020a031981168114620017b257600080fd5b919050565b60008060008060808587031215620017ce57600080fd5b843593506020850135925060408501359150620017ee6060860162001799565b905092959194509250565b6000806000606084860312156200180f57600080fd5b8335925060208401356200182381620015a1565b9150620018336040850162001799565b90509250925092565b600160a060020a0381168114620015b857600080fd5b6000602082840312156200186557600080fd5b813562001872816200183c565b9392505050565b93845260208401929092526040830152600160c060020a031916606082015260800190565b600060208284031215620018b157600080fd5b815162001872816200183c565b600060018201620018e35760e060020a634e487b710260009081526011600452602490fd5b5060010190565b60e060020a634e487b710260009081526041600452602490fd5b6000602082840312156200191757600080fd5b815180151581146200187257600080fd5b60e060020a634e487b710260009081526032600452602490fd5b600160c060020a031991909116815260200190565b6000602082840312156200196a57600080fd5b5051919050565b6000602082840312156200198457600080fd5b81516200187281620015a1565b8051620017b2816200183c565b60006020808385031215620019b257600080fd5b82516001604060020a0380821115620019ca57600080fd5b818501915085601f830112620019df57600080fd5b815181811115620019f457620019f4620018ea565b838102604051601f19603f8301168101818110858211171562001a1b5762001a1b620018ea565b60405291825284820192508381018501918883111562001a3a57600080fd5b938501935b82851015620017245762001a538562001991565b8452938501939285019262001a3f565b600160c060020a03198416815260208082018490526060604083018190528351908301819052600091848101916080850190845b8181101562001abe578451600160a060020a03168352938301939183019160010162001a97565b50909897505050505050505056fe608060405234801561001057600080fd5b50604051610bca380380610bca83398101604081905261002f91610159565b6000805468ffffffffffffffff00191661010078010000000000000000000000000000000000000000000000008604021781556001839055600255805161007d906004906020840190610094565b50506000805460ff191660011790555061024a9050565b8280548282559060005260206000209081019282156100e9579160200282015b828111156100e95782518254600160a060020a031916600160a060020a039091161782556020909201916001909101906100b4565b506100f59291506100f9565b5090565b5b808211156100f557600081556001016100fa565b7f4e487b7100000000000000000000000000000000000000000000000000000000600052604160045260246000fd5b8051600160a060020a038116811461015457600080fd5b919050565b60008060006060848603121561016e57600080fd5b8351600160c060020a03198116811461018657600080fd5b809350506020808501519250604085015167ffffffffffffffff808211156101ad57600080fd5b818701915087601f8301126101c157600080fd5b8151818111156101d3576101d361010e565b838102604051601f19603f830116810181811085821117156101f7576101f761010e565b60405291825284820192508381018501918a83111561021557600080fd5b938501935b8285101561023a5761022b8561013d565b8452938501939285019261021a565b8096505050505050509250925092565b610971806102596000396000f3fe608060405234801561001057600080fd5b50600436106100a75760e060020a600035046306fdde0381146100ac57806333c5b37f146100df578063475502be146100f65780635dddd92a1461011357806370651a181461012657806371c542d314610151578063722bdf1d1461015a5780638aa4ddb51461016f5780639d9ca28d14610184578063a8311aa814610197578063d6eb47d8146101ac578063f99fb572146101cc575b600080fd5b6000546100c190610100900460c060020a0281565b604051600160c060020a031990911681526020015b60405180910390f35b6100e860025481565b6040519081526020016100d6565b6000546101039060ff1681565b60405190151581526020016100d6565b61010361012136600461058f565b6101f5565b6101396101343660046105b1565b610231565b604051600160a060020a0390911681526020016100d6565b6100e860015481565b61016d6101683660046105e1565b61025b565b005b610177610364565b6040516100d69190610624565b610103610192366004610668565b61047a565b61019f610508565b6040516100d69190610683565b6100e86101ba366004610668565b60056020526000908152604090205481565b6101396101da36600461058f565b600360205260009081526040902054600160a060020a031681565b6001608060020a03198116600090815260036020526040812054600160a060020a031661022457506000919050565b506001919050565b919050565b6004818154811061024157600080fd5b600091825260209091200154600160a060020a0316905081565b6001608060020a03198316600090815260036020526040902054600160a060020a03166102c057600160a060020a0381166000908152600560205260409020546102a69060016106de565b600160a060020a0382166000908152600560205260409020555b8282826040516102cf9061056a565b6001608060020a03199384168152929091166020830152600160a060020a03166040820152606001604051809103906000f080158015610313573d6000803e3d6000fd5b506001608060020a0319841660009081526003602052604081208054600160a060020a031916600160a060020a039390931692909217909155600280549161035a836106f6565b9190505550505050565b6004546060906000906001604060020a038111156103845761038461070f565b6040519080825280602002602001820160405280156103ad578160200160208202803683370190505b50905060005b60045481101561047457600481815481106103d0576103d0610729565b600091825260209182902001546040805160e060020a6306fdde030281529051600160a060020a03909216926306fdde03926004808401938290030181865afa158015610421573d6000803e3d6000fd5b505050506040513d601f19601f820116820180604052508101906104459190610743565b82828151811061045757610457610729565b60209081029190910101528061046c816106f6565b9150506103b3565b50919050565b600160a060020a038116600090815260056020526040812054815b6004548110156104fe578160056000600484815481106104b7576104b7610729565b6000918252602080832090910154600160a060020a0316835282019290925260400190205411156104ec575060009392505050565b806104f6816106f6565b915050610495565b5060019392505050565b6060600480548060200260200160405190810160405280929190818152602001828054801561056057602002820191906000526020600020905b8154600160a060020a03168152600190910190602001808311610542575b5050505050905090565b6101df8061075d83390190565b80356001608060020a03198116811461022c57600080fd5b6000602082840312156105a157600080fd5b6105aa82610577565b9392505050565b6000602082840312156105c357600080fd5b5035919050565b8035600160a060020a038116811461022c57600080fd5b6000806000606084860312156105f657600080fd5b6105ff84610577565b925061060d60208501610577565b915061061b604085016105ca565b90509250925092565b6020808252825182820181905260009190848201906040850190845b8181101561065c57835183529284019291840191600101610640565b50909695505050505050565b60006020828403121561067a57600080fd5b6105aa826105ca565b6020808252825182820181905260009190848201906040850190845b8181101561065c578351600160a060020a03168352928401929184019160010161069f565b60e060020a634e487b710260009081526011600452602490fd5b600082198211156106f1576106f16106c4565b500190565b600060018201610708576107086106c4565b5060010190565b60e060020a634e487b710260009081526041600452602490fd5b60e060020a634e487b710260009081526032600452602490fd5b60006020828403121561075557600080fd5b505191905056fe608060405234801561001057600080fd5b506040516101df3803806101df83398101604081905261002f9161009a565b6001608060020a037001000000000000000000000000000000009384900416918390049092021760005560018054600160a060020a031916600160a060020a039092169190911790556100ee565b80516001608060020a03198116811461009557600080fd5b919050565b6000806000606084860312156100af57600080fd5b6100b88461007d565b92506100c66020850161007d565b6040850151909250600160a060020a03811681146100e357600080fd5b809150509250925092565b60e3806100fc6000396000f3fe6080604052348015600f57600080fd5b5060043610603f5760e060020a6000350463354284f281146044578063be4e0249146073578063f6949df914609e575b600080fd5b600154605690600160a060020a031681565b604051600160a060020a0390911681526020015b60405180910390f35b600054608690608060020a908190040281565b6040516001608060020a03199091168152602001606a565b600054608690608060020a028156fea26469706673582212201b2cd7834b1ff5edf38e98ae4fe99636abe4e139fdb26000a31637c69246918764736f6c634300080e0033a2646970667358221220188ef91dc04edb7848e2015af344a33eb1b7c6b12509e2ed9c46a8fe4ba5e92b64736f6c634300080e0033a2646970667358221220bdaa709f48dc135cd964cbf83e7e38408f20b7e31ef6e2489d17689339fa48e064736f6c634300080e0033",
  "immutableReferences": {},
  "source": "// SPDX-License-Identifier: MIT\npragma solidity >=0.4.22 <0.9.0;\nimport \"./ECP.sol\";\nimport \"./Election.sol\";\nimport \"./Constituency.sol\";\nimport \"./Party.sol\";\nimport \"./ConstituenciesData.sol\";\n\nimport \"./CreateGE.sol\";\nimport \"./CreatePE.sol\";\nimport \"./CreateNAE.sol\";\nimport \"./CreatePAE.sol\";\n\n\ncontract ElectionManager {\n    ECP private ecp;\n    ConstituenciesData private cons_data;\n    CreateGE private create_ge;\n    CreatePE private create_pe;\n    CreateNAE private create_nae;\n    CreatePAE private create_pae;\n\n    uint256 public elections_count;\n    mapping(uint256 => Election) public elections;\n    // uint256 public results_count;\n    // mapping(uint256 => Election) public results;\n\n    constructor(address _ecpAdd, address _cons_data){\n        ecp = ECP(_ecpAdd);\n        cons_data = ConstituenciesData(_cons_data);\n        ecp.setElectionManager(this);\n    }\n    function setCreateGE(CreateGE _create_ge) public{\n        create_ge = _create_ge;\n    }\n    function setCreatePE(CreatePE _create_pe) public{\n        create_pe = _create_pe;\n    }\n    function setCreateNAE(CreateNAE _create_nae) public{\n        create_nae = _create_nae;\n    }\n    function setCreatePAE(CreatePAE _create_pae) public{\n        create_pae = _create_pae;\n    }\n    //xxxxxxxxxxxxxxxxxxxxxxxxxxxxxxxxxxxxxxxxxxxxxxx ELECTION xxxxxxxxxxxxxxxxxxxxxxxxxxxxxxxxxxxxxxxxxxxxxx//\n\n    function getElectionConstituencies(uint256 const_size, bytes8 const_name, bytes3 pre_name) public returns(Constituency[] memory){\n        Constituency[] memory constituencies = new Constituency[](const_size);\n\n        for (uint256 i = 0; i < const_size; i++) {\n            bytes8 const_full_name;\n            uint256 total_votes_count;\n            if(const_size == uint256(1)){\n                const_full_name = const_name;\n                if(pre_name == 0x4e412d){\n                    total_votes_count = ecp.voterManager().getNAVoterLength(const_full_name);\n                }\n                else if(pre_name == 0x50412d){\n                    total_votes_count = ecp.voterManager().getPAVoterLength(const_full_name);\n                }\n            }\n            else if(pre_name == 0x4e412d){\n                const_full_name = cons_data.getNABytes(i);\n                total_votes_count = ecp.voterManager().getNAVoterLength(const_full_name);\n            }\n            else// if(pre_name == 0x50412d)\n            {\n                const_full_name = cons_data.getPABytes(pre_name, i);\n                total_votes_count = ecp.voterManager().getPAVoterLength(const_full_name);\n            }\n            constituencies[i] = new Constituency(const_full_name, total_votes_count, ecp.partyManager().getConstituencyParties(const_full_name));\n        }\n        return constituencies;\n    }\n    \n    function createGeneralElection(uint256 _startTime, uint256 _endTime, bytes32 _name) public {\n        elections[elections_count] = create_ge.createGeneralElection(_startTime, _endTime, _name);\n        elections_count++;\n    }\n    function createProvincialElection(uint256 _startTime, uint256 _endTime, bytes32 _name, bytes3 _pre_name) public {\n        \n        elections[elections_count] = create_pe.createProvincialElection(_startTime, _endTime, _name, _pre_name);\n        elections_count++;\n    }\n    function createNAElection(uint256 _startTime, uint256 _endTime, bytes32 _name, bytes8 _na_name) public {\n        \n        elections[elections_count] = create_nae.createNAElection(_startTime, _endTime, _name, _na_name);\n        elections_count++;\n    }\n    function createPAElection(uint256 _startTime, uint256 _endTime, bytes32 _name, bytes8 _pa_name) public {\n        \n        elections[elections_count] = create_pae.createPAElection(_startTime, _endTime, _name, _pa_name);\n        elections_count++;\n    }\n    //xxxxxxxxxxxxxxxxxxxxxxxxxxxxxxxxxxxxxxxxxxxxxxxxx RESULTS xxxxxxxxxxxxxxxxxxxxxxxxxxxxxxxxxxxxxxxxxxxxxxx//\n    // function endElection(uint256 index)public {\n    //     results[results_count] = Election(address(elections[index])) ;\n    //     results_count++;\n    //     for (uint256 i = index; i < elections_count-1; i++) {\n    //         elections[i] = elections[i+1];\n    //     }\n\n    //     delete elections[elections_count];\n    //     elections_count--;\n    // }\n    function getResults(uint256 currentTime) public view returns(Election[] memory){\n        uint256[] memory temp_elections_indexes = new uint256[](elections_count);\n        uint size = 0;\n\n        for (uint256 i = 0; i < elections_count; i++) {\n            if(address(elections[i]) != address(0))\n            {\n                if(elections[i].isEnd(currentTime)){\n                    temp_elections_indexes[size] = i;\n                    size++;\n                }\n            }\n        }\n        \n        Election[] memory new_elections = new Election[](size);\n\n        for (uint256 i = 0; i < size; i++) {\n            new_elections[i] = elections[temp_elections_indexes[i]];\n        }\n        return new_elections;\n    }\n    function getNotActiveElections(uint256 currentTime) public view returns(Election[] memory){\n        uint256[] memory temp_elections_indexes = new uint256[](elections_count);\n        uint size = 0;\n\n        for (uint256 i = 0; i < elections_count; i++) {\n            if(address(elections[i]) != address(0))\n            {\n                if(!elections[i].isActive(currentTime)){\n                    temp_elections_indexes[size] = i;\n                    size++;\n                }\n            }\n        }\n        \n        Election[] memory new_elections = new Election[](size);\n\n        for (uint256 i = 0; i < size; i++) {\n            new_elections[i] = elections[temp_elections_indexes[i]];\n        }\n        return new_elections;\n    }\n\n    // //xxxxxxxxxxxxxxxxxxxxxxxxxxxxxxxxxxxxxxxxxxxxxxx GETTERS xxxxxxxxxxxxxxxxxxxxxxxxxxxxxxxxxxxxxxxxxxxxxx//\n    struct status{\n       uint256 blockTime;      \n       uint256 startTime;\n       uint256 endTime;      \n    }\n    struct ElectionConstituency{\n        // status[] elections_status;\n        \n        address[] election_adds;\n        bytes32[] election_names;\n        address[] const_adds;\n    }\n    function getElectionConstituency(bytes8 _constituency_name, uint256 currentTime) public view returns(ElectionConstituency memory){\n                \n        uint256[] memory temp_elections_indexes = new uint256[](elections_count);\n        bool[] memory temp_elections_status = new bool[](elections_count);\n        uint size = 0;\n\n        for (uint256 i = 0; i < elections_count; i++) {\n            if(address(elections[i]) != address(0))\n            {\n                temp_elections_status[size] = elections[i].isActive(currentTime);\n                if(elections[i].isActive(currentTime) && elections[i].containConstituency(_constituency_name)){\n                    temp_elections_indexes[size] = i;\n                    size++;\n                }\n            }\n        }\n        bytes32[] memory elections_names = new bytes32[](size);\n        address[] memory constituencies_add = new address[](size);\n        address[] memory elections_adds = new address[](size);\n        // status[] memory elections_status = new status[](size);\n\n        for (uint256 i = 0; i < size; i++) {\n            elections_names[i] = elections[temp_elections_indexes[i]].name();\n            constituencies_add[i] = elections[temp_elections_indexes[i]].getConstituency(_constituency_name);\n            elections_adds[i] = address(elections[temp_elections_indexes[i]]);\n\n            // elections_status[i] = status({\n            //     blockTime: elections[temp_elections_indexes[i]].blockTime(), \n            //     startTime: elections[temp_elections_indexes[i]].startTime(), \n            //     endTime: elections[temp_elections_indexes[i]].endTime()\n            // });\n        }\n        \n        return ElectionConstituency({\n            // elections_status: elections_status ,\n         election_adds: elections_adds,election_names: elections_names, const_adds:constituencies_add});\n    }\n\n}",
  "sourcePath": "/Users/apple/Computer/Programming/Learning/react-native/FYP/Website/decentralized-voting-system-h3-fyp2-fix/truffle/contracts/ElectionManager.sol",
  "compiler": {
    "name": "solc",
    "version": "0.8.14+commit.80d49f37.Emscripten.clang"
  },
  "schemaVersion": "3.4.13",
  "updatedAt": "2023-06-12T05:49:12.250Z",
  "networkType": "ethereum",
  "devdoc": {
    "kind": "dev",
    "methods": {},
    "version": 1
  },
  "userdoc": {
    "kind": "user",
    "methods": {},
    "version": 1
  }
}