{
  "contractName": "GeneralElection",
  "abi": [
    {
      "inputs": [
        {
          "internalType": "uint256",
          "name": "_startTime",
          "type": "uint256"
        },
        {
          "internalType": "uint256",
          "name": "_endTime",
          "type": "uint256"
        },
        {
          "internalType": "bytes32",
          "name": "_name",
          "type": "bytes32"
        },
        {
          "internalType": "contract NationalElection",
          "name": "_nationals",
          "type": "address"
        },
        {
          "internalType": "contract ProvincialElection",
          "name": "pp_elections",
          "type": "address"
        },
        {
          "internalType": "contract ProvincialElection",
          "name": "ps_elections",
          "type": "address"
        },
        {
          "internalType": "contract ProvincialElection",
          "name": "pk_elections",
          "type": "address"
        },
        {
          "internalType": "contract ProvincialElection",
          "name": "pb_elections",
          "type": "address"
        }
      ],
      "stateMutability": "nonpayable",
      "type": "constructor"
    },
    {
      "inputs": [
        {
          "internalType": "uint256",
          "name": "currentTime",
          "type": "uint256"
        },
        {
          "internalType": "contract Constituency",
          "name": "constitiuency",
          "type": "address"
        },
        {
          "internalType": "bytes16",
          "name": "voter_cnic",
          "type": "bytes16"
        },
        {
          "internalType": "bytes16",
          "name": "cand_cnic",
          "type": "bytes16"
        },
        {
          "internalType": "contract Party",
          "name": "party",
          "type": "address"
        }
      ],
      "name": "castVote",
      "outputs": [
        {
          "internalType": "bool",
          "name": "",
          "type": "bool"
        }
      ],
      "stateMutability": "nonpayable",
      "type": "function"
    },
    {
      "inputs": [],
      "name": "election_type",
      "outputs": [
        {
          "internalType": "bytes32",
          "name": "",
          "type": "bytes32"
        }
      ],
      "stateMutability": "view",
      "type": "function"
    },
    {
      "inputs": [],
      "name": "endTime",
      "outputs": [
        {
          "internalType": "uint256",
          "name": "",
          "type": "uint256"
        }
      ],
      "stateMutability": "view",
      "type": "function"
    },
    {
      "inputs": [
        {
          "internalType": "uint256",
          "name": "currentTime",
          "type": "uint256"
        }
      ],
      "name": "isActive",
      "outputs": [
        {
          "internalType": "bool",
          "name": "",
          "type": "bool"
        }
      ],
      "stateMutability": "view",
      "type": "function"
    },
    {
      "inputs": [
        {
          "internalType": "uint256",
          "name": "currentTime",
          "type": "uint256"
        }
      ],
      "name": "isEnd",
      "outputs": [
        {
          "internalType": "bool",
          "name": "",
          "type": "bool"
        }
      ],
      "stateMutability": "view",
      "type": "function"
    },
    {
      "inputs": [],
      "name": "name",
      "outputs": [
        {
          "internalType": "bytes32",
          "name": "",
          "type": "bytes32"
        }
      ],
      "stateMutability": "view",
      "type": "function"
    },
    {
      "inputs": [],
      "name": "nationals",
      "outputs": [
        {
          "internalType": "contract NationalElection",
          "name": "",
          "type": "address"
        }
      ],
      "stateMutability": "view",
      "type": "function"
    },
    {
      "inputs": [
        {
          "internalType": "bytes8",
          "name": "",
          "type": "bytes8"
        }
      ],
      "name": "provinces",
      "outputs": [
        {
          "internalType": "contract ProvincialElection",
          "name": "",
          "type": "address"
        }
      ],
      "stateMutability": "view",
      "type": "function"
    },
    {
      "inputs": [],
      "name": "provinces_count",
      "outputs": [
        {
          "internalType": "uint256",
          "name": "",
          "type": "uint256"
        }
      ],
      "stateMutability": "view",
      "type": "function"
    },
    {
      "inputs": [],
      "name": "startTime",
      "outputs": [
        {
          "internalType": "uint256",
          "name": "",
          "type": "uint256"
        }
      ],
      "stateMutability": "view",
      "type": "function"
    },
    {
      "inputs": [
        {
          "internalType": "bytes8",
          "name": "_constituency_name",
          "type": "bytes8"
        }
      ],
      "name": "containConstituency",
      "outputs": [
        {
          "internalType": "bool",
          "name": "",
          "type": "bool"
        }
      ],
      "stateMutability": "view",
      "type": "function"
    },
    {
      "inputs": [
        {
          "internalType": "bytes8",
          "name": "_constituency_name",
          "type": "bytes8"
        }
      ],
      "name": "getConstituency",
      "outputs": [
        {
          "internalType": "address",
          "name": "",
          "type": "address"
        }
      ],
      "stateMutability": "view",
      "type": "function"
    },
    {
      "inputs": [
        {
          "internalType": "contract Party",
          "name": "party",
          "type": "address"
        }
      ],
      "name": "getPartyWinCount",
      "outputs": [
        {
          "internalType": "uint256",
          "name": "",
          "type": "uint256"
        }
      ],
      "stateMutability": "view",
      "type": "function"
    }
  ],
  "bytecode": "0x60806040523480156200001157600080fd5b50604051620014e1380380620014e18339810160408190526200003491620002cf565b7f47656e6572616c20456c656374696f6e00000000000000000000000000000000600290815560008981556001899055600388905560048054600160a060020a031916600160a060020a038916178155600555604080518082019091529182527f50500000000000000000000000000000000000000000000000000000000000006020830152859160069190620000cb906200036c565b600160c060020a031916600160c060020a031916815260200190815260200160002060006101000a815481600160a060020a030219169083600160a060020a0316021790555082600660006040518060400160405280600281526020017f505300000000000000000000000000000000000000000000000000000000000081525062000157906200036c565b600160c060020a031916600160c060020a031916815260200190815260200160002060006101000a815481600160a060020a030219169083600160a060020a0316021790555081600660006040518060400160405280600281526020017f504b000000000000000000000000000000000000000000000000000000000000815250620001e3906200036c565b600160c060020a031916600160c060020a031916815260200190815260200160002060006101000a815481600160a060020a030219169083600160a060020a0316021790555080600660006040518060400160405280600281526020017f50420000000000000000000000000000000000000000000000000000000000008152506200026f906200036c565b600160c060020a031916815260208101919091526040016000208054600160a060020a031916600160a060020a039290921691909117905550620003a79650505050505050565b600160a060020a0381168114620002cc57600080fd5b50565b600080600080600080600080610100898b031215620002ed57600080fd5b88519750602089015196506040890151955060608901516200030f81620002b6565b60808a01519095506200032281620002b6565b60a08a01519094506200033581620002b6565b60c08a01519093506200034881620002b6565b60e08a01519092506200035b81620002b6565b809150509295985092959890939650565b80516020820151600160c060020a031980821692919060088310156200039f57808360080360080260020a820283161693505b505050919050565b61112a80620003b76000396000f3fe608060405234801561001057600080fd5b50600436106100b25760e060020a600035046306fdde0381146100b757806310cc7305146100d35780633197cbb6146100e6578063523f0e8c146100ef5780635510b851146100f85780635aee021a146101185780635b1cf18c1461012157806378e979251461014457806382afd23b1461014d578063ba95a0ee14610160578063d4de175814610173578063e208c1f214610186578063f1485a13146101af575b600080fd5b6100c060035481565b6040519081526020015b60405180910390f35b6100c06100e1366004610f27565b6101c4565b6100c060015481565b6100c060025481565b61010b610106366004610f4b565b610547565b6040516100ca9190610f75565b6100c060055481565b61013461012f366004610fa6565b610a82565b60405190151581526020016100ca565b6100c060005481565b61013461015b36600461100a565b610b8a565b60045461010b90600160a060020a031681565b610134610181366004610f4b565b610ba1565b61010b610194366004610f4b565b600660205260009081526040902054600160a060020a031681565b6101346101bd36600461100a565b6001541090565b60006006600060405180604001604052806002815260200160f160020a612821028152506101f190611023565b600160c060020a03191681526020810191909152604090810160002054905160e060020a6310cc7305028152600160a060020a03909116906310cc73059061023d908590600401610f75565b602060405180830381865afa15801561025a573d6000803e3d6000fd5b505050506040513d601f19601f8201168201806040525081019061027e919061105d565b6006600060405180604001604052806002815260200160f060020a61504b028152506102a990611023565b600160c060020a03191681526020810191909152604090810160002054905160e060020a6310cc7305028152600160a060020a03909116906310cc7305906102f5908690600401610f75565b602060405180830381865afa158015610312573d6000803e3d6000fd5b505050506040513d601f19601f82011682018060405250810190610336919061105d565b6006600060405180604001604052806002815260200160f060020a6150530281525061036190611023565b600160c060020a03191681526020810191909152604090810160002054905160e060020a6310cc7305028152600160a060020a03909116906310cc7305906103ad908790600401610f75565b602060405180830381865afa1580156103ca573d6000803e3d6000fd5b505050506040513d601f19601f820116820180604052508101906103ee919061105d565b6006600060405180604001604052806002815260200160f460020a6105050281525061041990611023565b600160c060020a03191681526020810191909152604090810160002054905160e060020a6310cc7305028152600160a060020a03909116906310cc730590610465908890600401610f75565b602060405180830381865afa158015610482573d6000803e3d6000fd5b505050506040513d601f19601f820116820180604052508101906104a6919061105d565b6004805460405160e060020a6310cc7305028152600160a060020a03909116916310cc7305916104d8918a9101610f75565b602060405180830381865afa1580156104f5573d6000803e3d6000fd5b505050506040513d601f19601f82011682018060405250810190610519919061105d565b6105239190611076565b61052d9190611076565b6105379190611076565b6105419190611076565b92915050565b6004805460405160e060020a635510b8510281526000928392600160a060020a031691635510b8519161057c918791016110a0565b602060405180830381865afa158015610599573d6000803e3d6000fd5b505050506040513d601f19601f820116820180604052508101906105bd91906110b5565b600160a060020a03161461063e576004805460405160e060020a635510b851028152600160a060020a0390911691635510b851916105fd918691016110a0565b602060405180830381865afa15801561061a573d6000803e3d6000fd5b505050506040513d601f19601f8201168201806040525081019061054191906110b5565b6000600160a060020a03166006600060405180604001604052806002815260200160f460020a6105050281525061067490611023565b600160c060020a03191681526020810191909152604090810160002054905160e060020a635510b851028152600160a060020a0390911690635510b851906106c09086906004016110a0565b602060405180830381865afa1580156106dd573d6000803e3d6000fd5b505050506040513d601f19601f8201168201806040525081019061070191906110b5565b600160a060020a031614610786576006600060405180604001604052806002815260200160f460020a6105050281525061073a90611023565b600160c060020a03191681526020810191909152604090810160002054905160e060020a635510b851028152600160a060020a0390911690635510b851906105fd9085906004016110a0565b6000600160a060020a03166006600060405180604001604052806002815260200160f060020a615053028152506107bc90611023565b600160c060020a03191681526020810191909152604090810160002054905160e060020a635510b851028152600160a060020a0390911690635510b851906108089086906004016110a0565b602060405180830381865afa158015610825573d6000803e3d6000fd5b505050506040513d601f19601f8201168201806040525081019061084991906110b5565b600160a060020a031614610882576006600060405180604001604052806002815260200160f060020a6150530281525061073a90611023565b6000600160a060020a03166006600060405180604001604052806002815260200160f060020a61504b028152506108b890611023565b600160c060020a03191681526020810191909152604090810160002054905160e060020a635510b851028152600160a060020a0390911690635510b851906109049086906004016110a0565b602060405180830381865afa158015610921573d6000803e3d6000fd5b505050506040513d601f19601f8201168201806040525081019061094591906110b5565b600160a060020a03161461097e576006600060405180604001604052806002815260200160f060020a61504b0281525061073a90611023565b6000600160a060020a03166006600060405180604001604052806002815260200160f160020a612821028152506109b490611023565b600160c060020a03191681526020810191909152604090810160002054905160e060020a635510b851028152600160a060020a0390911690635510b85190610a009086906004016110a0565b602060405180830381865afa158015610a1d573d6000803e3d6000fd5b505050506040513d601f19601f82011682018060405250810190610a4191906110b5565b600160a060020a031614610a7a576006600060405180604001604052806002815260200160f160020a6128210281525061073a90611023565b506000919050565b600080548610158015610a9757506001548611155b610b085760405160e560020a62461bcd02815260206004820152603260248201527f43616e74206361737420766f74652c20456c656374696f6e206e6f74206f70656044820152607060020a716e656420796574206f7220636c6f7365642102606482015260840160405180910390fd5b60405160e060020a63722bdf1d0281526001608060020a0319808616600483015284166024820152600160a060020a03838116604483015286169063722bdf1d90606401600060405180830381600087803b158015610b6657600080fd5b505af1158015610b7a573d6000803e3d6000fd5b5060019998505050505050505050565b600080548210158015610541575050600154101590565b6004805460405160e360020a631a9bc2eb028152600092600160a060020a039092169163d4de175891610bd6918691016110a0565b602060405180830381865afa158015610bf3573d6000803e3d6000fd5b505050506040513d601f19601f82011682018060405250810190610c1791906110d2565b80610cd557506006600060405180604001604052806002815260200160f460020a61050502815250610c4890611023565b600160c060020a03191681526020810191909152604090810160002054905160e360020a631a9bc2eb028152600160a060020a039091169063d4de175890610c949085906004016110a0565b602060405180830381865afa158015610cb1573d6000803e3d6000fd5b505050506040513d601f19601f82011682018060405250810190610cd591906110d2565b80610d9357506006600060405180604001604052806002815260200160f060020a61505302815250610d0690611023565b600160c060020a03191681526020810191909152604090810160002054905160e360020a631a9bc2eb028152600160a060020a039091169063d4de175890610d529085906004016110a0565b602060405180830381865afa158015610d6f573d6000803e3d6000fd5b505050506040513d601f19601f82011682018060405250810190610d9391906110d2565b80610e5157506006600060405180604001604052806002815260200160f060020a61504b02815250610dc490611023565b600160c060020a03191681526020810191909152604090810160002054905160e360020a631a9bc2eb028152600160a060020a039091169063d4de175890610e109085906004016110a0565b602060405180830381865afa158015610e2d573d6000803e3d6000fd5b505050506040513d601f19601f82011682018060405250810190610e5191906110d2565b8061054157506006600060405180604001604052806002815260200160f160020a61282102815250610e8290611023565b600160c060020a03191681526020810191909152604090810160002054905160e360020a631a9bc2eb028152600160a060020a039091169063d4de175890610ece9085906004016110a0565b602060405180830381865afa158015610eeb573d6000803e3d6000fd5b505050506040513d601f19601f8201168201806040525081019061054191906110d2565b600160a060020a0381168114610f2457600080fd5b50565b600060208284031215610f3957600080fd5b8135610f4481610f0f565b9392505050565b600060208284031215610f5d57600080fd5b8135600160c060020a031981168114610f4457600080fd5b600160a060020a0391909116815260200190565b80356001608060020a031981168114610fa157600080fd5b919050565b600080600080600060a08688031215610fbe57600080fd5b853594506020860135610fd081610f0f565b9350610fde60408701610f89565b9250610fec60608701610f89565b91506080860135610ffc81610f0f565b809150509295509295909350565b60006020828403121561101c57600080fd5b5035919050565b80516020820151600160c060020a0319808216929190600883101561105557808360080360080260020a820283161693505b505050919050565b60006020828403121561106f57600080fd5b5051919050565b6000821982111561109b5760e060020a634e487b710260009081526011600452602490fd5b500190565b600160c060020a031991909116815260200190565b6000602082840312156110c757600080fd5b8151610f4481610f0f565b6000602082840312156110e457600080fd5b81518015158114610f4457600080fdfea26469706673582212201e8f10a2c62522a8bded5cf876e5e6aff2e497ba2c5b7ec43d739dc55b6c849764736f6c634300080e0033",
  "immutableReferences": {},
  "source": "// SPDX-License-Identifier: MIT\r\npragma solidity >=0.4.22 <0.9.0;\r\nimport \"./Constituency.sol\";\r\n\r\nabstract contract Election{\r\n\r\n    uint256 public startTime;\r\n    uint256 public endTime;\r\n    bytes32 public election_type;\r\n    bytes32 public name;\r\n    \r\n    function containConstituency(bytes8 _constituency_name) public virtual view returns (bool);\r\n    function getConstituency(bytes8 _constituency_name) public virtual view returns(address);\r\n    function getPartyWinCount(Party party) public virtual view returns(uint);\r\n\r\n    function isActive(uint256 currentTime) public view returns(bool){\r\n       return (currentTime >= startTime && currentTime <= endTime);\r\n    }\r\n    function isEnd(uint256 currentTime) public view returns(bool){\r\n       return (currentTime > endTime);\r\n    }\r\n    function castVote(uint256 currentTime, Constituency constitiuency, bytes16 voter_cnic, bytes16 cand_cnic, Party party)public returns(bool){\r\n        require(\r\n            currentTime >= startTime && currentTime <= endTime,\r\n            \"Cant cast vote, Election not opened yet or closed!\"\r\n        );\r\n        constitiuency.castVote(voter_cnic, cand_cnic, party);\r\n        return true;\r\n    }\r\n}   \r\n\r\ncontract GeneralElection is Election{\r\n    \r\n    NationalElection public nationals;\r\n\r\n    uint public provinces_count;\r\n    mapping (bytes8 => ProvincialElection) public provinces;\r\n\r\n    constructor(uint256 _startTime, uint256 _endTime, bytes32 _name,\r\n        NationalElection _nationals,\r\n        ProvincialElection pp_elections,\r\n        ProvincialElection ps_elections,\r\n        ProvincialElection pk_elections,\r\n        ProvincialElection pb_elections\r\n    ){\r\n        election_type = 0x47656e6572616c20456c656374696f6e00000000000000000000000000000000; //General Election\r\n        startTime = _startTime;\r\n        endTime = _endTime;\r\n        name = _name;\r\n        nationals = _nationals;\r\n\r\n        provinces_count = 4;\r\n    \r\n        provinces[bytes8(bytes(\"PP\"))] = pp_elections;\r\n        provinces[bytes8(bytes(\"PS\"))] = ps_elections;\r\n        provinces[bytes8(bytes(\"PK\"))] = pk_elections;\r\n        provinces[bytes8(bytes(\"PB\"))] = pb_elections;\r\n    \r\n    }\r\n    function containConstituency(bytes8 _constituency_name) public override view returns (bool){\r\n        return(nationals.containConstituency(_constituency_name)\r\n            || provinces[bytes8(bytes(\"PP\"))].containConstituency(_constituency_name)\r\n            || provinces[bytes8(bytes(\"PS\"))].containConstituency(_constituency_name)\r\n            || provinces[bytes8(bytes(\"PK\"))].containConstituency(_constituency_name)\r\n            || provinces[bytes8(bytes(\"PB\"))].containConstituency(_constituency_name));\r\n    }\r\n    function getConstituency(bytes8 _constituency_name) public override view returns (address){\r\n        if(nationals.getConstituency(_constituency_name) != address(0)){\r\n            return nationals.getConstituency(_constituency_name);\r\n        }\r\n        else if(provinces[bytes8(bytes(\"PP\"))].getConstituency(_constituency_name) != address(0)){\r\n            return provinces[bytes8(bytes(\"PP\"))].getConstituency(_constituency_name);\r\n        }\r\n        else if(provinces[bytes8(bytes(\"PS\"))].getConstituency(_constituency_name) != address(0)){\r\n            return provinces[bytes8(bytes(\"PS\"))].getConstituency(_constituency_name);\r\n        }\r\n        else if(provinces[bytes8(bytes(\"PK\"))].getConstituency(_constituency_name) != address(0)){\r\n            return provinces[bytes8(bytes(\"PK\"))].getConstituency(_constituency_name);\r\n        }\r\n        else if(provinces[bytes8(bytes(\"PB\"))].getConstituency(_constituency_name) != address(0)){\r\n            return provinces[bytes8(bytes(\"PB\"))].getConstituency(_constituency_name);\r\n        }\r\n        return address(0);\r\n    }\r\n    function getPartyWinCount(Party party) public override view returns(uint){\r\n        return nationals.getPartyWinCount(party)\r\n            + provinces[bytes8(bytes(\"PP\"))].getPartyWinCount(party)\r\n            + provinces[bytes8(bytes(\"PS\"))].getPartyWinCount(party)\r\n            + provinces[bytes8(bytes(\"PK\"))].getPartyWinCount(party)\r\n            + provinces[bytes8(bytes(\"PB\"))].getPartyWinCount(party);\r\n    }\r\n}\r\n\r\n\r\n\r\ncontract NationalElection is Election{\r\n    uint public constituencies_count;\r\n    mapping(uint256 => bytes8) public constituencies_indexes;\r\n    mapping(bytes8 => Constituency) public constituencies;\r\n\r\n    constructor(uint256 _startTime, uint256 _endTime, bytes32 _name, Constituency[] memory _constituencies){\r\n\r\n        if(_constituencies.length == 1){ \r\n            election_type = 0x4e6174696f6e616c20436f6e7374697475656e637920456c656374696f6e0000;//National Constituency Election\r\n        }\r\n        else{\r\n            election_type = 0x4e6174696f6e616c20456c656374696f6e000000000000000000000000000000;//National Election\r\n        }\r\n        startTime = _startTime;\r\n        endTime = _endTime;\r\n        name = _name;\r\n        for (uint256 i = 0; i < _constituencies.length; i++) {\r\n            constituencies[_constituencies[i].name()] = _constituencies[i];\r\n            constituencies_indexes[constituencies_count] = _constituencies[i].name();\r\n            constituencies_count++;\r\n        }\r\n    }\r\n\r\n    function containConstituency(bytes8 _constituency_name) public override view returns (bool){\r\n        return (address(constituencies[_constituency_name]) == address(0)) ? false : true;\r\n    }\r\n    \r\n    function getConstituency(bytes8 _constituency_name) public override view returns (address){\r\n        return address(constituencies[_constituency_name]);\r\n    }\r\n    function getConstituencies() public view returns(Constituency[] memory){\r\n        Constituency[] memory temp_consts = new Constituency[](constituencies_count);\r\n        for (uint256 i = 0; i < constituencies_count; i++) {\r\n            temp_consts[i] = constituencies[constituencies_indexes[i]];\r\n        } \r\n        return temp_consts;\r\n    }\r\n    function getPartyWinCount(Party party) public override view returns(uint){\r\n        uint win_count;\r\n        for(uint256 i=0; i< constituencies_count; i++){\r\n            if(constituencies[constituencies_indexes[i]].isWinner(party))\r\n                win_count++;\r\n        }\r\n        return win_count;\r\n    }\r\n}\r\n\r\n\r\ncontract ProvincialElection is Election{\r\n    uint public constituencies_count;\r\n    mapping(uint256 => bytes8) public constituencies_indexes;\r\n    mapping(bytes8 => Constituency) public constituencies;\r\n\r\n    constructor(uint256 _startTime, uint256 _endTime, bytes32 _name, Constituency[] memory _constituencies){\r\n\r\n        if(_constituencies.length == 1){ \r\n            election_type = 0x50726f76696e6369616c20436f6e7374697475656e637920456c656374696f6e;//Provincial Constituency Election\r\n        }\r\n        else{\r\n            election_type = 0x50726f76696e6369616c20456c656374696f6e00000000000000000000000000;//Provincial Election\r\n        }\r\n        startTime = _startTime;\r\n        endTime = _endTime;\r\n        name = _name;\r\n        for (uint256 i = 0; i < _constituencies.length; i++) {\r\n            // console.log(\"PA const=> \", address(_constituencies[i]));\r\n            constituencies[_constituencies[i].name()] = _constituencies[i];\r\n            constituencies_indexes[constituencies_count] = _constituencies[i].name();\r\n            constituencies_count++;\r\n        }\r\n    }\r\n    \r\n    function containConstituency(bytes8 _constituency_name) public override view returns (bool){\r\n        return (address(constituencies[_constituency_name]) == address(0)) ? false : true;\r\n    }\r\n    \r\n    function getConstituency(bytes8 _constituency_name) public override view returns (address){\r\n        return address(constituencies[_constituency_name]);\r\n    }\r\n\r\n    function getConstituencies() public view returns(Constituency[] memory){\r\n        Constituency[] memory temp_consts = new Constituency[](constituencies_count);\r\n        for (uint256 i = 0; i < constituencies_count; i++) {\r\n            temp_consts[i] = constituencies[constituencies_indexes[i]];\r\n        } \r\n        return temp_consts;\r\n    }\r\n    function getPartyWinCount(Party party) public override view returns(uint){\r\n        uint win_count;\r\n        for(uint256 i=0; i< constituencies_count; i++){\r\n            if(constituencies[constituencies_indexes[i]].isWinner(party))\r\n                win_count++;\r\n        }\r\n        return win_count;\r\n    }\r\n}",
  "sourcePath": "/Users/apple/Computer/Programming/Learning/react-native/FYP/Website/decentralized-voting-system-h3-fyp2-fix/truffle/contracts/Election.sol",
  "compiler": {
    "name": "solc",
    "version": "0.8.14+commit.80d49f37.Emscripten.clang"
  },
  "schemaVersion": "3.4.13",
  "updatedAt": "2023-06-12T04:59:51.180Z",
  "devdoc": {
    "kind": "dev",
    "methods": {},
    "version": 1
  },
  "userdoc": {
    "kind": "user",
    "methods": {},
    "version": 1
  }
}