{
  "contractName": "PartiesData",
  "abi": [
    {
      "inputs": [],
      "stateMutability": "nonpayable",
      "type": "constructor"
    },
    {
      "inputs": [],
      "name": "_parties_size",
      "outputs": [
        {
          "internalType": "uint256",
          "name": "",
          "type": "uint256"
        }
      ],
      "stateMutability": "view",
      "type": "function",
      "constant": true
    },
    {
      "inputs": [
        {
          "internalType": "uint256",
          "name": "",
          "type": "uint256"
        }
      ],
      "name": "pmln_cands_cnics",
      "outputs": [
        {
          "internalType": "bytes16",
          "name": "",
          "type": "bytes16"
        }
      ],
      "stateMutability": "view",
      "type": "function",
      "constant": true
    },
    {
      "inputs": [
        {
          "internalType": "uint256",
          "name": "",
          "type": "uint256"
        }
      ],
      "name": "pmln_cands_constituencies",
      "outputs": [
        {
          "internalType": "bytes8",
          "name": "",
          "type": "bytes8"
        }
      ],
      "stateMutability": "view",
      "type": "function",
      "constant": true
    },
    {
      "inputs": [
        {
          "internalType": "uint256",
          "name": "",
          "type": "uint256"
        }
      ],
      "name": "pti_cands_cnics",
      "outputs": [
        {
          "internalType": "bytes16",
          "name": "",
          "type": "bytes16"
        }
      ],
      "stateMutability": "view",
      "type": "function",
      "constant": true
    },
    {
      "inputs": [
        {
          "internalType": "uint256",
          "name": "",
          "type": "uint256"
        }
      ],
      "name": "pti_cands_constituencies",
      "outputs": [
        {
          "internalType": "bytes8",
          "name": "",
          "type": "bytes8"
        }
      ],
      "stateMutability": "view",
      "type": "function",
      "constant": true
    },
    {
      "inputs": [],
      "name": "getPTICandsCnics",
      "outputs": [
        {
          "internalType": "bytes16[]",
          "name": "",
          "type": "bytes16[]"
        }
      ],
      "stateMutability": "view",
      "type": "function",
      "constant": true
    },
    {
      "inputs": [],
      "name": "getPTICandsConstituencies",
      "outputs": [
        {
          "internalType": "bytes8[]",
          "name": "",
          "type": "bytes8[]"
        }
      ],
      "stateMutability": "view",
      "type": "function",
      "constant": true
    },
    {
      "inputs": [],
      "name": "getPMLNCandsCnics",
      "outputs": [
        {
          "internalType": "bytes16[]",
          "name": "",
          "type": "bytes16[]"
        }
      ],
      "stateMutability": "view",
      "type": "function",
      "constant": true
    },
    {
      "inputs": [],
      "name": "getPMLNCandsConstituencies",
      "outputs": [
        {
          "internalType": "bytes8[]",
          "name": "",
          "type": "bytes8[]"
        }
      ],
      "stateMutability": "view",
      "type": "function",
      "constant": true
    },
    {
      "inputs": [
        {
          "internalType": "string",
          "name": "str",
          "type": "string"
        }
      ],
      "name": "stringToBytes1",
      "outputs": [
        {
          "internalType": "bytes1",
          "name": "",
          "type": "bytes1"
        }
      ],
      "stateMutability": "pure",
      "type": "function",
      "constant": true
    },
    {
      "inputs": [
        {
          "internalType": "string",
          "name": "str",
          "type": "string"
        }
      ],
      "name": "stringToBytes8",
      "outputs": [
        {
          "internalType": "bytes8",
          "name": "",
          "type": "bytes8"
        }
      ],
      "stateMutability": "pure",
      "type": "function",
      "constant": true
    },
    {
      "inputs": [
        {
          "internalType": "string",
          "name": "str",
          "type": "string"
        }
      ],
      "name": "stringToBytes12",
      "outputs": [
        {
          "internalType": "bytes12",
          "name": "",
          "type": "bytes12"
        }
      ],
      "stateMutability": "pure",
      "type": "function",
      "constant": true
    },
    {
      "inputs": [
        {
          "internalType": "string",
          "name": "str",
          "type": "string"
        }
      ],
      "name": "stringToBytes16",
      "outputs": [
        {
          "internalType": "bytes16",
          "name": "",
          "type": "bytes16"
        }
      ],
      "stateMutability": "pure",
      "type": "function",
      "constant": true
    },
    {
      "inputs": [
        {
          "internalType": "string",
          "name": "str",
          "type": "string"
        }
      ],
      "name": "stringToBytes32",
      "outputs": [
        {
          "internalType": "bytes32",
          "name": "",
          "type": "bytes32"
        }
      ],
      "stateMutability": "pure",
      "type": "function",
      "constant": true
    }
  ],
  "bytecode": "0x60806040523480156200001157600080fd5b50600260005560408051600c8082526101a08201909252906020820161018080368337505081516200004b926001925060200190620021d6565b5060408051600c8082526101a082019092529060208201610180803683375050815162000080926002925060200190620022a0565b50620000d06040518060400160405280600f81526020017f33353230322d383934303835352d300000000000000000000000000000000000815250620021b6640100000000026401000000009004565b6001600081548110620000e757620000e7620023a4565b90600052602060002090600291828204019190066010026101000a8154816001608060020a030219169083700100000000000000000000000000000000900402179055506200017a6040518060400160405280600f81526020017f30383638312d363139343538352d380000000000000000000000000000000000815250620021b6640100000000026401000000009004565b60018081548110620001905762000190620023a4565b90600052602060002090600291828204019190066010026101000a8154816001608060020a03021916908370010000000000000000000000000000000090040217905550620002236040518060400160405280600f81526020017f38373339322d313031333135382d350000000000000000000000000000000000815250620021b6640100000000026401000000009004565b60016002815481106200023a576200023a620023a4565b90600052602060002090600291828204019190066010026101000a8154816001608060020a03021916908370010000000000000000000000000000000090040217905550620002cd6040518060400160405280600f81526020017f30373534382d313532383033372d370000000000000000000000000000000000815250620021b6640100000000026401000000009004565b6001600381548110620002e457620002e4620023a4565b90600052602060002090600291828204019190066010026101000a8154816001608060020a03021916908370010000000000000000000000000000000090040217905550620003776040518060400160405280600f81526020017f34343730322d353331393230352d350000000000000000000000000000000000815250620021b6640100000000026401000000009004565b60016004815481106200038e576200038e620023a4565b90600052602060002090600291828204019190066010026101000a8154816001608060020a03021916908370010000000000000000000000000000000090040217905550620004216040518060400160405280600f81526020017f31313734382d383437373830382d320000000000000000000000000000000000815250620021b6640100000000026401000000009004565b6001600581548110620004385762000438620023a4565b90600052602060002090600291828204019190066010026101000a8154816001608060020a03021916908370010000000000000000000000000000000090040217905550620004cb6040518060400160405280600f81526020017f31313031362d333233363837332d300000000000000000000000000000000000815250620021b6640100000000026401000000009004565b6001600681548110620004e257620004e2620023a4565b90600052602060002090600291828204019190066010026101000a8154816001608060020a03021916908370010000000000000000000000000000000090040217905550620005756040518060400160405280600f81526020017f35343037342d313937353037332d320000000000000000000000000000000000815250620021b6640100000000026401000000009004565b60016007815481106200058c576200058c620023a4565b90600052602060002090600291828204019190066010026101000a8154816001608060020a030219169083700100000000000000000000000000000000900402179055506200061f6040518060400160405280600f81526020017f37343236372d373030313631332d300000000000000000000000000000000000815250620021b6640100000000026401000000009004565b6001600881548110620006365762000636620023a4565b90600052602060002090600291828204019190066010026101000a8154816001608060020a03021916908370010000000000000000000000000000000090040217905550620006c96040518060400160405280600f81526020017f30303931312d343638303335302d320000000000000000000000000000000000815250620021b6640100000000026401000000009004565b6001600981548110620006e057620006e0620023a4565b90600052602060002090600291828204019190066010026101000a8154816001608060020a03021916908370010000000000000000000000000000000090040217905550620007736040518060400160405280600f81526020017f31323231332d353731383932382d360000000000000000000000000000000000815250620021b6640100000000026401000000009004565b6001600a815481106200078a576200078a620023a4565b90600052602060002090600291828204019190066010026101000a8154816001608060020a030219169083700100000000000000000000000000000000900402179055506200081d6040518060400160405280600f81526020017f33333435312d303932313632322d360000000000000000000000000000000000815250620021b6640100000000026401000000009004565b6001600b81548110620008345762000834620023a4565b90600052602060002090600291828204019190066010026101000a8154816001608060020a03021916908370010000000000000000000000000000000090040217905550620008c76040518060400160405280600481526020017f4e412d3300000000000000000000000000000000000000000000000000000000815250620021c9640100000000026401000000009004565b6002600081548110620008de57620008de620023a4565b90600052602060002090600491828204019190066008026101000a8154816001604060020a030219169083780100000000000000000000000000000000000000000000000090040217905550620009796040518060400160405280600481526020017f4e412d3100000000000000000000000000000000000000000000000000000000815250620021c9640100000000026401000000009004565b6002600181548110620009905762000990620023a4565b90600052602060002090600491828204019190066008026101000a8154816001604060020a03021916908378010000000000000000000000000000000000000000000000009004021790555062000a2b6040518060400160405280600481526020017f50502d3100000000000000000000000000000000000000000000000000000000815250620021c9640100000000026401000000009004565b6002808154811062000a415762000a41620023a4565b90600052602060002090600491828204019190066008026101000a8154816001604060020a03021916908378010000000000000000000000000000000000000000000000009004021790555062000adc6040518060400160405280600481526020017f50502d3200000000000000000000000000000000000000000000000000000000815250620021c9640100000000026401000000009004565b600260038154811062000af35762000af3620023a4565b90600052602060002090600491828204019190066008026101000a8154816001604060020a03021916908378010000000000000000000000000000000000000000000000009004021790555062000b8e6040518060400160405280600481526020017f4e412d3200000000000000000000000000000000000000000000000000000000815250620021c9640100000000026401000000009004565b600260048154811062000ba55762000ba5620023a4565b90600052602060002090600491828204019190066008026101000a8154816001604060020a03021916908378010000000000000000000000000000000000000000000000009004021790555062000c406040518060400160405280600481526020017f50532d3100000000000000000000000000000000000000000000000000000000815250620021c9640100000000026401000000009004565b600260058154811062000c575762000c57620023a4565b90600052602060002090600491828204019190066008026101000a8154816001604060020a03021916908378010000000000000000000000000000000000000000000000009004021790555062000cf26040518060400160405280600481526020017f50532d3200000000000000000000000000000000000000000000000000000000815250620021c9640100000000026401000000009004565b600260068154811062000d095762000d09620023a4565b90600052602060002090600491828204019190066008026101000a8154816001604060020a03021916908378010000000000000000000000000000000000000000000000009004021790555062000da46040518060400160405280600481526020017f504b2d3100000000000000000000000000000000000000000000000000000000815250620021c9640100000000026401000000009004565b600260078154811062000dbb5762000dbb620023a4565b90600052602060002090600491828204019190066008026101000a8154816001604060020a03021916908378010000000000000000000000000000000000000000000000009004021790555062000e566040518060400160405280600481526020017f504b2d3200000000000000000000000000000000000000000000000000000000815250620021c9640100000000026401000000009004565b600260088154811062000e6d5762000e6d620023a4565b90600052602060002090600491828204019190066008026101000a8154816001604060020a03021916908378010000000000000000000000000000000000000000000000009004021790555062000f086040518060400160405280600481526020017f4e412d3400000000000000000000000000000000000000000000000000000000815250620021c9640100000000026401000000009004565b600260098154811062000f1f5762000f1f620023a4565b90600052602060002090600491828204019190066008026101000a8154816001604060020a03021916908378010000000000000000000000000000000000000000000000009004021790555062000fba6040518060400160405280600481526020017f50422d3100000000000000000000000000000000000000000000000000000000815250620021c9640100000000026401000000009004565b6002600a8154811062000fd15762000fd1620023a4565b90600052602060002090600491828204019190066008026101000a8154816001604060020a0302191690837801000000000000000000000000000000000000000000000000900402179055506200106c6040518060400160405280600481526020017f50422d3200000000000000000000000000000000000000000000000000000000815250620021c9640100000000026401000000009004565b6002600b81548110620010835762001083620023a4565b90600052602060002090600491828204019190066008026101000a8154816001604060020a030219169083780100000000000000000000000000000000000000000000000090040217905550600c6001604060020a03811115620010eb57620010eb62002375565b60405190808252806020026020018201604052801562001115578160200160208202803683370190505b5080516200112c91600391602090910190620021d6565b5060408051600c8082526101a082019092529060208201610180803683375050815162001161926004925060200190620022a0565b50620011b16040518060400160405280600f81526020017f33353230322d383934303835352d310000000000000000000000000000000000815250620021b6640100000000026401000000009004565b6003600081548110620011c857620011c8620023a4565b90600052602060002090600291828204019190066010026101000a8154816001608060020a030219169083700100000000000000000000000000000000900402179055506200125b6040518060400160405280600f81526020017f34353139302d323635323730322d370000000000000000000000000000000000815250620021b6640100000000026401000000009004565b6003600181548110620012725762001272620023a4565b90600052602060002090600291828204019190066010026101000a8154816001608060020a03021916908370010000000000000000000000000000000090040217905550620013056040518060400160405280600f81526020017f37313231362d333530363936312d340000000000000000000000000000000000815250620021b6640100000000026401000000009004565b60036002815481106200131c576200131c620023a4565b90600052602060002090600291828204019190066010026101000a8154816001608060020a03021916908370010000000000000000000000000000000090040217905550620013af6040518060400160405280600f81526020017f34333134392d333330333530342d330000000000000000000000000000000000815250620021b6640100000000026401000000009004565b60038081548110620013c557620013c5620023a4565b90600052602060002090600291828204019190066010026101000a8154816001608060020a03021916908370010000000000000000000000000000000090040217905550620014586040518060400160405280600f81526020017f39383539302d353638383531332d390000000000000000000000000000000000815250620021b6640100000000026401000000009004565b60036004815481106200146f576200146f620023a4565b90600052602060002090600291828204019190066010026101000a8154816001608060020a03021916908370010000000000000000000000000000000090040217905550620015026040518060400160405280600f81526020017f36363032302d313936323333352d370000000000000000000000000000000000815250620021b6640100000000026401000000009004565b6003600581548110620015195762001519620023a4565b90600052602060002090600291828204019190066010026101000a8154816001608060020a03021916908370010000000000000000000000000000000090040217905550620015ac6040518060400160405280600f81526020017f38373738342d393530323632372d340000000000000000000000000000000000815250620021b6640100000000026401000000009004565b6003600681548110620015c357620015c3620023a4565b90600052602060002090600291828204019190066010026101000a8154816001608060020a03021916908370010000000000000000000000000000000090040217905550620016566040518060400160405280600f81526020017f39393236342d383832303336332d340000000000000000000000000000000000815250620021b6640100000000026401000000009004565b60036007815481106200166d576200166d620023a4565b90600052602060002090600291828204019190066010026101000a8154816001608060020a03021916908370010000000000000000000000000000000090040217905550620017006040518060400160405280600f81526020017f32363736362d353632393234372d350000000000000000000000000000000000815250620021b6640100000000026401000000009004565b6003600881548110620017175762001717620023a4565b90600052602060002090600291828204019190066010026101000a8154816001608060020a03021916908370010000000000000000000000000000000090040217905550620017aa6040518060400160405280600f81526020017f39353336332d363730313833302d310000000000000000000000000000000000815250620021b6640100000000026401000000009004565b6003600981548110620017c157620017c1620023a4565b90600052602060002090600291828204019190066010026101000a8154816001608060020a03021916908370010000000000000000000000000000000090040217905550620018546040518060400160405280600f81526020017f33383730382d383332313835332d380000000000000000000000000000000000815250620021b6640100000000026401000000009004565b6003600a815481106200186b576200186b620023a4565b90600052602060002090600291828204019190066010026101000a8154816001608060020a03021916908370010000000000000000000000000000000090040217905550620018fe6040518060400160405280600f81526020017f36313038302d313735333335342d390000000000000000000000000000000000815250620021b6640100000000026401000000009004565b6003600b81548110620019155762001915620023a4565b90600052602060002090600291828204019190066010026101000a8154816001608060020a03021916908370010000000000000000000000000000000090040217905550620019a86040518060400160405280600481526020017f4e412d3100000000000000000000000000000000000000000000000000000000815250620021c9640100000000026401000000009004565b6004600081548110620019bf57620019bf620023a4565b90600052602060002090600491828204019190066008026101000a8154816001604060020a03021916908378010000000000000000000000000000000000000000000000009004021790555062001a5a6040518060400160405280600481526020017f50502d3100000000000000000000000000000000000000000000000000000000815250620021c9640100000000026401000000009004565b600460018154811062001a715762001a71620023a4565b90600052602060002090600491828204019190066008026101000a8154816001604060020a03021916908378010000000000000000000000000000000000000000000000009004021790555062001b0c6040518060400160405280600481526020017f50502d3200000000000000000000000000000000000000000000000000000000815250620021c9640100000000026401000000009004565b600460028154811062001b235762001b23620023a4565b90600052602060002090600491828204019190066008026101000a8154816001604060020a03021916908378010000000000000000000000000000000000000000000000009004021790555062001bbe6040518060400160405280600481526020017f4e412d3200000000000000000000000000000000000000000000000000000000815250620021c9640100000000026401000000009004565b600460038154811062001bd55762001bd5620023a4565b90600052602060002090600491828204019190066008026101000a8154816001604060020a03021916908378010000000000000000000000000000000000000000000000009004021790555062001c706040518060400160405280600481526020017f50532d3100000000000000000000000000000000000000000000000000000000815250620021c9640100000000026401000000009004565b6004808154811062001c865762001c86620023a4565b90600052602060002090600491828204019190066008026101000a8154816001604060020a03021916908378010000000000000000000000000000000000000000000000009004021790555062001d216040518060400160405280600481526020017f50532d3200000000000000000000000000000000000000000000000000000000815250620021c9640100000000026401000000009004565b600460058154811062001d385762001d38620023a4565b90600052602060002090600491828204019190066008026101000a8154816001604060020a03021916908378010000000000000000000000000000000000000000000000009004021790555062001dd36040518060400160405280600481526020017f4e412d3300000000000000000000000000000000000000000000000000000000815250620021c9640100000000026401000000009004565b600460068154811062001dea5762001dea620023a4565b90600052602060002090600491828204019190066008026101000a8154816001604060020a03021916908378010000000000000000000000000000000000000000000000009004021790555062001e856040518060400160405280600481526020017f504b2d3100000000000000000000000000000000000000000000000000000000815250620021c9640100000000026401000000009004565b600460078154811062001e9c5762001e9c620023a4565b90600052602060002090600491828204019190066008026101000a8154816001604060020a03021916908378010000000000000000000000000000000000000000000000009004021790555062001f376040518060400160405280600481526020017f504b2d3200000000000000000000000000000000000000000000000000000000815250620021c9640100000000026401000000009004565b600460088154811062001f4e5762001f4e620023a4565b90600052602060002090600491828204019190066008026101000a8154816001604060020a03021916908378010000000000000000000000000000000000000000000000009004021790555062001fe96040518060400160405280600481526020017f4e412d3400000000000000000000000000000000000000000000000000000000815250620021c9640100000000026401000000009004565b6004600981548110620020005762002000620023a4565b90600052602060002090600491828204019190066008026101000a8154816001604060020a0302191690837801000000000000000000000000000000000000000000000000900402179055506200209b6040518060400160405280600481526020017f50422d3100000000000000000000000000000000000000000000000000000000815250620021c9640100000000026401000000009004565b6004600a81548110620020b257620020b2620023a4565b90600052602060002090600491828204019190066008026101000a8154816001604060020a0302191690837801000000000000000000000000000000000000000000000000900402179055506200214d6040518060400160405280600481526020017f50422d3200000000000000000000000000000000000000000000000000000000815250620021c9640100000000026401000000009004565b6004600b81548110620021645762002164620023a4565b90600052602060002090600491828204019190066008026101000a8154816001604060020a03021916908378010000000000000000000000000000000000000000000000009004021790555062002443565b6000620021c382620023d3565b92915050565b6000620021c3826200240e565b828054828255906000526020600020906001016002900481019282156200228e5791602002820160005b838211156200225757835183826101000a8154816001608060020a030219169083700100000000000000000000000000000000900402179055509260200192601001602081600f0104928301926001030262002200565b80156200228c5782816101000a8154906001608060020a030219169055601001602081600f0104928301926001030262002257565b505b506200229c9291506200235e565b5090565b828054828255906000526020600020906003016004900481019282156200228e5791602002820160005b838211156200232957835183826101000a8154816001604060020a0302191690837801000000000000000000000000000000000000000000000000900402179055509260200192600801602081600701049283019260010302620022ca565b80156200228c5782816101000a8154906001604060020a03021916905560080160208160070104928301926001030262002329565b5b808211156200229c57600081556001016200235f565b7f4e487b7100000000000000000000000000000000000000000000000000000000600052604160045260246000fd5b7f4e487b7100000000000000000000000000000000000000000000000000000000600052603260045260246000fd5b805160208201516001608060020a031980821692919060108310156200240657808360100360080260020a820283161693505b505050919050565b80516020820151600160c060020a031980821692919060088310156200240657600892830390920260020a8202161692915050565b61077f80620024536000396000f3fe608060405234801561001057600080fd5b50600436106100bd5760e060020a600035046312ea51ff81146100c25780631d670149146100f357806329c1f19f146101065780635769c2cb1461011b578063601331871461013057806366fe08a414610143578063933ee88e1461016f5780639b7821eb1461019b578063afc0e324146101a3578063cfb51928146101cf578063d902f88d146101f0578063dc123dd114610203578063e69fd1c51461020c578063f183613c1461021f575b600080fd5b6100d56100d03660046104d5565b610227565b6040516001608060020a031990911681526020015b60405180910390f35b6100d56101013660046104d5565b610261565b61010e610271565b6040516100ea91906104ee565b6101236102f9565b6040516100ea919061053c565b6100d561013e366004610598565b610380565b610156610151366004610598565b610391565b604051600160f860020a031990911681526020016100ea565b61018261017d3660046104d5565b61039c565b604051600160c060020a031990911681526020016100ea565b6101236103d6565b6101b66101b1366004610598565b61043d565b604051600160a060020a031990911681526020016100ea565b6101e26101dd366004610598565b610448565b6040519081526020016100ea565b6101826101fe3660046104d5565b610453565b6101e260005481565b61018261021a366004610598565b610463565b61010e61046e565b6003818154811061023757600080fd5b9060005260206000209060029182820401919006601002915054906101000a9004608060020a0281565b6001818154811061023757600080fd5b606060018054806020026020016040519081016040528092919081815260200182805480156102ef57602002820191906000526020600020906000905b82829054906101000a9004608060020a026001608060020a03191681526020019060100190602082600f010492830192600103820291508084116102ae5790505b5050505050905090565b606060048054806020026020016040519081016040528092919081815260200182805480156102ef57602002820191906000526020600020906000905b82829054906101000a900460c060020a02600160c060020a031916815260200190600801906020826007010492830192600103820291508084116103365790505050505050905090565b600061038b82610648565b92915050565b600061038b82610682565b600481815481106103ac57600080fd5b9060005260206000209060049182820401919006600802915054906101000a900460c060020a0281565b606060028054806020026020016040519081016040528092919081815260200182805480156102ef576000918252602091829020805460c060020a02600160c060020a03191684529082028301929091600891018084116103365790505050505050905090565b600061038b826106b7565b600061038b826106ec565b600281815481106103ac57600080fd5b600061038b82610715565b606060038054806020026020016040519081016040528092919081815260200182805480156102ef5760009182526020918290208054608060020a026001608060020a03191684529082028301929091601091018084116102ae5790505050505050905090565b6000602082840312156104e757600080fd5b5035919050565b6020808252825182820181905260009190848201906040850190845b818110156105305783516001608060020a0319168352928401929184019160010161050a565b50909695505050505050565b6020808252825182820181905260009190848201906040850190845b81811015610530578351600160c060020a03191683529284019291840191600101610558565b60e060020a634e487b710260009081526041600452602490fd5b6000602082840312156105aa57600080fd5b81356001604060020a03808211156105c157600080fd5b818401915084601f8301126105d557600080fd5b8135818111156105e7576105e761057e565b604051601f8201601f19908116603f0116810190838211818310171561060f5761060f61057e565b8160405282815287602084870101111561062857600080fd5b826020860160208301376000928101602001929092525095945050505050565b805160208201516001608060020a0319808216929190601083101561067a57808360100360080260020a820283161693505b505050919050565b80516020820151600160f860020a0319808216929190600183101561067a5760019290920360080260020a8202161692915050565b80516020820151600160a060020a0319808216929190600c83101561067a57600c9290920360080260020a8202161692915050565b8051602080830151919081101561070f578060200360080260020a600003821691505b50919050565b80516020820151600160c060020a0319808216929190600883101561067a57600892830390920260020a820216169291505056fea2646970667358221220cdc610bc20103f162ceeec54286c92f39e00d96ee90d511150fdfcfb8c29747364736f6c634300080e0033",
  "immutableReferences": {},
  "source": "\r\n// SPDX-License-Identifier: MIT\r\npragma solidity >=0.4.22 <0.9.0;\r\nimport \"./PartyManager.sol\";\r\n\r\ncontract PartiesData{\r\n    uint public _parties_size;\r\n    bytes16[] public pti_cands_cnics;\r\n    bytes8[] public pti_cands_constituencies;\r\n    bytes16[] public pmln_cands_cnics;\r\n    bytes8[] public pmln_cands_constituencies;\r\n\r\n    constructor()\r\n    {\r\n        _parties_size = 2;\r\n            pti_cands_cnics = new bytes16[](12);\r\n            pti_cands_constituencies = new bytes8[](12);\r\n\r\n            pti_cands_cnics [0] = stringToBytes16(\"35202-8940855-0\");\r\n            pti_cands_cnics [1] = stringToBytes16(\"08681-6194585-8\");\r\n            // pti_cands_cnics [2] = stringToBytes16(\"48004-7460006-6\");\r\n            pti_cands_cnics [2] = stringToBytes16(\"87392-1013158-5\");\r\n            pti_cands_cnics [3] = stringToBytes16(\"07548-1528037-7\");\r\n            pti_cands_cnics [4] = stringToBytes16(\"44702-5319205-5\");\r\n            pti_cands_cnics [5] = stringToBytes16(\"11748-8477808-2\");\r\n            pti_cands_cnics [6] = stringToBytes16(\"11016-3236873-0\");\r\n            // pti_cands_cnics [8] = stringToBytes16(\"84367-8177738-4\");\r\n            pti_cands_cnics [7] = stringToBytes16(\"54074-1975073-2\");\r\n            pti_cands_cnics[8] = stringToBytes16(\"74267-7001613-0\");\r\n            pti_cands_cnics[9] = stringToBytes16(\"00911-4680350-2\");\r\n            pti_cands_cnics[10] = stringToBytes16(\"12213-5718928-6\");\r\n            pti_cands_cnics[11] = stringToBytes16(\"33451-0921622-6\");\r\n\r\n            pti_cands_constituencies [0] = stringToBytes8(\"NA-3\"); // Chairman\r\n            pti_cands_constituencies [1] = stringToBytes8(\"NA-1\");\r\n            // pti_cands_constituencies [2] = stringToBytes8(\"PP-1\");\r\n            pti_cands_constituencies [2] = stringToBytes8(\"PP-1\");\r\n            pti_cands_constituencies [3] = stringToBytes8(\"PP-2\");\r\n            pti_cands_constituencies [4] = stringToBytes8(\"NA-2\");\r\n            pti_cands_constituencies [5] = stringToBytes8(\"PS-1\");\r\n            pti_cands_constituencies [6] = stringToBytes8(\"PS-2\");\r\n            // pti_cands_constituencies [8] = stringToBytes8(\"NA-3\");\r\n            pti_cands_constituencies [7] = stringToBytes8(\"PK-1\");\r\n            pti_cands_constituencies[8] = stringToBytes8(\"PK-2\");\r\n            pti_cands_constituencies[9] = stringToBytes8(\"NA-4\");\r\n            pti_cands_constituencies[10] = stringToBytes8(\"PB-1\");\r\n            pti_cands_constituencies[11] = stringToBytes8(\"PB-2\");\r\n\r\n\r\n\r\n            pmln_cands_cnics = new bytes16[](12);\r\n            pmln_cands_constituencies = new bytes8[](12);\r\n\r\n            pmln_cands_cnics [0] = stringToBytes16(\"35202-8940855-1\");\r\n            // pmln_cands_cnics [1] = stringToBytes16(\"85000-7971439-1\");\r\n            pmln_cands_cnics [1] = stringToBytes16(\"45190-2652702-7\");\r\n            pmln_cands_cnics [2] = stringToBytes16(\"71216-3506961-4\");\r\n            pmln_cands_cnics [3] = stringToBytes16(\"43149-3303504-3\");\r\n            pmln_cands_cnics [4] = stringToBytes16(\"98590-5688513-9\");\r\n            pmln_cands_cnics [5] = stringToBytes16(\"66020-1962335-7\");\r\n            pmln_cands_cnics [6] = stringToBytes16(\"87784-9502627-4\");\r\n            pmln_cands_cnics [7] = stringToBytes16(\"99264-8820363-4\");\r\n            pmln_cands_cnics [8] = stringToBytes16(\"26766-5629247-5\");\r\n            pmln_cands_cnics[9] = stringToBytes16(\"95363-6701830-1\");\r\n            pmln_cands_cnics[10] = stringToBytes16(\"38708-8321853-8\");\r\n            pmln_cands_cnics[11] = stringToBytes16(\"61080-1753354-9\");\r\n\r\n            pmln_cands_constituencies [0] = stringToBytes8(\"NA-1\");\r\n            // pmln_cands_constituencies [1] = stringToBytes8(\"NA-1\");\r\n            pmln_cands_constituencies [1] = stringToBytes8(\"PP-1\");\r\n            pmln_cands_constituencies [2] = stringToBytes8(\"PP-2\");\r\n            pmln_cands_constituencies [3] = stringToBytes8(\"NA-2\");\r\n            pmln_cands_constituencies [4] = stringToBytes8(\"PS-1\");\r\n            pmln_cands_constituencies [5] = stringToBytes8(\"PS-2\");\r\n            pmln_cands_constituencies [6] = stringToBytes8(\"NA-3\");\r\n            pmln_cands_constituencies [7] = stringToBytes8(\"PK-1\");\r\n            pmln_cands_constituencies [8] = stringToBytes8(\"PK-2\");\r\n            pmln_cands_constituencies[9] = stringToBytes8(\"NA-4\");\r\n            pmln_cands_constituencies[10] = stringToBytes8(\"PB-1\");\r\n            pmln_cands_constituencies[11] = stringToBytes8(\"PB-2\");\r\n            \r\n            \r\n    }\r\n\r\n    function getPTICandsCnics() public view returns (bytes16[] memory) {\r\n        return pti_cands_cnics;\r\n    }\r\n    function getPTICandsConstituencies() public view returns (bytes8[] memory) {\r\n        return pti_cands_constituencies;\r\n    }\r\n    function getPMLNCandsCnics() public view returns (bytes16[] memory) {\r\n        return pmln_cands_cnics;\r\n    }\r\n    function getPMLNCandsConstituencies() public view returns (bytes8[] memory) {\r\n        return pmln_cands_constituencies;\r\n    }\r\n\r\n    function stringToBytes1(string memory str) public pure returns (bytes1) {\r\n        return bytes1(bytes(str));\r\n    }\r\n    function stringToBytes8(string memory str) public pure returns (bytes8) {    \r\n        return bytes8(bytes(str));\r\n    }\r\n    \r\n    function stringToBytes12(string memory str) public pure returns (bytes12) {\r\n        return bytes12(bytes(str));\r\n    }\r\n    function stringToBytes16(string memory str) public pure returns (bytes16) {\r\n        return bytes16(bytes(str));\r\n    }\r\n    function stringToBytes32(string memory str) public pure returns (bytes32) {\r\n        return bytes32(bytes(str));\r\n    }\r\n}",
  "sourcePath": "/Users/apple/Computer/Programming/Learning/react-native/FYP/Website/decentralized-voting-system-h3-fyp2-fix/truffle/contracts/PartiesData.sol",
  "compiler": {
    "name": "solc",
    "version": "0.8.14+commit.80d49f37.Emscripten.clang"
  },
  "schemaVersion": "3.4.13",
  "updatedAt": "2023-06-12T05:49:12.272Z",
  "networkType": "ethereum",
  "devdoc": {
    "kind": "dev",
    "methods": {},
    "version": 1
  },
  "userdoc": {
    "kind": "user",
    "methods": {},
    "version": 1
  }
}