{
  "contractName": "PartyManager",
  "abi": [
    {
      "inputs": [
        {
          "internalType": "address",
          "name": "_ecpAdd",
          "type": "address"
        },
        {
          "internalType": "address",
          "name": "_parties_data",
          "type": "address"
        }
      ],
      "stateMutability": "nonpayable",
      "type": "constructor"
    },
    {
      "inputs": [
        {
          "internalType": "uint256",
          "name": "",
          "type": "uint256"
        }
      ],
      "name": "parties",
      "outputs": [
        {
          "internalType": "contract Party",
          "name": "",
          "type": "address"
        }
      ],
      "stateMutability": "view",
      "type": "function",
      "constant": true
    },
    {
      "inputs": [],
      "name": "parties_count",
      "outputs": [
        {
          "internalType": "uint256",
          "name": "",
          "type": "uint256"
        }
      ],
      "stateMutability": "view",
      "type": "function",
      "constant": true
    },
    {
      "inputs": [
        {
          "internalType": "bytes32",
          "name": "_party_name",
          "type": "bytes32"
        },
        {
          "internalType": "bytes16",
          "name": "_chairman_cnic",
          "type": "bytes16"
        },
        {
          "internalType": "bytes32",
          "name": "_postal_add",
          "type": "bytes32"
        },
        {
          "internalType": "bytes8",
          "name": "__alias",
          "type": "bytes8"
        },
        {
          "internalType": "bytes16[]",
          "name": "_party_candidates_cnics",
          "type": "bytes16[]"
        },
        {
          "internalType": "bytes8[]",
          "name": "_party_candidates_constituencies",
          "type": "bytes8[]"
        }
      ],
      "name": "addParty",
      "outputs": [],
      "stateMutability": "nonpayable",
      "type": "function"
    },
    {
      "inputs": [
        {
          "internalType": "bytes32",
          "name": "_party_name",
          "type": "bytes32"
        }
      ],
      "name": "removeParty",
      "outputs": [],
      "stateMutability": "nonpayable",
      "type": "function"
    },
    {
      "inputs": [],
      "name": "getPartiesNames",
      "outputs": [
        {
          "internalType": "bytes32[]",
          "name": "",
          "type": "bytes32[]"
        }
      ],
      "stateMutability": "view",
      "type": "function",
      "constant": true
    },
    {
      "inputs": [
        {
          "internalType": "bytes8",
          "name": "const_name",
          "type": "bytes8"
        }
      ],
      "name": "getConstituencyParties",
      "outputs": [
        {
          "internalType": "contract Party[]",
          "name": "",
          "type": "address[]"
        }
      ],
      "stateMutability": "view",
      "type": "function",
      "constant": true
    },
    {
      "inputs": [],
      "name": "getParties",
      "outputs": [
        {
          "internalType": "contract Party[]",
          "name": "",
          "type": "address[]"
        }
      ],
      "stateMutability": "view",
      "type": "function",
      "constant": true
    }
  ],
  "bytecode": "0x60806040523480156200001157600080fd5b5060405162003fc138038062003fc18339810160408190526200003491620009db565b60008054600160a060020a03808516600160a060020a0319928316811790935560018054918516919092161790556040517f440422160000000000000000000000000000000000000000000000000000000081526344042216906200009e90309060040162000a1a565b600060405180830381600087803b158015620000b957600080fd5b505af1158015620000ce573d6000803e3d6000fd5b505050506200031d6040518060400160405280601881526020017f50616b697374616e205465687265656b2d652d496e7361660000000000000000815250620001179062000a2e565b6040518060400160405280600f81526020017f33353230322d383934303835352d300000000000000000000000000000000000815250620001589062000a58565b6040518060400160405280600a81526020017f706f7374616c2d70746900000000000000000000000000000000000000000000815250620001999062000a2e565b6040518060400160405280600381526020017f5054490000000000000000000000000000000000000000000000000000000000815250620001da9062000a93565b600160009054906101000a9004600160a060020a0316600160a060020a03166329c1f19f6040518163ffffffff167c0100000000000000000000000000000000000000000000000000000000028152600401600060405180830381865afa1580156200024a573d6000803e3d6000fd5b505050506040513d6000823e601f3d908101601f1916820160405262000274919081019062000b50565b600160009054906101000a9004600160a060020a0316600160a060020a0316639b7821eb6040518163ffffffff167c0100000000000000000000000000000000000000000000000000000000028152600401600060405180830381865afa158015620002e4573d6000803e3d6000fd5b505050506040513d6000823e601f3d908101601f191682016040526200030e919081019062000c04565b64010000000062000537810204565b6200052f6040518060400160405280601a81526020017f50616b697374616e204d75736c696d204c656167756520284e29000000000000815250620003629062000a2e565b6040518060400160405280600f81526020017f33353230322d383934303835352d310000000000000000000000000000000000815250620003a39062000a58565b6040518060400160405280600b81526020017f706f7374616c2d706d6c6e000000000000000000000000000000000000000000815250620003e49062000a2e565b6040518060400160405280600581526020017f504d4c2d4e000000000000000000000000000000000000000000000000000000815250620004259062000a93565b600160009054906101000a9004600160a060020a0316600160a060020a031663f183613c6040518163ffffffff167c0100000000000000000000000000000000000000000000000000000000028152600401600060405180830381865afa15801562000495573d6000803e3d6000fd5b505050506040513d6000823e601f3d908101601f19168201604052620004bf919081019062000b50565b600160009054906101000a9004600160a060020a0316600160a060020a0316635769c2cb6040518163ffffffff167c0100000000000000000000000000000000000000000000000000000000028152600401600060405180830381865afa158015620002e4573d6000803e3d6000fd5b505062000d53565b60006002548760008054906101000a9004600160a060020a0316600160a060020a031663a6a41f446040518163ffffffff167c0100000000000000000000000000000000000000000000000000000000028152600401602060405180830381865afa158015620005ab573d6000803e3d6000fd5b505050506040513d601f19601f82011682018060405250810190620005d1919062000ca7565b600160a060020a03166387cfaea9896040518263ffffffff167c01000000000000000000000000000000000000000000000000000000000281526004016200061a919062000cce565b602060405180830381865afa15801562000638573d6000803e3d6000fd5b505050506040513d601f19601f820116820180604052508101906200065e919062000ca7565b87876040516200066e90620009b4565b9485526020850193909352600160a060020a0390911660408401526060830152600160c060020a031916608082015260a001604051809103906000f080158015620006bd573d6000803e3d6000fd5b50905060005b83518110156200096b5781600160a060020a0316633acd75f860008054906101000a9004600160a060020a0316600160a060020a031663a6a41f446040518163ffffffff167c0100000000000000000000000000000000000000000000000000000000028152600401602060405180830381865afa1580156200074a573d6000803e3d6000fd5b505050506040513d601f19601f8201168201806040525081019062000770919062000ca7565b600160a060020a03166387cfaea987858151811062000793576200079362000ce3565b60200260200101516040518263ffffffff167c0100000000000000000000000000000000000000000000000000000000028152600401620007d5919062000cce565b602060405180830381865afa158015620007f3573d6000803e3d6000fd5b505050506040513d601f19601f8201168201806040525081019062000819919062000ca7565b6040518263ffffffff167c010000000000000000000000000000000000000000000000000000000002815260040162000853919062000a1a565b600060405180830381600087803b1580156200086e57600080fd5b505af115801562000883573d6000803e3d6000fd5b5050505081600160a060020a031663245fa105858381518110620008ab57620008ab62000ce3565b6020026020010151858481518110620008c857620008c862000ce3565b60209081029190910101516040517c010000000000000000000000000000000000000000000000000000000063ffffffff85160281526001608060020a03199092166004830152600160c060020a0319166024820152604401600060405180830381600087803b1580156200093c57600080fd5b505af115801562000951573d6000803e3d6000fd5b505050508080620009629062000d12565b915050620006c3565b506002805460009081526003602052604081208054600160a060020a031916600160a060020a03851617905581549190620009a68362000d12565b919050555050505050505050565b61120b8062002db683390190565b600160a060020a0381168114620009d857600080fd5b50565b60008060408385031215620009ef57600080fd5b8251620009fc81620009c2565b602084015190925062000a0f81620009c2565b809150509250929050565b600160a060020a0391909116815260200190565b8051602080830151919081101562000a52578060200360080260020a600003821691505b50919050565b805160208201516001608060020a0319808216929190601083101562000a8b57808360100360080260020a820283161693505b505050919050565b80516020820151600160c060020a0319808216929190600883101562000a8b57600892830390920260020a8202161692915050565b7f4e487b7100000000000000000000000000000000000000000000000000000000600052604160045260246000fd5b604051601f8201601f191681016001604060020a038111828210171562000b225762000b2262000ac8565b604052919050565b60006001604060020a0382111562000b465762000b4662000ac8565b5060209081020190565b6000602080838503121562000b6457600080fd5b82516001604060020a0381111562000b7b57600080fd5b8301601f8101851362000b8d57600080fd5b805162000ba462000b9e8262000b2a565b62000af7565b8181529083028201830190838101908783111562000bc157600080fd5b928401925b8284101562000bf95783516001608060020a03198116811462000be95760008081fd5b8252928401929084019062000bc6565b979650505050505050565b6000602080838503121562000c1857600080fd5b82516001604060020a0381111562000c2f57600080fd5b8301601f8101851362000c4157600080fd5b805162000c5262000b9e8262000b2a565b8181529083028201830190838101908783111562000c6f57600080fd5b928401925b8284101562000bf9578351600160c060020a03198116811462000c975760008081fd5b8252928401929084019062000c74565b60006020828403121562000cba57600080fd5b815162000cc781620009c2565b9392505050565b6001608060020a031991909116815260200190565b7f4e487b7100000000000000000000000000000000000000000000000000000000600052603260045260246000fd5b60006001820162000d4c577f4e487b7100000000000000000000000000000000000000000000000000000000600052601160045260246000fd5b5060010190565b6120538062000d636000396000f3fe608060405234801561001057600080fd5b50600436106100705760e060020a600035046358a84542811461007557806370651a181461008a5780638aa4ddb5146100c9578063966e4613146100de5780639982cae4146100fe578063a8311aa814610115578063c83b4a3a1461011d575b600080fd5b610088610083366004610b4d565b610130565b005b6100b3610098366004610c3e565b600360205260009081526040902054600160a060020a031681565b6040516100c09190610c57565b60405180910390f35b6100d16104ef565b6040516100c09190610c6b565b6100f16100ec366004610caf565b6105f6565b6040516100c09190610cd1565b61010760025481565b6040519081526020016100c0565b6100f16107f1565b61008861012b366004610c3e565b6108a1565b60006002548760008054906101000a9004600160a060020a0316600160a060020a031663a6a41f446040518163ffffffff1660e060020a028152600401602060405180830381865afa15801561018a573d6000803e3d6000fd5b505050506040513d601f19601f820116820180604052508101906101ae9190610d2a565b600160a060020a03166387cfaea9896040518263ffffffff1660e060020a0281526004016101dc9190610d47565b602060405180830381865afa1580156101f9573d6000803e3d6000fd5b505050506040513d601f19601f8201168201806040525081019061021d9190610d2a565b878760405161022b90610a2f565b9485526020850193909352600160a060020a0390911660408401526060830152600160c060020a031916608082015260a001604051809103906000f080158015610279573d6000803e3d6000fd5b50905060005b83518110156104a85781600160a060020a0316633acd75f860008054906101000a9004600160a060020a0316600160a060020a031663a6a41f446040518163ffffffff1660e060020a028152600401602060405180830381865afa1580156102eb573d6000803e3d6000fd5b505050506040513d601f19601f8201168201806040525081019061030f9190610d2a565b600160a060020a03166387cfaea987858151811061032f5761032f610d5c565b60200260200101516040518263ffffffff1660e060020a0281526004016103569190610d47565b602060405180830381865afa158015610373573d6000803e3d6000fd5b505050506040513d601f19601f820116820180604052508101906103979190610d2a565b6040518263ffffffff1660e060020a0281526004016103b69190610c57565b600060405180830381600087803b1580156103d057600080fd5b505af11580156103e4573d6000803e3d6000fd5b5050505081600160a060020a031663245fa10585838151811061040957610409610d5c565b602002602001015185848151811061042357610423610d5c565b602090810291909101015160405160e060020a63ffffffff85160281526001608060020a03199092166004830152600160c060020a0319166024820152604401600060405180830381600087803b15801561047d57600080fd5b505af1158015610491573d6000803e3d6000fd5b5050505080806104a090610d90565b91505061027f565b506002805460009081526003602052604081208054600160a060020a031916600160a060020a038516179055815491906104e183610d90565b919050555050505050505050565b606060006002546001604060020a0381111561050d5761050d610a71565b604051908082528060200260200182016040528015610536578160200160208202803683370190505b50905060005b6002548110156105f05760008181526003602090815260409182902054825160e060020a6306fdde030281529251600160a060020a03909116926306fdde039260048083019391928290030181865afa15801561059d573d6000803e3d6000fd5b505050506040513d601f19601f820116820180604052508101906105c19190610da9565b8282815181106105d3576105d3610d5c565b6020908102919091010152806105e881610d90565b91505061053c565b50919050565b606060006002546001604060020a0381111561061457610614610a71565b60405190808252806020026020018201604052801561063d578160200160208202803683370190505b5090506000805b600254811015610740576000818152600360205260409081902054905160e060020a6353bd2c39028152600160c060020a031987166004820152600160a060020a03909116906353bd2c3990602401602060405180830381865afa1580156106b0573d6000803e3d6000fd5b505050506040513d601f19601f820116820180604052508101906106d49190610dc2565b1561072e576000818152600360205260409020548351600160a060020a039091169084908490811061070857610708610d5c565b600160a060020a03909216602092830291909101909101528161072a81610d90565b9250505b8061073881610d90565b915050610644565b506000816001604060020a0381111561075b5761075b610a71565b604051908082528060200260200182016040528015610784578160200160208202803683370190505b50905060005b828110156107e8578381815181106107a4576107a4610d5c565b60200260200101518282815181106107be576107be610d5c565b600160a060020a0390921660209283029190910190910152806107e081610d90565b91505061078a565b50949350505050565b606060006002546001604060020a0381111561080f5761080f610a71565b604051908082528060200260200182016040528015610838578160200160208202803683370190505b50905060005b6002548110156105f0576000818152600360205260409020548251600160a060020a039091169083908390811061087757610877610d5c565b600160a060020a03909216602092830291909101909101528061089981610d90565b91505061083e565b60005b600254811015610a2b5760008181526003602090815260409182902054825160e060020a6306fdde030281529251600160a060020a03909116926306fdde039260048083019391928290030181865afa158015610905573d6000803e3d6000fd5b505050506040513d601f19601f820116820180604052508101906109299190610da9565b8203610a19576003600060016002546109429190610de4565b8152602080820192909252604090810160009081205484825260039093528190208054600160a060020a031916600160a060020a0390931692831790555160e060020a63d0e0ba950281526004810183905263d0e0ba9590602401600060405180830381600087803b1580156109b757600080fd5b505af11580156109cb573d6000803e3d6000fd5b505050506003600060016002546109e29190610de4565b8152602081019190915260400160009081208054600160a060020a03191690556002805491610a1083610dfb565b91905055505050565b80610a2381610d90565b9150506108a4565b5050565b61120b80610e1383390190565b80356001608060020a031981168114610a5457600080fd5b919050565b8035600160c060020a031981168114610a5457600080fd5b60e060020a634e487b710260009081526041600452602490fd5b604051601f8201601f191681016001604060020a0381118282101715610ab357610ab3610a71565b604052919050565b60006001604060020a03821115610ad457610ad4610a71565b5060209081020190565b600082601f830112610aef57600080fd5b81356020610b04610aff83610abb565b610a8b565b82815291810284018101918181019086841115610b2057600080fd5b8286015b84811015610b4257610b3581610a59565b8352918301918301610b24565b509695505050505050565b60008060008060008060c08789031215610b6657600080fd5b863595506020610b77818901610a3c565b955060408801359450610b8c60608901610a59565b935060808801356001604060020a0380821115610ba857600080fd5b818a0191508a601f830112610bbc57600080fd5b8135610bca610aff82610abb565b8181529084028301840190848101908d831115610be657600080fd5b938501935b82851015610c0b57610bfc85610a3c565b82529385019390850190610beb565b9650505060a08a0135925080831115610c2357600080fd5b5050610c3189828a01610ade565b9150509295509295509295565b600060208284031215610c5057600080fd5b5035919050565b600160a060020a0391909116815260200190565b6020808252825182820181905260009190848201906040850190845b81811015610ca357835183529284019291840191600101610c87565b50909695505050505050565b600060208284031215610cc157600080fd5b610cca82610a59565b9392505050565b6020808252825182820181905260009190848201906040850190845b81811015610ca3578351600160a060020a031683529284019291840191600101610ced565b600160a060020a0381168114610d2757600080fd5b50565b600060208284031215610d3c57600080fd5b8151610cca81610d12565b6001608060020a031991909116815260200190565b60e060020a634e487b710260009081526032600452602490fd5b60e060020a634e487b710260009081526011600452602490fd5b600060018201610da257610da2610d76565b5060010190565b600060208284031215610dbb57600080fd5b5051919050565b600060208284031215610dd457600080fd5b81518015158114610cca57600080fd5b600082821015610df657610df6610d76565b500390565b600081610e0a57610e0a610d76565b50600019019056fe608060405234801561001057600080fd5b5060405161120b38038061120b83398101604081905261002f91610098565b600094855560019390935560028054600160a060020a031916600160a060020a0393909316929092179091556003556004805467ffffffffffffffff19167801000000000000000000000000000000000000000000000000909204919091179055600555610109565b600080600080600060a086880312156100b057600080fd5b8551602087015160408801519196509450600160a060020a03811681146100d657600080fd5b606087015160808801519194509250600160c060020a0319811681146100fb57600080fd5b809150509295509295909350565b6110f3806101186000396000f3fe608060405234801561001057600080fd5b50600436106100ff5760e060020a600035046306fdde03811461010457806309f7332b146101205780630b817c3814610135578063245fa1051461014a5780633acd75f81461015d5780633ea410b41461017057806353bd2c391461018357806387cfaea9146101c757806387f7b975146102085780639209416a1461021b5780639655e3391461023b578063a4eb04f814610295578063af640d0f1461029e578063d0e0ba95146102a7578063de42c7f3146102ba578063e4f99735146102cd578063e7bd32701461031a578063f7449d311461033b578063f9473b6914610343578063f94c4a5f14610353575b600080fd5b61010d60015481565b6040519081526020015b60405180910390f35b61013361012e366004610db8565b61035c565b005b61013d610579565b6040516101179190610dda565b610133610158366004610e41565b610601565b61013361016b366004610e8d565b61071b565b61013361017e366004610ec2565b610965565b6101b7610191366004610db8565b600160c060020a0319166000908152600a6020526040902054608060020a900460ff1690565b6040519015158152602001610117565b6101f06101d5366004610f85565b600860205260009081526040902054600160a060020a031681565b604051600160a060020a039091168152602001610117565b6002546101f090600160a060020a031681565b61022e610229366004610fa2565b6109a5565b6040516101179190610fbb565b61024e610249366004610db8565b6109df565b6040516101179190815181526020808301516001608060020a0319169082015260408083015190820152606080830151908201526080918201519181019190915260a00190565b61010d60035481565b61010d60005481565b6101336102b5366004610fa2565b600055565b6101336102c8366004610f85565b610b13565b6102fa6102db366004610db8565b600a60205260009081526040902054608060020a808202910460ff1682565b604080516001608060020a03199093168352901515602083015201610117565b610322610cb4565b6040516001608060020a03199091168152602001610117565b61010d610d2a565b60045461022e9060c060020a0281565b61010d60055481565b600160c060020a031981166000908152600a6020908152604080832054608060020a026001608060020a031916835260089091529081902054905160e060020a63cca08a09028152600160a060020a039091169063cca08a09906103c4908490600401610fbb565b6020604051808303816000875af11580156103e3573d6000803e3d6000fd5b505050506040513d601f19601f820116820180604052508101906104079190610fd0565b50600160c060020a031981166000908152600a6020526040812080546001608860020a03191690555b600954811015610575576009818154811061044d5761044d610ff2565b90600052602060002090600491828204019190066008029054906101000a900460c060020a02600160c060020a03191682600160c060020a03191603610563576009805461049d90600190611026565b815481106104ad576104ad610ff2565b90600052602060002090600491828204019190066008029054906101000a900460c060020a02600982815481106104e6576104e6610ff2565b90600052602060002090600491828204019190066008026101000a8154816001604060020a03021916908360c060020a90040217905550600980548061052e5761052e61103d565b60008281526020902060046000199092019182040180546001604060020a03600860038516026101000a021916905590555050565b8061056d81611057565b915050610430565b5050565b606060098054806020026020016040519081016040528092919081815260200182805480156105f757602002820191906000526020600020906000905b82829054906101000a900460c060020a02600160c060020a031916815260200190600801906020826007010492830192600103820291508084116105b65790505b5050505050905090565b600160c060020a031981166000908152600a602090815260408083208054608060020a60ff0219608060020a808904919091166001608860020a031990921691909117179055600980546001810190915560048082047f6e1540171b6c0c960b71a7020d9f60077f6af931a8bbf590da0223dacf75c7af01805460c060020a88046008600390951685026101000a9081026001604060020a03909102199091161790556001608060020a03198716855292529182902054915160e260020a6304198437028152600160a060020a039092169163106610dc916106e591859101610fbb565b600060405180830381600087803b1580156106ff57600080fd5b505af1158015610713573d6000803e3d6000fd5b505050505050565b60015460405160e060020a63977f60830281526004810191909152600160a060020a0382169063977f608390602401600060405180830381600087803b15801561076457600080fd5b505af1158015610778573d6000803e3d6000fd5b5050505080600160a060020a031663bb6e486d6040518163ffffffff1660e060020a028152600401602060405180830381865afa1580156107bd573d6000803e3d6000fd5b505050506040513d601f19601f820116820180604052508101906107e19190611070565b60066000600554815260200190815260200160002060006101000a8154816001608060020a030219169083608060020a900402179055506005546007600083600160a060020a031663bb6e486d6040518163ffffffff1660e060020a028152600401602060405180830381865afa158015610860573d6000803e3d6000fd5b505050506040513d601f19601f820116820180604052508101906108849190611070565b6001608060020a0319166001608060020a031916815260200190815260200160002081905550806008600083600160a060020a031663bb6e486d6040518163ffffffff1660e060020a028152600401602060405180830381865afa1580156108f0573d6000803e3d6000fd5b505050506040513d601f19601f820116820180604052508101906109149190611070565b6001608060020a0319168152602081019190915260400160009081208054600160a060020a031916600160a060020a039390931692909217909155600580549161095d83611057565b919050555050565b60005b81518110156105755761099382828151811061098657610986610ff2565b602002602001015161071b565b8061099d81611057565b915050610968565b600981815481106109b557600080fd5b9060005260206000209060049182820401919006600802915054906101000a900460c060020a0281565b6040805160a0810182526000808252602082018190529181018290526060810182905260808101919091526040805160a08101808352600160c060020a031985166000908152600a602090815284822054608060020a026001608060020a031916825260088152908490205460e160020a63477a487502909252925191928392600160a060020a0390921691638ef490ea9160a480860192908187030181865afa158015610a91573d6000803e3d6000fd5b505050506040513d601f19601f82011682018060405250810190610ab5919061108d565b8152600160c060020a03199384166000908152600a6020908152604080832054608060020a026001608060020a03191691840191909152905490820152600154606082015260045460c060020a029093166080909301929092525090565b6001608060020a0319811660009081526008602052604080822054815160e160020a6366ff79450281529151600160a060020a039091169263cdfef28a926004808201939182900301818387803b158015610b6d57600080fd5b505af1158015610b81573d6000803e3d6000fd5b5050506001608060020a0319821660009081526008602090815260408083208054600160a060020a0319169055600782528083205480845260069283905290832054600554919450608060020a029291908290610be090600190611026565b815260200190815260200160002060009054906101000a9004608060020a029050600660006001600554610c149190611026565b8152602080820192909252604090810160009081205486825260068085528383208054608060020a938402939093046001608060020a03199384161790558582168352600790945282822087905585168152908120819055600554610c7b90600190611026565b81526020810191909152604001600090812080546001608060020a03191690556005805491610ca9836110a6565b919050555050505050565b6002546040805160e060020a63bb6e486d0281529051600092600160a060020a03169163bb6e486d9160048083019260209291908290030181865afa158015610d01573d6000803e3d6000fd5b505050506040513d601f19601f82011682018060405250810190610d259190611070565b905090565b6002546040805160e160020a63477a48750281529051600092600160a060020a031691638ef490ea9160048083019260209291908290030181865afa158015610d77573d6000803e3d6000fd5b505050506040513d601f19601f82011682018060405250810190610d25919061108d565b8035600160c060020a031981168114610db357600080fd5b919050565b600060208284031215610dca57600080fd5b610dd382610d9b565b9392505050565b6020808252825182820181905260009190848201906040850190845b81811015610e1c578351600160c060020a03191683529284019291840191600101610df6565b50909695505050505050565b6001608060020a031981168114610e3e57600080fd5b50565b60008060408385031215610e5457600080fd5b8235610e5f81610e28565b9150610e6d60208401610d9b565b90509250929050565b8035600160a060020a0381168114610db357600080fd5b600060208284031215610e9f57600080fd5b610dd382610e76565b60e060020a634e487b710260009081526041600452602490fd5b60006020808385031215610ed557600080fd5b82356001604060020a0380821115610eec57600080fd5b818501915085601f830112610f0057600080fd5b813581811115610f1257610f12610ea8565b838102604051601f19603f83011681018181108582111715610f3657610f36610ea8565b604052918252848201925083810185019188831115610f5457600080fd5b938501935b82851015610f7957610f6a85610e76565b84529385019392850192610f59565b98975050505050505050565b600060208284031215610f9757600080fd5b8135610dd381610e28565b600060208284031215610fb457600080fd5b5035919050565b600160c060020a031991909116815260200190565b600060208284031215610fe257600080fd5b81518015158114610dd357600080fd5b60e060020a634e487b710260009081526032600452602490fd5b60e060020a634e487b710260009081526011600452602490fd5b6000828210156110385761103861100c565b500390565b60e060020a634e487b710260009081526031600452602490fd5b6000600182016110695761106961100c565b5060010190565b60006020828403121561108257600080fd5b8151610dd381610e28565b60006020828403121561109f57600080fd5b5051919050565b6000816110b5576110b561100c565b50600019019056fea2646970667358221220c4195a412ac4e9ad6d3e01846d572ef64c31ac2c6bf5e328dc8a9aa33b2703fc64736f6c634300080e0033a2646970667358221220573669151489ee6da3b697b6ae256ec779df39b483f9e68557778ce3bd89154f64736f6c634300080e0033608060405234801561001057600080fd5b5060405161120b38038061120b83398101604081905261002f91610098565b600094855560019390935560028054600160a060020a031916600160a060020a0393909316929092179091556003556004805467ffffffffffffffff19167801000000000000000000000000000000000000000000000000909204919091179055600555610109565b600080600080600060a086880312156100b057600080fd5b8551602087015160408801519196509450600160a060020a03811681146100d657600080fd5b606087015160808801519194509250600160c060020a0319811681146100fb57600080fd5b809150509295509295909350565b6110f3806101186000396000f3fe608060405234801561001057600080fd5b50600436106100ff5760e060020a600035046306fdde03811461010457806309f7332b146101205780630b817c3814610135578063245fa1051461014a5780633acd75f81461015d5780633ea410b41461017057806353bd2c391461018357806387cfaea9146101c757806387f7b975146102085780639209416a1461021b5780639655e3391461023b578063a4eb04f814610295578063af640d0f1461029e578063d0e0ba95146102a7578063de42c7f3146102ba578063e4f99735146102cd578063e7bd32701461031a578063f7449d311461033b578063f9473b6914610343578063f94c4a5f14610353575b600080fd5b61010d60015481565b6040519081526020015b60405180910390f35b61013361012e366004610db8565b61035c565b005b61013d610579565b6040516101179190610dda565b610133610158366004610e41565b610601565b61013361016b366004610e8d565b61071b565b61013361017e366004610ec2565b610965565b6101b7610191366004610db8565b600160c060020a0319166000908152600a6020526040902054608060020a900460ff1690565b6040519015158152602001610117565b6101f06101d5366004610f85565b600860205260009081526040902054600160a060020a031681565b604051600160a060020a039091168152602001610117565b6002546101f090600160a060020a031681565b61022e610229366004610fa2565b6109a5565b6040516101179190610fbb565b61024e610249366004610db8565b6109df565b6040516101179190815181526020808301516001608060020a0319169082015260408083015190820152606080830151908201526080918201519181019190915260a00190565b61010d60035481565b61010d60005481565b6101336102b5366004610fa2565b600055565b6101336102c8366004610f85565b610b13565b6102fa6102db366004610db8565b600a60205260009081526040902054608060020a808202910460ff1682565b604080516001608060020a03199093168352901515602083015201610117565b610322610cb4565b6040516001608060020a03199091168152602001610117565b61010d610d2a565b60045461022e9060c060020a0281565b61010d60055481565b600160c060020a031981166000908152600a6020908152604080832054608060020a026001608060020a031916835260089091529081902054905160e060020a63cca08a09028152600160a060020a039091169063cca08a09906103c4908490600401610fbb565b6020604051808303816000875af11580156103e3573d6000803e3d6000fd5b505050506040513d601f19601f820116820180604052508101906104079190610fd0565b50600160c060020a031981166000908152600a6020526040812080546001608860020a03191690555b600954811015610575576009818154811061044d5761044d610ff2565b90600052602060002090600491828204019190066008029054906101000a900460c060020a02600160c060020a03191682600160c060020a03191603610563576009805461049d90600190611026565b815481106104ad576104ad610ff2565b90600052602060002090600491828204019190066008029054906101000a900460c060020a02600982815481106104e6576104e6610ff2565b90600052602060002090600491828204019190066008026101000a8154816001604060020a03021916908360c060020a90040217905550600980548061052e5761052e61103d565b60008281526020902060046000199092019182040180546001604060020a03600860038516026101000a021916905590555050565b8061056d81611057565b915050610430565b5050565b606060098054806020026020016040519081016040528092919081815260200182805480156105f757602002820191906000526020600020906000905b82829054906101000a900460c060020a02600160c060020a031916815260200190600801906020826007010492830192600103820291508084116105b65790505b5050505050905090565b600160c060020a031981166000908152600a602090815260408083208054608060020a60ff0219608060020a808904919091166001608860020a031990921691909117179055600980546001810190915560048082047f6e1540171b6c0c960b71a7020d9f60077f6af931a8bbf590da0223dacf75c7af01805460c060020a88046008600390951685026101000a9081026001604060020a03909102199091161790556001608060020a03198716855292529182902054915160e260020a6304198437028152600160a060020a039092169163106610dc916106e591859101610fbb565b600060405180830381600087803b1580156106ff57600080fd5b505af1158015610713573d6000803e3d6000fd5b505050505050565b60015460405160e060020a63977f60830281526004810191909152600160a060020a0382169063977f608390602401600060405180830381600087803b15801561076457600080fd5b505af1158015610778573d6000803e3d6000fd5b5050505080600160a060020a031663bb6e486d6040518163ffffffff1660e060020a028152600401602060405180830381865afa1580156107bd573d6000803e3d6000fd5b505050506040513d601f19601f820116820180604052508101906107e19190611070565b60066000600554815260200190815260200160002060006101000a8154816001608060020a030219169083608060020a900402179055506005546007600083600160a060020a031663bb6e486d6040518163ffffffff1660e060020a028152600401602060405180830381865afa158015610860573d6000803e3d6000fd5b505050506040513d601f19601f820116820180604052508101906108849190611070565b6001608060020a0319166001608060020a031916815260200190815260200160002081905550806008600083600160a060020a031663bb6e486d6040518163ffffffff1660e060020a028152600401602060405180830381865afa1580156108f0573d6000803e3d6000fd5b505050506040513d601f19601f820116820180604052508101906109149190611070565b6001608060020a0319168152602081019190915260400160009081208054600160a060020a031916600160a060020a039390931692909217909155600580549161095d83611057565b919050555050565b60005b81518110156105755761099382828151811061098657610986610ff2565b602002602001015161071b565b8061099d81611057565b915050610968565b600981815481106109b557600080fd5b9060005260206000209060049182820401919006600802915054906101000a900460c060020a0281565b6040805160a0810182526000808252602082018190529181018290526060810182905260808101919091526040805160a08101808352600160c060020a031985166000908152600a602090815284822054608060020a026001608060020a031916825260088152908490205460e160020a63477a487502909252925191928392600160a060020a0390921691638ef490ea9160a480860192908187030181865afa158015610a91573d6000803e3d6000fd5b505050506040513d601f19601f82011682018060405250810190610ab5919061108d565b8152600160c060020a03199384166000908152600a6020908152604080832054608060020a026001608060020a03191691840191909152905490820152600154606082015260045460c060020a029093166080909301929092525090565b6001608060020a0319811660009081526008602052604080822054815160e160020a6366ff79450281529151600160a060020a039091169263cdfef28a926004808201939182900301818387803b158015610b6d57600080fd5b505af1158015610b81573d6000803e3d6000fd5b5050506001608060020a0319821660009081526008602090815260408083208054600160a060020a0319169055600782528083205480845260069283905290832054600554919450608060020a029291908290610be090600190611026565b815260200190815260200160002060009054906101000a9004608060020a029050600660006001600554610c149190611026565b8152602080820192909252604090810160009081205486825260068085528383208054608060020a938402939093046001608060020a03199384161790558582168352600790945282822087905585168152908120819055600554610c7b90600190611026565b81526020810191909152604001600090812080546001608060020a03191690556005805491610ca9836110a6565b919050555050505050565b6002546040805160e060020a63bb6e486d0281529051600092600160a060020a03169163bb6e486d9160048083019260209291908290030181865afa158015610d01573d6000803e3d6000fd5b505050506040513d601f19601f82011682018060405250810190610d259190611070565b905090565b6002546040805160e160020a63477a48750281529051600092600160a060020a031691638ef490ea9160048083019260209291908290030181865afa158015610d77573d6000803e3d6000fd5b505050506040513d601f19601f82011682018060405250810190610d25919061108d565b8035600160c060020a031981168114610db357600080fd5b919050565b600060208284031215610dca57600080fd5b610dd382610d9b565b9392505050565b6020808252825182820181905260009190848201906040850190845b81811015610e1c578351600160c060020a03191683529284019291840191600101610df6565b50909695505050505050565b6001608060020a031981168114610e3e57600080fd5b50565b60008060408385031215610e5457600080fd5b8235610e5f81610e28565b9150610e6d60208401610d9b565b90509250929050565b8035600160a060020a0381168114610db357600080fd5b600060208284031215610e9f57600080fd5b610dd382610e76565b60e060020a634e487b710260009081526041600452602490fd5b60006020808385031215610ed557600080fd5b82356001604060020a0380821115610eec57600080fd5b818501915085601f830112610f0057600080fd5b813581811115610f1257610f12610ea8565b838102604051601f19603f83011681018181108582111715610f3657610f36610ea8565b604052918252848201925083810185019188831115610f5457600080fd5b938501935b82851015610f7957610f6a85610e76565b84529385019392850192610f59565b98975050505050505050565b600060208284031215610f9757600080fd5b8135610dd381610e28565b600060208284031215610fb457600080fd5b5035919050565b600160c060020a031991909116815260200190565b600060208284031215610fe257600080fd5b81518015158114610dd357600080fd5b60e060020a634e487b710260009081526032600452602490fd5b60e060020a634e487b710260009081526011600452602490fd5b6000828210156110385761103861100c565b500390565b60e060020a634e487b710260009081526031600452602490fd5b6000600182016110695761106961100c565b5060010190565b60006020828403121561108257600080fd5b8151610dd381610e28565b60006020828403121561109f57600080fd5b5051919050565b6000816110b5576110b561100c565b50600019019056fea2646970667358221220c4195a412ac4e9ad6d3e01846d572ef64c31ac2c6bf5e328dc8a9aa33b2703fc64736f6c634300080e0033",
  "immutableReferences": {},
  "source": "// SPDX-License-Identifier: MIT\npragma solidity >=0.4.22 <0.9.0;\nimport \"./ECP.sol\";\nimport \"./Party.sol\";\nimport \"./PartiesData.sol\";\n\ncontract PartyManager {\n    ECP private ecp;\n    PartiesData private parties_data;\n\n    // address private ecpAdd;\n    uint256 public parties_count;\n    mapping(uint256 => Party) public parties;\n    \n    \n    constructor(address _ecpAdd, address _parties_data){\n        ecp = ECP(_ecpAdd);\n        parties_data = PartiesData(_parties_data);\n        ecp.setPartyManager(this);\n            \n        \n        addParty(bytes32(bytes(\"Pakistan Tehreek-e-Insaf\")), bytes16(bytes(\"35202-8940855-0\")), bytes32(bytes(\"postal-pti\")), bytes8(bytes(\"PTI\")), parties_data.getPTICandsCnics(), parties_data.getPTICandsConstituencies());\n        addParty(bytes32(bytes(\"Pakistan Muslim League (N)\")), bytes16(bytes(\"35202-8940855-1\")), bytes32(bytes(\"postal-pmln\")), bytes8(bytes(\"PML-N\")), parties_data.getPMLNCandsCnics(), parties_data.getPMLNCandsConstituencies());\n         \n    }\n        //xxxxxxxxxxxxxxxxxxxxxxxxxxxxxxxxxxxxxxxxxxxxxxx PARTIES xxxxxxxxxxxxxxxxxxxxxxxxxxxxxxxxxxxxxxxxxxxxxx//\n\n    function addParty(bytes32 _party_name, bytes16 _chairman_cnic, bytes32 _postal_add, bytes8 __alias\n    , bytes16[] memory _party_candidates_cnics, bytes8[] memory _party_candidates_constituencies) public {\n        \n        Party _newParty = new Party(parties_count, _party_name, ecp.candidateManager().candidates(_chairman_cnic), _postal_add, __alias);\n        for (uint256 i = 0; i < _party_candidates_cnics.length; i++) {\n            _newParty.addCandidate(ecp.candidateManager().candidates(_party_candidates_cnics[i]));\n            _newParty.addConstituencyCandidate(_party_candidates_cnics[i], _party_candidates_constituencies[i]);\n        }\n        parties[parties_count] = _newParty;\n        \n        parties_count++;\n    }\n    function removeParty(bytes32 _party_name) public {\n        for (uint256 i = 0; i < parties_count; i++) {\n            if(_party_name == parties[i].name())\n            {\n                parties[i] = parties[parties_count-1];\n                parties[i].setId(i);\n                delete parties[parties_count-1];\n\n                parties_count--;\n                return;\n            }\n        }\n    }\n\n    function getPartiesNames() public view returns (bytes32[] memory){\n        bytes32[] memory party_names = new bytes32[](parties_count);\n        for (uint256 i = 0; i < parties_count; i++) {\n            party_names[i] = parties[i].name();\n        }\n        return party_names;\n    }\n    function getConstituencyParties(bytes8 const_name) external view returns(Party[] memory){\n        Party[] memory temp_const_parties = new Party[](parties_count);\n        uint size = 0;\n        for (uint256 i = 0; i < parties_count; i++) {\n            if(parties[i].isAnyCandidateNominated(const_name)){\n                temp_const_parties[size] = parties[i];\n                size++;\n            }\n        }\n        Party[] memory const_parties = new Party[](size);\n        for (uint256 i = 0; i < size; i++) {\n            const_parties[i] = temp_const_parties[i];\n        }\n        return const_parties;\n    }\n\n    function getParties() public view returns (Party[] memory){\n        Party[] memory tempParties = new Party[](parties_count);\n\n        for (uint256 i = 0; i < parties_count; i++) {\n            tempParties[i] = parties[i];\n        }\n        return tempParties;\n    }\n}",
  "sourcePath": "/Users/apple/Computer/Programming/Learning/react-native/FYP/Website/decentralized-voting-system-h3-fyp2-fix/truffle/contracts/PartyManager.sol",
  "compiler": {
    "name": "solc",
    "version": "0.8.14+commit.80d49f37.Emscripten.clang"
  },
  "schemaVersion": "3.4.13",
  "updatedAt": "2023-06-12T05:49:12.239Z",
  "networkType": "ethereum",
  "devdoc": {
    "kind": "dev",
    "methods": {},
    "version": 1
  },
  "userdoc": {
    "kind": "user",
    "methods": {},
    "version": 1
  }
}