{
  "contractName": "Party",
  "abi": [
    {
      "inputs": [
        {
          "internalType": "uint256",
          "name": "_id",
          "type": "uint256"
        },
        {
          "internalType": "bytes32",
          "name": "_name",
          "type": "bytes32"
        },
        {
          "internalType": "contract Candidate",
          "name": "_chairman",
          "type": "address"
        },
        {
          "internalType": "bytes32",
          "name": "_postal_add",
          "type": "bytes32"
        },
        {
          "internalType": "bytes8",
          "name": "__alias",
          "type": "bytes8"
        }
      ],
      "stateMutability": "nonpayable",
      "type": "constructor"
    },
    {
      "inputs": [],
      "name": "_alias",
      "outputs": [
        {
          "internalType": "bytes8",
          "name": "",
          "type": "bytes8"
        }
      ],
      "stateMutability": "view",
      "type": "function"
    },
    {
      "inputs": [
        {
          "internalType": "bytes16",
          "name": "",
          "type": "bytes16"
        }
      ],
      "name": "candidates",
      "outputs": [
        {
          "internalType": "contract Candidate",
          "name": "",
          "type": "address"
        }
      ],
      "stateMutability": "view",
      "type": "function"
    },
    {
      "inputs": [],
      "name": "candidates_count",
      "outputs": [
        {
          "internalType": "uint256",
          "name": "",
          "type": "uint256"
        }
      ],
      "stateMutability": "view",
      "type": "function"
    },
    {
      "inputs": [],
      "name": "chairman",
      "outputs": [
        {
          "internalType": "contract Candidate",
          "name": "",
          "type": "address"
        }
      ],
      "stateMutability": "view",
      "type": "function"
    },
    {
      "inputs": [
        {
          "internalType": "uint256",
          "name": "",
          "type": "uint256"
        }
      ],
      "name": "constituencies",
      "outputs": [
        {
          "internalType": "bytes8",
          "name": "",
          "type": "bytes8"
        }
      ],
      "stateMutability": "view",
      "type": "function"
    },
    {
      "inputs": [],
      "name": "id",
      "outputs": [
        {
          "internalType": "uint256",
          "name": "",
          "type": "uint256"
        }
      ],
      "stateMutability": "view",
      "type": "function"
    },
    {
      "inputs": [],
      "name": "name",
      "outputs": [
        {
          "internalType": "bytes32",
          "name": "",
          "type": "bytes32"
        }
      ],
      "stateMutability": "view",
      "type": "function"
    },
    {
      "inputs": [
        {
          "internalType": "bytes8",
          "name": "",
          "type": "bytes8"
        }
      ],
      "name": "party_constituencies",
      "outputs": [
        {
          "internalType": "bytes16",
          "name": "candidate_cnic",
          "type": "bytes16"
        },
        {
          "internalType": "bool",
          "name": "exist",
          "type": "bool"
        }
      ],
      "stateMutability": "view",
      "type": "function"
    },
    {
      "inputs": [],
      "name": "postal_add",
      "outputs": [
        {
          "internalType": "bytes32",
          "name": "",
          "type": "bytes32"
        }
      ],
      "stateMutability": "view",
      "type": "function"
    },
    {
      "inputs": [
        {
          "internalType": "contract Candidate[]",
          "name": "_candidates",
          "type": "address[]"
        }
      ],
      "name": "addCandidates",
      "outputs": [],
      "stateMutability": "nonpayable",
      "type": "function"
    },
    {
      "inputs": [
        {
          "internalType": "contract Candidate",
          "name": "_cand",
          "type": "address"
        }
      ],
      "name": "addCandidate",
      "outputs": [],
      "stateMutability": "nonpayable",
      "type": "function"
    },
    {
      "inputs": [
        {
          "internalType": "bytes16",
          "name": "_cnic",
          "type": "bytes16"
        }
      ],
      "name": "removeCandidate",
      "outputs": [],
      "stateMutability": "nonpayable",
      "type": "function"
    },
    {
      "inputs": [
        {
          "internalType": "bytes16",
          "name": "_cnic",
          "type": "bytes16"
        },
        {
          "internalType": "bytes8",
          "name": "_constituency",
          "type": "bytes8"
        }
      ],
      "name": "addConstituencyCandidate",
      "outputs": [],
      "stateMutability": "nonpayable",
      "type": "function"
    },
    {
      "inputs": [
        {
          "internalType": "bytes8",
          "name": "_constituency",
          "type": "bytes8"
        }
      ],
      "name": "removeConstituencyCandidate",
      "outputs": [],
      "stateMutability": "nonpayable",
      "type": "function"
    },
    {
      "inputs": [
        {
          "internalType": "bytes8",
          "name": "_constituency",
          "type": "bytes8"
        }
      ],
      "name": "isAnyCandidateNominated",
      "outputs": [
        {
          "internalType": "bool",
          "name": "",
          "type": "bool"
        }
      ],
      "stateMutability": "view",
      "type": "function"
    },
    {
      "inputs": [
        {
          "internalType": "uint256",
          "name": "_id",
          "type": "uint256"
        }
      ],
      "name": "setId",
      "outputs": [],
      "stateMutability": "nonpayable",
      "type": "function"
    },
    {
      "inputs": [],
      "name": "getConstituencies",
      "outputs": [
        {
          "internalType": "bytes8[]",
          "name": "",
          "type": "bytes8[]"
        }
      ],
      "stateMutability": "view",
      "type": "function"
    },
    {
      "inputs": [
        {
          "internalType": "bytes8",
          "name": "const_name",
          "type": "bytes8"
        }
      ],
      "name": "getElectionConstituencyDetail",
      "outputs": [
        {
          "components": [
            {
              "internalType": "bytes32",
              "name": "candidate_name",
              "type": "bytes32"
            },
            {
              "internalType": "bytes16",
              "name": "candidate_cnic",
              "type": "bytes16"
            },
            {
              "internalType": "uint256",
              "name": "party_id",
              "type": "uint256"
            },
            {
              "internalType": "bytes32",
              "name": "party_name",
              "type": "bytes32"
            },
            {
              "internalType": "bytes32",
              "name": "party_alias",
              "type": "bytes32"
            }
          ],
          "internalType": "struct Party.ElectionConstituency",
          "name": "",
          "type": "tuple"
        }
      ],
      "stateMutability": "view",
      "type": "function"
    },
    {
      "inputs": [],
      "name": "getChairmanName",
      "outputs": [
        {
          "internalType": "bytes32",
          "name": "",
          "type": "bytes32"
        }
      ],
      "stateMutability": "view",
      "type": "function"
    },
    {
      "inputs": [],
      "name": "getChairmanCnic",
      "outputs": [
        {
          "internalType": "bytes16",
          "name": "",
          "type": "bytes16"
        }
      ],
      "stateMutability": "view",
      "type": "function"
    }
  ],
  "bytecode": "0x608060405234801561001057600080fd5b5060405161120b38038061120b83398101604081905261002f91610098565b600094855560019390935560028054600160a060020a031916600160a060020a0393909316929092179091556003556004805467ffffffffffffffff19167801000000000000000000000000000000000000000000000000909204919091179055600555610109565b600080600080600060a086880312156100b057600080fd5b8551602087015160408801519196509450600160a060020a03811681146100d657600080fd5b606087015160808801519194509250600160c060020a0319811681146100fb57600080fd5b809150509295509295909350565b6110f3806101186000396000f3fe608060405234801561001057600080fd5b50600436106100ff5760e060020a600035046306fdde03811461010457806309f7332b146101205780630b817c3814610135578063245fa1051461014a5780633acd75f81461015d5780633ea410b41461017057806353bd2c391461018357806387cfaea9146101c757806387f7b975146102085780639209416a1461021b5780639655e3391461023b578063a4eb04f814610295578063af640d0f1461029e578063d0e0ba95146102a7578063de42c7f3146102ba578063e4f99735146102cd578063e7bd32701461031a578063f7449d311461033b578063f9473b6914610343578063f94c4a5f14610353575b600080fd5b61010d60015481565b6040519081526020015b60405180910390f35b61013361012e366004610db8565b61035c565b005b61013d610579565b6040516101179190610dda565b610133610158366004610e41565b610601565b61013361016b366004610e8d565b61071b565b61013361017e366004610ec2565b610965565b6101b7610191366004610db8565b600160c060020a0319166000908152600a6020526040902054608060020a900460ff1690565b6040519015158152602001610117565b6101f06101d5366004610f85565b600860205260009081526040902054600160a060020a031681565b604051600160a060020a039091168152602001610117565b6002546101f090600160a060020a031681565b61022e610229366004610fa2565b6109a5565b6040516101179190610fbb565b61024e610249366004610db8565b6109df565b6040516101179190815181526020808301516001608060020a0319169082015260408083015190820152606080830151908201526080918201519181019190915260a00190565b61010d60035481565b61010d60005481565b6101336102b5366004610fa2565b600055565b6101336102c8366004610f85565b610b13565b6102fa6102db366004610db8565b600a60205260009081526040902054608060020a808202910460ff1682565b604080516001608060020a03199093168352901515602083015201610117565b610322610cb4565b6040516001608060020a03199091168152602001610117565b61010d610d2a565b60045461022e9060c060020a0281565b61010d60055481565b600160c060020a031981166000908152600a6020908152604080832054608060020a026001608060020a031916835260089091529081902054905160e060020a63cca08a09028152600160a060020a039091169063cca08a09906103c4908490600401610fbb565b6020604051808303816000875af11580156103e3573d6000803e3d6000fd5b505050506040513d601f19601f820116820180604052508101906104079190610fd0565b50600160c060020a031981166000908152600a6020526040812080546001608860020a03191690555b600954811015610575576009818154811061044d5761044d610ff2565b90600052602060002090600491828204019190066008029054906101000a900460c060020a02600160c060020a03191682600160c060020a03191603610563576009805461049d90600190611026565b815481106104ad576104ad610ff2565b90600052602060002090600491828204019190066008029054906101000a900460c060020a02600982815481106104e6576104e6610ff2565b90600052602060002090600491828204019190066008026101000a8154816001604060020a03021916908360c060020a90040217905550600980548061052e5761052e61103d565b60008281526020902060046000199092019182040180546001604060020a03600860038516026101000a021916905590555050565b8061056d81611057565b915050610430565b5050565b606060098054806020026020016040519081016040528092919081815260200182805480156105f757602002820191906000526020600020906000905b82829054906101000a900460c060020a02600160c060020a031916815260200190600801906020826007010492830192600103820291508084116105b65790505b5050505050905090565b600160c060020a031981166000908152600a602090815260408083208054608060020a60ff0219608060020a808904919091166001608860020a031990921691909117179055600980546001810190915560048082047f6e1540171b6c0c960b71a7020d9f60077f6af931a8bbf590da0223dacf75c7af01805460c060020a88046008600390951685026101000a9081026001604060020a03909102199091161790556001608060020a03198716855292529182902054915160e260020a6304198437028152600160a060020a039092169163106610dc916106e591859101610fbb565b600060405180830381600087803b1580156106ff57600080fd5b505af1158015610713573d6000803e3d6000fd5b505050505050565b60015460405160e060020a63977f60830281526004810191909152600160a060020a0382169063977f608390602401600060405180830381600087803b15801561076457600080fd5b505af1158015610778573d6000803e3d6000fd5b5050505080600160a060020a031663bb6e486d6040518163ffffffff1660e060020a028152600401602060405180830381865afa1580156107bd573d6000803e3d6000fd5b505050506040513d601f19601f820116820180604052508101906107e19190611070565b60066000600554815260200190815260200160002060006101000a8154816001608060020a030219169083608060020a900402179055506005546007600083600160a060020a031663bb6e486d6040518163ffffffff1660e060020a028152600401602060405180830381865afa158015610860573d6000803e3d6000fd5b505050506040513d601f19601f820116820180604052508101906108849190611070565b6001608060020a0319166001608060020a031916815260200190815260200160002081905550806008600083600160a060020a031663bb6e486d6040518163ffffffff1660e060020a028152600401602060405180830381865afa1580156108f0573d6000803e3d6000fd5b505050506040513d601f19601f820116820180604052508101906109149190611070565b6001608060020a0319168152602081019190915260400160009081208054600160a060020a031916600160a060020a039390931692909217909155600580549161095d83611057565b919050555050565b60005b81518110156105755761099382828151811061098657610986610ff2565b602002602001015161071b565b8061099d81611057565b915050610968565b600981815481106109b557600080fd5b9060005260206000209060049182820401919006600802915054906101000a900460c060020a0281565b6040805160a0810182526000808252602082018190529181018290526060810182905260808101919091526040805160a08101808352600160c060020a031985166000908152600a602090815284822054608060020a026001608060020a031916825260088152908490205460e160020a63477a487502909252925191928392600160a060020a0390921691638ef490ea9160a480860192908187030181865afa158015610a91573d6000803e3d6000fd5b505050506040513d601f19601f82011682018060405250810190610ab5919061108d565b8152600160c060020a03199384166000908152600a6020908152604080832054608060020a026001608060020a03191691840191909152905490820152600154606082015260045460c060020a029093166080909301929092525090565b6001608060020a0319811660009081526008602052604080822054815160e160020a6366ff79450281529151600160a060020a039091169263cdfef28a926004808201939182900301818387803b158015610b6d57600080fd5b505af1158015610b81573d6000803e3d6000fd5b5050506001608060020a0319821660009081526008602090815260408083208054600160a060020a0319169055600782528083205480845260069283905290832054600554919450608060020a029291908290610be090600190611026565b815260200190815260200160002060009054906101000a9004608060020a029050600660006001600554610c149190611026565b8152602080820192909252604090810160009081205486825260068085528383208054608060020a938402939093046001608060020a03199384161790558582168352600790945282822087905585168152908120819055600554610c7b90600190611026565b81526020810191909152604001600090812080546001608060020a03191690556005805491610ca9836110a6565b919050555050505050565b6002546040805160e060020a63bb6e486d0281529051600092600160a060020a03169163bb6e486d9160048083019260209291908290030181865afa158015610d01573d6000803e3d6000fd5b505050506040513d601f19601f82011682018060405250810190610d259190611070565b905090565b6002546040805160e160020a63477a48750281529051600092600160a060020a031691638ef490ea9160048083019260209291908290030181865afa158015610d77573d6000803e3d6000fd5b505050506040513d601f19601f82011682018060405250810190610d25919061108d565b8035600160c060020a031981168114610db357600080fd5b919050565b600060208284031215610dca57600080fd5b610dd382610d9b565b9392505050565b6020808252825182820181905260009190848201906040850190845b81811015610e1c578351600160c060020a03191683529284019291840191600101610df6565b50909695505050505050565b6001608060020a031981168114610e3e57600080fd5b50565b60008060408385031215610e5457600080fd5b8235610e5f81610e28565b9150610e6d60208401610d9b565b90509250929050565b8035600160a060020a0381168114610db357600080fd5b600060208284031215610e9f57600080fd5b610dd382610e76565b60e060020a634e487b710260009081526041600452602490fd5b60006020808385031215610ed557600080fd5b82356001604060020a0380821115610eec57600080fd5b818501915085601f830112610f0057600080fd5b813581811115610f1257610f12610ea8565b838102604051601f19603f83011681018181108582111715610f3657610f36610ea8565b604052918252848201925083810185019188831115610f5457600080fd5b938501935b82851015610f7957610f6a85610e76565b84529385019392850192610f59565b98975050505050505050565b600060208284031215610f9757600080fd5b8135610dd381610e28565b600060208284031215610fb457600080fd5b5035919050565b600160c060020a031991909116815260200190565b600060208284031215610fe257600080fd5b81518015158114610dd357600080fd5b60e060020a634e487b710260009081526032600452602490fd5b60e060020a634e487b710260009081526011600452602490fd5b6000828210156110385761103861100c565b500390565b60e060020a634e487b710260009081526031600452602490fd5b6000600182016110695761106961100c565b5060010190565b60006020828403121561108257600080fd5b8151610dd381610e28565b60006020828403121561109f57600080fd5b5051919050565b6000816110b5576110b561100c565b50600019019056fea2646970667358221220c4195a412ac4e9ad6d3e01846d572ef64c31ac2c6bf5e328dc8a9aa33b2703fc64736f6c634300080e0033",
  "immutableReferences": {},
  "source": "// SPDX-License-Identifier: MIT\r\npragma solidity >=0.4.22 <0.9.0;\r\nimport \"./Candidate.sol\";\r\n\r\ncontract Party{\r\n    uint256 public id;\r\n    bytes32 public name;\r\n    Candidate public chairman;\r\n    bytes32 public postal_add;\r\n    // bytes32 public symbol;\r\n    bytes8 public _alias;\r\n\r\n    uint public  candidates_count;\r\n    mapping (uint => bytes16) candidates_cnics;\r\n    mapping (bytes16 => uint) candidates_indexes;\r\n    mapping (bytes16 => Candidate) public candidates;\r\n\r\n    struct PartyConstituency{\r\n        bytes16 candidate_cnic;\r\n        bool exist;\r\n    }\r\n    bytes8[] public constituencies;\r\n    mapping(bytes8 => PartyConstituency) public party_constituencies;\r\n\r\n    constructor(uint _id, bytes32 _name, Candidate _chairman, bytes32  _postal_add, bytes8 __alias) {\r\n        id = _id;\r\n        name = _name;\r\n        chairman = _chairman;\r\n        postal_add = _postal_add;\r\n        // symbol = _symbol;\r\n        _alias = __alias;\r\n\r\n        candidates_count=0;\r\n    }\r\n\r\n    function addCandidates(Candidate[] memory _candidates)public {\r\n        for(uint i=0;i<_candidates.length;i++){\r\n            addCandidate(_candidates[i]);\r\n        }\r\n    }\r\n    function addCandidate(Candidate _cand) public {\r\n        _cand.setParty(name);\r\n        candidates_cnics[candidates_count] = _cand.cnic();\r\n        candidates_indexes[_cand.cnic()] = candidates_count;\r\n        candidates[_cand.cnic()] = _cand;\r\n        \r\n        candidates_count++;\r\n    }\r\n    function removeCandidate(bytes16 _cnic) public{\r\n\r\n        // require(candidates[_cnic] , \"Candidate does not exist\");\r\n\r\n        // for(uint i=0;i<candidates[_cnic].constituencies.length; i++){\r\n        //     removeCandidateByConstituency(candidates[_cnic].constituencies[i]);\r\n        // }\r\n        candidates[_cnic].removeParty();\r\n        delete candidates[_cnic];\r\n\r\n        uint256 remove_index = candidates_indexes[_cnic];\r\n        bytes16 remove_cnic = candidates_cnics[remove_index];\r\n        bytes16 last_cnic = candidates_cnics[candidates_count-1];\r\n\r\n        candidates_cnics[remove_index] = candidates_cnics[candidates_count-1];\r\n        candidates_indexes[last_cnic] = remove_index;\r\n\r\n        delete candidates_indexes[remove_cnic];\r\n        delete candidates_cnics[candidates_count-1];\r\n        candidates_count--;\r\n    }\r\n\r\n    function addConstituencyCandidate(bytes16 _cnic, bytes8 _constituency)public{\r\n        party_constituencies[_constituency].candidate_cnic = _cnic;\r\n        party_constituencies[_constituency].exist = true;\r\n        constituencies.push(_constituency);\r\n\r\n        candidates[_cnic].addConstituency(_constituency);\r\n    }\r\n\r\n    function removeConstituencyCandidate(bytes8 _constituency) public {\r\n        \r\n        candidates[party_constituencies[_constituency].candidate_cnic].removeConstituency(_constituency);\r\n       \r\n        delete party_constituencies[_constituency];\r\n        \r\n        for (uint256 i = 0; i < constituencies.length; i++) {\r\n            if(_constituency == constituencies[i]){\r\n                constituencies[i] = constituencies[constituencies.length - 1];\r\n                constituencies.pop();\r\n                break;\r\n            }\r\n        }\r\n    }\r\n\r\n\r\n    function isAnyCandidateNominated(bytes8 _constituency) public view returns (bool){\r\n        // _constituency == NA-xx / PA-xx\r\n        return party_constituencies[_constituency].exist;\r\n    }\r\n\r\n    function setId(uint256 _id) public {\r\n        id = _id;\r\n    }\r\n    function getConstituencies() public view returns (bytes8[] memory){\r\n        return constituencies;\r\n    }\r\n    struct ElectionConstituency{\r\n        bytes32 candidate_name; \r\n        bytes16 candidate_cnic; \r\n        uint256 party_id;\r\n        bytes32 party_name; \r\n        bytes32 party_alias; \r\n    }\r\n    function getElectionConstituencyDetail(bytes8 const_name) public view returns(ElectionConstituency memory){\r\n        return ElectionConstituency({\r\n            candidate_name: candidates[party_constituencies[const_name].candidate_cnic].fullname(),\r\n            candidate_cnic: party_constituencies[const_name].candidate_cnic,\r\n            party_id: id,\r\n            party_name: name,\r\n            party_alias: _alias\r\n        });\r\n    }\r\n    function getChairmanName() public view returns(bytes32){\r\n        return chairman.fullname();\r\n    }\r\n    function getChairmanCnic() public view returns(bytes16){\r\n        return chairman.cnic();\r\n    }\r\n}",
  "sourcePath": "/Users/apple/Computer/Programming/Learning/react-native/FYP/Website/decentralized-voting-system-h3-fyp2-fix/truffle/contracts/Party.sol",
  "compiler": {
    "name": "solc",
    "version": "0.8.14+commit.80d49f37.Emscripten.clang"
  },
  "schemaVersion": "3.4.13",
  "updatedAt": "2023-06-11T17:46:32.337Z",
  "devdoc": {
    "kind": "dev",
    "methods": {},
    "version": 1
  },
  "userdoc": {
    "kind": "user",
    "methods": {},
    "version": 1
  }
}