{
  "contractName": "User",
  "abi": [
    {
      "inputs": [
        {
          "internalType": "bytes32",
          "name": "_fullname",
          "type": "bytes32"
        },
        {
          "internalType": "uint256",
          "name": "_age",
          "type": "uint256"
        },
        {
          "internalType": "bytes1",
          "name": "_gender",
          "type": "bytes1"
        },
        {
          "internalType": "bytes16",
          "name": "_cnic",
          "type": "bytes16"
        },
        {
          "internalType": "bytes12",
          "name": "_contact",
          "type": "bytes12"
        }
      ],
      "stateMutability": "nonpayable",
      "type": "constructor"
    },
    {
      "inputs": [],
      "name": "age",
      "outputs": [
        {
          "internalType": "uint256",
          "name": "",
          "type": "uint256"
        }
      ],
      "stateMutability": "view",
      "type": "function"
    },
    {
      "inputs": [],
      "name": "cnic",
      "outputs": [
        {
          "internalType": "bytes16",
          "name": "",
          "type": "bytes16"
        }
      ],
      "stateMutability": "view",
      "type": "function"
    },
    {
      "inputs": [],
      "name": "contact",
      "outputs": [
        {
          "internalType": "bytes12",
          "name": "",
          "type": "bytes12"
        }
      ],
      "stateMutability": "view",
      "type": "function"
    },
    {
      "inputs": [],
      "name": "fullname",
      "outputs": [
        {
          "internalType": "bytes32",
          "name": "",
          "type": "bytes32"
        }
      ],
      "stateMutability": "view",
      "type": "function"
    },
    {
      "inputs": [],
      "name": "gender",
      "outputs": [
        {
          "internalType": "bytes1",
          "name": "",
          "type": "bytes1"
        }
      ],
      "stateMutability": "view",
      "type": "function"
    }
  ],
  "bytecode": "0x608060405234801561001057600080fd5b506040516102c53803806102c583398101604081905261002f916100e4565b600094909455600192909255600280546001608860020a0319167f0100000000000000000000000000000000000000000000000000000000000000909204610100608860020a031916919091176101007001000000000000000000000000000000009093049290920291909117608860020a60e860020a031916710100000000000000000000000000000000007401000000000000000000000000000000000000000090930492909202919091179055610184565b600080600080600060a086880312156100fc57600080fd5b855194506020860151935060408601517fff000000000000000000000000000000000000000000000000000000000000008116811461013a57600080fd5b60608701519093506001608060020a03198116811461015857600080fd5b6080870151909250600160a060020a03198116811461017657600080fd5b809150509295509295909350565b610132806101936000396000f3fe6080604052348015600f57600080fd5b506004361060535760e060020a6000350463262a9dff8114605857806333a8c45a14607357806379caad861460a15780638ef490ea1460c8578063bb6e486d1460d0575b600080fd5b606060015481565b6040519081526020015b60405180910390f35b600254608990608860020a900460a060020a0281565b604051600160a060020a03199091168152602001606a565b60025460b09060f860020a0281565b604051600160f860020a03199091168152602001606a565b606060005481565b60025460e4906101009004608060020a0281565b6040516001608060020a03199091168152602001606a56fea264697066735822122039126fe2c26438ad74b2486e89772b371152c2f8ebd0a9d394fe5f314633a3aa64736f6c634300080e0033",
  "immutableReferences": {},
  "source": "// SPDX-License-Identifier: MIT\r\npragma solidity >=0.4.22 <0.9.0;\r\n\r\ncontract User {\r\n    bytes32 public fullname;\r\n    uint public age;\r\n    bytes1 public gender;\r\n    bytes16 public cnic;\r\n    bytes12 public contact;\r\n\r\n    constructor( bytes32 _fullname, uint _age, bytes1 _gender, bytes16 _cnic, bytes12 _contact) {\r\n        fullname = _fullname;\r\n        age = _age;\r\n        gender = _gender;\r\n        cnic = _cnic;\r\n        contact = _contact;\r\n    }\r\n}\r\n",
  "sourcePath": "/Users/apple/Computer/Programming/Learning/react-native/FYP/Website/decentralized-voting-system-h3-fyp2-fix/truffle/contracts/User.sol",
  "compiler": {
    "name": "solc",
    "version": "0.8.14+commit.80d49f37.Emscripten.clang"
  },
  "schemaVersion": "3.4.13",
  "updatedAt": "2023-06-11T17:46:32.344Z",
  "devdoc": {
    "kind": "dev",
    "methods": {},
    "version": 1
  },
  "userdoc": {
    "kind": "user",
    "methods": {},
    "version": 1
  }
}