{
  "contractName": "VotersData",
  "abi": [
    {
      "inputs": [],
      "stateMutability": "nonpayable",
      "type": "constructor"
    },
    {
      "inputs": [
        {
          "internalType": "uint256",
          "name": "",
          "type": "uint256"
        }
      ],
      "name": "_cnics",
      "outputs": [
        {
          "internalType": "bytes16",
          "name": "",
          "type": "bytes16"
        }
      ],
      "stateMutability": "view",
      "type": "function",
      "constant": true
    },
    {
      "inputs": [
        {
          "internalType": "uint256",
          "name": "",
          "type": "uint256"
        }
      ],
      "name": "_na_list",
      "outputs": [
        {
          "internalType": "bytes8",
          "name": "",
          "type": "bytes8"
        }
      ],
      "stateMutability": "view",
      "type": "function",
      "constant": true
    },
    {
      "inputs": [
        {
          "internalType": "uint256",
          "name": "",
          "type": "uint256"
        }
      ],
      "name": "_pa_list",
      "outputs": [
        {
          "internalType": "bytes8",
          "name": "",
          "type": "bytes8"
        }
      ],
      "stateMutability": "view",
      "type": "function",
      "constant": true
    },
    {
      "inputs": [],
      "name": "_voters_size",
      "outputs": [
        {
          "internalType": "uint256",
          "name": "",
          "type": "uint256"
        }
      ],
      "stateMutability": "view",
      "type": "function",
      "constant": true
    },
    {
      "inputs": [],
      "name": "getCnics",
      "outputs": [
        {
          "internalType": "bytes16[]",
          "name": "",
          "type": "bytes16[]"
        }
      ],
      "stateMutability": "view",
      "type": "function",
      "constant": true
    },
    {
      "inputs": [],
      "name": "getNAList",
      "outputs": [
        {
          "internalType": "bytes8[]",
          "name": "",
          "type": "bytes8[]"
        }
      ],
      "stateMutability": "view",
      "type": "function",
      "constant": true
    },
    {
      "inputs": [],
      "name": "getPAList",
      "outputs": [
        {
          "internalType": "bytes8[]",
          "name": "",
          "type": "bytes8[]"
        }
      ],
      "stateMutability": "view",
      "type": "function",
      "constant": true
    },
    {
      "inputs": [
        {
          "internalType": "string",
          "name": "str",
          "type": "string"
        }
      ],
      "name": "stringToBytes8",
      "outputs": [
        {
          "internalType": "bytes8",
          "name": "",
          "type": "bytes8"
        }
      ],
      "stateMutability": "pure",
      "type": "function",
      "constant": true
    },
    {
      "inputs": [
        {
          "internalType": "string",
          "name": "str",
          "type": "string"
        }
      ],
      "name": "stringToBytes16",
      "outputs": [
        {
          "internalType": "bytes16",
          "name": "",
          "type": "bytes16"
        }
      ],
      "stateMutability": "pure",
      "type": "function",
      "constant": true
    }
  ],
  "bytecode": "0x60806040523480156200001157600080fd5b5060346000819055604080518281526106a08101909152906020820161068080368337505081516200004b92600192506020019062006c05565b506000546001604060020a0381111562000069576200006962006da4565b60405190808252806020026020018201604052801562000093578160200160208202803683370190505b508051620000aa9160029160209091019062006ccf565b506000546001604060020a03811115620000c857620000c862006da4565b604051908082528060200260200182016040528015620000f2578160200160208202803683370190505b508051620001099160039160209091019062006ccf565b50620001596040518060400160405280600f81526020017f39313636312d353835363432342d39000000000000000000000000000000000081525062006be5640100000000026401000000009004565b600160008154811062000170576200017062006dd3565b90600052602060002090600291828204019190066010026101000a8154816001608060020a03021916908370010000000000000000000000000000000090040217905550620002036040518060400160405280600f81526020017f32303433322d373839383837352d33000000000000000000000000000000000081525062006be5640100000000026401000000009004565b6001808154811062000219576200021962006dd3565b90600052602060002090600291828204019190066010026101000a8154816001608060020a03021916908370010000000000000000000000000000000090040217905550620002ac6040518060400160405280600f81526020017f35323035342d343933343537312d30000000000000000000000000000000000081525062006be5640100000000026401000000009004565b6001600281548110620002c357620002c362006dd3565b90600052602060002090600291828204019190066010026101000a8154816001608060020a03021916908370010000000000000000000000000000000090040217905550620003566040518060400160405280600f81526020017f37353138372d393638363530342d34000000000000000000000000000000000081525062006be5640100000000026401000000009004565b60016003815481106200036d576200036d62006dd3565b90600052602060002090600291828204019190066010026101000a8154816001608060020a03021916908370010000000000000000000000000000000090040217905550620004006040518060400160405280600f81526020017f32333035382d303835333331352d33000000000000000000000000000000000081525062006be5640100000000026401000000009004565b600160048154811062000417576200041762006dd3565b90600052602060002090600291828204019190066010026101000a8154816001608060020a03021916908370010000000000000000000000000000000090040217905550620004aa6040518060400160405280600f81526020017f39343237302d333639383336392d35000000000000000000000000000000000081525062006be5640100000000026401000000009004565b6001600581548110620004c157620004c162006dd3565b90600052602060002090600291828204019190066010026101000a8154816001608060020a03021916908370010000000000000000000000000000000090040217905550620005546040518060400160405280600f81526020017f30323335382d303739353934362d33000000000000000000000000000000000081525062006be5640100000000026401000000009004565b60016006815481106200056b576200056b62006dd3565b90600052602060002090600291828204019190066010026101000a8154816001608060020a03021916908370010000000000000000000000000000000090040217905550620005fe6040518060400160405280600f81526020017f38393030372d343135353331342d34000000000000000000000000000000000081525062006be5640100000000026401000000009004565b600160078154811062000615576200061562006dd3565b90600052602060002090600291828204019190066010026101000a8154816001608060020a03021916908370010000000000000000000000000000000090040217905550620006a86040518060400160405280600f81526020017f31333435352d363133323938392d36000000000000000000000000000000000081525062006be5640100000000026401000000009004565b6001600881548110620006bf57620006bf62006dd3565b90600052602060002090600291828204019190066010026101000a8154816001608060020a03021916908370010000000000000000000000000000000090040217905550620007526040518060400160405280600f81526020017f35373839392d383935333138302d31000000000000000000000000000000000081525062006be5640100000000026401000000009004565b600160098154811062000769576200076962006dd3565b90600052602060002090600291828204019190066010026101000a8154816001608060020a03021916908370010000000000000000000000000000000090040217905550620007fc6040518060400160405280600f81526020017f38363335322d363935343837322d34000000000000000000000000000000000081525062006be5640100000000026401000000009004565b6001600a8154811062000813576200081362006dd3565b90600052602060002090600291828204019190066010026101000a8154816001608060020a03021916908370010000000000000000000000000000000090040217905550620008a66040518060400160405280600f81526020017f32363130382d303937383939372d35000000000000000000000000000000000081525062006be5640100000000026401000000009004565b6001600b81548110620008bd57620008bd62006dd3565b90600052602060002090600291828204019190066010026101000a8154816001608060020a03021916908370010000000000000000000000000000000090040217905550620009506040518060400160405280600f81526020017f33313030322d303238363238332d32000000000000000000000000000000000081525062006be5640100000000026401000000009004565b6001600c8154811062000967576200096762006dd3565b90600052602060002090600291828204019190066010026101000a8154816001608060020a03021916908370010000000000000000000000000000000090040217905550620009fa6040518060400160405280600f81526020017f31323936362d353034363339332d36000000000000000000000000000000000081525062006be5640100000000026401000000009004565b6001600d8154811062000a115762000a1162006dd3565b90600052602060002090600291828204019190066010026101000a8154816001608060020a0302191690837001000000000000000000000000000000009004021790555062000aa46040518060400160405280600f81526020017f30393837332d393438323534362d39000000000000000000000000000000000081525062006be5640100000000026401000000009004565b6001600e8154811062000abb5762000abb62006dd3565b90600052602060002090600291828204019190066010026101000a8154816001608060020a0302191690837001000000000000000000000000000000009004021790555062000b4e6040518060400160405280600f81526020017f32303335342d333939393632322d35000000000000000000000000000000000081525062006be5640100000000026401000000009004565b6001600f8154811062000b655762000b6562006dd3565b90600052602060002090600291828204019190066010026101000a8154816001608060020a0302191690837001000000000000000000000000000000009004021790555062000bf86040518060400160405280600f81526020017f31303936332d353534303934302d31000000000000000000000000000000000081525062006be5640100000000026401000000009004565b600160108154811062000c0f5762000c0f62006dd3565b90600052602060002090600291828204019190066010026101000a8154816001608060020a0302191690837001000000000000000000000000000000009004021790555062000ca26040518060400160405280600f81526020017f30303334342d303837323830342d30000000000000000000000000000000000081525062006be5640100000000026401000000009004565b600160118154811062000cb95762000cb962006dd3565b90600052602060002090600291828204019190066010026101000a8154816001608060020a0302191690837001000000000000000000000000000000009004021790555062000d4c6040518060400160405280600f81526020017f35313438382d373838353335372d36000000000000000000000000000000000081525062006be5640100000000026401000000009004565b600160128154811062000d635762000d6362006dd3565b90600052602060002090600291828204019190066010026101000a8154816001608060020a0302191690837001000000000000000000000000000000009004021790555062000df66040518060400160405280600f81526020017f33393239352d383833303133372d37000000000000000000000000000000000081525062006be5640100000000026401000000009004565b600160138154811062000e0d5762000e0d62006dd3565b90600052602060002090600291828204019190066010026101000a8154816001608060020a0302191690837001000000000000000000000000000000009004021790555062000ea06040518060400160405280600f81526020017f36383339332d313035383733332d30000000000000000000000000000000000081525062006be5640100000000026401000000009004565b600160148154811062000eb75762000eb762006dd3565b90600052602060002090600291828204019190066010026101000a8154816001608060020a0302191690837001000000000000000000000000000000009004021790555062000f4a6040518060400160405280600f81526020017f36303830332d353230313835352d32000000000000000000000000000000000081525062006be5640100000000026401000000009004565b600160158154811062000f615762000f6162006dd3565b90600052602060002090600291828204019190066010026101000a8154816001608060020a0302191690837001000000000000000000000000000000009004021790555062000ff46040518060400160405280600f81526020017f32373637392d313635333836352d30000000000000000000000000000000000081525062006be5640100000000026401000000009004565b60016016815481106200100b576200100b62006dd3565b90600052602060002090600291828204019190066010026101000a8154816001608060020a030219169083700100000000000000000000000000000000900402179055506200109e6040518060400160405280600f81526020017f33383936372d313138363836382d37000000000000000000000000000000000081525062006be5640100000000026401000000009004565b6001601781548110620010b557620010b562006dd3565b90600052602060002090600291828204019190066010026101000a8154816001608060020a03021916908370010000000000000000000000000000000090040217905550620011486040518060400160405280600f81526020017f30353131332d323031313731352d33000000000000000000000000000000000081525062006be5640100000000026401000000009004565b60016018815481106200115f576200115f62006dd3565b90600052602060002090600291828204019190066010026101000a8154816001608060020a03021916908370010000000000000000000000000000000090040217905550620011f26040518060400160405280600f81526020017f30383638312d363139343538352d38000000000000000000000000000000000081525062006be5640100000000026401000000009004565b600160198154811062001209576200120962006dd3565b90600052602060002090600291828204019190066010026101000a8154816001608060020a030219169083700100000000000000000000000000000000900402179055506200129c6040518060400160405280600f81526020017f38353030302d373937313433392d31000000000000000000000000000000000081525062006be5640100000000026401000000009004565b6001601a81548110620012b357620012b362006dd3565b90600052602060002090600291828204019190066010026101000a8154816001608060020a03021916908370010000000000000000000000000000000090040217905550620013466040518060400160405280600f81526020017f34383030342d373436303030362d36000000000000000000000000000000000081525062006be5640100000000026401000000009004565b6001601b815481106200135d576200135d62006dd3565b90600052602060002090600291828204019190066010026101000a8154816001608060020a03021916908370010000000000000000000000000000000090040217905550620013f06040518060400160405280600f81526020017f38373339322d313031333135382d35000000000000000000000000000000000081525062006be5640100000000026401000000009004565b6001601c8154811062001407576200140762006dd3565b90600052602060002090600291828204019190066010026101000a8154816001608060020a030219169083700100000000000000000000000000000000900402179055506200149a6040518060400160405280600f81526020017f34353139302d323635323730322d37000000000000000000000000000000000081525062006be5640100000000026401000000009004565b6001601d81548110620014b157620014b162006dd3565b90600052602060002090600291828204019190066010026101000a8154816001608060020a03021916908370010000000000000000000000000000000090040217905550620015446040518060400160405280600f81526020017f37313231362d333530363936312d34000000000000000000000000000000000081525062006be5640100000000026401000000009004565b6001601e815481106200155b576200155b62006dd3565b90600052602060002090600291828204019190066010026101000a8154816001608060020a03021916908370010000000000000000000000000000000090040217905550620015ee6040518060400160405280600f81526020017f30373534382d313532383033372d37000000000000000000000000000000000081525062006be5640100000000026401000000009004565b6001601f8154811062001605576200160562006dd3565b90600052602060002090600291828204019190066010026101000a8154816001608060020a03021916908370010000000000000000000000000000000090040217905550620016986040518060400160405280600f81526020017f34343730322d353331393230352d35000000000000000000000000000000000081525062006be5640100000000026401000000009004565b6001602081548110620016af57620016af62006dd3565b90600052602060002090600291828204019190066010026101000a8154816001608060020a03021916908370010000000000000000000000000000000090040217905550620017426040518060400160405280600f81526020017f34333134392d333330333530342d33000000000000000000000000000000000081525062006be5640100000000026401000000009004565b600160218154811062001759576200175962006dd3565b90600052602060002090600291828204019190066010026101000a8154816001608060020a03021916908370010000000000000000000000000000000090040217905550620017ec6040518060400160405280600f81526020017f31313734382d383437373830382d32000000000000000000000000000000000081525062006be5640100000000026401000000009004565b600160228154811062001803576200180362006dd3565b90600052602060002090600291828204019190066010026101000a8154816001608060020a03021916908370010000000000000000000000000000000090040217905550620018966040518060400160405280600f81526020017f39383539302d353638383531332d39000000000000000000000000000000000081525062006be5640100000000026401000000009004565b6001602381548110620018ad57620018ad62006dd3565b90600052602060002090600291828204019190066010026101000a8154816001608060020a03021916908370010000000000000000000000000000000090040217905550620019406040518060400160405280600f81526020017f31313031362d333233363837332d30000000000000000000000000000000000081525062006be5640100000000026401000000009004565b600160248154811062001957576200195762006dd3565b90600052602060002090600291828204019190066010026101000a8154816001608060020a03021916908370010000000000000000000000000000000090040217905550620019ea6040518060400160405280600f81526020017f36363032302d313936323333352d37000000000000000000000000000000000081525062006be5640100000000026401000000009004565b600160258154811062001a015762001a0162006dd3565b90600052602060002090600291828204019190066010026101000a8154816001608060020a0302191690837001000000000000000000000000000000009004021790555062001a946040518060400160405280600f81526020017f38343336372d383137373733382d34000000000000000000000000000000000081525062006be5640100000000026401000000009004565b600160268154811062001aab5762001aab62006dd3565b90600052602060002090600291828204019190066010026101000a8154816001608060020a0302191690837001000000000000000000000000000000009004021790555062001b3e6040518060400160405280600f81526020017f38373738342d393530323632372d34000000000000000000000000000000000081525062006be5640100000000026401000000009004565b600160278154811062001b555762001b5562006dd3565b90600052602060002090600291828204019190066010026101000a8154816001608060020a0302191690837001000000000000000000000000000000009004021790555062001be86040518060400160405280600f81526020017f35343037342d313937353037332d32000000000000000000000000000000000081525062006be5640100000000026401000000009004565b600160288154811062001bff5762001bff62006dd3565b90600052602060002090600291828204019190066010026101000a8154816001608060020a0302191690837001000000000000000000000000000000009004021790555062001c926040518060400160405280600f81526020017f39393236342d383832303336332d34000000000000000000000000000000000081525062006be5640100000000026401000000009004565b600160298154811062001ca95762001ca962006dd3565b90600052602060002090600291828204019190066010026101000a8154816001608060020a0302191690837001000000000000000000000000000000009004021790555062001d3c6040518060400160405280600f81526020017f37343236372d373030313631332d30000000000000000000000000000000000081525062006be5640100000000026401000000009004565b6001602a8154811062001d535762001d5362006dd3565b90600052602060002090600291828204019190066010026101000a8154816001608060020a0302191690837001000000000000000000000000000000009004021790555062001de66040518060400160405280600f81526020017f32363736362d353632393234372d35000000000000000000000000000000000081525062006be5640100000000026401000000009004565b6001602b8154811062001dfd5762001dfd62006dd3565b90600052602060002090600291828204019190066010026101000a8154816001608060020a0302191690837001000000000000000000000000000000009004021790555062001e906040518060400160405280600f81526020017f30303931312d343638303335302d32000000000000000000000000000000000081525062006be5640100000000026401000000009004565b6001602c8154811062001ea75762001ea762006dd3565b90600052602060002090600291828204019190066010026101000a8154816001608060020a0302191690837001000000000000000000000000000000009004021790555062001f3a6040518060400160405280600f81526020017f39353336332d363730313833302d31000000000000000000000000000000000081525062006be5640100000000026401000000009004565b6001602d8154811062001f515762001f5162006dd3565b90600052602060002090600291828204019190066010026101000a8154816001608060020a0302191690837001000000000000000000000000000000009004021790555062001fe46040518060400160405280600f81526020017f31323231332d353731383932382d36000000000000000000000000000000000081525062006be5640100000000026401000000009004565b6001602e8154811062001ffb5762001ffb62006dd3565b90600052602060002090600291828204019190066010026101000a8154816001608060020a030219169083700100000000000000000000000000000000900402179055506200208e6040518060400160405280600f81526020017f33383730382d383332313835332d38000000000000000000000000000000000081525062006be5640100000000026401000000009004565b6001602f81548110620020a557620020a562006dd3565b90600052602060002090600291828204019190066010026101000a8154816001608060020a03021916908370010000000000000000000000000000000090040217905550620021386040518060400160405280600f81526020017f33333435312d303932313632322d36000000000000000000000000000000000081525062006be5640100000000026401000000009004565b60016030815481106200214f576200214f62006dd3565b90600052602060002090600291828204019190066010026101000a8154816001608060020a03021916908370010000000000000000000000000000000090040217905550620021e26040518060400160405280600f81526020017f36313038302d313735333335342d39000000000000000000000000000000000081525062006be5640100000000026401000000009004565b6001603181548110620021f957620021f962006dd3565b90600052602060002090600291828204019190066010026101000a8154816001608060020a030219169083700100000000000000000000000000000000900402179055506200228c6040518060400160405280600481526020017f4e412d310000000000000000000000000000000000000000000000000000000081525062006bf8640100000000026401000000009004565b6002600081548110620022a357620022a362006dd3565b90600052602060002090600491828204019190066008026101000a8154816001604060020a0302191690837801000000000000000000000000000000000000000000000000900402179055506200233e6040518060400160405280600481526020017f4e412d310000000000000000000000000000000000000000000000000000000081525062006bf8640100000000026401000000009004565b600260018154811062002355576200235562006dd3565b90600052602060002090600491828204019190066008026101000a8154816001604060020a030219169083780100000000000000000000000000000000000000000000000090040217905550620023f06040518060400160405280600481526020017f4e412d310000000000000000000000000000000000000000000000000000000081525062006bf8640100000000026401000000009004565b6002808154811062002406576200240662006dd3565b90600052602060002090600491828204019190066008026101000a8154816001604060020a030219169083780100000000000000000000000000000000000000000000000090040217905550620024a16040518060400160405280600481526020017f4e412d310000000000000000000000000000000000000000000000000000000081525062006bf8640100000000026401000000009004565b6002600381548110620024b857620024b862006dd3565b90600052602060002090600491828204019190066008026101000a8154816001604060020a030219169083780100000000000000000000000000000000000000000000000090040217905550620025536040518060400160405280600481526020017f4e412d310000000000000000000000000000000000000000000000000000000081525062006bf8640100000000026401000000009004565b60026004815481106200256a576200256a62006dd3565b90600052602060002090600491828204019190066008026101000a8154816001604060020a030219169083780100000000000000000000000000000000000000000000000090040217905550620026056040518060400160405280600481526020017f4e412d310000000000000000000000000000000000000000000000000000000081525062006bf8640100000000026401000000009004565b60026005815481106200261c576200261c62006dd3565b90600052602060002090600491828204019190066008026101000a8154816001604060020a030219169083780100000000000000000000000000000000000000000000000090040217905550620026b76040518060400160405280600481526020017f4e412d310000000000000000000000000000000000000000000000000000000081525062006bf8640100000000026401000000009004565b6002600681548110620026ce57620026ce62006dd3565b90600052602060002090600491828204019190066008026101000a8154816001604060020a030219169083780100000000000000000000000000000000000000000000000090040217905550620027696040518060400160405280600481526020017f4e412d310000000000000000000000000000000000000000000000000000000081525062006bf8640100000000026401000000009004565b600260078154811062002780576200278062006dd3565b90600052602060002090600491828204019190066008026101000a8154816001604060020a0302191690837801000000000000000000000000000000000000000000000000900402179055506200281b6040518060400160405280600481526020017f4e412d310000000000000000000000000000000000000000000000000000000081525062006bf8640100000000026401000000009004565b600260088154811062002832576200283262006dd3565b90600052602060002090600491828204019190066008026101000a8154816001604060020a030219169083780100000000000000000000000000000000000000000000000090040217905550620028cd6040518060400160405280600481526020017f4e412d310000000000000000000000000000000000000000000000000000000081525062006bf8640100000000026401000000009004565b6002600981548110620028e457620028e462006dd3565b90600052602060002090600491828204019190066008026101000a8154816001604060020a0302191690837801000000000000000000000000000000000000000000000000900402179055506200297f6040518060400160405280600481526020017f4e412d320000000000000000000000000000000000000000000000000000000081525062006bf8640100000000026401000000009004565b6002600a8154811062002996576200299662006dd3565b90600052602060002090600491828204019190066008026101000a8154816001604060020a03021916908378010000000000000000000000000000000000000000000000009004021790555062002a316040518060400160405280600481526020017f4e412d320000000000000000000000000000000000000000000000000000000081525062006bf8640100000000026401000000009004565b6002600b8154811062002a485762002a4862006dd3565b90600052602060002090600491828204019190066008026101000a8154816001604060020a03021916908378010000000000000000000000000000000000000000000000009004021790555062002ae36040518060400160405280600481526020017f4e412d320000000000000000000000000000000000000000000000000000000081525062006bf8640100000000026401000000009004565b6002600c8154811062002afa5762002afa62006dd3565b90600052602060002090600491828204019190066008026101000a8154816001604060020a03021916908378010000000000000000000000000000000000000000000000009004021790555062002b956040518060400160405280600481526020017f4e412d320000000000000000000000000000000000000000000000000000000081525062006bf8640100000000026401000000009004565b6002600d8154811062002bac5762002bac62006dd3565b90600052602060002090600491828204019190066008026101000a8154816001604060020a03021916908378010000000000000000000000000000000000000000000000009004021790555062002c476040518060400160405280600481526020017f4e412d320000000000000000000000000000000000000000000000000000000081525062006bf8640100000000026401000000009004565b6002600e8154811062002c5e5762002c5e62006dd3565b90600052602060002090600491828204019190066008026101000a8154816001604060020a03021916908378010000000000000000000000000000000000000000000000009004021790555062002cf96040518060400160405280600481526020017f4e412d320000000000000000000000000000000000000000000000000000000081525062006bf8640100000000026401000000009004565b6002600f8154811062002d105762002d1062006dd3565b90600052602060002090600491828204019190066008026101000a8154816001604060020a03021916908378010000000000000000000000000000000000000000000000009004021790555062002dab6040518060400160405280600481526020017f4e412d320000000000000000000000000000000000000000000000000000000081525062006bf8640100000000026401000000009004565b600260108154811062002dc25762002dc262006dd3565b90600052602060002090600491828204019190066008026101000a8154816001604060020a03021916908378010000000000000000000000000000000000000000000000009004021790555062002e5d6040518060400160405280600481526020017f4e412d320000000000000000000000000000000000000000000000000000000081525062006bf8640100000000026401000000009004565b600260118154811062002e745762002e7462006dd3565b90600052602060002090600491828204019190066008026101000a8154816001604060020a03021916908378010000000000000000000000000000000000000000000000009004021790555062002f0f6040518060400160405280600481526020017f4e412d320000000000000000000000000000000000000000000000000000000081525062006bf8640100000000026401000000009004565b600260128154811062002f265762002f2662006dd3565b90600052602060002090600491828204019190066008026101000a8154816001604060020a03021916908378010000000000000000000000000000000000000000000000009004021790555062002fc16040518060400160405280600481526020017f4e412d320000000000000000000000000000000000000000000000000000000081525062006bf8640100000000026401000000009004565b600260138154811062002fd85762002fd862006dd3565b90600052602060002090600491828204019190066008026101000a8154816001604060020a030219169083780100000000000000000000000000000000000000000000000090040217905550620030736040518060400160405280600481526020017f4e412d330000000000000000000000000000000000000000000000000000000081525062006bf8640100000000026401000000009004565b60026014815481106200308a576200308a62006dd3565b90600052602060002090600491828204019190066008026101000a8154816001604060020a030219169083780100000000000000000000000000000000000000000000000090040217905550620031256040518060400160405280600481526020017f4e412d330000000000000000000000000000000000000000000000000000000081525062006bf8640100000000026401000000009004565b60026015815481106200313c576200313c62006dd3565b90600052602060002090600491828204019190066008026101000a8154816001604060020a030219169083780100000000000000000000000000000000000000000000000090040217905550620031d76040518060400160405280600481526020017f4e412d330000000000000000000000000000000000000000000000000000000081525062006bf8640100000000026401000000009004565b6002601681548110620031ee57620031ee62006dd3565b90600052602060002090600491828204019190066008026101000a8154816001604060020a030219169083780100000000000000000000000000000000000000000000000090040217905550620032896040518060400160405280600481526020017f4e412d330000000000000000000000000000000000000000000000000000000081525062006bf8640100000000026401000000009004565b6002601781548110620032a057620032a062006dd3565b90600052602060002090600491828204019190066008026101000a8154816001604060020a0302191690837801000000000000000000000000000000000000000000000000900402179055506200333b6040518060400160405280600481526020017f4e412d330000000000000000000000000000000000000000000000000000000081525062006bf8640100000000026401000000009004565b600260188154811062003352576200335262006dd3565b90600052602060002090600491828204019190066008026101000a8154816001604060020a030219169083780100000000000000000000000000000000000000000000000090040217905550620033ed6040518060400160405280600481526020017f4e412d330000000000000000000000000000000000000000000000000000000081525062006bf8640100000000026401000000009004565b600260198154811062003404576200340462006dd3565b90600052602060002090600491828204019190066008026101000a8154816001604060020a0302191690837801000000000000000000000000000000000000000000000000900402179055506200349f6040518060400160405280600481526020017f4e412d330000000000000000000000000000000000000000000000000000000081525062006bf8640100000000026401000000009004565b6002601a81548110620034b657620034b662006dd3565b90600052602060002090600491828204019190066008026101000a8154816001604060020a030219169083780100000000000000000000000000000000000000000000000090040217905550620035516040518060400160405280600481526020017f4e412d330000000000000000000000000000000000000000000000000000000081525062006bf8640100000000026401000000009004565b6002601b8154811062003568576200356862006dd3565b90600052602060002090600491828204019190066008026101000a8154816001604060020a030219169083780100000000000000000000000000000000000000000000000090040217905550620036036040518060400160405280600481526020017f4e412d330000000000000000000000000000000000000000000000000000000081525062006bf8640100000000026401000000009004565b6002601c815481106200361a576200361a62006dd3565b90600052602060002090600491828204019190066008026101000a8154816001604060020a030219169083780100000000000000000000000000000000000000000000000090040217905550620036b56040518060400160405280600481526020017f4e412d330000000000000000000000000000000000000000000000000000000081525062006bf8640100000000026401000000009004565b6002601d81548110620036cc57620036cc62006dd3565b90600052602060002090600491828204019190066008026101000a8154816001604060020a030219169083780100000000000000000000000000000000000000000000000090040217905550620037676040518060400160405280600481526020017f4e412d330000000000000000000000000000000000000000000000000000000081525062006bf8640100000000026401000000009004565b6002601e815481106200377e576200377e62006dd3565b90600052602060002090600491828204019190066008026101000a8154816001604060020a030219169083780100000000000000000000000000000000000000000000000090040217905550620038196040518060400160405280600481526020017f4e412d340000000000000000000000000000000000000000000000000000000081525062006bf8640100000000026401000000009004565b6002601f8154811062003830576200383062006dd3565b90600052602060002090600491828204019190066008026101000a8154816001604060020a030219169083780100000000000000000000000000000000000000000000000090040217905550620038cb6040518060400160405280600481526020017f4e412d340000000000000000000000000000000000000000000000000000000081525062006bf8640100000000026401000000009004565b6002602081548110620038e257620038e262006dd3565b90600052602060002090600491828204019190066008026101000a8154816001604060020a0302191690837801000000000000000000000000000000000000000000000000900402179055506200397d6040518060400160405280600481526020017f4e412d340000000000000000000000000000000000000000000000000000000081525062006bf8640100000000026401000000009004565b600260218154811062003994576200399462006dd3565b90600052602060002090600491828204019190066008026101000a8154816001604060020a03021916908378010000000000000000000000000000000000000000000000009004021790555062003a2f6040518060400160405280600481526020017f4e412d340000000000000000000000000000000000000000000000000000000081525062006bf8640100000000026401000000009004565b600260228154811062003a465762003a4662006dd3565b90600052602060002090600491828204019190066008026101000a8154816001604060020a03021916908378010000000000000000000000000000000000000000000000009004021790555062003ae16040518060400160405280600481526020017f4e412d340000000000000000000000000000000000000000000000000000000081525062006bf8640100000000026401000000009004565b600260238154811062003af85762003af862006dd3565b90600052602060002090600491828204019190066008026101000a8154816001604060020a03021916908378010000000000000000000000000000000000000000000000009004021790555062003b936040518060400160405280600481526020017f4e412d340000000000000000000000000000000000000000000000000000000081525062006bf8640100000000026401000000009004565b600260248154811062003baa5762003baa62006dd3565b90600052602060002090600491828204019190066008026101000a8154816001604060020a03021916908378010000000000000000000000000000000000000000000000009004021790555062003c456040518060400160405280600481526020017f4e412d340000000000000000000000000000000000000000000000000000000081525062006bf8640100000000026401000000009004565b600260258154811062003c5c5762003c5c62006dd3565b90600052602060002090600491828204019190066008026101000a8154816001604060020a03021916908378010000000000000000000000000000000000000000000000009004021790555062003cf76040518060400160405280600481526020017f4e412d340000000000000000000000000000000000000000000000000000000081525062006bf8640100000000026401000000009004565b600260268154811062003d0e5762003d0e62006dd3565b90600052602060002090600491828204019190066008026101000a8154816001604060020a03021916908378010000000000000000000000000000000000000000000000009004021790555062003da96040518060400160405280600481526020017f4e412d340000000000000000000000000000000000000000000000000000000081525062006bf8640100000000026401000000009004565b600260278154811062003dc05762003dc062006dd3565b90600052602060002090600491828204019190066008026101000a8154816001604060020a03021916908378010000000000000000000000000000000000000000000000009004021790555062003e5b6040518060400160405280600481526020017f4e412d340000000000000000000000000000000000000000000000000000000081525062006bf8640100000000026401000000009004565b600260288154811062003e725762003e7262006dd3565b90600052602060002090600491828204019190066008026101000a8154816001604060020a03021916908378010000000000000000000000000000000000000000000000009004021790555062003f0d6040518060400160405280600481526020017f4e412d310000000000000000000000000000000000000000000000000000000081525062006bf8640100000000026401000000009004565b600260298154811062003f245762003f2462006dd3565b90600052602060002090600491828204019190066008026101000a8154816001604060020a03021916908378010000000000000000000000000000000000000000000000009004021790555062003fbf6040518060400160405280600481526020017f4e412d310000000000000000000000000000000000000000000000000000000081525062006bf8640100000000026401000000009004565b6002602a8154811062003fd65762003fd662006dd3565b90600052602060002090600491828204019190066008026101000a8154816001604060020a030219169083780100000000000000000000000000000000000000000000000090040217905550620040716040518060400160405280600481526020017f4e412d310000000000000000000000000000000000000000000000000000000081525062006bf8640100000000026401000000009004565b6002602b8154811062004088576200408862006dd3565b90600052602060002090600491828204019190066008026101000a8154816001604060020a030219169083780100000000000000000000000000000000000000000000000090040217905550620041236040518060400160405280600481526020017f4e412d310000000000000000000000000000000000000000000000000000000081525062006bf8640100000000026401000000009004565b6002602c815481106200413a576200413a62006dd3565b90600052602060002090600491828204019190066008026101000a8154816001604060020a030219169083780100000000000000000000000000000000000000000000000090040217905550620041d56040518060400160405280600481526020017f4e412d310000000000000000000000000000000000000000000000000000000081525062006bf8640100000000026401000000009004565b6002602d81548110620041ec57620041ec62006dd3565b90600052602060002090600491828204019190066008026101000a8154816001604060020a030219169083780100000000000000000000000000000000000000000000000090040217905550620042876040518060400160405280600481526020017f4e412d310000000000000000000000000000000000000000000000000000000081525062006bf8640100000000026401000000009004565b6002602e815481106200429e576200429e62006dd3565b90600052602060002090600491828204019190066008026101000a8154816001604060020a030219169083780100000000000000000000000000000000000000000000000090040217905550620043396040518060400160405280600481526020017f4e412d310000000000000000000000000000000000000000000000000000000081525062006bf8640100000000026401000000009004565b6002602f8154811062004350576200435062006dd3565b90600052602060002090600491828204019190066008026101000a8154816001604060020a030219169083780100000000000000000000000000000000000000000000000090040217905550620043eb6040518060400160405280600481526020017f4e412d310000000000000000000000000000000000000000000000000000000081525062006bf8640100000000026401000000009004565b600260308154811062004402576200440262006dd3565b90600052602060002090600491828204019190066008026101000a8154816001604060020a0302191690837801000000000000000000000000000000000000000000000000900402179055506200449d6040518060400160405280600481526020017f4e412d310000000000000000000000000000000000000000000000000000000081525062006bf8640100000000026401000000009004565b6002603181548110620044b457620044b462006dd3565b90600052602060002090600491828204019190066008026101000a8154816001604060020a0302191690837801000000000000000000000000000000000000000000000000900402179055506200454f6040518060400160405280600481526020017f50502d310000000000000000000000000000000000000000000000000000000081525062006bf8640100000000026401000000009004565b600360008154811062004566576200456662006dd3565b90600052602060002090600491828204019190066008026101000a8154816001604060020a030219169083780100000000000000000000000000000000000000000000000090040217905550620046016040518060400160405280600481526020017f50502d310000000000000000000000000000000000000000000000000000000081525062006bf8640100000000026401000000009004565b600360018154811062004618576200461862006dd3565b90600052602060002090600491828204019190066008026101000a8154816001604060020a030219169083780100000000000000000000000000000000000000000000000090040217905550620046b36040518060400160405280600481526020017f50502d310000000000000000000000000000000000000000000000000000000081525062006bf8640100000000026401000000009004565b6003600281548110620046ca57620046ca62006dd3565b90600052602060002090600491828204019190066008026101000a8154816001604060020a030219169083780100000000000000000000000000000000000000000000000090040217905550620047656040518060400160405280600481526020017f50502d310000000000000000000000000000000000000000000000000000000081525062006bf8640100000000026401000000009004565b600380815481106200477b576200477b62006dd3565b90600052602060002090600491828204019190066008026101000a8154816001604060020a030219169083780100000000000000000000000000000000000000000000000090040217905550620048166040518060400160405280600481526020017f50502d310000000000000000000000000000000000000000000000000000000081525062006bf8640100000000026401000000009004565b60036004815481106200482d576200482d62006dd3565b90600052602060002090600491828204019190066008026101000a8154816001604060020a030219169083780100000000000000000000000000000000000000000000000090040217905550620048c86040518060400160405280600481526020017f50502d320000000000000000000000000000000000000000000000000000000081525062006bf8640100000000026401000000009004565b6003600581548110620048df57620048df62006dd3565b90600052602060002090600491828204019190066008026101000a8154816001604060020a0302191690837801000000000000000000000000000000000000000000000000900402179055506200497a6040518060400160405280600481526020017f50502d320000000000000000000000000000000000000000000000000000000081525062006bf8640100000000026401000000009004565b600360068154811062004991576200499162006dd3565b90600052602060002090600491828204019190066008026101000a8154816001604060020a03021916908378010000000000000000000000000000000000000000000000009004021790555062004a2c6040518060400160405280600481526020017f50502d320000000000000000000000000000000000000000000000000000000081525062006bf8640100000000026401000000009004565b600360078154811062004a435762004a4362006dd3565b90600052602060002090600491828204019190066008026101000a8154816001604060020a03021916908378010000000000000000000000000000000000000000000000009004021790555062004ade6040518060400160405280600481526020017f50502d320000000000000000000000000000000000000000000000000000000081525062006bf8640100000000026401000000009004565b600360088154811062004af55762004af562006dd3565b90600052602060002090600491828204019190066008026101000a8154816001604060020a03021916908378010000000000000000000000000000000000000000000000009004021790555062004b906040518060400160405280600481526020017f50502d320000000000000000000000000000000000000000000000000000000081525062006bf8640100000000026401000000009004565b600360098154811062004ba75762004ba762006dd3565b90600052602060002090600491828204019190066008026101000a8154816001604060020a03021916908378010000000000000000000000000000000000000000000000009004021790555062004c426040518060400160405280600481526020017f50532d310000000000000000000000000000000000000000000000000000000081525062006bf8640100000000026401000000009004565b6003600a8154811062004c595762004c5962006dd3565b90600052602060002090600491828204019190066008026101000a8154816001604060020a03021916908378010000000000000000000000000000000000000000000000009004021790555062004cf46040518060400160405280600481526020017f50532d310000000000000000000000000000000000000000000000000000000081525062006bf8640100000000026401000000009004565b6003600b8154811062004d0b5762004d0b62006dd3565b90600052602060002090600491828204019190066008026101000a8154816001604060020a03021916908378010000000000000000000000000000000000000000000000009004021790555062004da66040518060400160405280600481526020017f50532d310000000000000000000000000000000000000000000000000000000081525062006bf8640100000000026401000000009004565b6003600c8154811062004dbd5762004dbd62006dd3565b90600052602060002090600491828204019190066008026101000a8154816001604060020a03021916908378010000000000000000000000000000000000000000000000009004021790555062004e586040518060400160405280600481526020017f50532d310000000000000000000000000000000000000000000000000000000081525062006bf8640100000000026401000000009004565b6003600d8154811062004e6f5762004e6f62006dd3565b90600052602060002090600491828204019190066008026101000a8154816001604060020a03021916908378010000000000000000000000000000000000000000000000009004021790555062004f0a6040518060400160405280600481526020017f50532d310000000000000000000000000000000000000000000000000000000081525062006bf8640100000000026401000000009004565b6003600e8154811062004f215762004f2162006dd3565b90600052602060002090600491828204019190066008026101000a8154816001604060020a03021916908378010000000000000000000000000000000000000000000000009004021790555062004fbc6040518060400160405280600481526020017f50532d320000000000000000000000000000000000000000000000000000000081525062006bf8640100000000026401000000009004565b6003600f8154811062004fd35762004fd362006dd3565b90600052602060002090600491828204019190066008026101000a8154816001604060020a0302191690837801000000000000000000000000000000000000000000000000900402179055506200506e6040518060400160405280600481526020017f50532d320000000000000000000000000000000000000000000000000000000081525062006bf8640100000000026401000000009004565b600360108154811062005085576200508562006dd3565b90600052602060002090600491828204019190066008026101000a8154816001604060020a030219169083780100000000000000000000000000000000000000000000000090040217905550620051206040518060400160405280600481526020017f50532d320000000000000000000000000000000000000000000000000000000081525062006bf8640100000000026401000000009004565b600360118154811062005137576200513762006dd3565b90600052602060002090600491828204019190066008026101000a8154816001604060020a030219169083780100000000000000000000000000000000000000000000000090040217905550620051d26040518060400160405280600481526020017f50532d320000000000000000000000000000000000000000000000000000000081525062006bf8640100000000026401000000009004565b6003601281548110620051e957620051e962006dd3565b90600052602060002090600491828204019190066008026101000a8154816001604060020a030219169083780100000000000000000000000000000000000000000000000090040217905550620052846040518060400160405280600481526020017f50532d320000000000000000000000000000000000000000000000000000000081525062006bf8640100000000026401000000009004565b60036013815481106200529b576200529b62006dd3565b90600052602060002090600491828204019190066008026101000a8154816001604060020a030219169083780100000000000000000000000000000000000000000000000090040217905550620053366040518060400160405280600481526020017f504b2d310000000000000000000000000000000000000000000000000000000081525062006bf8640100000000026401000000009004565b60036014815481106200534d576200534d62006dd3565b90600052602060002090600491828204019190066008026101000a8154816001604060020a030219169083780100000000000000000000000000000000000000000000000090040217905550620053e86040518060400160405280600481526020017f504b2d310000000000000000000000000000000000000000000000000000000081525062006bf8640100000000026401000000009004565b6003601581548110620053ff57620053ff62006dd3565b90600052602060002090600491828204019190066008026101000a8154816001604060020a0302191690837801000000000000000000000000000000000000000000000000900402179055506200549a6040518060400160405280600481526020017f504b2d310000000000000000000000000000000000000000000000000000000081525062006bf8640100000000026401000000009004565b6003601681548110620054b157620054b162006dd3565b90600052602060002090600491828204019190066008026101000a8154816001604060020a0302191690837801000000000000000000000000000000000000000000000000900402179055506200554c6040518060400160405280600481526020017f504b2d310000000000000000000000000000000000000000000000000000000081525062006bf8640100000000026401000000009004565b600360178154811062005563576200556362006dd3565b90600052602060002090600491828204019190066008026101000a8154816001604060020a030219169083780100000000000000000000000000000000000000000000000090040217905550620055fe6040518060400160405280600481526020017f504b2d310000000000000000000000000000000000000000000000000000000081525062006bf8640100000000026401000000009004565b600360188154811062005615576200561562006dd3565b90600052602060002090600491828204019190066008026101000a8154816001604060020a030219169083780100000000000000000000000000000000000000000000000090040217905550620056b06040518060400160405280600481526020017f504b2d320000000000000000000000000000000000000000000000000000000081525062006bf8640100000000026401000000009004565b6003601981548110620056c757620056c762006dd3565b90600052602060002090600491828204019190066008026101000a8154816001604060020a030219169083780100000000000000000000000000000000000000000000000090040217905550620057626040518060400160405280600481526020017f504b2d320000000000000000000000000000000000000000000000000000000081525062006bf8640100000000026401000000009004565b6003601a8154811062005779576200577962006dd3565b90600052602060002090600491828204019190066008026101000a8154816001604060020a030219169083780100000000000000000000000000000000000000000000000090040217905550620058146040518060400160405280600481526020017f504b2d320000000000000000000000000000000000000000000000000000000081525062006bf8640100000000026401000000009004565b6003601b815481106200582b576200582b62006dd3565b90600052602060002090600491828204019190066008026101000a8154816001604060020a030219169083780100000000000000000000000000000000000000000000000090040217905550620058c66040518060400160405280600481526020017f504b2d320000000000000000000000000000000000000000000000000000000081525062006bf8640100000000026401000000009004565b6003601c81548110620058dd57620058dd62006dd3565b90600052602060002090600491828204019190066008026101000a8154816001604060020a030219169083780100000000000000000000000000000000000000000000000090040217905550620059786040518060400160405280600481526020017f504b2d320000000000000000000000000000000000000000000000000000000081525062006bf8640100000000026401000000009004565b6003601d815481106200598f576200598f62006dd3565b90600052602060002090600491828204019190066008026101000a8154816001604060020a03021916908378010000000000000000000000000000000000000000000000009004021790555062005a2a6040518060400160405280600481526020017f50422d320000000000000000000000000000000000000000000000000000000081525062006bf8640100000000026401000000009004565b6003601e8154811062005a415762005a4162006dd3565b90600052602060002090600491828204019190066008026101000a8154816001604060020a03021916908378010000000000000000000000000000000000000000000000009004021790555062005adc6040518060400160405280600481526020017f50422d310000000000000000000000000000000000000000000000000000000081525062006bf8640100000000026401000000009004565b6003601f8154811062005af35762005af362006dd3565b90600052602060002090600491828204019190066008026101000a8154816001604060020a03021916908378010000000000000000000000000000000000000000000000009004021790555062005b8e6040518060400160405280600481526020017f50422d310000000000000000000000000000000000000000000000000000000081525062006bf8640100000000026401000000009004565b600360208154811062005ba55762005ba562006dd3565b90600052602060002090600491828204019190066008026101000a8154816001604060020a03021916908378010000000000000000000000000000000000000000000000009004021790555062005c406040518060400160405280600481526020017f50422d310000000000000000000000000000000000000000000000000000000081525062006bf8640100000000026401000000009004565b600360218154811062005c575762005c5762006dd3565b90600052602060002090600491828204019190066008026101000a8154816001604060020a03021916908378010000000000000000000000000000000000000000000000009004021790555062005cf26040518060400160405280600481526020017f50422d310000000000000000000000000000000000000000000000000000000081525062006bf8640100000000026401000000009004565b600360228154811062005d095762005d0962006dd3565b90600052602060002090600491828204019190066008026101000a8154816001604060020a03021916908378010000000000000000000000000000000000000000000000009004021790555062005da46040518060400160405280600481526020017f50422d310000000000000000000000000000000000000000000000000000000081525062006bf8640100000000026401000000009004565b600360238154811062005dbb5762005dbb62006dd3565b90600052602060002090600491828204019190066008026101000a8154816001604060020a03021916908378010000000000000000000000000000000000000000000000009004021790555062005e566040518060400160405280600481526020017f50422d320000000000000000000000000000000000000000000000000000000081525062006bf8640100000000026401000000009004565b600360248154811062005e6d5762005e6d62006dd3565b90600052602060002090600491828204019190066008026101000a8154816001604060020a03021916908378010000000000000000000000000000000000000000000000009004021790555062005f086040518060400160405280600481526020017f50422d320000000000000000000000000000000000000000000000000000000081525062006bf8640100000000026401000000009004565b600360258154811062005f1f5762005f1f62006dd3565b90600052602060002090600491828204019190066008026101000a8154816001604060020a03021916908378010000000000000000000000000000000000000000000000009004021790555062005fba6040518060400160405280600481526020017f50422d320000000000000000000000000000000000000000000000000000000081525062006bf8640100000000026401000000009004565b600360268154811062005fd15762005fd162006dd3565b90600052602060002090600491828204019190066008026101000a8154816001604060020a0302191690837801000000000000000000000000000000000000000000000000900402179055506200606c6040518060400160405280600481526020017f50422d320000000000000000000000000000000000000000000000000000000081525062006bf8640100000000026401000000009004565b600360278154811062006083576200608362006dd3565b90600052602060002090600491828204019190066008026101000a8154816001604060020a0302191690837801000000000000000000000000000000000000000000000000900402179055506200611e6040518060400160405280600481526020017f50422d320000000000000000000000000000000000000000000000000000000081525062006bf8640100000000026401000000009004565b600360288154811062006135576200613562006dd3565b90600052602060002090600491828204019190066008026101000a8154816001604060020a030219169083780100000000000000000000000000000000000000000000000090040217905550620061d06040518060400160405280600481526020017f50502d310000000000000000000000000000000000000000000000000000000081525062006bf8640100000000026401000000009004565b6003602981548110620061e757620061e762006dd3565b90600052602060002090600491828204019190066008026101000a8154816001604060020a030219169083780100000000000000000000000000000000000000000000000090040217905550620062826040518060400160405280600481526020017f50502d310000000000000000000000000000000000000000000000000000000081525062006bf8640100000000026401000000009004565b6003602a8154811062006299576200629962006dd3565b90600052602060002090600491828204019190066008026101000a8154816001604060020a030219169083780100000000000000000000000000000000000000000000000090040217905550620063346040518060400160405280600481526020017f50502d310000000000000000000000000000000000000000000000000000000081525062006bf8640100000000026401000000009004565b6003602b815481106200634b576200634b62006dd3565b90600052602060002090600491828204019190066008026101000a8154816001604060020a030219169083780100000000000000000000000000000000000000000000000090040217905550620063e66040518060400160405280600481526020017f50502d310000000000000000000000000000000000000000000000000000000081525062006bf8640100000000026401000000009004565b6003602c81548110620063fd57620063fd62006dd3565b90600052602060002090600491828204019190066008026101000a8154816001604060020a030219169083780100000000000000000000000000000000000000000000000090040217905550620064986040518060400160405280600481526020017f50502d320000000000000000000000000000000000000000000000000000000081525062006bf8640100000000026401000000009004565b6003602d81548110620064af57620064af62006dd3565b90600052602060002090600491828204019190066008026101000a8154816001604060020a0302191690837801000000000000000000000000000000000000000000000000900402179055506200654a6040518060400160405280600481526020017f50502d320000000000000000000000000000000000000000000000000000000081525062006bf8640100000000026401000000009004565b6003602e8154811062006561576200656162006dd3565b90600052602060002090600491828204019190066008026101000a8154816001604060020a030219169083780100000000000000000000000000000000000000000000000090040217905550620065fc6040518060400160405280600481526020017f50502d320000000000000000000000000000000000000000000000000000000081525062006bf8640100000000026401000000009004565b6003602f8154811062006613576200661362006dd3565b90600052602060002090600491828204019190066008026101000a8154816001604060020a030219169083780100000000000000000000000000000000000000000000000090040217905550620066ae6040518060400160405280600481526020017f50502d320000000000000000000000000000000000000000000000000000000081525062006bf8640100000000026401000000009004565b6003603081548110620066c557620066c562006dd3565b90600052602060002090600491828204019190066008026101000a8154816001604060020a030219169083780100000000000000000000000000000000000000000000000090040217905550620067606040518060400160405280600481526020017f50502d320000000000000000000000000000000000000000000000000000000081525062006bf8640100000000026401000000009004565b600360318154811062006777576200677762006dd3565b90600052602060002090600491828204019190066008026101000a8154816001604060020a030219169083780100000000000000000000000000000000000000000000000090040217905550620068126040518060400160405280600f81526020017f33353230322d383934303835352d30000000000000000000000000000000000081525062006be5640100000000026401000000009004565b600160328154811062006829576200682962006dd3565b90600052602060002090600291828204019190066010026101000a8154816001608060020a03021916908370010000000000000000000000000000000090040217905550620068bc6040518060400160405280600481526020017f4e412d330000000000000000000000000000000000000000000000000000000081525062006bf8640100000000026401000000009004565b6002603281548110620068d357620068d362006dd3565b90600052602060002090600491828204019190066008026101000a8154816001604060020a0302191690837801000000000000000000000000000000000000000000000000900402179055506200696e6040518060400160405280600481526020017f504b2d310000000000000000000000000000000000000000000000000000000081525062006bf8640100000000026401000000009004565b600360328154811062006985576200698562006dd3565b90600052602060002090600491828204019190066008026101000a8154816001604060020a03021916908378010000000000000000000000000000000000000000000000009004021790555062006a206040518060400160405280600f81526020017f33353230322d383934303835352d31000000000000000000000000000000000081525062006be5640100000000026401000000009004565b600160338154811062006a375762006a3762006dd3565b90600052602060002090600291828204019190066010026101000a8154816001608060020a0302191690837001000000000000000000000000000000009004021790555062006aca6040518060400160405280600481526020017f4e412d310000000000000000000000000000000000000000000000000000000081525062006bf8640100000000026401000000009004565b600260338154811062006ae15762006ae162006dd3565b90600052602060002090600491828204019190066008026101000a8154816001604060020a03021916908378010000000000000000000000000000000000000000000000009004021790555062006b7c6040518060400160405280600481526020017f50502d310000000000000000000000000000000000000000000000000000000081525062006bf8640100000000026401000000009004565b600360338154811062006b935762006b9362006dd3565b90600052602060002090600491828204019190066008026101000a8154816001604060020a03021916908378010000000000000000000000000000000000000000000000009004021790555062006e72565b600062006bf28262006e02565b92915050565b600062006bf28262006e3d565b8280548282559060005260206000209060010160029004810192821562006cbd5791602002820160005b8382111562006c8657835183826101000a8154816001608060020a030219169083700100000000000000000000000000000000900402179055509260200192601001602081600f0104928301926001030262006c2f565b801562006cbb5782816101000a8154906001608060020a030219169055601001602081600f0104928301926001030262006c86565b505b5062006ccb92915062006d8d565b5090565b8280548282559060005260206000209060030160049004810192821562006cbd5791602002820160005b8382111562006d5857835183826101000a8154816001604060020a030219169083780100000000000000000000000000000000000000000000000090040217905550926020019260080160208160070104928301926001030262006cf9565b801562006cbb5782816101000a8154906001604060020a03021916905560080160208160070104928301926001030262006d58565b5b8082111562006ccb576000815560010162006d8e565b7f4e487b7100000000000000000000000000000000000000000000000000000000600052604160045260246000fd5b7f4e487b7100000000000000000000000000000000000000000000000000000000600052603260045260246000fd5b805160208201516001608060020a0319808216929190601083101562006e3557808360100360080260020a820283161693505b505050919050565b80516020820151600160c060020a0319808216929190600883101562006e3557600892830390920260020a8202161692915050565b6105978062006e826000396000f3fe608060405234801561001057600080fd5b50600436106100865760e060020a600035046313c9bcef811461008b578063142aa2e9146100bc5780631d24deb5146100cf5780633ab5f090146100e457806360133187146100fb5780639d221c9e14610127578063b19fff4b1461013a578063b39cc1101461014f578063e69fd1c514610157575b600080fd5b61009e610099366004610380565b61016a565b604051600160c060020a031990911681526020015b60405180910390f35b61009e6100ca366004610380565b6101a4565b6100d76101b4565b6040516100b39190610399565b6100ed60005481565b6040519081526020016100b3565b61010e610109366004610401565b61023c565b6040516001608060020a031990911681526020016100b3565b61010e610135366004610380565b61024d565b610142610287565b6040516100b391906104b1565b6100d761030e565b61009e610165366004610401565b610375565b6002818154811061017a57600080fd5b9060005260206000209060049182820401919006600802915054906101000a900460c060020a0281565b6003818154811061017a57600080fd5b6060600380548060200260200160405190810160405280929190818152602001828054801561023257602002820191906000526020600020906000905b82829054906101000a900460c060020a02600160c060020a031916815260200190600801906020826007010492830192600103820291508084116101f15790505b5050505050905090565b6000610247826104f3565b92915050565b6001818154811061025d57600080fd5b9060005260206000209060029182820401919006601002915054906101000a9004608060020a0281565b6060600180548060200260200160405190810160405280929190818152602001828054801561023257602002820191906000526020600020906000905b82829054906101000a9004608060020a026001608060020a03191681526020019060100190602082600f010492830192600103820291508084116102c45790505050505050905090565b60606002805480602002602001604051908101604052809291908181526020018280548015610232576000918252602091829020805460c060020a02600160c060020a03191684529082028301929091600891018084116101f15790505050505050905090565b60006102478261052d565b60006020828403121561039257600080fd5b5035919050565b6020808252825182820181905260009190848201906040850190845b818110156103db578351600160c060020a031916835292840192918401916001016103b5565b50909695505050505050565b60e060020a634e487b710260009081526041600452602490fd5b60006020828403121561041357600080fd5b81356001604060020a038082111561042a57600080fd5b818401915084601f83011261043e57600080fd5b813581811115610450576104506103e7565b604051601f8201601f19908116603f01168101908382118183101715610478576104786103e7565b8160405282815287602084870101111561049157600080fd5b826020860160208301376000928101602001929092525095945050505050565b6020808252825182820181905260009190848201906040850190845b818110156103db5783516001608060020a031916835292840192918401916001016104cd565b805160208201516001608060020a0319808216929190601083101561052557808360100360080260020a820283161693505b505050919050565b80516020820151600160c060020a0319808216929190600883101561052557600892830390920260020a820216169291505056fea264697066735822122098811d20ef39c0a6da7cefb7f01449fecf3b608b55eafb7aebcae3461751c7f064736f6c634300080e0033",
  "immutableReferences": {},
  "source": "\r\n// SPDX-License-Identifier: MIT\r\npragma solidity >=0.4.22 <0.9.0;\r\nimport \"./VoterManager.sol\";\r\n\r\ncontract VotersData{\r\n    uint public _voters_size;\r\n    bytes16[] public _cnics;\r\n    bytes8[] public _na_list;\r\n    bytes8[] public _pa_list;\r\n        constructor()\r\n        {\r\n            _voters_size = 52;\r\n            _cnics = new bytes16[](_voters_size);\r\n            _na_list = new bytes8[](_voters_size);\r\n            _pa_list = new bytes8[](_voters_size);\r\n            \r\n                \r\n            _cnics[0] = stringToBytes16(\"91661-5856424-9\");\r\n            _cnics[1] = stringToBytes16(\"20432-7898875-3\"); \r\n            _cnics[2] = stringToBytes16(\"52054-4934571-0\"); \r\n            _cnics[3] = stringToBytes16(\"75187-9686504-4\"); \r\n            _cnics[4] = stringToBytes16(\"23058-0853315-3\"); \r\n            _cnics[5] = stringToBytes16(\"94270-3698369-5\"); \r\n            _cnics[6] = stringToBytes16(\"02358-0795946-3\"); \r\n            _cnics[7] = stringToBytes16(\"89007-4155314-4\"); \r\n            _cnics[8] = stringToBytes16(\"13455-6132989-6\"); \r\n            _cnics[9] = stringToBytes16(\"57899-8953180-1\"); \r\n            _cnics[10] = stringToBytes16(\"86352-6954872-4\"); \r\n            _cnics[11] = stringToBytes16(\"26108-0978997-5\"); \r\n            _cnics[12] = stringToBytes16(\"31002-0286283-2\"); \r\n            _cnics[13] = stringToBytes16(\"12966-5046393-6\"); \r\n            _cnics[14] = stringToBytes16(\"09873-9482546-9\"); \r\n            _cnics[15] = stringToBytes16(\"20354-3999622-5\"); \r\n            _cnics[16] = stringToBytes16(\"10963-5540940-1\"); \r\n            _cnics[17] = stringToBytes16(\"00344-0872804-0\"); \r\n            _cnics[18] = stringToBytes16(\"51488-7885357-6\"); \r\n            _cnics[19] = stringToBytes16(\"39295-8830137-7\"); \r\n            _cnics[20] = stringToBytes16(\"68393-1058733-0\"); \r\n            _cnics[21] = stringToBytes16(\"60803-5201855-2\"); \r\n            _cnics[22] = stringToBytes16(\"27679-1653865-0\"); \r\n            _cnics[23] = stringToBytes16(\"38967-1186868-7\"); \r\n            _cnics[24] = stringToBytes16(\"05113-2011715-3\"); \r\n            _cnics[25] = stringToBytes16(\"08681-6194585-8\"); \r\n            _cnics[26] = stringToBytes16(\"85000-7971439-1\"); \r\n            _cnics[27] = stringToBytes16(\"48004-7460006-6\"); \r\n            _cnics[28] = stringToBytes16(\"87392-1013158-5\"); \r\n            _cnics[29] = stringToBytes16(\"45190-2652702-7\"); \r\n            _cnics[30] = stringToBytes16(\"71216-3506961-4\"); \r\n            _cnics[31] = stringToBytes16(\"07548-1528037-7\"); \r\n            _cnics[32] = stringToBytes16(\"44702-5319205-5\"); \r\n            _cnics[33] = stringToBytes16(\"43149-3303504-3\"); \r\n            _cnics[34] = stringToBytes16(\"11748-8477808-2\"); \r\n            _cnics[35] = stringToBytes16(\"98590-5688513-9\"); \r\n            _cnics[36] = stringToBytes16(\"11016-3236873-0\"); \r\n            _cnics[37] = stringToBytes16(\"66020-1962335-7\"); \r\n            _cnics[38] = stringToBytes16(\"84367-8177738-4\"); \r\n            _cnics[39] = stringToBytes16(\"87784-9502627-4\");             \r\n            _cnics[40] = stringToBytes16(\"54074-1975073-2\"); \r\n            _cnics[41] = stringToBytes16(\"99264-8820363-4\"); \r\n            _cnics[42] = stringToBytes16(\"74267-7001613-0\"); \r\n            _cnics[43] = stringToBytes16(\"26766-5629247-5\"); \r\n            _cnics[44] = stringToBytes16(\"00911-4680350-2\"); \r\n            _cnics[45] = stringToBytes16(\"95363-6701830-1\"); \r\n            _cnics[46] = stringToBytes16(\"12213-5718928-6\"); \r\n            _cnics[47] = stringToBytes16(\"38708-8321853-8\"); \r\n            _cnics[48] = stringToBytes16(\"33451-0921622-6\"); \r\n            _cnics[49] = stringToBytes16(\"61080-1753354-9\"); \r\n            \r\n            _na_list[0] = stringToBytes8(\"NA-1\"); \r\n            _na_list[1] = stringToBytes8(\"NA-1\"); \r\n            _na_list[2] = stringToBytes8(\"NA-1\"); \r\n            _na_list[3] = stringToBytes8(\"NA-1\"); \r\n            _na_list[4] = stringToBytes8(\"NA-1\"); \r\n            _na_list[5] = stringToBytes8(\"NA-1\"); \r\n            _na_list[6] = stringToBytes8(\"NA-1\"); \r\n            _na_list[7] = stringToBytes8(\"NA-1\"); \r\n            _na_list[8] = stringToBytes8(\"NA-1\"); \r\n            _na_list[9] = stringToBytes8(\"NA-1\"); \r\n            _na_list[10] = stringToBytes8(\"NA-2\");\r\n            _na_list[11] = stringToBytes8(\"NA-2\");\r\n            _na_list[12] = stringToBytes8(\"NA-2\");\r\n            _na_list[13] = stringToBytes8(\"NA-2\");\r\n            _na_list[14] = stringToBytes8(\"NA-2\");\r\n            _na_list[15] = stringToBytes8(\"NA-2\");\r\n            _na_list[16] = stringToBytes8(\"NA-2\");\r\n            _na_list[17] = stringToBytes8(\"NA-2\");\r\n            _na_list[18] = stringToBytes8(\"NA-2\");\r\n            _na_list[19] = stringToBytes8(\"NA-2\");\r\n            _na_list[20] = stringToBytes8(\"NA-3\");\r\n            _na_list[21] = stringToBytes8(\"NA-3\");\r\n            _na_list[22] = stringToBytes8(\"NA-3\");\r\n            _na_list[23] = stringToBytes8(\"NA-3\");\r\n            _na_list[24] = stringToBytes8(\"NA-3\");\r\n            _na_list[25] = stringToBytes8(\"NA-3\");\r\n            _na_list[26] = stringToBytes8(\"NA-3\");\r\n            _na_list[27] = stringToBytes8(\"NA-3\");\r\n            _na_list[28] = stringToBytes8(\"NA-3\");\r\n            _na_list[29] = stringToBytes8(\"NA-3\");\r\n            _na_list[30] = stringToBytes8(\"NA-3\");\r\n            _na_list[31] = stringToBytes8(\"NA-4\");\r\n            _na_list[32] = stringToBytes8(\"NA-4\");\r\n            _na_list[33] = stringToBytes8(\"NA-4\");\r\n            _na_list[34] = stringToBytes8(\"NA-4\");\r\n            _na_list[35] = stringToBytes8(\"NA-4\");\r\n            _na_list[36] = stringToBytes8(\"NA-4\");\r\n            _na_list[37] = stringToBytes8(\"NA-4\");\r\n            _na_list[38] = stringToBytes8(\"NA-4\");\r\n            _na_list[39] = stringToBytes8(\"NA-4\");            \r\n            _na_list[40] = stringToBytes8(\"NA-4\");\r\n            _na_list[41] = stringToBytes8(\"NA-1\");\r\n            _na_list[42] = stringToBytes8(\"NA-1\");\r\n            _na_list[43] = stringToBytes8(\"NA-1\");\r\n            _na_list[44] = stringToBytes8(\"NA-1\");\r\n            _na_list[45] = stringToBytes8(\"NA-1\");\r\n            _na_list[46] = stringToBytes8(\"NA-1\");\r\n            _na_list[47] = stringToBytes8(\"NA-1\");\r\n            _na_list[48] = stringToBytes8(\"NA-1\");\r\n            _na_list[49] = stringToBytes8(\"NA-1\");\r\n            \r\n            _pa_list[0] = stringToBytes8(\"PP-1\");\r\n            _pa_list[1] = stringToBytes8(\"PP-1\");\r\n            _pa_list[2] = stringToBytes8(\"PP-1\");\r\n            _pa_list[3] = stringToBytes8(\"PP-1\");\r\n            _pa_list[4] = stringToBytes8(\"PP-1\");\r\n            _pa_list[5] = stringToBytes8(\"PP-2\");\r\n            _pa_list[6] = stringToBytes8(\"PP-2\");\r\n            _pa_list[7] = stringToBytes8(\"PP-2\");\r\n            _pa_list[8] = stringToBytes8(\"PP-2\");\r\n            _pa_list[9] = stringToBytes8(\"PP-2\");\r\n            _pa_list[10] = stringToBytes8(\"PS-1\");\r\n            _pa_list[11] = stringToBytes8(\"PS-1\");\r\n            _pa_list[12] = stringToBytes8(\"PS-1\");\r\n            _pa_list[13] = stringToBytes8(\"PS-1\");\r\n            _pa_list[14] = stringToBytes8(\"PS-1\");\r\n            _pa_list[15] = stringToBytes8(\"PS-2\");\r\n            _pa_list[16] = stringToBytes8(\"PS-2\");\r\n            _pa_list[17] = stringToBytes8(\"PS-2\");\r\n            _pa_list[18] = stringToBytes8(\"PS-2\");\r\n            _pa_list[19] = stringToBytes8(\"PS-2\");\r\n            _pa_list[20] = stringToBytes8(\"PK-1\");\r\n            _pa_list[21] = stringToBytes8(\"PK-1\");\r\n            _pa_list[22] = stringToBytes8(\"PK-1\");\r\n            _pa_list[23] = stringToBytes8(\"PK-1\");\r\n            _pa_list[24] = stringToBytes8(\"PK-1\");\r\n            _pa_list[25] = stringToBytes8(\"PK-2\");\r\n            _pa_list[26] = stringToBytes8(\"PK-2\");\r\n            _pa_list[27] = stringToBytes8(\"PK-2\");\r\n            _pa_list[28] = stringToBytes8(\"PK-2\");\r\n            _pa_list[29] = stringToBytes8(\"PK-2\");\r\n            _pa_list[30] = stringToBytes8(\"PB-2\");\r\n            _pa_list[31] = stringToBytes8(\"PB-1\");\r\n            _pa_list[32] = stringToBytes8(\"PB-1\");\r\n            _pa_list[33] = stringToBytes8(\"PB-1\");\r\n            _pa_list[34] = stringToBytes8(\"PB-1\");\r\n            _pa_list[35] = stringToBytes8(\"PB-1\");\r\n            _pa_list[36] = stringToBytes8(\"PB-2\");\r\n            _pa_list[37] = stringToBytes8(\"PB-2\");\r\n            _pa_list[38] = stringToBytes8(\"PB-2\");\r\n            _pa_list[39] = stringToBytes8(\"PB-2\");\r\n            _pa_list[40] = stringToBytes8(\"PB-2\");\r\n            _pa_list[41] = stringToBytes8(\"PP-1\");\r\n            _pa_list[42] = stringToBytes8(\"PP-1\");\r\n            _pa_list[43] = stringToBytes8(\"PP-1\");\r\n            _pa_list[44] = stringToBytes8(\"PP-1\");\r\n            _pa_list[45] = stringToBytes8(\"PP-2\");\r\n            _pa_list[46] = stringToBytes8(\"PP-2\");\r\n            _pa_list[47] = stringToBytes8(\"PP-2\");\r\n            _pa_list[48] = stringToBytes8(\"PP-2\");\r\n            _pa_list[49] = stringToBytes8(\"PP-2\");\r\n            // Parties Chairmans\r\n            // Imran Khan\r\n            _cnics[50] = stringToBytes16(\"35202-8940855-0\");\r\n            _na_list[50] = stringToBytes8(\"NA-3\");\r\n            _pa_list[50] = stringToBytes8(\"PK-1\");\r\n            // Shehbaz Sharif\r\n            _cnics[51] = stringToBytes16(\"35202-8940855-1\");\r\n            _na_list[51] = stringToBytes8(\"NA-1\");\r\n            _pa_list[51] = stringToBytes8(\"PP-1\");\r\n            \r\n            // addVoterConstituencies(_voters);\r\n        }\r\n    function getCnics() public view returns(bytes16[] memory) {\r\n        return _cnics;\r\n    }\r\n    function getNAList() public view returns(bytes8[] memory) {\r\n        return _na_list;\r\n    }\r\n    function getPAList() public view returns(bytes8[] memory) {\r\n        return _pa_list;\r\n    }\r\n\r\n    function stringToBytes8(string memory str) public pure returns (bytes8) {    \r\n        return bytes8(bytes(str));\r\n    }\r\n    \r\n    function stringToBytes16(string memory str) public pure returns (bytes16) {\r\n        return bytes16(bytes(str));\r\n    }\r\n    \r\n}",
  "sourcePath": "/Users/apple/Computer/Programming/Learning/react-native/FYP/Website/decentralized-voting-system-h3-fyp2-fix/truffle/contracts/VotersData.sol",
  "compiler": {
    "name": "solc",
    "version": "0.8.14+commit.80d49f37.Emscripten.clang"
  },
  "schemaVersion": "3.4.13",
  "updatedAt": "2023-06-12T05:49:12.259Z",
  "networkType": "ethereum",
  "devdoc": {
    "kind": "dev",
    "methods": {},
    "version": 1
  },
  "userdoc": {
    "kind": "user",
    "methods": {},
    "version": 1
  }
}