{
  "contractName": "Voter",
  "abi": [
    {
      "inputs": [
        {
          "internalType": "bytes32",
          "name": "_fullname",
          "type": "bytes32"
        },
        {
          "internalType": "uint256",
          "name": "_age",
          "type": "uint256"
        },
        {
          "internalType": "bytes1",
          "name": "_gender",
          "type": "bytes1"
        },
        {
          "internalType": "bytes16",
          "name": "_cnic",
          "type": "bytes16"
        },
        {
          "internalType": "bytes12",
          "name": "_contact",
          "type": "bytes12"
        },
        {
          "internalType": "bytes8",
          "name": "_na_constituency",
          "type": "bytes8"
        },
        {
          "internalType": "bytes8",
          "name": "_pa_constituency",
          "type": "bytes8"
        }
      ],
      "stateMutability": "nonpayable",
      "type": "constructor"
    },
    {
      "inputs": [],
      "name": "age",
      "outputs": [
        {
          "internalType": "uint256",
          "name": "",
          "type": "uint256"
        }
      ],
      "stateMutability": "view",
      "type": "function"
    },
    {
      "inputs": [],
      "name": "cnic",
      "outputs": [
        {
          "internalType": "bytes16",
          "name": "",
          "type": "bytes16"
        }
      ],
      "stateMutability": "view",
      "type": "function"
    },
    {
      "inputs": [],
      "name": "contact",
      "outputs": [
        {
          "internalType": "bytes12",
          "name": "",
          "type": "bytes12"
        }
      ],
      "stateMutability": "view",
      "type": "function"
    },
    {
      "inputs": [],
      "name": "fullname",
      "outputs": [
        {
          "internalType": "bytes32",
          "name": "",
          "type": "bytes32"
        }
      ],
      "stateMutability": "view",
      "type": "function"
    },
    {
      "inputs": [],
      "name": "gender",
      "outputs": [
        {
          "internalType": "bytes1",
          "name": "",
          "type": "bytes1"
        }
      ],
      "stateMutability": "view",
      "type": "function"
    },
    {
      "inputs": [],
      "name": "na_constituency",
      "outputs": [
        {
          "internalType": "bytes8",
          "name": "",
          "type": "bytes8"
        }
      ],
      "stateMutability": "view",
      "type": "function"
    },
    {
      "inputs": [],
      "name": "pa_constituency",
      "outputs": [
        {
          "internalType": "bytes8",
          "name": "",
          "type": "bytes8"
        }
      ],
      "stateMutability": "view",
      "type": "function"
    }
  ],
  "bytecode": "0x608060405234801561001057600080fd5b506040516103b53803806103b583398101604081905261002f91610150565b600096909655600194909455600280546001608860020a0319167f0100000000000000000000000000000000000000000000000000000000000000909404610100608860020a031916939093176101007001000000000000000000000000000000009093049290920291909117608860020a60e860020a031916710100000000000000000000000000000000007401000000000000000000000000000000000000000090920491909102179055600380546001608060020a031916780100000000000000000000000000000000000000000000000092839004604060020a608060020a0319161768010000000000000000929093049190910291909117905561020f565b8051600160c060020a03198116811461014b57600080fd5b919050565b600080600080600080600060e0888a03121561016b57600080fd5b875196506020880151955060408801517fff00000000000000000000000000000000000000000000000000000000000000811681146101a957600080fd5b60608901519095506001608060020a0319811681146101c757600080fd5b6080890151909450600160a060020a0319811681146101e557600080fd5b92506101f360a08901610133565b915061020160c08901610133565b905092959891949750929550565b6101978061021e6000396000f3fe608060405234801561001057600080fd5b50600436106100705760e060020a6000350463262a9dff811461007557806333a8c45a146100915780633b36e9e6146100c157806379caad86146100f1578063897094691461011a5780638ef490ea1461012a578063bb6e486d14610133575b600080fd5b61007e60015481565b6040519081526020015b60405180910390f35b6002546100a890608860020a900460a060020a0281565b604051600160a060020a03199091168152602001610088565b6003546100d890604060020a900460c060020a0281565b604051600160c060020a03199091168152602001610088565b6002546101019060f860020a0281565b604051600160f860020a03199091168152602001610088565b6003546100d89060c060020a0281565b61007e60005481565b600254610148906101009004608060020a0281565b6040516001608060020a0319909116815260200161008856fea2646970667358221220aef479e1cee9573c314186cf6bc557508ccf86c5bec14d8c68c37bddac6d84dc64736f6c634300080e0033",
  "immutableReferences": {},
  "source": "// SPDX-License-Identifier: MIT\r\npragma solidity >=0.4.22 <0.9.0;\r\nimport \"./User.sol\";\r\n\r\ncontract Voter is User {\r\n    bytes8 public na_constituency; // National Assembly\r\n    bytes8 public pa_constituency; // Provincial Assembly\r\n\r\n    constructor(bytes32 _fullname, uint _age, bytes1 _gender, bytes16 _cnic, bytes12 _contact,bytes8 _na_constituency, bytes8 _pa_constituency) \r\n     User(_fullname, _age, _gender, _cnic, _contact) {\r\n        na_constituency = _na_constituency;\r\n        pa_constituency = _pa_constituency;\r\n    }\r\n}\r\n",
  "sourcePath": "/Users/apple/Computer/Programming/Learning/react-native/FYP/Website/decentralized-voting-system-h3-fyp2-fix/truffle/contracts/Voter.sol",
  "compiler": {
    "name": "solc",
    "version": "0.8.14+commit.80d49f37.Emscripten.clang"
  },
  "schemaVersion": "3.4.13",
  "updatedAt": "2023-06-11T17:46:32.346Z",
  "devdoc": {
    "kind": "dev",
    "methods": {},
    "version": 1
  },
  "userdoc": {
    "kind": "user",
    "methods": {},
    "version": 1
  }
}