{
  "contractName": "Vote",
  "abi": [
    {
      "inputs": [
        {
          "internalType": "bytes16",
          "name": "_voter_cnic",
          "type": "bytes16"
        },
        {
          "internalType": "bytes16",
          "name": "_candidate_cnic",
          "type": "bytes16"
        },
        {
          "internalType": "contract Party",
          "name": "_party",
          "type": "address"
        }
      ],
      "stateMutability": "nonpayable",
      "type": "constructor"
    },
    {
      "inputs": [],
      "name": "candidate_cnic",
      "outputs": [
        {
          "internalType": "bytes16",
          "name": "",
          "type": "bytes16"
        }
      ],
      "stateMutability": "view",
      "type": "function"
    },
    {
      "inputs": [],
      "name": "party",
      "outputs": [
        {
          "internalType": "contract Party",
          "name": "",
          "type": "address"
        }
      ],
      "stateMutability": "view",
      "type": "function"
    },
    {
      "inputs": [],
      "name": "voter_cnic",
      "outputs": [
        {
          "internalType": "bytes16",
          "name": "",
          "type": "bytes16"
        }
      ],
      "stateMutability": "view",
      "type": "function"
    }
  ],
  "bytecode": "0x608060405234801561001057600080fd5b506040516101df3803806101df83398101604081905261002f9161009a565b6001608060020a037001000000000000000000000000000000009384900416918390049092021760005560018054600160a060020a031916600160a060020a039092169190911790556100ee565b80516001608060020a03198116811461009557600080fd5b919050565b6000806000606084860312156100af57600080fd5b6100b88461007d565b92506100c66020850161007d565b6040850151909250600160a060020a03811681146100e357600080fd5b809150509250925092565b60e3806100fc6000396000f3fe6080604052348015600f57600080fd5b5060043610603f5760e060020a6000350463354284f281146044578063be4e0249146073578063f6949df914609e575b600080fd5b600154605690600160a060020a031681565b604051600160a060020a0390911681526020015b60405180910390f35b600054608690608060020a908190040281565b6040516001608060020a03199091168152602001606a565b600054608690608060020a028156fea26469706673582212201b2cd7834b1ff5edf38e98ae4fe99636abe4e139fdb26000a31637c69246918764736f6c634300080e0033",
  "immutableReferences": {},
  "source": "// SPDX-License-Identifier: MIT\r\npragma solidity >=0.4.22 <0.9.0;\r\n// import \"./User.sol\";\r\nimport \"./Party.sol\";\r\n\r\n\r\ncontract Vote{\r\n    bytes16 public voter_cnic;\r\n    bytes16 public candidate_cnic;\r\n    Party public party;\r\n    \r\n    constructor(bytes16 _voter_cnic, bytes16  _candidate_cnic, Party  _party){\r\n        voter_cnic = _voter_cnic;\r\n        candidate_cnic = _candidate_cnic;\r\n        party = _party;\r\n    }\r\n}",
  "sourcePath": "/Users/apple/Computer/Programming/Learning/react-native/FYP/Website/decentralized-voting-system-h3-fyp2-fix/truffle/contracts/Vote.sol",
  "compiler": {
    "name": "solc",
    "version": "0.8.14+commit.80d49f37.Emscripten.clang"
  },
  "schemaVersion": "3.4.13",
  "updatedAt": "2023-06-11T17:46:32.346Z",
  "devdoc": {
    "kind": "dev",
    "methods": {},
    "version": 1
  },
  "userdoc": {
    "kind": "user",
    "methods": {},
    "version": 1
  }
}