{
  "contractName": "VoterManager",
  "abi": [
    {
      "inputs": [
        {
          "internalType": "address",
          "name": "_ecpAdd",
          "type": "address"
        },
        {
          "internalType": "address",
          "name": "_voters_data",
          "type": "address"
        }
      ],
      "stateMutability": "nonpayable",
      "type": "constructor"
    },
    {
      "inputs": [],
      "name": "admin_cnic",
      "outputs": [
        {
          "internalType": "bytes16",
          "name": "",
          "type": "bytes16"
        }
      ],
      "stateMutability": "view",
      "type": "function",
      "constant": true
    },
    {
      "inputs": [],
      "name": "ecp",
      "outputs": [
        {
          "internalType": "contract ECP",
          "name": "",
          "type": "address"
        }
      ],
      "stateMutability": "view",
      "type": "function",
      "constant": true
    },
    {
      "inputs": [
        {
          "internalType": "bytes8",
          "name": "",
          "type": "bytes8"
        },
        {
          "internalType": "uint256",
          "name": "",
          "type": "uint256"
        }
      ],
      "name": "na_voters",
      "outputs": [
        {
          "internalType": "bytes16",
          "name": "",
          "type": "bytes16"
        }
      ],
      "stateMutability": "view",
      "type": "function",
      "constant": true
    },
    {
      "inputs": [
        {
          "internalType": "bytes8",
          "name": "",
          "type": "bytes8"
        },
        {
          "internalType": "uint256",
          "name": "",
          "type": "uint256"
        }
      ],
      "name": "pa_voters",
      "outputs": [
        {
          "internalType": "bytes16",
          "name": "",
          "type": "bytes16"
        }
      ],
      "stateMutability": "view",
      "type": "function",
      "constant": true
    },
    {
      "inputs": [
        {
          "internalType": "bytes32",
          "name": "",
          "type": "bytes32"
        }
      ],
      "name": "reg_voters",
      "outputs": [
        {
          "internalType": "contract Voter",
          "name": "",
          "type": "address"
        }
      ],
      "stateMutability": "view",
      "type": "function",
      "constant": true
    },
    {
      "inputs": [
        {
          "internalType": "bytes16",
          "name": "",
          "type": "bytes16"
        }
      ],
      "name": "reg_voters_auth",
      "outputs": [
        {
          "internalType": "bool",
          "name": "",
          "type": "bool"
        }
      ],
      "stateMutability": "view",
      "type": "function",
      "constant": true
    },
    {
      "inputs": [],
      "name": "reg_voters_count",
      "outputs": [
        {
          "internalType": "uint256",
          "name": "",
          "type": "uint256"
        }
      ],
      "stateMutability": "view",
      "type": "function",
      "constant": true
    },
    {
      "inputs": [
        {
          "internalType": "bytes16",
          "name": "",
          "type": "bytes16"
        }
      ],
      "name": "voters",
      "outputs": [
        {
          "internalType": "bytes16",
          "name": "cnic",
          "type": "bytes16"
        },
        {
          "internalType": "bytes8",
          "name": "na",
          "type": "bytes8"
        },
        {
          "internalType": "bytes8",
          "name": "pa",
          "type": "bytes8"
        }
      ],
      "stateMutability": "view",
      "type": "function",
      "constant": true
    },
    {
      "inputs": [
        {
          "internalType": "uint256",
          "name": "",
          "type": "uint256"
        }
      ],
      "name": "voters_cnics",
      "outputs": [
        {
          "internalType": "bytes16",
          "name": "",
          "type": "bytes16"
        }
      ],
      "stateMutability": "view",
      "type": "function",
      "constant": true
    },
    {
      "inputs": [],
      "name": "voters_count",
      "outputs": [
        {
          "internalType": "uint256",
          "name": "",
          "type": "uint256"
        }
      ],
      "stateMutability": "view",
      "type": "function",
      "constant": true
    },
    {
      "inputs": [],
      "name": "voters_data",
      "outputs": [
        {
          "internalType": "contract VotersData",
          "name": "",
          "type": "address"
        }
      ],
      "stateMutability": "view",
      "type": "function",
      "constant": true
    },
    {
      "inputs": [
        {
          "internalType": "bytes16",
          "name": "",
          "type": "bytes16"
        }
      ],
      "name": "voters_indexes",
      "outputs": [
        {
          "internalType": "uint256",
          "name": "",
          "type": "uint256"
        }
      ],
      "stateMutability": "view",
      "type": "function",
      "constant": true
    },
    {
      "inputs": [
        {
          "internalType": "bytes16",
          "name": "_cnic",
          "type": "bytes16"
        }
      ],
      "name": "isAdmin",
      "outputs": [
        {
          "internalType": "bool",
          "name": "",
          "type": "bool"
        }
      ],
      "stateMutability": "view",
      "type": "function",
      "constant": true
    },
    {
      "inputs": [
        {
          "components": [
            {
              "internalType": "bytes16",
              "name": "cnic",
              "type": "bytes16"
            },
            {
              "internalType": "bytes8",
              "name": "na",
              "type": "bytes8"
            },
            {
              "internalType": "bytes8",
              "name": "pa",
              "type": "bytes8"
            }
          ],
          "internalType": "struct VoterManager.VoterConstituency",
          "name": "_voter",
          "type": "tuple"
        }
      ],
      "name": "addVoterConstituency",
      "outputs": [],
      "stateMutability": "nonpayable",
      "type": "function"
    },
    {
      "inputs": [
        {
          "internalType": "bytes16[]",
          "name": "_cnics",
          "type": "bytes16[]"
        },
        {
          "internalType": "bytes8[]",
          "name": "_na_list",
          "type": "bytes8[]"
        },
        {
          "internalType": "bytes8[]",
          "name": "_pa_list",
          "type": "bytes8[]"
        }
      ],
      "name": "addVoterConstituencies",
      "outputs": [],
      "stateMutability": "nonpayable",
      "type": "function"
    },
    {
      "inputs": [
        {
          "components": [
            {
              "internalType": "bytes16",
              "name": "cnic",
              "type": "bytes16"
            },
            {
              "internalType": "bytes8",
              "name": "na",
              "type": "bytes8"
            },
            {
              "internalType": "bytes8",
              "name": "pa",
              "type": "bytes8"
            }
          ],
          "internalType": "struct VoterManager.VoterConstituency[]",
          "name": "_voters",
          "type": "tuple[]"
        }
      ],
      "name": "addVoterConstituencies",
      "outputs": [],
      "stateMutability": "nonpayable",
      "type": "function"
    },
    {
      "inputs": [
        {
          "internalType": "bytes8",
          "name": "_na_name",
          "type": "bytes8"
        },
        {
          "internalType": "bytes16",
          "name": "_cnic",
          "type": "bytes16"
        }
      ],
      "name": "addNaVoter",
      "outputs": [],
      "stateMutability": "nonpayable",
      "type": "function"
    },
    {
      "inputs": [
        {
          "internalType": "bytes8",
          "name": "_pa_name",
          "type": "bytes8"
        },
        {
          "internalType": "bytes16",
          "name": "_cnic",
          "type": "bytes16"
        }
      ],
      "name": "addPaVoter",
      "outputs": [],
      "stateMutability": "nonpayable",
      "type": "function"
    },
    {
      "inputs": [
        {
          "internalType": "bytes16",
          "name": "_cnic",
          "type": "bytes16"
        }
      ],
      "name": "removeVoterConstituency",
      "outputs": [],
      "stateMutability": "nonpayable",
      "type": "function"
    },
    {
      "inputs": [
        {
          "internalType": "bytes16[]",
          "name": "_cnics",
          "type": "bytes16[]"
        }
      ],
      "name": "removeVoterConstituencies",
      "outputs": [],
      "stateMutability": "nonpayable",
      "type": "function"
    },
    {
      "inputs": [
        {
          "internalType": "bytes16",
          "name": "_cnic",
          "type": "bytes16"
        }
      ],
      "name": "getVoterConstituency",
      "outputs": [
        {
          "components": [
            {
              "internalType": "bytes16",
              "name": "cnic",
              "type": "bytes16"
            },
            {
              "internalType": "bytes8",
              "name": "na",
              "type": "bytes8"
            },
            {
              "internalType": "bytes8",
              "name": "pa",
              "type": "bytes8"
            }
          ],
          "internalType": "struct VoterManager.VoterConstituency",
          "name": "",
          "type": "tuple"
        }
      ],
      "stateMutability": "view",
      "type": "function",
      "constant": true
    },
    {
      "inputs": [
        {
          "internalType": "uint256",
          "name": "_index",
          "type": "uint256"
        }
      ],
      "name": "getVoterConstituency",
      "outputs": [
        {
          "components": [
            {
              "internalType": "bytes16",
              "name": "cnic",
              "type": "bytes16"
            },
            {
              "internalType": "bytes8",
              "name": "na",
              "type": "bytes8"
            },
            {
              "internalType": "bytes8",
              "name": "pa",
              "type": "bytes8"
            }
          ],
          "internalType": "struct VoterManager.VoterConstituency",
          "name": "",
          "type": "tuple"
        }
      ],
      "stateMutability": "view",
      "type": "function",
      "constant": true
    },
    {
      "inputs": [
        {
          "internalType": "bytes8",
          "name": "_na_name",
          "type": "bytes8"
        }
      ],
      "name": "getNAVoterLength",
      "outputs": [
        {
          "internalType": "uint256",
          "name": "",
          "type": "uint256"
        }
      ],
      "stateMutability": "view",
      "type": "function",
      "constant": true
    },
    {
      "inputs": [
        {
          "internalType": "bytes8",
          "name": "_pa_name",
          "type": "bytes8"
        }
      ],
      "name": "getPAVoterLength",
      "outputs": [
        {
          "internalType": "uint256",
          "name": "",
          "type": "uint256"
        }
      ],
      "stateMutability": "view",
      "type": "function",
      "constant": true
    },
    {
      "inputs": [
        {
          "internalType": "bytes16",
          "name": "_cnic",
          "type": "bytes16"
        }
      ],
      "name": "removeRegVoter",
      "outputs": [],
      "stateMutability": "nonpayable",
      "type": "function"
    },
    {
      "inputs": [
        {
          "internalType": "bytes16",
          "name": "_cnic",
          "type": "bytes16"
        }
      ],
      "name": "canRegister",
      "outputs": [
        {
          "internalType": "bool",
          "name": "",
          "type": "bool"
        }
      ],
      "stateMutability": "view",
      "type": "function",
      "constant": true
    },
    {
      "inputs": [
        {
          "internalType": "bytes32",
          "name": "_fullname",
          "type": "bytes32"
        },
        {
          "internalType": "uint256",
          "name": "_age",
          "type": "uint256"
        },
        {
          "internalType": "bytes1",
          "name": "_gender",
          "type": "bytes1"
        },
        {
          "internalType": "bytes16",
          "name": "_cnic",
          "type": "bytes16"
        },
        {
          "internalType": "bytes12",
          "name": "_contact",
          "type": "bytes12"
        },
        {
          "internalType": "bytes16",
          "name": "_password",
          "type": "bytes16"
        }
      ],
      "name": "registerVoter",
      "outputs": [
        {
          "internalType": "bool",
          "name": "",
          "type": "bool"
        }
      ],
      "stateMutability": "nonpayable",
      "type": "function"
    },
    {
      "inputs": [
        {
          "internalType": "bytes16",
          "name": "_cnic",
          "type": "bytes16"
        },
        {
          "internalType": "bytes16",
          "name": "_password",
          "type": "bytes16"
        }
      ],
      "name": "getRegVoter",
      "outputs": [
        {
          "internalType": "contract Voter",
          "name": "voter",
          "type": "address"
        }
      ],
      "stateMutability": "view",
      "type": "function",
      "constant": true
    },
    {
      "inputs": [
        {
          "internalType": "bytes16",
          "name": "_cnic",
          "type": "bytes16"
        },
        {
          "internalType": "bytes16",
          "name": "_password",
          "type": "bytes16"
        }
      ],
      "name": "signinVoter",
      "outputs": [
        {
          "internalType": "contract Voter",
          "name": "voter",
          "type": "address"
        }
      ],
      "stateMutability": "view",
      "type": "function",
      "constant": true
    },
    {
      "inputs": [
        {
          "internalType": "bytes16",
          "name": "_cnic",
          "type": "bytes16"
        },
        {
          "internalType": "bytes16",
          "name": "_prev_password",
          "type": "bytes16"
        },
        {
          "internalType": "bytes16",
          "name": "_new_password",
          "type": "bytes16"
        }
      ],
      "name": "changePassword",
      "outputs": [
        {
          "internalType": "bool",
          "name": "",
          "type": "bool"
        }
      ],
      "stateMutability": "nonpayable",
      "type": "function"
    }
  ],
  "bytecode": "0x60806040523480156200001157600080fd5b5060405162002aa738038062002aa7833981016040819052620000349162000998565b60008054600160a060020a03848116600160a060020a0319928316811790935560018054918516919092161790556040517f5c70717f000000000000000000000000000000000000000000000000000000008152306004820152635c70717f90602401600060405180830381600087803b158015620000b257600080fd5b505af1158015620000c7573d6000803e3d6000fd5b5050600980546f30303030302d303030303030302d30006001608060020a031991821617918290556040805160608101825270010000000000000000000000000000000090930290911682527f4e412d310000000000000000000000000000000000000000000000000000000060208301527f50502d31000000000000000000000000000000000000000000000000000000009082015291506200017690508164010000000062000406810204565b60095462000229907f41646d696e000000000000000000000000000000000000000000000000000000906032907f4d0000000000000000000000000000000000000000000000000000000000000090700100000000000000000000000000000000027f303333332d3030303030303000000000000000000000000000000000000000007f303030303000000000000000000000000000000000000000000000000000000064010000000062000510810204565b50600154604080517fb19fff4b0000000000000000000000000000000000000000000000000000000081529051620003fd92600160a060020a03169163b19fff4b9160048083019260009291908290030181865afa15801562000290573d6000803e3d6000fd5b505050506040513d6000823e601f3d908101601f19168201604052620002ba919081019062000a71565b600160009054906101000a9004600160a060020a0316600160a060020a031663b39cc1106040518163ffffffff167c0100000000000000000000000000000000000000000000000000000000028152600401600060405180830381865afa1580156200032a573d6000803e3d6000fd5b505050506040513d6000823e601f3d908101601f1916820160405262000354919081019062000b16565b600160009054906101000a9004600160a060020a0316600160a060020a0316631d24deb56040518163ffffffff167c0100000000000000000000000000000000000000000000000000000000028152600401600060405180830381865afa158015620003c4573d6000803e3d6000fd5b505050506040513d6000823e601f3d908101601f19168201604052620003ee919081019062000b16565b640100000000620007bf810204565b50505062000c4e565b805160028054600090815260036020908152604080832080546001608060020a0319908116700100000000000000000000000000000000978890041790915584548751821685526004845282852055865116835260058252808320865181549388015192880151600160c060020a031990941690879004608060020a60c060020a0319161778010000000000000000000000000000000000000000000000009283900490960295909517600160c060020a0316918190040217909255805491620004d08362000bb9565b909155505060208101518151620004f1919064010000000062000893810204565b604081015181516200050d919064010000000062000900810204565b50565b6001608060020a03198084166000908152600560205260408120549091700100000000000000000000000000000000909102168103620005b0576040517f08c379a000000000000000000000000000000000000000000000000000000000815260206004820152601c60248201527f566f746572206e6f7420696e2074686520566f74696e67204c69737400000000604482015260640160405180910390fd5b604080516001608060020a03198087166020830152841660308201526000910160408051601f1981840301815282825280516020918201206001608060020a031989166000908152600590925291902054909250899189918991899189917801000000000000000000000000000000000000000000000000700100000000000000000000000000000000830481029281900402906200064f906200096d565b96875260208701959095527fff0000000000000000000000000000000000000000000000000000000000000090931660408601526001608060020a03199091166060850152600160a060020a0319166080840152600160c060020a031990811660a08401521660c082015260e001604051809103906000f080158015620006da573d6000803e3d6000fd5b5060008281526007602081815260408084208054600160a060020a031916600160a060020a039687161781556001608060020a03198b1680865260088452828620805460ff1916600117905594879052928252915482517fbb6e486d00000000000000000000000000000000000000000000000000000000815292519394169263bb6e486d9260048082019392918290030181865afa15801562000782573d6000803e3d6000fd5b505050506040513d601f19601f82011682018060405250810190620007a8919062000bfa565b6001608060020a0319161498975050505050505050565b60005b83518110156200088d5760006040518060600160405280868481518110620007ee57620007ee62000c1f565b60200260200101516001608060020a03191681526020018584815181106200081a576200081a62000c1f565b6020026020010151600160c060020a031916815260200184848151811062000846576200084662000c1f565b6020026020010151600160c060020a0319168152509050620008778162000406640100000000026401000000009004565b5080620008848162000bb9565b915050620007c2565b50505050565b600160c060020a03199091166000908152600a6020908152604082208054600181810183559184529190922060028204018054700100000000000000000000000000000000909404601092909316919091026101000a9182026001608060020a0390920219909216179055565b600160c060020a03199091166000908152600b6020908152604082208054600181810183559184529190922060028204018054700100000000000000000000000000000000909404601092909316919091026101000a9182026001608060020a0390920219909216179055565b6103b580620026f283390190565b8051600160a060020a03811681146200099357600080fd5b919050565b60008060408385031215620009ac57600080fd5b620009b7836200097b565b9150620009c7602084016200097b565b90509250929050565b7f4e487b7100000000000000000000000000000000000000000000000000000000600052604160045260246000fd5b604051601f8201601f191681016001604060020a038111828210171562000a2a5762000a2a620009d0565b604052919050565b60006001604060020a0382111562000a4e5762000a4e620009d0565b5060209081020190565b80516001608060020a0319811681146200099357600080fd5b6000602080838503121562000a8557600080fd5b82516001604060020a0381111562000a9c57600080fd5b8301601f8101851362000aae57600080fd5b805162000ac562000abf8262000a32565b620009ff565b8181529083028201830190838101908783111562000ae257600080fd5b928401925b8284101562000b0b5762000afb8462000a58565b8252928401929084019062000ae7565b979650505050505050565b6000602080838503121562000b2a57600080fd5b82516001604060020a0381111562000b4157600080fd5b8301601f8101851362000b5357600080fd5b805162000b6462000abf8262000a32565b8181529083028201830190838101908783111562000b8157600080fd5b928401925b8284101562000b0b578351600160c060020a03198116811462000ba95760008081fd5b8252928401929084019062000b86565b60006001820162000bf3577f4e487b7100000000000000000000000000000000000000000000000000000000600052601160045260246000fd5b5060010190565b60006020828403121562000c0d57600080fd5b62000c188262000a58565b9392505050565b7f4e487b7100000000000000000000000000000000000000000000000000000000600052603260045260246000fd5b611a948062000c5e6000396000f3fe60806040523480156200001157600080fd5b50600436106200018d5760e060020a600035046305232715811462000192578063077f52bf14620001c75780630eb47df714620001f457806310f940eb14620002265780631232025b146200023f57806313e811f8146200025657806324067035146200026d5780632a7b8d1f146200028457806330a32c93146200028e57806332dfbb7814620002a5578063363eae4a14620002bc57806340dec728146200032a57806341d32bc014620003345780634bfd5a771462000348578063553cdbfa146200026d5780635da74964146200037557806363629044146200038657806363f30f3a14620003dc5780638567427f14620004085780638641d384146200043f57806389a547e4146200045657806396984d4e146200047f57806396f6f05e1462000496578063a3f753d314620004ad578063a92156ce14620004d9578063c34adcac14620004f0578063d2d971461462000507578063d45e7010146200051e578063f48acf121462000535578063f87105db1462000562575b600080fd5b620001a9620001a3366004620010ab565b62000579565b6040516001608060020a031990911681526020015b60405180910390f35b600054620001db90600160a060020a031681565b604051600160a060020a039091168152602001620001be565b6200021762000205366004620010ef565b60046020526000908152604090205481565b604051908152602001620001be565b6200023d62000237366004620010ef565b620005c3565b005b620001a962000250366004620010ab565b620006fc565b6200023d6200026736600462001116565b62000719565b620001db6200027e36600462001152565b62000779565b6200021760065481565b6200023d6200029f366004620012c9565b620007ed565b6200023d620002b6366004620013d4565b620008ac565b620002f8620002cd366004620010ef565b600560205260009081526040902054608060020a8082029160c060020a918104820291908190040283565b604080516001608060020a03199094168452600160c060020a03199283166020850152911690820152606001620001be565b6200021760025481565b600154620001db90600160a060020a031681565b6200021762000359366004620013f3565b600160c060020a0319166000908152600b602052604090205490565b600954620001a990608060020a0281565b6200039d62000397366004620010ef565b62000984565b6040805182516001608060020a0319168152602080840151600160c060020a0319908116918301919091529282015190921690820152606001620001be565b620001db620003ed36600462001411565b600760205260009081526040902054600160a060020a031681565b6200042e62000419366004620010ef565b60086020526000908152604090205460ff1681565b6040519015158152602001620001be565b6200023d62000450366004620010ef565b620009ee565b620001a96200046736600462001411565b600360205260009081526040902054608060020a0281565b6200023d6200049036600462001116565b62000a10565b6200042e620004a73660046200142b565b62000a70565b6200042e620004be366004620010ef565b600954608060020a026001608060020a031990811691161490565b6200039d620004ea36600462001411565b62000ca3565b6200023d62000501366004620014bc565b62000d1a565b6200042e62000518366004620014f4565b62000d67565b6200042e6200052f366004620010ef565b62000fbc565b6200021762000546366004620013f3565b600160c060020a0319166000908152600a602052604090205490565b6200023d6200057336600462001546565b62001016565b600a60205281600052604060002081815481106200059657600080fd5b9060005260206000209060029182820401919006601002915091509054906101000a9004608060020a0281565b6001608060020a0319811660009081526005602090815260408083208390556004825280832054808452600392839052908320546002549193608060020a9091029290918290620006179060019062001604565b815260200190815260200160002060009054906101000a9004608060020a0290506003600060016002546200064d919062001604565b8152602080820192909252604090810160009081205486825260038085528383208054608060020a938402939093046001608060020a03199384161790558582168352600490945282822087905585168152908120819055600254620006b69060019062001604565b81526020810191909152604001600090812080546001608060020a03191690556002805491620006e6836200161e565b9190505550620006f684620009ee565b50505050565b600b60205281600052604060002081815481106200059657600080fd5b600160c060020a03199091166000908152600b6020908152604082208054600181810183559184529190922060028204018054608060020a909404601092909316919091026101000a9182026001608060020a0390920219909216179055565b6001608060020a031982166000908152600560209081526040808320549051608060020a909102916007918491620007b691859188910162001638565b60408051808303601f1901815291815281516020928301208352908201929092520160002054600160a060020a0316949350505050565b60005b8351811015620006f657600060405180606001604052808684815181106200081c576200081c62001653565b60200260200101516001608060020a031916815260200185848151811062000848576200084862001653565b6020026020010151600160c060020a031916815260200184848151811062000874576200087462001653565b6020026020010151600160c060020a03191681525090506200089681620008ac565b5080620008a3816200166d565b915050620007f0565b805160028054600090815260036020908152604080832080546001608060020a0319908116608060020a978890041790915584548751821685526004845282852055865116835260058252808320865181549388015192880151600160c060020a031990941690879004608060020a60c060020a0319161760c060020a9283900490960295909517600160c060020a031691819004021790925580549162000954836200166d565b91905055506200096d8160200151826000015162000a10565b620009818160400151826000015162000719565b50565b6200098e6200105f565b506001608060020a031990811660009081526005602090815260409182902082516060810184529054608060020a8082029095168252600160c060020a031960c060020a9582048602811693830193909352849004909302169082015290565b6001608060020a0319166000908152600860205260409020805460ff19169055565b600160c060020a03199091166000908152600a6020908152604082208054600181810183559184529190922060028204018054608060020a909404601092909316919091026101000a9182026001608060020a0390920219909216179055565b6001608060020a03198084166000908152600560205260408120549091608060020a90910216810362000aed5760405160e560020a62461bcd02815260206004820152601c60248201527f566f746572206e6f7420696e2074686520566f74696e67204c6973740000000060448201526064015b60405180910390fd5b6000848360405160200162000b0492919062001638565b60408051601f1981840301815282825280516020918201206001608060020a0319891660009081526005909252919020549092508991899189918991899160c060020a608060020a8304810292819004029062000b61906200107f565b9687526020870195909552600160f860020a031990931660408601526001608060020a03199091166060850152600160a060020a0319166080840152600160c060020a031990811660a08401521660c082015260e001604051809103906000f08015801562000bd4573d6000803e3d6000fd5b5060008281526007602081815260408084208054600160a060020a031916600160a060020a039687161781556001608060020a03198b1680865260088452828620805460ff19166001179055948790529282529154825160e060020a63bb6e486d02815292519394169263bb6e486d9260048082019392918290030181865afa15801562000c66573d6000803e3d6000fd5b505050506040513d601f19601f8201168201806040525081019062000c8c919062001689565b6001608060020a0319161498975050505050505050565b62000cad6200105f565b506000908152600360209081526040808320546001608060020a0319608060020a918202811685526005845293829020825160608101845290548083029095168152600160c060020a031960c060020a928604830281169482019490945293819004029091169082015290565b60005b815181101562000d635762000d4e82828151811062000d405762000d4062001653565b6020026020010151620005c3565b8062000d5a816200166d565b91505062000d1d565b5050565b600080600160a060020a031660076000868660405160200162000d8c92919062001638565b60408051601f1981840301815291815281516020928301208352908201929092520160002054600160a060020a03160362000e0d5760405160e560020a62461bcd02815260206004820152601a60248201527f496e76616c69642050726576696f75732050617373776f726421000000000000604482015260640162000ae4565b60076000858560405160200162000e2692919062001638565b60405160208183030381529060405280519060200120815260200190815260200160002060009054906101000a9004600160a060020a031660076000868560405160200162000e7792919062001638565b60405160208183030381529060405280519060200120815260200190815260200160002060006101000a815481600160a060020a030219169083600160a060020a0316021790555060076000858560405160200162000ed892919062001638565b60408051601f19818403018152918152815160209283012083528282019390935290820160009081208054600160a060020a03191690559151600791839162000f2691899189910162001638565b60408051601f1981840301815291815281516020928301208352908201929092520160002054600160a060020a031614801562000fb457506000600160a060020a031660076000868560405160200162000f8292919062001638565b60408051601f1981840301815291815281516020928301208352908201929092520160002054600160a060020a031614155b949350505050565b6001608060020a03198082166000908152600560205260408120549091608060020a90910216158015906200101057506001608060020a0319821660009081526008602052604090205460ff161515600114155b92915050565b60005b815181101562000d63576200104a8282815181106200103c576200103c62001653565b6020026020010151620008ac565b8062001056816200166d565b91505062001019565b604080516060810182526000808252602082018190529181019190915290565b6103b580620016aa83390190565b8035600160c060020a031981168114620010a657600080fd5b919050565b60008060408385031215620010bf57600080fd5b620010ca836200108d565b946020939093013593505050565b6001608060020a0319811681146200098157600080fd5b6000602082840312156200110257600080fd5b81356200110f81620010d8565b9392505050565b600080604083850312156200112a57600080fd5b62001135836200108d565b915060208301356200114781620010d8565b809150509250929050565b600080604083850312156200116657600080fd5b82356200113581620010d8565b60e060020a634e487b710260009081526041600452602490fd5b604051601f8201601f191681016001604060020a0381118282101715620011b857620011b862001173565b604052919050565b60006001604060020a03821115620011dc57620011dc62001173565b5060209081020190565b600082601f830112620011f857600080fd5b81356020620012116200120b83620011c0565b6200118d565b828152918102840181019181810190868411156200122e57600080fd5b8286015b84811015620012565780356200124881620010d8565b835291830191830162001232565b509695505050505050565b600082601f8301126200127357600080fd5b81356020620012866200120b83620011c0565b82815291810284018101918181019086841115620012a357600080fd5b8286015b848110156200125657620012bb816200108d565b8352918301918301620012a7565b600080600060608486031215620012df57600080fd5b83356001604060020a0380821115620012f757600080fd5b6200130587838801620011e6565b945060208601359150808211156200131c57600080fd5b6200132a8783880162001261565b935060408601359150808211156200134157600080fd5b50620013508682870162001261565b9150509250925092565b6000606082840312156200136d57600080fd5b604051606081016001604060020a038111828210171562001392576200139262001173565b6040529050808235620013a581620010d8565b8152620013b5602084016200108d565b6020820152620013c8604084016200108d565b60408201525092915050565b600060608284031215620013e757600080fd5b6200110f83836200135a565b6000602082840312156200140657600080fd5b6200110f826200108d565b6000602082840312156200142457600080fd5b5035919050565b60008060008060008060c087890312156200144557600080fd5b86359550602087013594506040870135600160f860020a0319811681146200146c57600080fd5b935060608701356200147e81620010d8565b92506080870135600160a060020a0319811681146200149c57600080fd5b915060a0870135620014ae81620010d8565b809150509295509295509295565b600060208284031215620014cf57600080fd5b81356001604060020a03811115620014e657600080fd5b62000fb484828501620011e6565b6000806000606084860312156200150a57600080fd5b83356200151781620010d8565b925060208401356200152981620010d8565b915060408401356200153b81620010d8565b809150509250925092565b600060208083850312156200155a57600080fd5b82356001604060020a038111156200157157600080fd5b8301601f810185136200158357600080fd5b8035620015946200120b82620011c0565b81815260609182028301840191848201919088841115620015b457600080fd5b938501935b83851015620015de57620015ce89866200135a565b83529384019391850191620015b9565b50979650505050505050565b60e060020a634e487b710260009081526011600452602490fd5b600082821015620016195762001619620015ea565b500390565b600081620016305762001630620015ea565b506000190190565b6001608060020a031992831681529116601082015260200190565b60e060020a634e487b710260009081526032600452602490fd5b600060018201620016825762001682620015ea565b5060010190565b6000602082840312156200169c57600080fd5b81516200110f81620010d856fe608060405234801561001057600080fd5b506040516103b53803806103b583398101604081905261002f91610150565b600096909655600194909455600280546001608860020a0319167f0100000000000000000000000000000000000000000000000000000000000000909404610100608860020a031916939093176101007001000000000000000000000000000000009093049290920291909117608860020a60e860020a031916710100000000000000000000000000000000007401000000000000000000000000000000000000000090920491909102179055600380546001608060020a031916780100000000000000000000000000000000000000000000000092839004604060020a608060020a0319161768010000000000000000929093049190910291909117905561020f565b8051600160c060020a03198116811461014b57600080fd5b919050565b600080600080600080600060e0888a03121561016b57600080fd5b875196506020880151955060408801517fff00000000000000000000000000000000000000000000000000000000000000811681146101a957600080fd5b60608901519095506001608060020a0319811681146101c757600080fd5b6080890151909450600160a060020a0319811681146101e557600080fd5b92506101f360a08901610133565b915061020160c08901610133565b905092959891949750929550565b6101978061021e6000396000f3fe608060405234801561001057600080fd5b50600436106100705760e060020a6000350463262a9dff811461007557806333a8c45a146100915780633b36e9e6146100c157806379caad86146100f1578063897094691461011a5780638ef490ea1461012a578063bb6e486d14610133575b600080fd5b61007e60015481565b6040519081526020015b60405180910390f35b6002546100a890608860020a900460a060020a0281565b604051600160a060020a03199091168152602001610088565b6003546100d890604060020a900460c060020a0281565b604051600160c060020a03199091168152602001610088565b6002546101019060f860020a0281565b604051600160f860020a03199091168152602001610088565b6003546100d89060c060020a0281565b61007e60005481565b600254610148906101009004608060020a0281565b6040516001608060020a0319909116815260200161008856fea2646970667358221220aef479e1cee9573c314186cf6bc557508ccf86c5bec14d8c68c37bddac6d84dc64736f6c634300080e0033a26469706673582212201e96ea9376655725aaa9ec706549cc311dd76e0197d63c30bb393830a90f076264736f6c634300080e0033608060405234801561001057600080fd5b506040516103b53803806103b583398101604081905261002f91610150565b600096909655600194909455600280546001608860020a0319167f0100000000000000000000000000000000000000000000000000000000000000909404610100608860020a031916939093176101007001000000000000000000000000000000009093049290920291909117608860020a60e860020a031916710100000000000000000000000000000000007401000000000000000000000000000000000000000090920491909102179055600380546001608060020a031916780100000000000000000000000000000000000000000000000092839004604060020a608060020a0319161768010000000000000000929093049190910291909117905561020f565b8051600160c060020a03198116811461014b57600080fd5b919050565b600080600080600080600060e0888a03121561016b57600080fd5b875196506020880151955060408801517fff00000000000000000000000000000000000000000000000000000000000000811681146101a957600080fd5b60608901519095506001608060020a0319811681146101c757600080fd5b6080890151909450600160a060020a0319811681146101e557600080fd5b92506101f360a08901610133565b915061020160c08901610133565b905092959891949750929550565b6101978061021e6000396000f3fe608060405234801561001057600080fd5b50600436106100705760e060020a6000350463262a9dff811461007557806333a8c45a146100915780633b36e9e6146100c157806379caad86146100f1578063897094691461011a5780638ef490ea1461012a578063bb6e486d14610133575b600080fd5b61007e60015481565b6040519081526020015b60405180910390f35b6002546100a890608860020a900460a060020a0281565b604051600160a060020a03199091168152602001610088565b6003546100d890604060020a900460c060020a0281565b604051600160c060020a03199091168152602001610088565b6002546101019060f860020a0281565b604051600160f860020a03199091168152602001610088565b6003546100d89060c060020a0281565b61007e60005481565b600254610148906101009004608060020a0281565b6040516001608060020a0319909116815260200161008856fea2646970667358221220aef479e1cee9573c314186cf6bc557508ccf86c5bec14d8c68c37bddac6d84dc64736f6c634300080e0033",
  "immutableReferences": {},
  "source": "// SPDX-License-Identifier: MIT\npragma solidity >=0.4.22 <0.9.0;\nimport \"./ECP.sol\";\nimport \"./VotersData.sol\";\nimport \"./Voter.sol\";\n\ncontract VoterManager {\n    ECP public ecp;\n    VotersData public voters_data;\n\n    // address private ecpAdd;\n    struct VoterConstituency {\n        bytes16 cnic;\n        bytes8 na;\n        bytes8 pa;\n    }\n    \n    uint256 public voters_count;\n    mapping(uint256 => bytes16) public voters_cnics;\n    mapping(bytes16 => uint256) public voters_indexes;\n    mapping(bytes16 => VoterConstituency) public voters;\n\n    uint public reg_voters_count;\n    mapping(bytes32 => Voter) public reg_voters;\n    mapping(bytes16 => bool) public reg_voters_auth;\n    bytes16 public admin_cnic;\n\n    mapping(bytes8 => bytes16[]) public na_voters;\n    mapping(bytes8 => bytes16[]) public pa_voters;\n\n    constructor(address _ecpAdd, address _voters_data){\n        // require(ecpAdd == address(0), \"ECP already set!\");\n        // ecpAdd = address(ecp);\n        ecp = ECP(_ecpAdd);\n        voters_data = VotersData(_voters_data);\n        ecp.setVoterManager(this);\n        \n        admin_cnic =  0x30303030302d303030303030302d3000;\n        // ADMIN \n        VoterConstituency memory adminVoter = VoterConstituency(\n            admin_cnic,\n            0x4e412d3100000000,\n            0x50502d3100000000\n        );\n        addVoterConstituency(adminVoter);\n        registerVoter(\n            0x41646d696e000000000000000000000000000000000000000000000000000000,\n            uint256(50), \n            0x4d, \n            admin_cnic, \n            0x303333332d30303030303030, \n            0x30303030300000000000000000000000\n        );\n        \n        addVoterConstituencies(voters_data.getCnics(), voters_data.getNAList(), voters_data.getPAList());\n    }\n\n    function isAdmin(bytes16 _cnic) public view returns(bool){\n        return _cnic == admin_cnic;\n    }\n    //xxxxxxxxxxxxxxxxxxxxxxxxxxxxxxxxxxxxxxxxxxx VOTER CONSTITUENCY xxxxxxxxxxxxxxxxxxxxxxxxxxxxxxxxxxxxxxxxxxx//\n    \n    function addVoterConstituency(VoterConstituency memory _voter) public {\n        voters_cnics[voters_count] = _voter.cnic;\n        voters_indexes[_voter.cnic] = voters_count;\n        voters[_voter.cnic] = _voter;\n        voters_count++;\n        addNaVoter(_voter.na, _voter.cnic);\n        addPaVoter(_voter.pa, _voter.cnic);\n    }\n    function addVoterConstituencies(VoterConstituency[] memory _voters) public {\n        for (uint i = 0; i < _voters.length; i++) {\n            addVoterConstituency(_voters[i]);\n        }\n    }\n    function addVoterConstituencies(bytes16[] memory _cnics, bytes8[] memory _na_list, bytes8[] memory _pa_list) public {\n        for (uint i = 0; i < _cnics.length; i++) {\n            VoterConstituency memory newVoter = VoterConstituency(_cnics[i], _na_list[i], _pa_list[i]);\n            addVoterConstituency(newVoter);\n        }\n    }\n    function addNaVoter(bytes8 _na_name, bytes16 _cnic) public{\n        na_voters[_na_name].push(_cnic);\n    } \n    function addPaVoter(bytes8 _pa_name, bytes16 _cnic) public{\n        pa_voters[_pa_name].push(_cnic);\n    }\n    function removeVoterConstituency(bytes16 _cnic) public {\n        delete voters[_cnic];\n\n        uint256 remove_index = voters_indexes[_cnic];\n        bytes16 remove_cnic = voters_cnics[remove_index];\n        bytes16 last_cnic = voters_cnics[voters_count-1];\n\n        voters_cnics[remove_index] = voters_cnics[voters_count-1];\n        voters_indexes[last_cnic] = remove_index;\n\n        delete voters_indexes[remove_cnic];\n        delete voters_cnics[voters_count-1];\n\n        voters_count--;\n\n        removeRegVoter(_cnic);\n    }\n    function removeVoterConstituencies(bytes16[] memory _cnics) public {\n        for (uint i = 0; i < _cnics.length; i++) {\n            removeVoterConstituency(_cnics[i]);\n        }\n    }\n    function getVoterConstituency(bytes16 _cnic) public view returns (VoterConstituency memory){\n        return voters[_cnic];\n    }\n    function getVoterConstituency(uint256 _index) public view returns (VoterConstituency memory){\n        return voters[voters_cnics[_index]];\n    }\n    function getNAVoterLength(bytes8 _na_name) public view returns (uint){\n        return na_voters[_na_name].length;\n    }\n    function getPAVoterLength(bytes8 _pa_name) public view returns (uint){\n        return pa_voters[_pa_name].length;\n    }\n\n    //xxxxxxxxxxxxxxxxxxxxxxxxxxxxxxxxxxxx REGISTERED VOTER xxxxxxxxxxxxxxxxxxxxxxxxxxxxxxxxxxxxxxxxxxxxxxxxxxx//\n    function removeRegVoter(bytes16 _cnic) public{\n        reg_voters_auth[_cnic] = false;\n    }\n    function canRegister(bytes16 _cnic ) public view returns(bool){\n        return (voters[_cnic].cnic != 0x00000000000000000000000000000000 && reg_voters_auth[_cnic] != true);\n    } \n    function registerVoter(bytes32 _fullname, uint _age, bytes1 _gender, bytes16 _cnic, bytes12 _contact, bytes16 _password) public returns(bool){\n        require(voters[_cnic].cnic != 0x00000000000000000000000000000000, \"Voter not in the Voting List\");\n        \n        bytes32 hashedId = keccak256(abi.encodePacked(_cnic, _password));\n        reg_voters[hashedId] = new Voter(_fullname, _age, _gender, _cnic, _contact, voters[_cnic].na, voters[_cnic].pa);\n        reg_voters_auth[_cnic] = true;\n        \n        return (reg_voters[hashedId].cnic() == _cnic);\n    }\n    function getRegVoter(bytes16 _cnic, bytes16 _password) public view returns (Voter voter){\n        // additional check that voter in the voters constituency list\n        bytes16 voter_cnic = voters[_cnic].cnic;\n        return reg_voters[keccak256(abi.encodePacked(voter_cnic, _password))];\n    }\n    function signinVoter(bytes16 _cnic, bytes16 _password) public view returns(Voter voter){\n        // additional check that voter in the voters constituency list\n        bytes16 voter_cnic = voters[_cnic].cnic;\n        return reg_voters[keccak256(abi.encodePacked(voter_cnic, _password))];\n    }\n    function changePassword(bytes16 _cnic, bytes16 _prev_password, bytes16 _new_password) public returns(bool){\n        require(address(reg_voters[keccak256(abi.encodePacked(_cnic, _prev_password))]) != address(0), \"Invalid Previous Password!\");\n        reg_voters[keccak256(abi.encodePacked(_cnic, _new_password))] = reg_voters[keccak256(abi.encodePacked(_cnic, _prev_password))];\n        delete reg_voters[keccak256(abi.encodePacked(_cnic, _prev_password))];\n        return (address(reg_voters[keccak256(abi.encodePacked(_cnic, _prev_password))]) == address(0)\n                && address(reg_voters[keccak256(abi.encodePacked(_cnic, _new_password))]) != address(0));\n    }\n}\n",
  "sourcePath": "/Users/apple/Computer/Programming/Learning/react-native/FYP/Website/decentralized-voting-system-h3-fyp2-fix/truffle/contracts/VoterManager.sol",
  "compiler": {
    "name": "solc",
    "version": "0.8.14+commit.80d49f37.Emscripten.clang"
  },
  "schemaVersion": "3.4.13",
  "updatedAt": "2023-06-12T05:49:12.221Z",
  "networkType": "ethereum",
  "devdoc": {
    "kind": "dev",
    "methods": {},
    "version": 1
  },
  "userdoc": {
    "kind": "user",
    "methods": {},
    "version": 1
  }
}